:020000040800F2
:1000000088070020CD010008950A00081D0A000895
:10001000590A000839040008C91C00080000000043
:10002000000000000000000000000000E7120008CF
:10003000C1040008000000005D0B000871140008F6
:10004000E7010008E7010008E7010008E7010008F0
:10005000E7010008E7010008E7010008E7010008E0
:10006000E7010008E7010008E7010008E7010008D0
:10007000E7010008E7010008E7010008E7010008C0
:10008000E7010008E7010008E7010008E7010008B0
:10009000E7010008E7010008E7010008C3040008C1
:1000A000E7010008E7010008E7010008E701000890
:1000B000111500089115000895160008E7010008C1
:1000C000E7010008E7010008E7010008E701000870
:1000D000E7010008E7010008E7010008E701000860
:1000E000E7010008E7010008E7010008E701000850
:1000F000E7010008E7010008E7010008E701000840
:10010000E7010008E7010008E7010008E70100082F
:10011000E7010008E7010008E7010008E70100081F
:10012000E7010008E7010008E7010008E70100080F
:1001300000F002F800F03AF80AA090E8000C8244BF
:100140008344AAF10107DA4501D100F02FF8AFF29C
:10015000090EBAE80F0013F0010F18BFFB1A43F0A5
:1001600001031847D8250000F8250000103A24BFE5
:1001700078C878C1FAD8520724BF30C830C144BF0C
:1001800004680C607047000000230024002500264E
:10019000103A28BF78C1FBD8520728BF30C148BFEA
:1001A0000B6070471FB51FBD10B510BD00F012F9F0
:1001B0001146FFF7F7FF01F06BFF00F030F903B4D1
:1001C000FFF7F2FF03BC01F00DFE00000948804775
:1001D00009480047FEE7FEE7FEE7FEE7FEE7FEE729
:1001E000FEE7FEE7FEE7FEE704480549054A064B41
:1001F00070470000B1140008310100088801002098
:10020000880700208803002088030020704710B56D
:10021000431C02E010F8011B71B18107FAD14FF0C5
:10022000013202C88C1A8C4314EAC211F9D0C01AE8
:100230000A0603D0C01E10BDC01A10BD0A0401D0AA
:10024000801E10BD0902FCD0401E10BD032A40F2E2
:10025000308010F0030C00F0158011F8013BBCF168
:10026000020F624498BF11F801CB00F8013B38BF80
:1002700011F8013BA2F1040298BF00F801CB38BF8E
:1002800000F8013B11F0030300F07280083AC0F05F
:10029000088051F8043B083A51F804CBA0E8081054
:1002A000F5E7121D5CBF51F8043B40F8043BAFF387
:1002B0000080D20724BF11F8013B11F801CB48BFE1
:1002C00011F8012B24BF00F8013B00F801CB48BF17
:1002D00000F8012B70474FF000020429C0F0128093
:1002E00010F0030C00F01B80CCF1040CBCF1020FE9
:1002F00018BF00F8012BA8BF20F8022BA1EB0C01BE
:1003000000F00DB85FEAC17C24BF00F8012B00F8B3
:10031000012B48BF00F8012B70474FF0000200B5D9
:10032000134694469646203922BFA0E80C50A0E818
:100330000C50B1F12001BFF4F7AF090728BFA0E8C6
:100340000C5048BF0CC05DF804EB890028BF40F892
:10035000042B08BF704748BF20F8022B11F0804FD4
:1003600018BF00F8012B70477047704770477047FF
:1003700010B5203AC0F00B80B1E81850203AA0E840
:100380001850B1E81850A0E81850BFF4F5AF5FEA74
:10039000027C24BFB1E81850A0E8185044BF18C927
:1003A00018C0BDE810405FEA827C24BF51F8043BCE
:1003B00040F8043B08BF7047D20728BF31F8023B22
:1003C00048BF11F8012B28BF20F8023B48BF00F8B6
:1003D000012B7047754600F02BF8AE4605006946C4
:1003E000534620F00700854618B020B5FFF7FCFE05
:1003F000BDE820404FF000064FF000074FF0000826
:100400004FF0000B21F00701AC46ACE8C009ACE8A6
:10041000C009ACE8C009ACE8C0098D46704710B50A
:100420000446AFF300802046BDE81040FFF7C7BE8A
:10043000004870472401002000BFFEE710B50024EB
:1004400040211C4800F0DEF904468021194800F0E4
:10045000D9F904EB4000C4B20121174800F0D2F9E9
:1004600004EB8000C4B2072C21D2DFE804F020178F
:10047000041C0E1209004FF484701049088017E024
:100480004FF4C0700D49088012E081200B490880AC
:100490000EE040F601000949088009E04FF40160D0
:1004A0000649088004E018200449088000E000BFE5
:1004B00000BF10BD00080140000C0140202C01408D
:1004C000704710B54FF4807000F002F810BD0000C6
:1004D00001490860704700001404014000212349CD
:1004E0008279002A3AD00A46126803689A430B467A
:1004F0001A600A1D126803689A430B1D1A6002797C
:1005000011440A6803681A430A60184A08321268DC
:1005100003689A43154B08331A601A1D1268036862
:100520009A43124B0C331A604279102A0ED11A1FCB
:10053000126803681A430D4B08331A601A1D1268BB
:1005400003681A43094B0C331A600DE007494279DE
:1005500011440A6803681A430A6005E002791144ED
:100560000A6803689A430A6070470000000401406B
:1005700010B50B48416801208847094841680220AE
:10058000884707484168032088474FF48051054851
:1005900000F043F900200449086000F06BFF10BD33
:1005A00034000020000C0140B401224208B50121B2
:1005B0001C2000F0F5FA0121084600F0F1FA18209D
:1005C0008DF8030003208DF802004FF46040ADF871
:1005D000000069460F4800F041F84FF4E060ADF8C4
:1005E000000069460C4800F039F848208DF80300F7
:1005F00003208DF80200C020ADF8000069460648CF
:1006000000F02CF80120ADF800006946014800F028
:1006100025F808BD000C01400008014030B500225B
:100620008B071C0F0F2303FA04F20B4B8C1053F8AB
:1006300024309343084C8D1044F8253023468C1009
:1006400053F824308C07240F00FA04F42343024C9F
:100650008D1044F8253030BD080001402DE9F041EF
:10066000024600250026002000230024002791F8E0
:1006700003C00CF00F0591F803C00CF0100CBCF196
:10068000000F03D091F802C04CEA050591F800C0B4
:10069000BCF1000F31D0146800202BE04FF0010CAA
:1006A0000CFA00F3B1F800C00CEA03069E4220D118
:1006B00083004FF00F0C0CFA03F7BC4305FA03FC60
:1006C0004CEA040491F803C0BCF1280F06D14FF0A6
:1006D000010C0CFA00FCC2F814C00AE091F803C047
:1006E000BCF1480F05D14FF0010C0CFA00FCC2F828
:1006F00010C0401C0828D1D31460B1F800C0BCF170
:10070000FF0F34DD546800202EE000F1080C4FF09C
:10071000010808FA0CF3B1F800C00CEA03069E4287
:1007200021D183004FF00F0C0CFA03F7BC4305FAFC
:1007300003FC4CEA040491F803C0BCF1280F05D176
:1007400000F1080C08FA0CF8C2F8148091F803C004
:10075000BCF1480F07D100F1080C4FF0010808FA6E
:100760000CF8C2F81080401C0828CED35460BDE8B5
:10077000F0810000F0B50A46002300240021002586
:1007800000F00046B6F1004F02D11D4EF16901E0C4
:100790001B4E7168C0F3034583B200F44016B6F5F2
:1007A000401F08D121F07061154E766826F0706602
:1007B000134F7E6012E000F48016B6F5801F06D15C
:1007C000032606FA05F4A14341F0706106E0460DE8
:1007D000360103FA06F6B14341F0706122B1460DCD
:1007E000360103FA06F6314300F00046B6F1004F39
:1007F00002D1034EF16101E0014E7160F0BD0000D5
:10080000000001400246002093680B400BB101201C
:1008100000E00020704741617047016170470000AF
:100820000020524908605248D0F8040130B15148C4
:10083000007820F040004F49087008E04D480078EB
:1008400040F040004B4908700120484908604A4880
:10085000006830B94748007820F0800045490870AA
:100860000BE04448007840F08000424908700120C5
:100870003E4908600020414908604148006848B18D
:100880003C48007840F020003A49087000203D497B
:10089000087008E03748007820F0200035490870DB
:1008A00001203249086036481838006830B93148AC
:1008B000007820F010002F4908700BE0002032492A
:1008C00008602C48007840F010002A490870012088
:1008D000264908602A4818380068C0B92A480068C4
:1008E00032281ADB26482038006830B921480078C1
:1008F00020F002001F4908700FE01E48007840F009
:1009000002001C49087001201849086005E01948D8
:10091000007820F002001749087019482438006850
:1009200030B11448007820F008001249087008E03F
:100930001048007840F008000E49087001200B496B
:1009400008600F481C38006830B10A48007820F071
:1009500004000849087008E00648007840F00400E8
:10096000044908700120014908607047B40122421F
:10097000000021423C000020208121423000002064
:100980002C0121423D0000202C00002010B51F4901
:100990000968486980471D480068016857208847F2
:1009A0001A480068042102691948904717480068EE
:1009B000016818480078884714480068416800209A
:1009C0008847124800680168002088470F4800687F
:1009D0000168002088470D490968086A80470B486C
:1009E000006801687520884708490968886A804757
:1009F0000949088205490968486A8047044606484B
:100A0000028A2146401CFFF721FC10BD0000002097
:100A1000040000203C0000200201002000BFFEE78F
:100A200008B50121102000F0BBF84FF40050ADF8DC
:100A3000000010208DF8030003208DF802006946A5
:100A40000448FFF70BFE4FF400510248FFF7E3FEA6
:100A500008BD00000010014000BFFEE770B503466E
:100A6000FF24FF2509E011F8010B80EA0402074882
:100A7000805C80EA05040648855C181EA3F1010627
:100A8000F3B2F0D145EA042070BD000078210008DF
:100A9000782200087047000070B5002100230F2263
:100AA000C47804B3154C246804F4E064C4F5E0642D
:100AB000210AC1F10403CA40447804FA03F184789E
:100AC0001440214309010E4C0678A155047804F026
:100AD0001F050124AC4005786D11AD0005F1E0253E
:100AE000C5F8004109E0047804F01F050124AC407A
:100AF000044D0678761145F8264070BD0CED00E0F7
:100B000000E400E080E100E002490143024A116094
:100B1000704700000000FA050CED00E010B5024639
:100B200000200C4B186820F00300104318600A4B9B
:100B30001B6843F00403084C2360012901D130BF36
:100B400000E020BF044B1B6823F00403024C236029
:100B500010BD00000070004010ED00E07047000084
:100B600029B1064AD2690243044BDA6104E0034A20
:100B7000D2698243014BDA617047000000100240E5
:100B800029B1064A12690243044B1A6104E0034A80
:100B900012698243014B1A61704700000010024045
:100BA00029B1064A92690243044B9A6104E0034A60
:100BB00092698243014B9A61704700000010024025
:100BC00029B1064AD2680243044BDA6004E0034AC2
:100BD000D2688243014BDA60704700000010024087
:100BE00070B5044612252B46224680210F2000F0C6
:100BF000F9F970BD10B5164800680078572815D16E
:100C00001348006840780F2810D11121104800685F
:100C1000FFF761FB0F48FFF7E3FF0F210D48401C72
:100C2000FFF759FB00200B49087010E000F0D4FBDF
:100C300009480088401C0849088008460088B0F52B
:100C4000FA6F04DD0020054908700349088010BDD3
:100C50004400002002010020080000204000002085
:100C600010B548F69F41012000F0E6FCFFF79EFC1E
:100C700000F054FD10BD000010B51248007898B186
:100C8000114800688078022804D100210F4800F044
:100C9000C8FD15E00C4800688078032810D10121B8
:100CA0000A4800F0BEFD0BE00948006820B10021B1
:100CB000064800F0B6FD03E00121044800F0B1FD54
:100CC00010BD00004000002044000020000400404F
:100CD0002C01214238B504460020009034208DF8C4
:100CE00000008DF801400221684600F063FA38BD2B
:100CF00070B5002408E0601C84B226490819294612
:100D000000F058FA601984B22248055D002DF2D136
:100D1000002141F2062000F0A5F900214FF4905087
:100D200000F0A0F9012141F2092000F09BF92A21ED
:100D300041F2082000F096F9002141F20A2000F06B
:100D400091F9002141F20D2000F08CF9012141F2CE
:100D50000E2000F087F9002141F20F2000F082F907
:100D6000002141F2102000F07DF9002141F2112014
:100D700000F078F9202141F2122000F073F90021EF
:100D800041F2132000F06EF9002141F2142000F02E
:100D900069F970BD7823000808B500200090332061
:100DA0008DF800000121684600F004FA032168462E
:100DB00000F0C2F89DF8010000F00F0008BD00002F
:100DC00008B501210C20FFF7EBFE10208DF8030081
:100DD00001208DF802000003ADF8000069460948C3
:100DE000FFF73CFC48208DF803000220ADF800001E
:100DF00069460548FFF732FC4FF480510148FFF780
:100E00000AFD08BD00080140000C01401CB500F0BF
:100E1000EFF94FF47A7001F025F81449086880471B
:100E2000134908688047124948688047104881681C
:100E3000104888470E49C86880470D4841697F209F
:100E400088470B48016A0620884700BF0849C869DF
:100E500080470628FAD103200021CDE9001004487C
:100E60000B460A46446A0F20A0471CBD2000002004
:100E70008000002080C3C90138B5044600200090DE
:100E800020208DF8000000208DF801008DF8020070
:100E90008DF803000421684600F08CF909212046F2
:100EA00000F04AF838BD1CB50446002000900190BF
:100EB00002208DF8000001208DF8010000208DF83F
:100EC0000200200E8DF80300200C8DF80400200A8B
:100ED0008DF80500E0B28DF806000721684600F0A5
:100EE00069F91CBD70B504460025002600F03CF9E8
:100EF0001048006820F400400E490860772001F097
:100F000079F8FF2001F076F805462E4604E0FF2030
:100F100001F070F804F8010B281EA5F10101CDB213
:100F2000F5D10448006840F40040024908603046AA
:100F300070BD00000C08014070B504460D4600F07D
:100F400013F90D48006820F400400B490860442064
:100F500001F050F804E0FF2001F04CF82070641C10
:100F6000281EA5F10101CDB2F5D10348006840F477
:100F700000400149086070BD0C08014010B50A48E6
:100F8000006840F4805008490860142000F090FF89
:100F90000548006820F4805003490860084600684E
:100FA00040F40040086010BD0C08014008B5002066
:100FB000009015208DF8000002208DF8010002211C
:100FC000684600F0F7F808BD08B50020009015202D
:100FD0008DF8000002208DF801000221684600F023
:100FE000E9F808BD2DE9F0410746884615461C463C
:100FF0002646FFF7E9FF1248006820F40040104938
:101000000860662000F0F6FF701CC6B2204600F0B3
:10101000F1FF03E015F8010B00F0ECFF201EA4F136
:101020000101CCB2F6D10648006840F40040044902
:10103000086032464146384600F076F8BDE8F08157
:101040000C08014010B50446214642F2030000F0AE
:1010500022F810BD10B50446214642F2012000F0EE
:1010600001F810BD7CB504460D46002000900190AB
:1010700011208DF8000020128DF8010001208DF85C
:101080000200E0B28DF803008DF804500521684697
:1010900000F090F87CBD7CB505460C460020009021
:1010A000019011208DF8000028128DF80100032016
:1010B0008DF80200E8B28DF80300200C8DF80400D2
:1010C000200A8DF80500E0B28DF806000721684679
:1010D00000F070F87CBD2DE9FC4705460F4614462C
:1010E0001E46DDE90A89002000900190FFF75EFFAF
:1010F000FFF76AFF32208DF800008DF801508DF85F
:101100000270E0B200128DF80300E0B28DF8040026
:101110008DF805608DF806808DF8079008216846E7
:1011200000F048F8BDE8FC877CB506460D4614463D
:1011300000200090019031208DF800008DF80160B2
:101140008DF80250E0B200128DF80300E0B28DF885
:10115000040000208DF805008DF806000721684680
:1011600000F028F87CBD000070B5002500BF1048D5
:10117000006820F400400E490860442000F03AFF67
:10118000FF2000F037FF04460948006840F40040A3
:10119000074908602846691C8DB2B0F57A7F02D1F4
:1011A000FFF734FE01E0FF2CE1D100BF70BD00006D
:1011B0000C08014070B504460D46FFF7D5FF0B48FB
:1011C000006820F400400949086003E0207800F03E
:1011D00011FF641C281EA5F10101CDB2F6D1034810
:1011E000006840F400400149086070BD0C080140EF
:1011F00008B501210820FFF7D3FC4FF48050ADF86B
:10120000000010208DF8030003208DF802006946CD
:101210000448FFF723FA4FF480510248FFF7FBFA26
:1012200008BD0000000C014021B1028842F04002DC
:10123000028004E002884FF6BF731A4002807047B4
:1012400010B504461148844208D101218014FFF7EB
:10125000B7FC0021A014FFF7B3FC16E00C48844251
:1012600008D101210014FFF78BFC00212014FFF7A7
:1012700087FC0AE00748844207D10121C013FFF729
:101280007FFC0021E013FFF77BFC10BD0030014024
:1012900000380040003C00400246002013890B400B
:1012A0000BB1012000E00020704710B50022028839
:1012B00002F441520B884C8823438C882343CC880A
:1012C00023430C8923434C8923438C892343CC89B2
:1012D00023431A430280838B4FF2FF74234083839E
:1012E0000B8A038210BD7047004870474C000020F5
:1012F00010B500F001F810BD0CB500200190009071
:101300003348006840F480303149086000BF3048FD
:10131000006800F4003000900198401C0190009893
:1013200018B90198B0F5A06FF1D12948006800F410
:10133000003010B10120009001E0002000900098E2
:10134000012843D12348006840F01000214908607B
:101350000846006820F0030008600846006840F076
:10136000020008601A484068194948600846406809
:1013700048600846406840F480604860084640681D
:1013800020F47C1048600846406840F4E81048604B
:101390000846006840F08070086000BF0C48006894
:1013A00000F000700028F9D00948406820F00300E0
:1013B000074948600846406840F00200486000BFA6
:1013C0000348406800F00C000828F9D10CBD00006B
:1013D00000100240002002401CB51748FFF74CFDEA
:1013E0001548C07800F0100028B31448FFF77AFDC4
:1013F00004467CB1114812490860084600688078AC
:10140000022804D0084600688078032802D1012011
:101410000C4908700620FFF75DFC00BFFFF7BCFC1D
:101420000628FBD1032000210B460A46CDE9001017
:101430000F20FFF750FE1CBDB8000020C1000020A7
:101440004400002040000020042808D14FF0E02193
:10145000096941F004014FF0E022116107E04FF00B
:10146000E021096921F004014FF0E0221161704789
:101470007047000010B501210807FFF771FB01213B
:101480000846FFF74BFB00F013F8FFF7BFFCFFF730
:10149000E7FB06484FF47A71026801209047034841
:1014A000012102680220904710BD00003400002096
:1014B00010B51348006840F0010011490860084663
:1014C0004068104908400E494860084600680E49C7
:1014D00008400B4908600846006820F48020086036
:1014E0000846406820F4FE0048604FF41F00886002
:1014F000FFF7FEFE4FF000600449086010BD0000D9
:10150000001002400000FFF8FFFFF6FE08ED00E0CB
:1015100010B50121880700F09FF940B1012188072B
:1015200000F07CF902480068401C0149086010BDC9
:10153000300000207FB505460C4601210846FFF724
:101540000FFBADF80850ADF804400020ADF80A00DC
:10155000ADF8060001A94FF0804000F0A7FA012283
:101560001146900700F089F91C208DF80000022038
:101570008DF801008DF8020001208DF80300684607
:10158000FFF78AFA0121880700F04BF97FBD0000C0
:1015900010B50121214800F05FF900283DD001215C
:1015A0001E4800F03BF91E480078401C1C4908709A
:1015B0001C48006878B11C48007860B9084600787B
:1015C000142808DB01201949087000201849086018
:1015D00001201549087015480078012806D11448E3
:1015E0000068401C12490860FEF728FF1048006898
:1015F0006E2812D300200F4908800A48006860B99D
:1016000007480078142808DB0020054908700749BE
:101610000870074908600449087010BD00040040C4
:101620003D000020140121427D0000207C000020AC
:1016300078000020202C01407FB505460C46012192
:101640000220FFF78DFAADF80850ADF804400020F5
:10165000ADF80A00ADF8060001A90D4800F026FA21
:10166000012211460A4800F008F91D208DF80000FB
:1016700002208DF8010001208DF802008DF8030092
:101680006846FFF709FA0021014800F0CAF87FBD5B
:101690000004004010B50121064800F0DDF840B11B
:1016A0000121044800F0BAF803480068401C0249D0
:1016B000086010BD000800402C0000207FB50546E2
:1016C0000C4601210420FFF74BFAADF80850ADF8A5
:1016D00004400020ADF80A00ADF8060001A90E484C
:1016E00000F0E4F9012211460B4800F0C6F81E2074
:1016F0008DF8000002208DF8010003208DF8020013
:1017000001208DF803006846FFF7C6F90121024861
:1017100000F087F87FBD00000008004000B58BB0E6
:101720000121C802FFF73CFA4FF4FA60ADF824003B
:101730000220ADF820000020ADF826004020ADF8D2
:10174000220000208DF8280008A92B4800F0AEF9EF
:101750007020ADF810000020ADF81200ADF81400B4
:10176000ADF81800ADF81A00ADF81C00ADF81E0079
:101770000520ADF8160004A91F4800F087F80821DD
:101780001D4800F0CFF80520ADF8160004A91A484E
:1017900000F0D2F80821184800F020F90520ADF833
:1017A000160004A9144800F027F90821124800F097
:1017B00073F94FF40060ADF800004010ADF802007E
:1017C0008010ADF804008020ADF806000020ADF8D0
:1017D00008004FF48040ADF80C006946064800F060
:1017E0000DF80121044800F01CF80121024800F026
:1017F00024F80BB000BD0000002C01400A884B8883
:101800001A438B881A43CB881A430B891A434B8996
:101810001A438B891A43A0F844207047CA430282B6
:10182000704721B1028842F00102028004E0028880
:101830004FF6FE731A400280704731B1B0F8442071
:1018400042F40042A0F8442005E0B0F84420C2F37E
:101850000E02A0F84420704730B502460020002355
:101860000024158A05EA0103958905EA010413B1EC
:101870000CB1012000E0002030BD1AB183890B4378
:10188000838102E083898B438381704770B5002494
:1018900000220023058C4FF6FE7635400584028C2D
:1018A0008388048B4FF68F752C40B51E2C400D8815
:1018B0002C43751E2A400D892A434D882A43144D16
:1018C000A8420BD0134DA84208D0134DA84205D012
:1018D000124DA84202D0124DA84213D14FF6F7750F
:1018E0002A404D892A434FF6FB752A408D882A43AA
:1018F0004FF6FF652B404FF6FF552B408D892B434C
:10190000CD892B4383800483CD888586028470BD76
:10191000002C0140003401400040014000440140DF
:10192000004801400A460021018B4FF6F773194029
:10193000114301837047000070B50024002200238A
:10194000058C4FF6EF7635400584028C8388048B36
:1019500048F6FF752C404FF6FF452C400D884FF69A
:10196000FF7606EA05252C434FF6DF752A400D89E0
:1019700006EA05152A434D8806EA05152A43154D42
:10198000A84202D0144DA8421DD14FF67F752A40BF
:101990004D894FF6FF7606EA05152A434FF6BF75C7
:1019A0002A408D8806EA05152A434FF6FF352B405D
:1019B0004FF2FF752B408D8906EA85052B43CD89B3
:1019C00006EA85052B4383800483CD88058702843E
:1019D00070BD0000002C0140003401400A46002187
:1019E000018B4FF2FF7319404FF6FF7303EA022396
:1019F000194301837047000070B5002400220023C2
:101A0000058C4FF6FF6635400584028C8388848BF5
:101A10004FF68F752C404FF6FC752C400D882C43EB
:101A20004FF6FF552A400D894FF6FF7606EA052549
:101A30002A434D8806EA05252A43154DA84202D0BF
:101A4000144DA8421DD14FF2FF752A404D894FF623
:101A5000FF7606EA05252A434FF6FF352A408D8892
:101A600006EA05252A434EF6FF752B404DF6FF7515
:101A70002B408D8906EA05152B43CD8906EA05150D
:101A80002B4383808483CD888587028470BD0000CA
:101A9000002C0140003401400A460021818B4FF6A2
:101AA000F7731940114381837047000000220288B8
:101AB0001D4B98420ED01D4B98420BD0B0F1804F79
:101AC00008D01B4B984205D01A4B984202D01A4BB3
:101AD000984204D14FF68F731A404B881A43174B24
:101AE000984207D0164B984204D04FF6FF431A4055
:101AF000CB881A4302808B8883850B8803850A4B29
:101B000098420BD0094B984208D00E4B984205D012
:101B10000D4B984202D00D4B984201D10B7A0386AF
:101B20000123838270470000002C014000340140F3
:101B30000004004000080040000C0040001000407D
:101B400000140040004001400044014000480140B2
:101B500008B50B490978891CC8B20A49FEF77EFF0F
:101B600000900848801C064909680844BDF8001028
:101B7000018003480068801C0149086008BD00001E
:101B8000480000201401002010B508480088801C7F
:101B900081B2074800F028F904490A680968491C1D
:101BA000024B19600249891C885410BD480000206E
:101BB00014010020002004490860772003490870C0
:101BC0007620487070470000480000201401002073
:101BD00070B505460C460749074A12688818224620
:101BE0002946FEF733FB0448006820440249086098
:101BF00070BD0000160100204800002070B50446AA
:101C00002046FEF704FB05460849094A1268881871
:101C10002A462146FEF71AFB2046FEF7F8FA044949
:101C2000096808440249086070BD000016010020E0
:101C30004800002001B50648064909680844BDF877
:101C40000010018003480068801C0249086008BD3C
:101C500016010020480000200549064A1268114478
:101C6000086004490968091D024A116070470000B4
:101C7000160100204800002004490A680968491C30
:101C8000024B196002498854704700004800002048
:101C9000160100207521044802680068401C024BB0
:101CA0001860024881547047480000201601002047
:101CB000004870471401002002480088801C80B250
:101CC000704700004800002000BFFEE708B5012172
:101CD0000020FEF7A3FC01210420FEF761FF202075
:101CE000ADF8000048208DF8030003208DF80200B5
:101CF00069461448FEF7B2FC4FF40060ADF80000EE
:101D000069461048FEF7AAFC1020ADF800006946AD
:101D10000C48FEF7A3FC0820ADF80000694609480E
:101D2000FEF79CFC0420ADF8000069460548FEF76C
:101D300095FC0220ADF8000069460248FEF78EFCD3
:101D400008BD0000000801401FB501210846FEF74C
:101D500027FF01210820FEF723FF08210120FEF7BD
:101D60005DFC4FF40070ADF8000010208DF803000A
:101D700003208DF8020069461848FEF76FFC4FF407
:101D80008070ADF8000048208DF8030003208DF826
:101D9000020069461148FEF761FC4FF48070029022
:101DA00000208DF80C0008208DF80D0001208DF822
:101DB0000E0002A8FEF792FB17208DF80400002009
:101DC0008DF8050001208DF806008DF8070001A8A8
:101DD000FEF762FE0120024908601FBD000C0140B1
:101DE000A481214200BF704730B502460B46002057
:101DF00010E012F8014B6040002109E000F00104FE
:101E00001CB18C2484EA600000E040104C1CE1B25C
:101E10000829F3DB1C1EA3F10105ABB2E9D130BDEB
:101E200010B56FF00400FFF70FFB0A4800680A497D
:101E3000B0FBF1F0094908700846007800EB40015A
:101E4000C1EBC0104FF6FF7101EAC00004490880E1
:101E500010BD00000C00002000127A00B400002029
:101E6000B60000200146114A12884A434FF0E02391
:101E70005A6100229A611A46126942F001021A61FF
:101E800000BF4FF0E022106900F001021AB100F427
:101E90008032002AF5D04FF0E022126922F00102D0
:101EA0004FF0E0231A6100229A617047B6000020CB
:101EB0000146114A12784A434FF0E0235A6100224A
:101EC0009A611A46126942F001021A6100BF4FF08E
:101ED000E022106900F001021AB100F48032002AF9
:101EE000F5D04FF0E022126922F001024FF0E0231A
:101EF0001A6100229A617047B400002000B587B0D3
:101F000001210C20FEF74CFE01210846FEF748FE99
:101F100001213448FEF72EFC01210846FEF72AFC79
:101F200001208DF81A0018208DF81B000820ADF84C
:101F3000180006A92C48FEF791FB2020ADF81800E8
:101F400006A92948FEF78AFB20212748FEF765FCF1
:101F50001020ADF8180006A92348FEF77FFB1021DA
:101F60002148FEF75AFC10208DF81B00C002ADF886
:101F7000180006A91D48FEF771FB4FF400411B48ED
:101F8000FEF74BFC1A48FFF75BF901210803FEF747
:101F900007FE00211648FFF747F90020ADF80400BE
:101FA0004FF48270ADF806000020ADF80A00ADF8DD
:101FB0000C00ADF808004FF40070ADF80E002820BA
:101FC000ADF810000020ADF812000720ADF81400A5
:101FD00001A90748FFF769F901210548FFF724F92E
:101FE00007B000BD00023000000C014000080140B5
:101FF0000030014070B504460026002507E0681C4B
:1020000080B205464FF6FF71884200D105E00221FB
:102010000F48FFF741F90028F1D000BF47F6FF75E0
:102020000B48848107E0681C80B205464FF6FF71BB
:10203000884200D105E001210548FFF72DF900286D
:10204000F1D000BF02488089C6B2304670BD0000A2
:102050000030014070B504460D4616464FF400416D
:102060000A48FEF7D8FB05E02878FFF7C3FF207089
:10207000641C6D1C301EA6F101018EB2F4D14FF428
:1020800000410248FEF7C9FB70BD00000008014096
:102090004FF4A060FEF738FDFFF7C2FEFEF7C0FC6C
:1020A000FFF714FEFFF750FEFEF7DAFDFEF7AEFE77
:1020B00012484FF47A710268012090470F480121BD
:1020C000026802209047FFF70FF90D49086014E0FD
:1020D000FEF7A6FBFEF75AFCFEF78CFDFEF7CCFDE3
:1020E00008480068B0F5167F04DD00200549086047
:1020F000FEF73EFA0520FFF7B5FEE9E734000020C1
:10210000000000203000002070B504460D46012C70
:102110000AD105EB85010122C2EB410188B241F6EB
:102120001F41FFF707FA0BE0022C09D105EB8501EF
:102130000122C2EB410188B241F61F41FFF7BEFA0E
:1021400070BD000010B50446012C03D100218007AA
:10215000FFF767FB022C03D100210548FFF761FB65
:10216000032C03D100210348FFF75BFB10BD0000E7
:10217000000800400004004000C1814001C08041CF
:1021800001C0804100C1814001C0804100C1814047
:1021900000C1814001C0804101C0804100C1814037
:1021A00000C1814001C0804100C1814001C0804127
:1021B00001C0804100C1814001C0804100C1814017
:1021C00000C1814001C0804100C1814001C0804107
:1021D00001C0804100C1814000C1814001C08041F7
:1021E00001C0804100C1814001C0804100C18140E7
:1021F00000C1814001C0804101C0804100C18140D7
:1022000000C1814001C0804100C1814001C08041C6
:1022100001C0804100C1814000C1814001C08041B6
:1022200001C0804100C1814001C0804100C18140A6
:1022300000C1814001C0804100C1814001C0804196
:1022400001C0804100C1814001C0804100C1814086
:1022500000C1814001C0804101C0804100C1814076
:1022600000C1814001C0804100C1814001C0804166
:1022700001C0804100C1814000C0C101C30302C24E
:10228000C60607C705C5C404CC0C0DCD0FCFCE0EB6
:102290000ACACB0BC90908C8D81819D91BDBDA1A26
:1022A0001EDEDF1FDD1D1CDC14D4D515D71716D696
:1022B000D21213D311D1D010F03031F133F3F23206
:1022C00036F6F737F53534F43CFCFD3DFF3F3EFE76
:1022D000FA3A3BFB39F9F83828E8E929EB2B2AEAE6
:1022E000EE2E2FEF2DEDEC2CE42425E527E7E62656
:1022F00022E2E323E12120E0A06061A163A3A262C6
:1023000066A6A767A56564A46CACAD6DAF6F6EAE35
:10231000AA6A6BAB69A9A86878B8B979BB7B7ABAA5
:10232000BE7E7FBF7DBDBC7CB47475B577B7B67615
:1023300072B2B373B17170B0509091519353529285
:1023400096565797559594549C5C5D9D5F9F9E5EF5
:102350005A9A9B5B99595898884849894B8B8A4A65
:102360004E8E8F4F8D4D4C8C4484854587474686D5
:102370008242438341818040080421714B0000DC8C
:10238000950805A62221F0415B2608E22F1CBB0A16
:10239000A8942808058767E2581A075B08E1D072FD
:1023A000D88AB85B7D080511EC9E28231B6D08E2D6
:1023B0004F8AB2A92914130805D12E716A514C2CE9
:1023C00008E5802742A469B07F0805AA812ABD4597
:1023D000E8A808EAE4F024C99FCC3C080508F50504
:1023E0000427629808EA6B6284A1F94AE20805E9C9
:1023F00077054F84EE3508E243C38DFBAD542508C5
:102400000514065E39362F4508EA0C1C74D011FC01
:10241000320805DA38BA0E3CE78B08EAB009E6FF65
:1024200094BBA90805D71129FEDC71D508EA7F8382
:10243000A7609062180805847F6AD191C65208EAA5
:102440002AD87B8E4A9F910805BDAA9D16180615AD
:1024500008E255AD2D0A141F5D0805D3E07C39CF85
:1024600001F008EF3A91726A03BB9608E7836DA406
:1024700092FC13A708EFF8FDCF62076F1E08E74C28
:10248000EA4A754FD6CF08E2F611E4260D4DC6088C
:1024900005FBBFE80789C35108EF8227043F96A8D0
:1024A0005808E741293C752A031C08EFAF599836B4
:1024B000AA0F0608E6F693412DEC0E990805291996
:1024C00090E5AA364008E7FB68107D775DC008E715
:1024D000CBB4DDCE9054BE08E7728AD602F4DDCCD0
:1024E00008E76A210B0286EC1508E77B7C3D6B81CF
:1024F00003D008EF7D6136947CA0DF08EFCC853BEC
:10250000DAE05C1C08E7E375BB39224BA808EFF959
:10251000CEE05EEB1DCB08E7BDE270D5AB4E3F08C9
:10252000E7B78D20686B095208EFA11B90CD98008A
:102530006308EF54675D9C11FC4508E7D49BC8977E
:10254000BE8A0708EF528D906373D52A08EF03BC4B
:102550006E1C76BE4A08E7C2ED67BA5E662108EFD8
:10256000E73F87BEE07A6D08E7C970931D64F56C9C
:1025700008EFF5280834B3B62C08EF3A0AEC0FDB65
:1025800056CA08EF39A06EED79D02408E76C0BAF7E
:10259000A94E40B508E9B9AFBF2550D13708059E0F
:1025A000DBDE3F94E96B08ECC505AA57DC8A5E08C0
:1025B0000570DA8484DDCA900702810001C9C380F6
:1025C0000813200021000000000611000200520044
:1025D0000511000103200611010200013808110253
:1025E0000400000000000D111009000814000F3154
:1025F000000000000A1111060001B42B00000010B9
:1026000011120C00040108FFFF200200000000303E
:102610001011120C0C3000080480000000000000B3
:10262000001011120C180000000000000000000053
:1026300000001011120C2400000000000000000037
:1026400000000009111205300000000000101120E8
:102650000C000200070F424001C9C38000050511AC
:1026600020010C761011200C1801000803800010C6
:102670002000E8004B1011200C2406D3A007FF0215
:102680000000002386D407112003300098A0051114
:10269000200135E007112003381110100811200423
:1026A00040280CA4230E11200A450300AA0100FFB4
:1026B000060018400611200250840A061120025418
:1026C0000307051120015700091120055B4004058F
:1026D00078201011210C007E641BBA580BDDCED679
:1026E000E6F6001011210C0C030315F03F007E6488
:1026F0001BBA580B1011210C18DDCED6E6F60003DC
:102700000315F03F000811220400087E005D0B1144
:1027100023070034040B040770031011300C000071
:1027200000000000000000000000000C1140080044
:10273000400AAAAA444420FE000000005C270008CA
:1027400000000020B80000006C01000814280008F8
:10275000B8000020D006000088010008000000003A
:10276000000000000000000000A24A040000000079
:10277000000000000102030406070809FD1E00080E
:10278000F51F0008552000080000000000000000B0
:102790000921000845210008000000000000000099
:1027A0000000000000000000791C0008351C000833
:1027B000591C0008FD1B0008D11B0008B51B0008B0
:1027C000951C0008511B0008891B0008B11C00085B
:1027D000B91C00080000000000000000C10D000846
:1027E0007D0F0008A70E0008F10C00084510000836
:1027F000551000080D0E0008990D0008D50C0008B2
:10280000D710000829110008E50F0008E50E0008A0
:0428100000000000C4
:04000005080001CD21
:00000001FF
