:020000040800F2
:10000000A80B002011020008AD0800080107000835
:1000100071080008BD040008C320000800000000AB
:100020000000000000000000000000006312000853
:10003000C10400080000000035090008D1130008C1
:100040002B0200082B0200082B0200082B020008DC
:100050002B0200082B0200082B0200082B020008CC
:100060002B0200082B0200082B0200082B020008BC
:100070002B0200082B0200082B0200082B020008AC
:100080002B0200082B0200082B0200082B0200089C
:100090002B0200082B0200082B0200082B0200088C
:1000A0002B0200082B0200082B0200082B0200087C
:1000B000FD1400082B0200082B0200082B02000888
:1000C0002B0200082B0200082B0200082B0200085C
:1000D0002B0200082B020008AD1C0008CD1D0008F3
:1000E0002B0200082B0200082B0200082B0200083C
:1000F0002B0200082B0200082B0200082B0200082C
:100100002B0200082B0200082B0200082B0200081B
:100110002B0200082B0200082B0200082B0200080B
:100120002B0200082B0200082B0200082B020008FB
:1001300000F002F800F05CF80AA090E8000C82449D
:100140008344AAF10107DA4501D100F051F8AFF27A
:10015000090EBAE80F0013F0010F18BFFB1A43F0A5
:1001600001031847682D0000882D00000A444FF055
:10017000000C10F8013B13F0070408BF10F8014B06
:100180001D1108BF10F8015B641E05D010F8016B4B
:10019000641E01F8016BF9D113F0080F1EBF10F8AF
:1001A000014BAD1C0C1B09D16D1E58BF01F801CBD2
:1001B000FAD505E014F8016B01F8016B6D1EF9D555
:1001C0009142D6D37047000000230024002500266A
:1001D000103A28BF78C1FBD8520728BF30C148BFAA
:1001E0000B6070471FB500F04AF81FBD10B510BD79
:1001F00000F031F91146FFF7F5FF02F0C1F900F008
:100200004FF903B4FFF7F2FF03BC01F05CFF0000FD
:100210000948804709480047FEE7FEE7FEE7FEE79A
:10022000FEE7FEE7FEE7FEE7FEE7FEE704480549D6
:10023000054A064B70470000D5130008310100083D
:10024000A8050020A80B0020A8070020A807002070
:10025000704700000B4910B5A1F17C020A4CC2E9BD
:100260003712372106E000EB104342F82130074BEC
:1002700000FB03400B1EA1F10101F4DC10BD0120C5
:10028000E8E70000DC040020E119D666CD0D01008E
:1002900010B5431C02E010F8011B71B18107FAD1BF
:1002A0004FF0013202C88C1A8C4314EAC211F9D003
:1002B000C01A0A0603D0C01E10BDC01A10BD0A0421
:1002C00001D0801E10BD0902FCD0401E10BD032AC3
:1002D00040F2308010F0030C00F0158011F8013B63
:1002E000BCF1020F624498BF11F801CB00F8013B4A
:1002F00038BF11F8013BA2F1040298BF00F801CB0E
:1003000038BF00F8013B11F0030300F07280083A97
:10031000C0F0088051F8043B083A51F804CBA0E83B
:100320000810F5E7121D5CBF51F8043B40F8043B90
:10033000AFF30080D20724BF11F8013B11F801CBC5
:1003400048BF11F8012B24BF00F8013B00F801CB96
:1003500048BF00F8012B70474FF000020429C0F09D
:10036000128010F0030C00F01B80CCF1040CBCF1E7
:10037000020F18BF00F8012BA8BF20F8022BA1EB39
:100380000C0100F00DB85FEAC17C24BF00F8012B1E
:1003900000F8012B48BF00F8012B70474FF0000216
:1003A00000B5134694469646203922BFA0E80C506B
:1003B000A0E80C50B1F12001BFF4F7AF090728BF46
:1003C000A0E80C5048BF0CC05DF804EB890028BFC2
:1003D00040F8042B08BF704748BF20F8022B11F0EB
:1003E000804F18BF00F8012B704770477047704767
:1003F000704710B5203AC0F00B80B1E81850203A91
:10040000A0E81850B1E81850A0E81850BFF4F5AFB4
:100410005FEA027C24BFB1E81850A0E8185044BF3E
:1004200018C918C0BDE810405FEA827C24BF51F8AB
:10043000043B40F8043B08BF7047D20728BF31F89F
:10044000023B48BF11F8012B28BF20F8023B48BFF0
:1004500000F8012B7047754600F02CF8AE460500F9
:100460006946534620F00700854618B020B5FFF7CF
:10047000DDFEBDE820404FF000064FF000074FF0D2
:1004800000084FF0000B21F00701AC46ACE8C009B2
:10049000ACE8C009ACE8C009ACE8C0098D467047BB
:1004A00010B50446AFF300802046BDE81040FFF7CA
:1004B000A8BE0000004870474405002000BFFEE7CA
:1004C00070472DE9F0410246002500260020002358
:1004D0000024002791F803C00CF00F0591F803C029
:1004E0000CF0100CBCF1000F03D091F802C04CEAE4
:1004F000050591F800C0BCF1000F31D01468002050
:100500002BE04FF0010C0CFA00F3B1F800C00CEA3C
:1005100003069E4220D183004FF00F0C0CFA03F724
:10052000BC4305FA03FC4CEA040491F803C0BCF197
:10053000280F06D14FF0010C0CFA00FCC2F814C0D1
:100540000AE091F803C0BCF1480F05D14FF0010C4F
:100550000CFA00FCC2F810C0401C0828D1D314606B
:10056000B1F800C0BCF1FF0F34DD546800202EE06C
:1005700000F1080C4FF0010808FA0CF3B1F800C0C4
:100580000CEA03069E4221D183004FF00F0C0CFAB7
:1005900003F7BC4305FA03FC4CEA040491F803C0DA
:1005A000BCF1280F05D100F1080C08FA0CF8C2F8CC
:1005B000148091F803C0BCF1480F07D100F1080C7A
:1005C0004FF0010808FA0CF8C2F81080401C082807
:1005D000CED35460BDE8F081F0B50A460023002474
:1005E0000021002500F00046B6F1004F02D11D4E5B
:1005F000F16901E01B4E7168C0F3034583B200F45A
:100600004016B6F5401F08D121F07061154E76688E
:1006100026F07066134F7E6012E000F48016B6F587
:10062000801F06D1032606FA05F4A14341F070614C
:1006300006E0460D360103FA06F6B14341F070615B
:1006400022B1460D360103FA06F6314300F00046AA
:10065000B6F1004F02D1034EF16101E0014E71602D
:10066000F0BD00000000014002460020D3680B40AE
:100670000BB1012000E0002070474161704701612B
:100680007047000010B51B49096848698047194840
:1006900000680168582088471648006804210269EC
:1006A00015489047144A907A124A12681168884790
:1006B00010480068062102690F48001D90470D4947
:1006C0000968086A80470B480068016875208847F8
:1006D00008490968886A80470849488205490968C5
:1006E000486A804704460548428A2146401CFFF775
:1006F000EEFD10BD0000002074020020500200201A
:1007000000BFFEE710B586B004460121480400F0A2
:100710005FF9294801F0C2FB0420ADF81400032062
:100720008DF8160018208DF8170005A92348FFF74B
:10073000C8FE0820ADF8140004208DF8170005A9A4
:100740001E48FFF7BEFE26208DF8000002208DF81F
:1007500001008DF8020001208DF80300684600F0CA
:10076000A7F801940020ADF80800ADF80A00ADF834
:100770000C00ADF810000C20ADF80E0001A90E48D9
:1007800001F02AFC002240F227710B4801F0FEFB29
:100790004021094801F05EFB012240F22551064844
:1007A00001F0F4FB2021044801F054FB0121024830
:1007B00001F068FB06B010BD004400400008014095
:1007C00008B50121082000F023F94FF45040ADF89E
:1007D000000010208DF8030003208DF80200694608
:1007E0000E48FFF76EFE01200D4908600D49C1F863
:1007F000B0010B49091F0860091D086008490C3940
:1008000008600749091F0860091D086004490C3980
:1008100008600349091F086008BD0000000C014082
:10082000BC8121420080214208B50121082000F04E
:10083000EFF84FF45040ADF8000003208DF80200AF
:1008400010208DF8030069460648FFF73AFE0120A4
:10085000054908600549C1F8B0010349091F08604E
:1008600008BD0000000C0140BC81214200802142F3
:1008700000BFFEE770B50346FF24FF2509E011F82D
:10088000010B80EA04020748805C80EA0504064800
:10089000855C181EA3F10106F3B2F0D145EA0420ED
:1008A00070BD000008290008082A000870470000F1
:1008B00070B5002100230F22C47804B3154C2468BE
:1008C00004F4E064C4F5E064210AC1F10403CA4001
:1008D000447804FA03F184781440214309010E4C52
:1008E0000678A155047804F01F050124AC40057872
:1008F0006D11AD0005F1E025C5F8004109E004786F
:1009000004F01F050124AC40044D0678761145F82B
:10091000264070BD0CED00E000E400E080E100E066
:1009200002490143024A1160704700000000FA05C5
:100930000CED00E07047000008B50121142000F024
:1009400067F840F62100ADF8000010208DF8030094
:1009500003208DF8020069460848FFF7B2FD4FF406
:100960000050ADF8000048208DF8030003208DF8FA
:10097000020069460248FFF7A4FD08BD00080140D7
:100980000010014010B504460D48006898B90D48A4
:100990000078401C0B4908700B494869804709489A
:1009A0000078A04205DB0849886880470020074995
:1009B0000860012010BD00200249087000BFF9E75F
:1009C00034012242A4010020640100208001214260
:1009D00029B1064AD2690243044BDA6104E0034AB2
:1009E000D2698243014BDA61704700000010024077
:1009F00029B1064A12690243044B1A6104E0034A12
:100A000012698243014B1A617047000000100240D6
:100A100029B1064A92690243044B9A6104E0034AF1
:100A200092698243014B9A617047000000100240B6
:100A300029B1064AD2680243044BDA6004E0034A53
:100A4000D2688243014BDA60704700000010024018
:100A500030B500210022002400232D4D6D6805F0E3
:100A60000C0121B1042905D0082923D105E0294D25
:100A7000056022E0274D05601FE0254D6D6805F4F7
:100A80007012234D6D6805F48034022505EB924207
:100A90001CB9214D554305600BE01D4D6D6805F4F3
:100AA00000351DB11C4D5543056002E0194D5543FD
:100AB000056002E0174D056000BF00BF144D6D6872
:100AC00005F0F0010909154D6B5C0568DD404560D6
:100AD0000F4D6D6805F4E061090A104D6B5C4568C7
:100AE000DD4085600A4D6D6805F46051C90A0B4D03
:100AF0006B5C4568DD40C560054D6D6805F440419F
:100B0000890B074D6B5CC568B5FBF3F5056130BD1E
:100B10000010024000127A0000093D00BA010020D6
:100B2000CA01002070B5044614252B4622468021B8
:100B30000C2000F015FA70BD10B53348006800783D
:100B400066283AD1304800684078652835D12E486B
:100B500000688078582830D12B480068C0780C286D
:100B60002BD129480068C07B642826D10E21264855
:100B7000006801F0AAFA044623480068807BA0427E
:100B800004D040212148FFF7E7FB10BD0020204999
:100B9000088001201F4908701F48FFF7C3FF10217C
:100BA0001D48401CFFF7D8FB00201B49087010218E
:100BB00015480068FFF7D0FB23E013480068007871
:100BC00099280ED1104800684078332809D100F0E8
:100BD00025F810210C480068FFF7BEFB01F054FD1A
:100BE0000FE000F0B7FB0A480088401C0849088065
:100BF00008460088B0F5FA6F03DD0020088005493B
:100C0000087000BFC1E70000F00000200F020020C4
:100C1000D8000020D60000205002002010B5074860
:100C20000068807906490870084602780348016820
:100C300008310448FFF74BFB10BD0000F000002016
:100C400004000020D001002038B5044600200090A8
:100C500034208DF800008DF801400221684600F034
:100C600067FA38BD70B5002408E0601C84B22649DC
:100C70000819294600F05CFA601984B22248055D23
:100C8000002DF2D1002141F2062000F0A9F9002147
:100C90004FF4905000F0A4F9012141F2092000F036
:100CA0009FF92A2141F2082000F09AF9002141F22F
:100CB0000A2000F095F9002141F20D2000F090F992
:100CC000012141F20E2000F08BF9002141F20F20AA
:100CD00000F086F9002141F2102000F081F9002196
:100CE00041F2112000F07CF9202141F2122000F0A5
:100CF00077F9002141F2132000F072F9002141F24E
:100D0000142000F06DF970BD082B000808B5002014
:100D1000009033208DF800000121684600F008FAA9
:100D20000321684600F0C2F89DF8010000F00F00B2
:100D300008BD000008B501210C20FFF769FE102056
:100D40008DF8030001208DF802004003ADF800008B
:100D500069460948FFF7B5FB48208DF803001020CD
:100D6000ADF8000069460548FFF7ABFB4FF40051B2
:100D70000148FFF782FC08BD000C0140000801405B
:100D80001CB500F0F3F94FF47A7001F0DDF9144965
:100D900008688047134908688047124948688047B7
:100DA00010488168104888470E49C86880470D4838
:100DB00041697F2088470B48016A0620884700BFA9
:100DC0000849C86980470628FAD103200021CDE9E7
:100DD000001004480B460A46446A0C20A0471CBD7C
:100DE000580100202401002080C3C90138B5044601
:100DF0000020009020208DF8000000208DF80100D8
:100E00008DF802008DF803000421684600F090F987
:100E10000921204600F04AF838BD1CB504460020E0
:100E20000090019002208DF8000001208DF8010053
:100E300000208DF80200200E8DF80300200C8DF8A4
:100E40000400200A8DF80500E0B28DF806000721A5
:100E5000684600F06DF91CBD70B5044600250026FB
:100E600000F040F91048006820F400400E49086086
:100E7000772001F031FAFF2001F02EFA05462E46C8
:100E800004E0FF2001F028FA04F8010B281EA5F168
:100E90000101CDB2F5D10448006840F40040024998
:100EA0000860304670BD00000C08014070B5044673
:100EB0000D4600F017F90D48006820F400400B497A
:100EC0000860442001F008FA04E0FF2001F004FA71
:100ED0002070641C281EA5F10101CDB2F5D1034894
:100EE000006840F400400149086070BD0C080140F2
:100EF00010B50B48006840F4005009490860142000
:100F000001F048F90648006820F4005004490860E0
:100F10000448006840F400400249086010BD000029
:100F20000C0C01400C08014008B500200090152071
:100F30008DF8000002208DF801000221684600F0C3
:100F4000F7F808BD08B50020009015208DF80000C6
:100F500002208DF801000221684600F0E9F808BD82
:100F60002DE9F0410746884615461C462646FFF700
:100F7000E9FF1248006820F400401049086066202C
:100F800001F0AAF9701CC6B2204601F0A5F903E0F1
:100F900015F8010B01F0A0F9201EA4F10101CCB25B
:100FA000F6D10648006840F4004004490860324623
:100FB0004146384600F076F8BDE8F0810C08014063
:100FC00010B50446214642F2030000F022F810BD9D
:100FD00010B50446214642F2012000F001F810BD90
:100FE0007CB504460D4600200090019011208DF83C
:100FF000000020128DF8010001208DF80200E0B2FF
:101000008DF803008DF804500521684600F090F833
:101010007CBD7CB505460C46002000900190112057
:101020008DF8000028128DF8010003208DF80200D1
:10103000E8B28DF80300200C8DF80400200A8DF82A
:101040000500E0B28DF806000721684600F070F850
:101050007CBD2DE9FC4705460F4614461E46DDE9DA
:101060000A89002000900190FFF75EFFFFF76AFFFA
:1010700032208DF800008DF801508DF80270E0B23A
:1010800000128DF80300E0B28DF804008DF80560C1
:101090008DF806808DF807900821684600F048F822
:1010A000BDE8FC877CB506460D461446002000903E
:1010B000019031208DF800008DF801608DF802500C
:1010C000E0B200128DF80300E0B28DF804000020B9
:1010D0008DF805008DF806000721684600F028F815
:1010E0007CBD000070B5002500BF1048006820F4EA
:1010F00000400E490860442001F0EEF8FF2001F0A6
:10110000EBF804460948006840F4004007490860CD
:101110002846691C8DB2B0F57A7F02D1FFF730FE08
:1011200001E0FF2CE1D100BF70BD00000C080140C0
:1011300070B504460D46FFF7D5FF0B48006820F454
:1011400000400949086003E0207801F0C5F8641CFC
:10115000281EA5F10101CDB2F6D10348006840F484
:1011600000400149086070BD0C08014008B501212C
:101170000820FFF74DFC4FF48050ADF80000102020
:101180008DF8030003208DF8020069460448FFF73C
:1011900098F94FF480510248FFF76FFA08BD00003C
:1011A000000C014021B1028842F04002028004E0BC
:1011B00002884FF6BF731A400280704710B504468C
:1011C0001148844208D101218014FFF731FC00212D
:1011D000A014FFF72DFC16E00C48844208D1012131
:1011E0000014FFF705FC00212014FFF701FC0AE0C2
:1011F0000748844207D10121C013FFF7F9FB002102
:10120000E013FFF7F5FB10BD00300140003800404F
:10121000003C00400246002013890B400BB1012026
:1012200000E00020704710B50022028802F441520D
:101230000B884C8823438C882343CC8823430C8918
:1012400023434C8923438C892343CC8923431A436A
:101250000280838B4FF2FF74234083830B8A0382C7
:1012600010BD704700487047F800002010B500F02E
:1012700001F810BD0CB500200190009033480068C3
:1012800040F480303149086000BF3048006800F405
:10129000003000900198401C0190009818B9019806
:1012A000B0F5A06FF1D12948006800F4003010B10A
:1012B0000120009001E0002000900098012843D117
:1012C0002348006840F01000214908600846006883
:1012D00020F0030008600846006840F00200086043
:1012E0001A484068194948600846406848600846FE
:1012F000406840F4806048600846406820F47C10F4
:1013000048600846406840F4E810486008460068B5
:1013100040F08070086000BF0C48006800F000706A
:101320000028F9D00948406820F0030007494860C8
:101330000846406840F00200486000BF034840682B
:1013400000F00C000828F9D10CBD0000001002408C
:10135000002002401CB51148FFF748FD0F48C07837
:1013600000F01000C0B10E48FFF776FD044614B13E
:101370000B480C4908600620FFF766FC00BFFFF72A
:10138000C5FC0628FBD1032000210B460A46CDE907
:1013900000100C20FFF75DFE1CBD000006020020BF
:1013A0000F020020F0000020042808D14FF0E021B7
:1013B000096941F004014FF0E022116107E04FF0AC
:1013C000E021096921F004014FF0E022116170472A
:1013D0007047000010B51348006840F00100114943
:1013E000086008464068104908400E4948600846B1
:1013F00000680E4908400B4908600846006820F460
:10140000802008600846406820F4FE0048604FF4E1
:101410001F008860FFF72AFF4FF000600449086052
:1014200010BD0000001002400000FFF8FFFFF6FEB4
:1014300008ED00E000B585B001210520FFF7E8FACE
:1014400001211348FFF7C8F84FF40070ADF8100001
:1014500018208DF8130003208DF8120004A90D4800
:10146000FFF72FF8684600F071FA7020ADF8000021
:101470000120ADF802000020ADF806000220ADF812
:1014800008006946044800F0BFF905B000BD00003F
:101490004000160000080140002C014000B585B056
:1014A00001210520FFF7B4FA01211148FFF794F854
:1014B0004FF48060ADF8100018208DF81300032061
:1014C0008DF8120004A90B48FEF7FBFF7020ADF861
:1014D00000000120ADF802000020ADF80600022057
:1014E000ADF808006946044800F0E0F905B000BD19
:1014F0004000160000080140002C014010B50121F9
:10150000880700F01AF9002855D00121880700F05B
:10151000F6F829480078401C274908702748808839
:1015200028B126488088401E2449888002E0002097
:10153000234908802348808828B122488088401E9B
:101540002049888002E000201F4908801F488088C9
:1015500028B11E488088401E1C49888002E0002077
:101560001B4908801B48808840B101201A49087037
:1015700018488088401E174988800FE01648007878
:10158000012807D115480088401C14490880002014
:101590001149087000200E49091F088010488088F2
:1015A00028B10F488088401E0D49888003E0002044
:1015B0000349091F088010BDA6010020C6000020B5
:1015C0003C2C0140CE0000203404004016000020D6
:1015D000380800401E000020AA010020A8010020B9
:1015E0004600002000B585B001210520FFF710FA64
:1015F0004020ADF8100018208DF8130003208DF85E
:10160000120004A90A48FEF75CFF7020ADF8000044
:101610000120ADF802000020ADF806000220ADF870
:1016200008006946034800F0A3F805B000BD0000BB
:10163000000801400004004000B585B001210920E8
:10164000FFF7E6F94020ADF8100018208DF81300E0
:1016500003208DF8120004A90A48FEF732FF70201B
:10166000ADF800000120ADF802000020ADF8060042
:101670000220ADF808006946034800F079F805B08B
:1016800000BD0000000C01400008004000B585B01E
:1016900001210920FFF7BCF98020ADF810001820C7
:1016A0008DF8130003208DF8120004A90A48FEF7F4
:1016B00008FF7020ADF800000120ADF80200002006
:1016C000ADF806000220ADF808006946034800F0B6
:1016D0009BF805B000BD0000000C01400008004070
:1016E00021B1028842F08002028004E002884FF6B5
:1016F0007F731A4002807047CA4302827047CA4310
:101700000282704721B1028842F00102028004E0A7
:1017100002884FF6FE731A400280704731B1B0F86C
:10172000442042F40042A0F8442005E0B0F84420F0
:10173000C2F30E02A0F84420704730B502460020E4
:1017400000230024158A05EA0103958905EA0104AE
:1017500013B10CB1012000E0002030BD1AB1838923
:101760000B43838102E083898B43838170470000B0
:1017700070B5002400220023058C4FF6FE7635401C
:101780000584028C8388048B4FF68F752C40B51E20
:101790002C400D882C43751E2A400D892A434D8804
:1017A0002A43144DA8420BD0134DA84208D0134D24
:1017B000A84205D0124DA84202D0124DA84213D122
:1017C0004FF6F7752A404D892A434FF6FB752A409C
:1017D0008D882A434FF6FF652B404FF6FF552B406F
:1017E0008D892B43CD892B4383800483CD888586C7
:1017F000028470BD002C01400034014000400140D3
:10180000004401400048014070B50024002200233C
:10181000058C4FF6EF7635400584028C8388048B67
:1018200048F6FF752C404FF6FF452C400D884FF6CB
:10183000FF7606EA05252C434FF6DF752A400D8911
:1018400006EA05152A434D8806EA05152A43154D73
:10185000A84202D0144DA8421DD14FF67F752A40F0
:101860004D894FF6FF7606EA05152A434FF6BF75F8
:101870002A408D8806EA05152A434FF6FF352B408E
:101880004FF2FF752B408D8906EA85052B43CD89E4
:1018900006EA85052B4383800483CD88058702846F
:1018A00070BD0000002C01400034014070B50024E0
:1018B00000220023058C4FF6FF6635400584028C1C
:1018C0008388848B4FF68F752C404FF6FC752C4027
:1018D0000D882C434FF6FF552A400D894FF6FF76B1
:1018E00006EA05252A434D8806EA05252A43154DB3
:1018F000A84202D0144DA8421DD14FF2FF752A40D4
:101900004D894FF6FF7606EA05252A434FF6FF3547
:101910002A408D8806EA05252A434EF6FF752B409E
:101920004DF6FF752B408D8906EA05152B43CD89B1
:1019300006EA05152B4383808483CD88858702843E
:1019400070BD0000002C01400034014000210180E6
:1019500041808180C180018141818181C181704745
:10196000002202881D4B98420ED01D4B98420BD08E
:10197000B0F1804F08D01B4B984205D01A4B9842CB
:1019800002D01A4B984204D14FF68F731A404B88FD
:101990001A43174B984207D0164B984204D04FF683
:1019A000FF431A40CB881A4302808B8883850B88BB
:1019B00003850A4B98420BD0094B984208D00E4B36
:1019C000984205D00D4B984202D00D4B984201D160
:1019D0000B7A03860123838270470000002C0140AC
:1019E000003401400004004000080040000C0040AA
:1019F000001000400014004000400140004401403D
:101A00000048014008B50B490978891CC8B20A4949
:101A1000FEF730FF00900848801C0649096808441A
:101A2000BDF80010018003480068801C014908606F
:101A300008BD0000F40000206402002010B5084832
:101A40000088801C81B2074800F03FFB04490A6807
:101A50000968491C024B19600249891C885410BD51
:101A6000F400002064020020002004490860772070
:101A7000034908707620487070470000F400002089
:101A80006402002070B505460C460749074A1268F3
:101A9000881822462946FEF71AFC044800682044AC
:101AA0000249086070BD000066020020F4000020BA
:101AB00070B504462046FEF7EBFB05460849094A87
:101AC000126888182A462146FEF701FC2046FEF7D8
:101AD000DFFB0449096808440249086070BD000042
:101AE00066020020F400002001B506480649096896
:101AF0000844BDF80010018003480068801C0249BA
:101B0000086008BD66020020F40000200549064A6E
:101B100012681144086004490968091D024A1160ED
:101B20007047000066020020F400002004490A68A3
:101B30000968491C024B196002498854704700002B
:101B4000F400002066020020752104480268006845
:101B5000401C024B1860024881547047F40000207A
:101B60006602002000487047640200200248008896
:101B7000801C80B270470000F40000203EB505468E
:101B80000C460121C802FEF743FFADF80450ADF842
:101B900000400020ADF80600ADF802008DF8080006
:101BA00069460A48FFF7DCFEFFF744FCFFF776FCC6
:101BB00001210648FFF794FD01210448FFF7A2FD2B
:101BC00001210248FFF7AAFD3EBD0000002C0140A4
:101BD0007FB505460C4601210846FEF7F9FEADF833
:101BE0000850ADF804400020ADF80A0001A94FF0FC
:101BF0008040FFF7B5FE01218807FFF77DFD012238
:101C000011469007FFF7AAFD1C208DF80000022066
:101C10008DF8010000208DF8020001208DF80300EE
:101C20006846FEF745FE01218807FFF76BFD7FBD83
:101C30003EB505460C4601210220FEF7C9FEADF86F
:101C40000450ADF800400020ADF80600ADF80200E9
:101C500069460548FFF784FEFFF7C4FC01210248EE
:101C6000FFF750FD3EBD0000000400403EB50546B4
:101C70000C4601210420FEF7ABFEADF80450ADF890
:101C800000400020ADF80600ADF8020069460648A5
:101C9000FFF766FEFFF7D0FCFFF7F8FC01210248D2
:101CA000FFF730FD3EBD00000008004010B540F2D7
:101CB00027713F4800F040F9D8B13E4802780078DB
:101CC000401C3C4B18703C48815C394800F0F5F9E9
:101CD00040F22771364800F0C6F836480078374998
:101CE0000978884205D1002240F22771304800F07F
:101CF0004DF940F225512E4800F01EF9002855D02C
:101D000040F225512A4800F0AEF8294800F0D0F9F9
:101D1000C1B22B4802780078401C294B1870294822
:101D2000815418460078012800DC10BD2448007852
:101D3000401E2449085C222838D121480078801EA2
:101D4000085C112832D100201D4908701D48007818
:101D500066282BD11B484078052827D11948C07820
:101D600019490870174800794870164840798870FA
:101D700014488079C8701348007A08711148417A74
:101D8000114841710F48817A0F4881710D48C17A1D
:101D90000D48C1710B48017B0B4801720948417B1A
:101DA000094841720748807B0749887200BFBCE739
:101DB00000440040AB0100207F020020AC01002065
:101DC000AD010020810300207402002010B540F214
:101DD00025511D4800F0B0F810B31B4800F068F919
:101DE000C4B21A48008800F40040C8B917480088F7
:101DF00000F4804060B10A2C03D000201349088011
:101E000020E01248008840F400401049088019E0A2
:101E10000D2C06D10D48008840F480400B49088005
:101E200010E00A480088C0F30D0009490C54074827
:101E30000088401C0549088008460088C72801DD45
:101E40000020088010BD000000480040B8010020BC
:101E50009503002001F40072B2F5007F00D100BFAD
:101E6000CA430280704710B50022002340F66A146E
:101E7000A14200D100BF0A1201249440A3B2DC4366
:101E8000048010BD21B1828942F40052828104E0B5
:101E900082894DF6FF731A408281704710B504465F
:101EA0002048844209D101218803FEF7C1FD0021A9
:101EB0004FF48040FEF7BCFD32E01B48844209D15C
:101EC00001214804FEF794FD00214FF40030FEF795
:101ED0008FFD25E01548844209D101218804FEF7D1
:101EE00087FD00214FF48020FEF782FD18E01048A6
:101EF000844209D10121C804FEF77AFD00214FF484
:101F00000020FEF775FD0BE00A48844208D101214C
:101F10000805FEF76DFD00214FF48010FEF768FD07
:101F200010BD00000038014000440040004800405F
:101F3000004C00400050004070B5024600240023D1
:101F40000025002040F66A16B14200D100BFC1F35F
:101F5000421501F01F03012606FA03F3012D02D1F9
:101F60009689334006E0022D02D1168A334001E003
:101F7000968A33400C12012606FA04F4168834407F
:101F800013B10CB1012000E0002070BDF0B5034694
:101F9000002400260025002040F66A17B94200D12F
:101FA00000BF1846C1F3421401F01F06012707FACB
:101FB00006F5012C01D10C3004E0022C01D11030C7
:101FC00000E014301AB107682F43076002E0076889
:101FD000AF430760F0BD00002DE9F04786B005462D
:101FE0000E460024A24600BFA1460027B08900B1DA
:101FF00000BF2F462C8A4CF6FF700440F088044343
:102000002C82AC894EF6F3100440B0883189084325
:10201000718908430443AC81AC8A4FF6FF40044009
:10202000B0890443AC8201A8FEF712FD1F48874225
:1020300002D1DDF810A001E0DDF80CA0A88900F4C1
:10204000004040B10AEBCA0000EB0A1031684900B9
:10205000B0FBF1F807E00AEBCA0000EB0A103168A8
:102060008900B0FBF1F86420B8FBF0F0040120090E
:10207000642101FB1089A88900F4004040B132209E
:1020800000EBC900B0FBF1F000F00700044308E0EA
:10209000322000EB09106421B0FBF1F000F00F00DA
:1020A00004432C8106B0BDE8F087000000380140F1
:1020B00001468888C0F308007047C1F30802828097
:1020C000704700BFFEE700BF704730B502460B46C1
:1020D000002010E012F8014B6040002109E000F000
:1020E00001041CB18C2484EA600000E040104C1C08
:1020F000E1B20829F3DB1C1EA3F10105ABB2E9D163
:1021000030BD000010B56FF00400FFF74DF90A482C
:1021100000680A49B0FBF1F00949087008460078E8
:1021200000EB4001C1EBC0104FF6FF7101EAC000A7
:102130000449088010BD0000DC00002000127A0075
:10214000AE010020B00100200146114A12884A4326
:102150004FF0E0235A6100229A611A46126942F058
:1021600001021A6100BF4FF0E022106900F0010285
:102170001AB100F48032002AF5D04FF0E022126943
:1021800022F001024FF0E0231A6100229A617047A9
:10219000B00100200146114A12784A434FF0E02373
:1021A0005A6100229A611A46126942F001021A61CC
:1021B00000BF4FF0E022106900F001021AB100F4F4
:1021C0008032002AF5D04FF0E022126922F001029D
:1021D0004FF0E0231A6100229A617047AE0100209F
:1021E00000B587B001210C20FEF712FC0121084642
:1021F000FEF70EFC01213448FEF7EEF901210846F6
:10220000FEF7EAF901208DF81A0018208DF81B005E
:102210000820ADF8180006A92C48FEF752F9202036
:10222000ADF8180006A92948FEF74BF920212748E8
:10223000FEF725FA1020ADF8180006A92348FEF78E
:1022400040F910212148FEF71AFA10208DF81B00E2
:10225000C002ADF8180006A91D48FEF732F94FF488
:1022600000411B48FEF70BFA1A48FEF7A7FF0121B1
:102270000803FEF7CDFB00211648FEF793FF002070
:10228000ADF804004FF48270ADF806000020ADF800
:102290000A00ADF80C00ADF808004FF40070ADF87E
:1022A0000E002820ADF810000020ADF81200072025
:1022B000ADF8140001A90748FEF7B5FF0121054854
:1022C000FEF770FF07B000BD00023000000C0140B7
:1022D000000801400030014070B50446002600258A
:1022E00007E0681C80B205464FF6FF71884200D1B6
:1022F00005E002210F48FEF78DFF0028F1D000BF56
:1023000047F6FF750B48848107E0681C80B20546DC
:102310004FF6FF71884200D105E001210548FEF724
:1023200079FF0028F1D000BF02488089C6B230464C
:1023300070BD00000030014070B504460D461646E1
:102340004FF400410A48FEF798F905E02878FFF7B6
:10235000C3FF2070641C6D1C301EA6F101018EB2FB
:10236000F4D14FF400410248FEF789F970BD000036
:102370000008014010B50021032000F019F810BD3D
:1023800010B50121032000F013F810BD10B54FF473
:1023900000410648FEF768F908B1012000E000207E
:1023A00004462146032000F003F810BD000C014054
:1023B00070B505460C464FF450413448FEF75FF9BE
:1023C000082D60D2DFE805F05F04111E2B3845525E
:1023D0002CB14FF480412D48FEF74FF904E04FF443
:1023E00080412A48FEF74BF94EE02CB14FF4805162
:1023F0002648FEF742F904E04FF480512348FEF7E7
:102400003EF941E02CB14FF400412048FEF735F988
:1024100004E04FF400411D48FEF731F934E02CB1DF
:102420004FF4A0411948FEF728F904E04FF4A04109
:102430001648FEF724F927E02CB14FF44041134829
:10244000FEF71BF904E04FF440411048FEF717F97E
:102450001AE02CB14FF410410C48FEF70EF904E0DD
:102460004FF410410948FEF70AF90DE02CB14FF482
:1024700050410648FEF701F904E04FF4504103488B
:10248000FEF7FDF800E000BF00BF70BD000C01408A
:1024900010B500210220FFF78BFF10BD10B54FF4DF
:1024A00080510648FEF7E0F808B1012000E0002066
:1024B000044621460220FFF77BFF10BD000C0140BF
:1024C00010B501210520FFF773FF10BD10B54FF4C3
:1024D00040410648FEF7C8F808B1012000E000209E
:1024E000044621460520FFF763FF10BD000C0140A4
:1024F00010B500210120FFF75BFF10BD10B54FF4B0
:1025000080410648FEF7B0F808B1012000E0002045
:10251000044621460120FFF74BFF10BD000C01408F
:1025200010B500210720FFF743FF10BD10B50121B2
:102530000720FFF73DFF10BD10B54FF4504106488E
:10254000FEF792F808B1012000E000200446214681
:102550000720FFF72DFF10BD000C014010B54FF410
:10256000A0410648FEF780F808B1012000E00020F5
:10257000044621460420FFF71BFF10BD000C01405C
:10258000FFF7C0FD4FF4A060FEF7CAF9FEF7D4F9DB
:102590004FF47A70FFF7D8FD4FF4E13000F06EF998
:1025A0004FF4E130FEF7AEF84FF47A70FFF7CCFD50
:1025B000FEF706F94FF47A70FFF7C6FD01202C49AB
:1025C000086000202B49C1F8BC012B4908602A494A
:1025D000083108602649143108602849C1F8AC0167
:1025E0004FF47A70FFF7B0FDFEF7CAFBFEF73AFE34
:1025F00023490860472140F2E730FFF7BFFA47213F
:1026000040F2E730FFF714FB472140F2E730FFF7D5
:102610002DFB472140F2E730FFF7DAFA7120FDF792
:1026200019FE24E0FEF72EF8FEF786FA1E20FEF7CC
:10263000A9F918B16420FFF787FD18E01148007868
:1026400058B100200C490C31086001200949C1F83B
:10265000B00109490831086009E0002006490C3141
:1026600008600449C1F8B001034908310860D9E79E
:102670008001214200802142B0812142000021429C
:1026800000000020D600002010B5724B187800EB37
:10269000D0735A100020D8E06F4B13F8103003F0BD
:1026A000F801C9100A297BD2DFE801F0CB052C53D1
:1026B0007BCBCBCBCBA3684B13F8103003F00703D5
:1026C000664C2380012303EB4003634CE35C03F07F
:1026D0001F03624CA38023469B8803EBC30404EBD7
:1026E00003134FF6FF7404EA83035C4CA380234674
:1026F0001B88C3EB03134FF4A07404EB8303584C03
:1027000023809FE0544B13F8103003F00703554C1F
:102710002380012303EB40034F4CE35C03F01F03D2
:10272000504CA38023469B8803EBC30404EB0313A4
:102730004FF6FF7404EA83034A4CA38023461B88A8
:10274000C3EB03134FF4A07404EB8303464C2380C4
:1027500078E0414B13F8103003F00703434C23801B
:10276000012303EB40033C4CE35C03F01F033F4CAD
:10277000A38023469B8803EBC30404EB03134FF6AB
:10278000FF7404EA8303394CA38023461B88C3EB00
:1027900003134FF4A07404EB8303354C238051E002
:1027A0004FE02D4B13F8103003F00703314C23801A
:1027B000012303EB4003284CE35C03F01F032D4C83
:1027C000A38023469B8803EBC30404EB03134FF65B
:1027D000FF7404EA8303274CA38023461B88C3EBC2
:1027E00003134FF4A07404EB8303214C241F2380B4
:1027F00028E0194B13F8103003F007031E4C238018
:10280000012303EB4003144CE35C03F01F031A4C59
:10281000A38023469B8803EBC30404EB03134FF60A
:10282000FF7404EA8303144CA38023461B88C3EB84
:1028300003134FF4A07404EB8303094C241F23807B
:1028400000E000BF00BF431CD8B29042FFF624AFA7
:1028500010BD000004000020D0010020C6000020B0
:102860003C2C0140CE000020340400401600002023
:10287000380800401E0000204600002010B586B039
:10288000044601210820FEF7C3F801218804FEF761
:102890009FF84FF48060ADF8140003208DF8160007
:1028A00018208DF8170005A91548FDF70AFE4FF40A
:1028B0000060ADF8140004208DF8170005A9104839
:1028C000FDF7FFFD01940020ADF80800ADF80A0007
:1028D000ADF80C00ADF810000C20ADF80E0001A909
:1028E0000848FFF779FB012240F225510548FFF720
:1028F0004DFB01210348FFF7C5FA06B010BD0000EB
:10290000000C01400048004000C1814001C08041EE
:1029100001C0804100C1814001C0804100C18140AF
:1029200000C1814001C0804101C0804100C181409F
:1029300000C1814001C0804100C1814001C080418F
:1029400001C0804100C1814001C0804100C181407F
:1029500000C1814001C0804100C1814001C080416F
:1029600001C0804100C1814000C1814001C080415F
:1029700001C0804100C1814001C0804100C181404F
:1029800000C1814001C0804101C0804100C181403F
:1029900000C1814001C0804100C1814001C080412F
:1029A00001C0804100C1814000C1814001C080411F
:1029B00001C0804100C1814001C0804100C181400F
:1029C00000C1814001C0804100C1814001C08041FF
:1029D00001C0804100C1814001C0804100C18140EF
:1029E00000C1814001C0804101C0804100C18140DF
:1029F00000C1814001C0804100C1814001C08041CF
:102A000001C0804100C1814000C0C101C30302C2B6
:102A1000C60607C705C5C404CC0C0DCD0FCFCE0E1E
:102A20000ACACB0BC90908C8D81819D91BDBDA1A8E
:102A30001EDEDF1FDD1D1CDC14D4D515D71716D6FE
:102A4000D21213D311D1D010F03031F133F3F2326E
:102A500036F6F737F53534F43CFCFD3DFF3F3EFEDE
:102A6000FA3A3BFB39F9F83828E8E929EB2B2AEA4E
:102A7000EE2E2FEF2DEDEC2CE42425E527E7E626BE
:102A800022E2E323E12120E0A06061A163A3A2622E
:102A900066A6A767A56564A46CACAD6DAF6F6EAE9E
:102AA000AA6A6BAB69A9A86878B8B979BB7B7ABA0E
:102AB000BE7E7FBF7DBDBC7CB47475B577B7B6767E
:102AC00072B2B373B17170B05090915193535292EE
:102AD00096565797559594549C5C5D9D5F9F9E5E5E
:102AE0005A9A9B5B99595898884849894B8B8A4ACE
:102AF0004E8E8F4F8D4D4C8C44848545874746863E
:102B00008242438341818040080421714B0000DCF4
:102B1000950805A62221F0415B2608E22F1CBB0A7E
:102B2000A8942808058767E2581A075B08E1D07265
:102B3000D88AB85B7D080511EC9E28231B6D08E23E
:102B40004F8AB2A92914130805D12E716A514C2C51
:102B500008E5802742A469B07F0805AA812ABD45FF
:102B6000E8A808EAE4F024C99FCC3C080508F5056C
:102B70000427629808EA6B6284A1F94AE20805E931
:102B800077054F84EE3508E243C38DFBAD5425082D
:102B90000514065E39362F4508EA0C1C74D011FC6A
:102BA000320805DA38BA0E3CE78B08EAB009E6FFCE
:102BB00094BBA90805D71129FEDC71D508EA7F83EB
:102BC000A7609062180805847F6AD191C65208EA0E
:102BD0002AD87B8E4A9F910805BDAA9D1618061516
:102BE00008E255AD2D0A141F5D0805D3E07C39CFEE
:102BF00001F008EF3A91726A03BB9608E7836DA46F
:102C000092FC13A708EFF8FDCF62076F1E08E74C90
:102C1000EA4A754FD6CF08E2F611E4260D4DC608F4
:102C200005FBBFE80789C35108EF8227043F96A838
:102C30005808E741293C752A031C08EFAF5998361C
:102C4000AA0F0608E6F693412DEC0E9908052919FE
:102C500090E5AA364008E7FB68107D775DC008E77D
:102C6000CBB4DDCE9054BE08E7728AD602F4DDCC38
:102C700008E76A210B0286EC1508E77B7C3D6B8137
:102C800003D008EF7D6136947CA0DF08EFCC853B54
:102C9000DAE05C1C08E7E375BB39224BA808EFF9C2
:102CA000CEE05EEB1DCB08E7BDE270D5AB4E3F0832
:102CB000E7B78D20686B095208EFA11B90CD9800F3
:102CC0006308EF54675D9C11FC4508E7D49BC897E7
:102CD000BE8A0708EF528D906373D52A08EF03BCB4
:102CE0006E1C76BE4A08E7C2ED67BA5E662108EF41
:102CF000E73F87BEE07A6D08E7C970931D64F56C05
:102D000008EFF5280834B3B62C08EF3A0AEC0FDBCD
:102D100056CA08EF39A06EED79D02408E76C0BAFE6
:102D2000A94E40B508E9B9AFBF2550D13708059E77
:102D3000DBDE3F94E96B08ECC505AA57DC8A5E0828
:102D40000570DA8484DDCA900702810001C9C3805E
:102D500008132000210000000006110002005200AC
:102D600005110001032006110102000138081102BB
:102D70000400000000000D111009000814000F31BC
:102D8000000000000A1111060001B42B0000001021
:102D900011120C00040108FFFF20020000000030A7
:102DA0001011120C0C30000804800000000000001C
:102DB000001011120C1800000000000000000000BC
:102DC00000001011120C24000000000000000000A0
:102DD0000000000911120530000000000010112051
:102DE0000C000200070F424001C9C3800005051115
:102DF00020010C761011200C18010008038000102F
:102E00002000E8004B1011200C2406D3A007FF027D
:102E10000000002386D407112003300098A005117C
:102E2000200135E00711200338111010081120048B
:102E300040280CA4230E11200A450300AA0100FF1C
:102E4000060018400611200250840A061120025480
:102E50000307051120015700091120055B400405F7
:102E600078201011210C007E641BBA580BDDCED6E1
:102E7000E6F6001011210C0C030315F03F007E64F0
:102E80001BBA580B1011210C18DDCED6E6F6000344
:102E90000315F03F000811220400087E005D0B11AD
:102EA00023070034040B040770031011300C0000DA
:102EB00000000000000000000000000C11400800AD
:102EC000400AAAAA444420FE00000000EC2E00089C
:102ED00000000020D00100006C010008942F0008C1
:102EE000D0010020D8090000C801000801DD84A23B
:102EF0004A0480090102030406070809132D1B1464
:102F000008E91A1B080D081AB1081A85041A690481
:102F10001A49101A05081A3D041A650C1A6D041393
:102F2000350D1408F10E1B081B0413650C1408C1A1
:102F30000F1B08D1041A81181A0D041A49141353CF
:102F4000101B08A5041A61181A592813E121140846
:102F5000D92214083923420813C107140829081478
:102F6000089D241B08FD041A8D181339251B08CD54
:102F70000C1A5D081A2D041A81141A91101AF10402
:102F80001A750C1A21141AC10C011A29D669DA1CF7
:042F90000204062A07
:0400000508000211DC
:00000001FF
