:020000040800F2
:10000000F00B002019020008B50C0008090B0008CD
:10001000790C0008C90600087325000800000000DC
:10002000000000000000000000000000F7160008BB
:10003000CD060008000000003D0D0008691800080A
:1000400033020008330200083302000833020008BC
:1000500033020008330200083302000833020008AC
:10006000330200083302000833020008330200089C
:10007000330200083302000833020008330200088C
:10008000330200083302000833020008330200087C
:10009000330200083302000833020008330200086C
:1000A000330200083302000833020008330200085C
:1000B00095190008330200083302000833020008D3
:1000C000330200083302000833020008330200083C
:1000D0003302000833020008452100087D22000891
:1000E000330200083302000833020008330200081C
:1000F000330200083302000833020008330200080C
:1001000033020008330200083302000833020008FB
:1001100033020008330200083302000833020008EB
:1001200033020008330200083302000833020008DB
:1001300000F002F800F061F80AA090E8000C824498
:100140008344AAF10107DA4501D100F056F8AFF275
:10015000090EBAE80F0013F0010F18BFFB1A43F0A5
:10016000010318470C3300002C3300000A444FF001
:10017000000C10F8013B13F0070408BF10F8014B06
:100180001D1108BF10F8015B641E05D010F8016B4B
:10019000641E01F8016BF9D113F0080F1EBF10F8AF
:1001A000014BAD1C0C1B09D16D1E58BF01F801CBD2
:1001B000FAD505E014F8016B01F8016B6D1EF9D555
:1001C0009142D6D37047000000230024002500266A
:1001D000103A28BF78C1FBD8520728BF30C148BFAA
:1001E0000B607047642900F07980002070471FB5CC
:1001F00000F0C5F81FBD10B510BD00F033FA114670
:10020000FFF7F5FF02F064FC00F051FA03B4FFF7CA
:10021000F2FF03BC02F0E6F90948804709480047AD
:10022000FEE7FEE7FEE7FEE7FEE7FEE7FEE7FEE7A6
:10023000FEE7FEE704480549054A064B7047000003
:100240006D18000831010008F0050020F00B0020B7
:10025000F0070020F0070020704700000FB40449A9
:1002600010B503AA029800F09DF910BC5DF814FBCC
:10027000C00100202DE9F0410E4604460020206216
:100280002046E168884730B3252805D0D4E901210C
:100290009047206A401CF2E7E16820460027884723
:1002A000050018D0A5F14100192802D820354FF4D7
:1002B00000673246294620462760FFF793FF40B18A
:1002C000012804D0F61D26F007060836D8E7361DAB
:1002D000D6E72846DAE7206ABDE8F0812DE9F0414B
:1002E0000646002410687529314616A510D0AFF3D4
:1002F0000080002802DA404213A507E031688A072F
:1003000001D512A502E0490704D511A5012401E099
:10031000AFF3008000210A2206F1240709E0B0FBB8
:10032000F2FCB0FBF2F302FB1C00303078541846AC
:10033000491C0028F3D123462A463046BDE8F04147
:1003400000F0D7B8000000002D0000002B000000D6
:10035000200000000B4910B5A1F17C020A4CC2E953
:100360003712372106E000EB104342F82130074BEB
:1003700000FB03400B1EA1F10101F4DC10BD0120C4
:10038000E8E7000024050020E119D666CD0D010044
:1003900010B5431C02E010F8011B71B18107FAD1BE
:1003A0004FF0013202C88C1A8C4314EAC211F9D002
:1003B000C01A0A0603D0C01E10BDC01A10BD0A0420
:1003C00001D0801E10BD0902FCD0401E10BD032AC2
:1003D00040F2308010F0030C00F0158011F8013B62
:1003E000BCF1020F624498BF11F801CB00F8013B49
:1003F00038BF11F8013BA2F1040298BF00F801CB0D
:1004000038BF00F8013B11F0030300F0DD80083A2B
:10041000C0F0088051F8043B083A51F804CBA0E83A
:100420000810F5E7121D5CBF51F8043B40F8043B8F
:10043000AFF30080D20724BF11F8013B11F801CBC4
:1004400048BF11F8012B24BF00F8013B00F801CB95
:1004500048BF00F8012B70474FF000020429C0F09C
:10046000128010F0030C00F01B80CCF1040CBCF1E6
:10047000020F18BF00F8012BA8BF20F8022BA1EB38
:100480000C0100F00DB85FEAC17C24BF00F8012B1D
:1004900000F8012B48BF00F8012B70474FF0000215
:1004A00000B5134694469646203922BFA0E80C506A
:1004B000A0E80C50B1F12001BFF4F7AF090728BF45
:1004C000A0E80C5048BF0CC05DF804EB890028BFC1
:1004D00040F8042B08BF704748BF20F8022B11F0EA
:1004E000804F18BF00F8012B704770477047704766
:1004F00070472DE9F0470D4699469246044600F1B3
:1005000024080168880604D5E06921F01001216003
:1005100000E00120A84201DD471B00E00027A1699F
:100520007A1902EB0900081AA0612078C00602D4EB
:100530002046AFF30080002608E0D4E901211AF834
:1005400006009047206A401C761C20624E45F4DB72
:100550002078C0060AD52046AFF3008006E0D4E933
:10056000012130209047206A401C2062381EA7F1EC
:100570000107F4DC07E0D4E9012118F805009047F1
:10058000206A401C2062281EA5F10105F3DC2046EC
:10059000AFF300802078000602D50220BDE8F08786
:1005A0000120FBE7074B70B50D467B4400F043F894
:1005B0000446284600F052F810B14FF0FF3070BDED
:1005C000204670BDFB22000010B5203AC0F00B8021
:1005D000B1E81850203AA0E81850B1E81850A0E847
:1005E0001850BFF4F5AF5FEA027C24BFB1E81850A1
:1005F000A0E8185044BF18C918C0BDE810405FEA11
:10060000827C24BF51F8043B40F8043B08BF70478C
:10061000D20728BF31F8023B48BF11F8012B28BF91
:1006200020F8023B48BF00F8012B704701694A1CC3
:1006300002610878704700B58FB0CDE90131002123
:10064000059105497944CDE9031011466846FFF745
:1006500011FE0FB000BD0000E5FFFFFF007B00F0C2
:1006600080007047754600F02BF8AE4605006946DD
:10067000534620F00700854618B020B5FFF7DAFD95
:10068000BDE820404FF000064FF000074FF0000893
:100690004FF0000B21F00701AC46ACE8C009ACE814
:1006A000C009ACE8C009ACE8C0098D46704710B578
:1006B0000446AFF300802046BDE81040FFF7A6BD1A
:1006C000004870478C05002000BFFEE7704700001F
:1006D0000149C860704700000020024030B5044660
:1006E00004254FF4302000F085F80546042D17D17D
:1006F0000C48006940F002000A490861084644615C
:10070000006940F0400008614FF4302000F072F8BA
:1007100005460448006941F6FD7108400149086139
:10072000284630BD0020024004200B49C96801F072
:10073000010109B101200EE00749C96801F0040177
:1007400009B1022007E00449C96801F0100109B1AC
:10075000032000E0042070470020024003480069A5
:1007600040F080000149086170470000002002400D
:1007700078B506460C46042500200090E80200F0FB
:1007800039F80546042D24D11348006940F00100D2
:10079000114908613480E80200F02CF80546042D68
:1007A00010D1B01C0090200C00990880E80200F0E5
:1007B00021F805460848006941F6FE7108400649DF
:1007C000086106E00448006941F6FE7108400249EC
:1007D0000861284678BD0000002002400248034915
:1007E0004860034848607047230167450020024085
:1007F000AB89EFCD00B502460423FFF795FF034612
:1008000003E0FFF791FF0346521E012B01D1002A9E
:10081000F7D102B90523184600BD2DE9F041024683
:1008200000250026002000230024002791F803C0A3
:100830000CF00F0591F803C00CF0100CBCF1000F88
:1008400003D091F802C04CEA050591F800C0BCF154
:10085000000F31D0146800202BE04FF0010C0CFA8F
:1008600000F3B1F800C00CEA03069E4220D18300D9
:100870004FF00F0C0CFA03F7BC4305FA03FC4CEAEB
:10088000040491F803C0BCF1280F06D14FF0010C0D
:100890000CFA00FCC2F814C00AE091F803C0BCF1E5
:1008A000480F05D14FF0010C0CFA00FCC2F810C043
:1008B000401C0828D1D31460B1F800C0BCF1FF0F70
:1008C00034DD546800202EE000F1080C4FF00108E0
:1008D00008FA0CF3B1F800C00CEA03069E4221D1DD
:1008E00083004FF00F0C0CFA03F7BC4305FA03FC2E
:1008F0004CEA040491F803C0BCF1280F05D100F1C3
:10090000080C08FA0CF8C2F8148091F803C0BCF186
:10091000480F07D100F1080C4FF0010808FA0CF855
:10092000C2F81080401C0828CED35460BDE8F08186
:10093000F0B50A46002300240021002500F00046FF
:10094000B6F1004F02D11D4EF16901E01B4E7168F6
:10095000C0F3034583B200F44016B6F5401F08D13A
:1009600021F07061154E766826F07066134F7E6038
:1009700012E000F48016B6F5801F06D1032606FAB1
:1009800005F4A14341F0706106E0460D360103FA1B
:1009900006F6B14341F0706122B1460D360103FA0B
:1009A00006F6314300F00046B6F1004F02D1034E87
:1009B000F16101E0014E7160F0BD000000000140F6
:1009C00002460020D3680B400BB1012000E000205C
:1009D00070474161704701617047000008B5002110
:1009E000214800909DF803300846491C1F4A1354C3
:1009F0009DF802300846491C13549DF80130084602
:100A0000491C13549DF800300846491C13541848DB
:100A100000909DF803300846491C13549DF802309D
:100A20000846491C13549DF801300846491C1354CC
:100A30009DF800300846491C13540E4800909DF85C
:100A400003300846491C13549DF802300846491CDF
:100A500013549DF801300846491C13549DF80000BA
:100A60005054104608BD00007F020600120200200C
:100A70007F0302007F02010010B520490968486920
:100A800080471E4800680168582088471B48006856
:100A9000042102691A489047194A907A174A126845
:100AA0001168884715480068062102691448001D2E
:100AB0009047FFF793FF0446104800680C21026935
:100AC000204690470D490968086A80470B4800682E
:100AD00001687520884709490968886A804709497B
:100AE000C88306490968486A804704460548C28B9E
:100AF0002146401CFFF76BFC10BD000000000020E9
:100B0000A40200208402002000BFFEE710B586B0DA
:100B100004460121480400F061F9294801F016FC5F
:100B20000420ADF8140003208DF8160018208DF86D
:100B3000170005A92348FFF770FE0820ADF8140040
:100B400004208DF8170005A91E48FFF766FE262031
:100B50008DF8000002208DF801008DF802000120C0
:100B60008DF80300684600F0A7F801940020ADF866
:100B70000800ADF80A00ADF80C00ADF810000C202C
:100B8000ADF80E0001A90E4801F07EFC002240F2F3
:100B900027710B4801F052FC4021094801F0B2FBDB
:100BA000012240F22551064801F048FC202104486A
:100BB00001F0A8FB0121024801F0BCFB06B010BD0A
:100BC000004400400008014008B50121082000F061
:100BD00025F94FF45040ADF8000010208DF80300C7
:100BE00003208DF8020069460E48FFF716FE01202B
:100BF0000D4908600D49C1F8B0010B49091F086093
:100C0000091D086008490C3908600749091F086078
:100C1000091D086004490C3908600349091F086070
:100C200008BD0000000C0140BC812142008021422F
:100C300008B50121082000F0F1F84FF45040ADF85C
:100C4000000003208DF8020010208DF80300694693
:100C50000648FFF7E2FD0120054908600549C1F893
:100C6000B0010349091F086008BD0000000C0140E5
:100C7000BC8121420080214200BFFEE770B50346DF
:100C8000FF24FF2509E011F8010B80EA0402074860
:100C9000805C80EA05040648855C181EA3F1010605
:100CA000F3B2F0D145EA042070BD0000AC2E00087C
:100CB000AC2F00087047000070B5002100230F2200
:100CC000C47804B3154C246804F4E064C4F5E0640B
:100CD000210AC1F10403CA40447804FA03F184787C
:100CE0001440214309010E4C0678A155047804F004
:100CF0001F050124AC4005786D11AD0005F1E0251C
:100D0000C5F8004109E0047804F01F050124AC4057
:100D1000044D0678761145F8264070BD0CED00E0D4
:100D200000E400E080E100E002490143024A116072
:100D3000704700000000FA050CED00E0704700006D
:100D400008B50121142000F069F840F62100ADF843
:100D5000000010208DF8030003208DF80200694682
:100D60000848FFF75AFD4FF40050ADF80000482046
:100D70008DF8030003208DF8020069460248FFF752
:100D80004CFD08BD000801400010014010B50446AC
:100D90000E480068A8B90E480078401C0C4908703D
:100DA0000C49486980470A480078A04207DB094996
:100DB0008868804700200849086000BFFEE70120DE
:100DC00010BD00200249087000BFF9E7340122423B
:100DD000A4010020640100208001214229B1064ABB
:100DE000D2690243044BDA6104E0034AD2698243C8
:100DF000014BDA61704700000010024029B1064A39
:100E000012690243044B1A6104E0034A12698243E7
:100E1000014B1A61704700000010024029B1064AD8
:100E200092690243044B9A6104E0034A9269824347
:100E3000014B9A61704700000010024029B1064A38
:100E4000D2680243044BDA6004E0034AD26882436A
:100E5000014BDA60704700000010024030B50021FD
:100E60000022002400232D4D6D6805F00C0121B1F6
:100E7000042905D0082923D105E0294D056022E089
:100E8000274D05601FE0254D6D6805F47012234D58
:100E90006D6805F48034022505EB92421CB9214DA2
:100EA000554305600BE01D4D6D6805F400351DB11F
:100EB0001C4D5543056002E0194D5543056002E0A5
:100EC000174D056000BF00BF144D6D6805F0F001BF
:100ED0000909154D6B5C0568DD4045600F4D6D6877
:100EE00005F4E061090A104D6B5C4568DD408560E2
:100EF0000A4D6D6805F46051C90A0B4D6B5C45687D
:100F0000DD40C560054D6D6805F44041890B074D16
:100F10006B5CC568B5FBF3F5056130BD00100240A0
:100F200000127A0000093D00C6010020D601002011
:100F300070B5044620252B462246802102480078C1
:100F400000F058FA70BD00000600002010B54148BE
:100F500000680078662856D13E48006840786528C9
:100F600051D13C480068807858284CD139480068F5
:100F7000C07839490978884245D136480068C07B35
:100F8000642840D10E213348006801F039FB044643
:100F900030480068807BA04204D040212F48FFF7F2
:100FA0005BFA10BD2B480068C079A8B129480068D9
:100FB000C0792949087008460178294841732948B1
:100FC0001822274943680020984700F01FF922485B
:100FD000017825A0FFF742F9002028490880012068
:100FE000274908702748FFF7A3FF1C212548401C0C
:100FF000FFF732FA002023490870102115480068D5
:10100000FFF72AFA23E013480068007899280ED1E8
:10101000104800684078332809D100F045F81021C5
:101020000C480068FFF718FA01F000FE0FE000F02E
:10103000DBFB12480088401C1049088008460088E5
:10104000B0F5FA6F03DD002008800D49087000BF7D
:10105000A7E70000F400002006000020270200207F
:10106000C5030020B4010020474368616E6E656CC3
:101070005365743D25640D0A00000000D80000206F
:10108000040000208402002010B503460020054C17
:10109000234403E013F8014B0C54401C9042F9DB4D
:1010A00010BD00000000010810B507480068007A74
:1010B0000649087008460278034801680A31044866
:1010C000FFF785F910BD0000F400002005000020A6
:1010D000DC01002038B504460020009034208DF853
:1010E00000008DF801400221684600F06BFA38BD1F
:1010F00070B5002408E0601C84B22649081929460E
:1011000000F060FA601984B22248055D002DF2D12A
:10111000002141F2062000F0ADF900214FF490507B
:1011200000F0A8F9012141F2092000F0A3F92A21D9
:1011300041F2082000F09EF9002141F20A2000F05F
:1011400099F9002141F20D2000F094F9012141F2BA
:101150000E2000F08FF9002141F20F2000F08AF9F3
:10116000002141F2102000F085F9002141F2112008
:1011700000F080F9202141F2122000F07BF90021DB
:1011800041F2132000F076F9002141F2142000F022
:1011900071F970BDAC30000808B500200090332014
:1011A0008DF800000121684600F00CFA0321684622
:1011B00000F0C6F89DF8010000F00F0008BD000027
:1011C00008B501210C20FFF729FE10208DF803003F
:1011D00001208DF802004003ADF80000694609487F
:1011E000FFF71BFB48208DF803001020ADF800002E
:1011F00069460548FFF711FB4FF400510148FFF71E
:10120000E8FB08BD000C0140000801401CB500F0DF
:10121000F7F94FF47A7001F031FA15490868804700
:101220001449086880471349486880471148816815
:10123000114888470F49C86880470E4841697F2098
:1012400088470C48016A0620884700BF0949C869D9
:1012500080470628FAD103200021CDE90010054877
:101260000B460A46446A05480078A0471CBD0000AA
:10127000580100202401002080C3C901060000207D
:1012800038B504460020009020208DF80000002092
:101290008DF801008DF802008DF8030004216846E6
:1012A00000F090F90921204600F04AF838BD1CB53D
:1012B000044600200090019002208DF800000120DB
:1012C0008DF8010000208DF80200200E8DF803003B
:1012D000200C8DF80400200A8DF80500E0B28DF88E
:1012E00006000721684600F06DF91CBD70B5044684
:1012F0000025002600F040F91048006820F4004066
:101300000E490860772001F081FAFF2001F07EFA93
:1013100005462E4604E0FF2001F078FA04F8010BA0
:10132000281EA5F10101CDB2F5D10448006840F4B2
:10133000004002490860304670BD00000C080140C2
:1013400070B504460D4600F017F90D48006820F40A
:1013500000400B490860442001F058FA04E0FF20E7
:1013600001F054FA2070641C281EA5F10101CDB2D1
:10137000F5D10348006840F400400149086070BDA1
:101380000C08014010B50B48006840F400500949B2
:101390000860142001F098F90648006820F4005015
:1013A000044908600448006840F4004002490860AD
:1013B00010BD00000C0C01400C08014008B50020D5
:1013C000009015208DF8000002208DF80100022108
:1013D000684600F0F7F808BD08B500200090152019
:1013E0008DF8000002208DF801000221684600F00F
:1013F000E9F808BD2DE9F0410746884615461C4628
:101400002646FFF7E9FF1248006820F40040104923
:101410000860662001F0FAF9701CC6B2204601F09F
:10142000F5F903E015F8010B01F0F0F9201EA4F125
:101430000101CCB2F6D10648006840F400400449EE
:10144000086032464146384600F076F8BDE8F08143
:101450000C08014010B50446214642F2030000F09A
:1014600022F810BD10B50446214642F2012000F0DA
:1014700001F810BD7CB504460D4600200090019097
:1014800011208DF8000020128DF8010001208DF848
:101490000200E0B28DF803008DF804500521684683
:1014A00000F090F87CBD7CB505460C46002000900D
:1014B000019011208DF8000028128DF80100032002
:1014C0008DF80200E8B28DF80300200C8DF80400BE
:1014D000200A8DF80500E0B28DF806000721684665
:1014E00000F070F87CBD2DE9FC4705460F46144618
:1014F0001E46DDE90A89002000900190FFF75EFF9B
:10150000FFF76AFF32208DF800008DF801508DF84A
:101510000270E0B200128DF80300E0B28DF8040012
:101520008DF805608DF806808DF8079008216846D3
:1015300000F048F8BDE8FC877CB506460D46144629
:1015400000200090019031208DF800008DF801609E
:101550008DF80250E0B200128DF80300E0B28DF871
:10156000040000208DF805008DF80600072168466C
:1015700000F028F87CBD000070B5002500BF1048C1
:10158000006820F400400E490860442001F03EF954
:10159000FF2001F03BF904460948006840F4004090
:1015A000074908602846691C8DB2B0F57A7F02D1E0
:1015B000FFF72CFE01E0FF2CE1D100BF70BD000061
:1015C0000C08014070B504460D46FFF7D5FF0B48E7
:1015D000006820F400400949086003E0207801F029
:1015E00015F9641C281EA5F10101CDB2F6D10348FE
:1015F000006840F400400149086070BD0C080140DB
:1016000008B501210820FFF709FC4FF48050ADF820
:10161000000010208DF8030003208DF802006946B9
:101620000448FFF7FAF84FF480510248FFF7D1F968
:1016300008BD0000000C014021B1028842F04002C8
:10164000028004E002884FF6BF731A4002807047A0
:1016500010B504461148844208D101218014FFF7D7
:10166000EDFB0021A014FFF7E9FB16E00C488442D3
:1016700008D101210014FFF7C1FB00212014FFF75E
:10168000BDFB0AE00748844207D10121C013FFF7E0
:10169000B5FB0021E013FFF7B1FB10BD00300140A6
:1016A00000380040003C00400246002013890B40F7
:1016B0000BB1012000E00020704710B50022028825
:1016C00002F441520B884C8823438C882343CC88F6
:1016D00023430C8923434C8923438C892343CC899E
:1016E00023431A430280838B4FF2FF74234083838A
:1016F0000B8A038210BD704700487047F800002035
:1017000010B500F001F810BD0CB50020019000905C
:101710003348006840F480303149086000BF3048E9
:10172000006800F4003000900198401C019000987F
:1017300018B90198B0F5A06FF1D12948006800F4FC
:10174000003010B10120009001E0002000900098CE
:10175000012843D12348006840F010002149086067
:101760000846006820F0030008600846006840F062
:10177000020008601A4840681949486008464068F5
:1017800048600846406840F4806048600846406809
:1017900020F47C1048600846406840F4E810486037
:1017A0000846006840F08070086000BF0C48006880
:1017B00000F000700028F9D00948406820F00300CC
:1017C000074948600846406840F00200486000BF92
:1017D0000348406800F00C000828F9D10CBD000057
:1017E00000100240002002401CB51148FFF748FDE0
:1017F0000F48C07800F01000C8B10E48FFF776FD22
:10180000044614B10B480C4908600620FFF762FC3F
:1018100000BFFFF7C1FC0628FBD1032000210B46C7
:101820000A46CDE9001005480078FFF75CFE1CBDB4
:101830001E02002027020020F400002006000020E5
:10184000042808D14FF0E021096941F004014FF06C
:10185000E022116107E04FF0E021096921F0040165
:101860004FF0E022116170477047000010B5134837
:10187000006840F0010011490860084640681049BE
:1018800008400E494860084600680E4908400B4968
:1018900008600846006820F4802008600846406818
:1018A00020F4FE0048604FF41F008860FFF728FF17
:1018B0004FF000600449086010BD000000100240B5
:1018C0000000FFF8FFFFF6FE08ED00E000B585B070
:1018D00001210520FFF7A2FA01211348FFF728F89C
:1018E0004FF40070ADF8100018208DF8130003209D
:1018F0008DF8120004A90D48FEF78FFF684600F02E
:1019000071FA7020ADF800000120ADF8020000204F
:10191000ADF806000220ADF808006946044800F062
:10192000BFF905B000BD00004000160000080140EE
:10193000002C014000B585B001210520FFF76EFAAB
:1019400001211148FEF7F4FF4FF48060ADF810005C
:1019500018208DF8130003208DF8120004A90B48FD
:10196000FEF75BFF7020ADF800000120ADF802002B
:101970000020ADF806000220ADF8080069460448D2
:1019800000F0E0F905B000BD40001600000801407D
:10199000002C014010B50121880700F01AF9002839
:1019A00055D00121880700F0F6F829480078401C3E
:1019B000274908702748808828B126488088401E1B
:1019C0002449888002E00020234908802348808839
:1019D00028B122488088401E2049888002E00020EB
:1019E0001F4908801F48808828B11E488088401EF3
:1019F0001C49888002E000201B4908801B48808821
:101A000040B101201A49087018488088401E1749C3
:101A100088800FE016480078012807D11548008813
:101A2000401C1449088000201149087000200E490C
:101A3000091F08801048808828B10F488088401E00
:101A40000D49888003E000200349091F088010BD6C
:101A5000A6010020C80000203C2C0140D00000203E
:101A60003404004018000020380800402000002006
:101A7000AA010020A80100204800002000B585B080
:101A800001210520FFF7CAF94020ADF81000182009
:101A90008DF8130003208DF8120004A90A48FEF700
:101AA000BCFE7020ADF800000120ADF8020000205F
:101AB000ADF806000220ADF808006946034800F0C2
:101AC000A3F805B000BD000000080140000400407C
:101AD00000B585B001210920FFF7A0F94020ADF83D
:101AE000100018208DF8130003208DF8120004A9AF
:101AF0000A48FEF792FE7020ADF800000120ADF814
:101B000002000020ADF806000220ADF8080069468A
:101B1000034800F079F805B000BD0000000C01405A
:101B20000008004000B585B001210920FFF776F9D3
:101B30008020ADF8100018208DF8130003208DF8D8
:101B4000120004A90A48FEF768FE7020ADF80000F4
:101B50000120ADF802000020ADF806000220ADF82B
:101B600008006946034800F09BF805B000BD00007E
:101B7000000C01400008004021B1028842F08002C0
:101B8000028004E002884FF67F731A40028070479B
:101B9000CA4302827047CA430282704721B1028859
:101BA00042F00102028004E002884FF6FE731A4000
:101BB0000280704731B1B0F8442042F40042A0F8EE
:101BC000442005E0B0F84420C2F30E02A0F84420FF
:101BD000704730B50246002000230024158A05EA2C
:101BE0000103958905EA010413B10CB1012000E05D
:101BF000002030BD1AB183890B43838102E08389C1
:101C00008B4383817047000070B5002400220023BD
:101C1000058C4FF6FE7635400584028C8388048B54
:101C20004FF68F752C40B51E2C400D882C43751E29
:101C30002A400D892A434D882A43144DA8420BD0CF
:101C4000134DA84208D0134DA84205D0124DA8420A
:101C500002D0124DA84213D14FF6F7752A404D8994
:101C60002A434FF6FB752A408D882A434FF6FF65BD
:101C70002B404FF6FF552B408D892B43CD892B43AD
:101C800083800483CD888586028470BD002C01404A
:101C90000034014000400140004401400048014040
:101CA00070B5002400220023058C4FF6EF763540F6
:101CB0000584028C8388048B48F6FF752C404FF610
:101CC000FF452C400D884FF6FF7606EA05252C438C
:101CD0004FF6DF752A400D8906EA05152A434D881F
:101CE00006EA05152A43154DA84202D0144DA84214
:101CF0001DD14FF67F752A404D894FF6FF7606EAD3
:101D000005152A434FF6BF752A408D8806EA05154A
:101D10002A434FF6FF352B404FF2FF752B408D893C
:101D200006EA85052B43CD8906EA85052B4383808A
:101D30000483CD880587028470BD0000002C01401B
:101D40000034014070B5002400220023058C4FF6BA
:101D5000FF6635400584028C8388848B4FF68F752F
:101D60002C404FF6FC752C400D882C434FF6FF5548
:101D70002A400D894FF6FF7606EA05252A434D884D
:101D800006EA05252A43154DA84202D0144DA84263
:101D90001DD14FF2FF752A404D894FF6FF7606EAB6
:101DA00005252A434FF6FF352A408D8806EA05258A
:101DB0002A434EF6FF752B404DF6FF752B408D895B
:101DC00006EA05152B43CD8906EA05152B438380CA
:101DD0008483CD888587028470BD0000002C01407B
:101DE000003401400021018041808180C180018157
:101DF00041818181C1817047002202881D4B984238
:101E00000ED01D4B98420BD0B0F1804F08D01B4B29
:101E1000984205D01A4B984202D01A4B984204D1EE
:101E20004FF68F731A404B881A43174B984207D0CE
:101E3000164B984204D04FF6FF431A40CB881A4302
:101E400002808B8883850B8803850A4B98420BD0D0
:101E5000094B984208D00E4B984205D00D4B984242
:101E600002D00D4B984201D10B7A03860123838265
:101E700070470000002C0140003401400004004085
:101E800000080040000C004000100040001400401A
:101E900000400140004401400048014008B50B49A2
:101EA0000978891CC8B20A49FEF7E8FE0090084884
:101EB000801C064909680844BDF8001001800348E9
:101EC0000068801C0149086008BD0000F000002087
:101ED0006702002010B508480088801C81B20748BE
:101EE00000F08EFB04490A680968491C024B19601E
:101EF0000249891C885410BDF000002067020020B0
:101F00000020044908607720034908707620487053
:101F100070470000F00000206702002070B5054601
:101F20000C460749074A1268881822462946FEF7D8
:101F30004EFA0448006820440249086070BD000061
:101F400069020020F000002070B504462046FEF72C
:101F50001FFA05460849094A126888182A46214688
:101F6000FEF735FA2046FEF713FA044909680844DB
:101F70000249086070BD000069020020F0000020E6
:101F800001B50648064909680844BDF800100180FB
:101F900003480068801C0249086008BD69020020EF
:101FA000F00000200549064A1268114408600449FF
:101FB0000968091D024A116070470000690200208B
:101FC000F000002004490A680968491C024B1960A6
:101FD0000249885470470000F00000206902002088
:101FE0007521044802680068401C024B18600248D2
:101FF00081547047F00000206902002000487047BB
:102000006702002002480088801C80B270470000F0
:10201000F00000203EB505460C460121C802FEF73F
:10202000FDFEADF80450ADF800400020ADF806000C
:10203000ADF802008DF8080069460A48FFF7DCFE9B
:10204000FFF744FCFFF776FC01210648FFF794FDFB
:1020500001210448FFF7A2FD01210248FFF7AAFD74
:102060003EBD0000002C01407FB505460C46012115
:102070000846FEF7B3FEADF80850ADF80440002066
:10208000ADF80A0001A94FF08040FFF7B5FE01212D
:102090008807FFF77DFD012211469007FFF7AAFD93
:1020A0001C208DF8000002208DF8010000208DF822
:1020B000020001208DF803006846FEF7FDFD0121B6
:1020C0008807FFF76BFD7FBD3EB505460C46012135
:1020D0000220FEF783FEADF80450ADF8004000206A
:1020E000ADF80600ADF8020069460548FFF784FE2A
:1020F000FFF7C4FC01210248FFF750FD3EBD000080
:10210000000400403EB505460C4601210420FEF7C0
:1021100065FEADF80450ADF800400020ADF80600B3
:10212000ADF8020069460648FFF766FEFFF7D0FCEF
:10213000FFF7F8FC01210248FFF730FD3EBD00002B
:102140000008004010B5002440F22771444800F018
:102150004BF9D8B1434802780078401C414B1870C5
:102160004148815C3E4800F000FA40F227713C484B
:1021700000F0D1F83B4800783C490978884205D105
:10218000002240F22771364800F058F940F22551FC
:10219000334800F029F9002860D040F2255130483A
:1021A00000F0B9F82E4800F0DBF9C1B230480278EF
:1021B0000078401C2E4B18702E48815401460F2089
:1021C000FEF75CFD04462B48C07BE1B2884205D097
:1021D0002848007CB0EB142F00D010BD24480078B4
:1021E000401E2449085C222838D121480078801EEE
:1021F000085C112832D100201D4908701D48007864
:1022000066282BD11B484078052827D11948C0786B
:102210001949087017480079487016484079887045
:1022200014488079C8701348007A08711148417ABF
:10223000114841710F48817A0F4881710D48C17A68
:102240000D48C1710B48017B0B4801720948417B65
:10225000094841720748807B0749887200BFBCE784
:1022600000440040AB010020AF020020AC01002080
:10227000AD010020B1030020A402002010B540F2FF
:1022800025511D4800F0B0F810B31B4800F068F964
:10229000C4B21A48008800F40040C8B91748008842
:1022A00000F4804060B10A2C03D00020134908805C
:1022B00020E01248008840F400401049088019E0EE
:1022C0000D2C06D10D48008840F480400B49088051
:1022D00010E00A480088C0F30D0009490C54074873
:1022E0000088401C0549088008460088C72801DD91
:1022F0000020088010BD000000480040C4010020FC
:10230000DD03002001F40072B2F5007F00D100BFB0
:10231000CA430280704710B50022002340F66A14B9
:10232000A14200D100BF0A1201249440A3B2DC43B1
:10233000048010BD21B1828942F40052828104E000
:1023400082894DF6FF731A408281704710B50446AA
:102350002048844209D101218803FEF76FFD002146
:102360004FF48040FEF76AFD32E01B48844209D1F9
:1023700001214804FEF742FD00214FF40030FEF732
:102380003DFD25E01548844209D101218804FEF76E
:1023900035FD00214FF48020FEF730FD18E0104895
:1023A000844209D10121C804FEF728FD00214FF421
:1023B0000020FEF723FD0BE00A48844208D10121EA
:1023C0000805FEF71BFD00214FF48010FEF716FDF7
:1023D00010BD0000003801400044004000480040AB
:1023E000004C00400050004070B50246002400231D
:1023F0000025002040F66A16B14200D100BFC1F3AB
:10240000421501F01F03012606FA03F3012D02D144
:102410009689334006E0022D02D1168A334001E04E
:10242000968A33400C12012606FA04F416883440CA
:1024300013B10CB1012000E0002070BDF0B50346DF
:10244000002400260025002040F66A17B94200D17A
:1024500000BF1846C1F3421401F01F06012707FA16
:1024600006F5012C01D10C3004E0022C01D1103012
:1024700000E014301AB107682F43076002E00768D4
:10248000AF430760F0BD00002DE9F04786B0054678
:102490000E460024A24600BFA1460027B08900B125
:1024A00000BF2F462C8A4CF6FF700440F08804438E
:1024B0002C82AC894EF6F3100440B0883189084371
:1024C000718908430443AC81AC8A4FF6FF40044055
:1024D000B0890443AC8201A8FEF7C0FC1F488742C4
:1024E00002D1DDF810A001E0DDF80CA0A88900F40D
:1024F000004040B10AEBCA0000EB0A103168490005
:10250000B0FBF1F807E00AEBCA0000EB0A103168F3
:102510008900B0FBF1F86420B8FBF0F00401200959
:10252000642101FB1089A88900F4004040B13220E9
:1025300000EBC900B0FBF1F000F00700044308E035
:10254000322000EB09106421B0FBF1F000F00F0025
:1025500004432C8106B0BDE8F0870000003801403C
:1025600001468888C0F308007047C1F308028280E2
:10257000704700BFFEE700002DE9F04705460E4614
:1025800014460027B846FEF729F93420FEF7A0F8D4
:102590001248FEF7A3F8124908700846007804288C
:1025A00017D100BF0FE006EB080000F01DF88146D0
:1025B0000A4968184946FEF7DBF8094908702D1DDD
:1025C00008F104087F1CE11704EB9171B7EBA10F30
:1025D000E9DBFEF7C3F8BDE8F08700000000010862
:1025E000B001002000BF70470146C87800068A7815
:1025F00040EA02404A7840EA02200A7810437047D5
:1026000030B502460B46002010E012F8014B604046
:10261000002109E000F001041CB18C2484EA600070
:1026200000E040104C1CE1B20829F3DB1C1EA3F1B2
:102630000105ABB2E9D130BD10B56FF00400FFF772
:10264000FFF80A4800680A49B0FBF1F00949087030
:102650000846007800EB4001C1EBC0104FF6FF7157
:1026600001EAC0000449088010BD0000DC00002021
:1026700000127A00BC010020BE0100200146114A70
:1026800012884A434FF0E0235A6100229A611A46A9
:10269000126942F001021A6100BF4FF0E022106996
:1026A00000F001021AB100F48032002AF5D04FF098
:1026B000E022126922F001024FF0E0231A610022A9
:1026C0009A617047BE0100200146114A12784A43C0
:1026D0004FF0E0235A6100229A611A46126942F0D3
:1026E00001021A6100BF4FF0E022106900F0010200
:1026F0001AB100F48032002AF5D04FF0E0221269BE
:1027000022F001024FF0E0231A6100229A61704723
:10271000BC01002000B587B001210C20FEF77EFB34
:1027200001210846FEF77AFB01213448FEF700F943
:1027300001210846FEF7FCF801208DF81A00182048
:102740008DF81B000820ADF8180006A92C48FEF7EC
:1027500064F82020ADF8180006A92948FEF75DF8B6
:1027600020212748FEF737F91020ADF8180006A9F8
:102770002348FEF752F810212148FEF72CF91020CB
:102780008DF81B00C002ADF8180006A91D48FEF721
:1027900044F84FF400411B48FEF71DF91A48FEF7B4
:1027A00057FF01210803FEF739FB00211648FEF709
:1027B00043FF0020ADF804004FF48270ADF806002E
:1027C0000020ADF80A00ADF80C00ADF808004FF499
:1027D0000070ADF80E002820ADF810000020ADF814
:1027E00012000720ADF8140001A90748FEF765FFA5
:1027F00001210548FEF720FF07B000BD00023000B0
:10280000000C0140000801400030014070B5044652
:102810000026002507E0681C80B205464FF6FF71D0
:10282000884200D105E002210F48FEF73DFF002855
:10283000F1D000BF47F6FF750B48848107E0681CA4
:1028400080B205464FF6FF71884200D105E00121B4
:102850000548FEF729FF0028F1D000BF0248808913
:10286000C6B2304670BD00000030014070B504466D
:102870000D4616464FF400410A48FEF7AAF805E057
:102880002878FFF7C3FF2070641C6D1C301EA6F172
:1028900001018EB2F4D14FF400410248FEF79BF8DB
:1028A00070BD00000008014000BF054A128802F018
:1028B0004002002AF9D0C2B2014B1B1D1A8070479A
:1028C0000048004010B50021032000F019F810BDA9
:1028D00010B50121032000F013F810BD10B54FF41E
:1028E00000410648FEF76CF808B1012000E0002026
:1028F00004462146032000F003F810BD000C0140FF
:1029000070B505460C464FF450413448FEF763F865
:10291000082D60D2DFE805F05F04111E2B38455208
:102920002CB14FF480412D48FEF753F804E04FF4EA
:1029300080412A48FEF74FF84EE02CB14FF4805109
:102940002648FEF746F804E04FF480512348FEF78E
:1029500042F841E02CB14FF400412048FEF739F82D
:1029600004E04FF400411D48FEF735F834E02CB187
:102970004FF4A0411948FEF72CF804E04FF4A041B1
:102980001648FEF728F827E02CB14FF440411348D1
:10299000FEF71FF804E04FF440411048FEF71BF823
:1029A0001AE02CB14FF410410C48FEF712F804E085
:1029B0004FF410410948FEF70EF80DE02CB14FF42A
:1029C00050410648FEF705F804E04FF45041034833
:1029D000FEF701F800E000BF00BF70BD000C014031
:1029E00010B500210220FFF78BFF10BD10B54FF48A
:1029F00080510648FDF7E4FF08B1012000E0002007
:102A0000044621460220FFF77BFF10BD000C014069
:102A100010B501210520FFF773FF10BD10B54FF46D
:102A200040410648FDF7CCFF08B1012000E000203E
:102A3000044621460520FFF763FF10BD000C01404E
:102A400010B500210120FFF75BFF10BD10B54FF45A
:102A500080410648FDF7B4FF08B1012000E00020E6
:102A6000044621460120FFF74BFF10BD000C01403A
:102A700010B500210720FFF743FF10BD10B501215D
:102A80000720FFF73DFF10BD10B54FF45041064839
:102A9000FDF796FF08B1012000E000200446214622
:102AA0000720FFF72DFF10BD000C014010B54FF4BB
:102AB000A0410648FDF784FF08B1012000E0002096
:102AC000044621460420FFF71BFF10BD000C014007
:102AD000FFF7B2FD4FF4A060FEF726F9FEF730F9DC
:102AE0004FF47A70FFF7CAFD4FF4E13000F098F927
:102AF0004FF4E130FEF70AF84FF47A70FFF7BEFDAD
:102B0000FEF762F84FF47A70FFF7B8FD01203849FC
:102B1000086000203749C1F8BC01374908603549D1
:102B2000C1F8B80135481822354903680020984794
:102B30003348407BFF2804D03148407B314908703E
:102B400002E000202F4908702E4801782EA0FDF7E2
:102B500085FB00202649143108603149C1F8AC01D9
:102B60004FF47A70FFF78AFDFEF750FBFEF7C4FDC5
:102B70002C490860472140F2E730FFF74BFA472124
:102B800040F2E730FFF7A0FA472140F2E730FFF7C5
:102B9000B9FA472140F2E730FFF766FA7120FDF7F6
:102BA000D9FB24E0FDF768FFFEF7D0F91E20FEF701
:102BB000EDF818B16420FFF761FD18E01A480078BD
:102BC00058B100200C490C31086001200949C1F8B6
:102BD000B00109490831086009E0002006490C31BC
:102BE00008600449C1F8B001034908310860D9E719
:102BF0008001214200802142B0812142B4010020A5
:102C0000C50300200600002053693434333843687C
:102C1000616E6E656C5365743D25640D0A0000009D
:102C200000002142000000200400002010B5724B7B
:102C3000187800EBD0735A100020D8E06F4B13F8CF
:102C4000103003F0F801C9100A297BD2DFE801F047
:102C5000CB052C537BCBCBCBCBA3684B13F81030DD
:102C600003F00703664C2380012303EB4003634C0E
:102C7000E35C03F01F03624CA38023469B8803EBB5
:102C8000C30404EB03134FF6FF7404EA83035C4CA4
:102C9000A38023461B88C3EB03134FF4A07404EBFB
:102CA0008303584C23809FE0544B13F8103003F0FB
:102CB0000703554C2380012303EB40034F4CE35C97
:102CC00003F01F03504CA38023469B8803EBC304EF
:102CD00004EB03134FF6FF7404EA83034A4CA3800A
:102CE00023461B88C3EB03134FF4A07404EB830348
:102CF000464C238078E0414B13F8103003F0070373
:102D0000434C2380012303EB40033C4CE35C03F082
:102D10001F033F4CA38023469B8803EBC30404EBB3
:102D200003134FF6FF7404EA8303394CA380234650
:102D30001B88C3EB03134FF4A07404EB8303354CDF
:102D4000238051E04FE02D4B13F8103003F00703C0
:102D5000314C2380012303EB4003284CE35C03F058
:102D60001F032D4CA38023469B8803EBC30404EB75
:102D700003134FF6FF7404EA8303274CA380234612
:102D80001B88C3EB03134FF4A07404EB8303214CA3
:102D9000241F238028E0194B13F8103003F0070399
:102DA0001E4C2380012303EB4003144CE35C03F02F
:102DB0001F031A4CA38023469B8803EBC30404EB38
:102DC00003134FF6FF7404EA8303144CA3802346D5
:102DD0001B88C3EB03134FF4A07404EB8303094C6B
:102DE000241F238000E000BF00BF431CD8B29042E4
:102DF000FFF624AF10BD000005000020DC0100201C
:102E0000C80000203C2C0140D000002034040040C9
:102E10001800002038080040200000204800002052
:102E200010B586B0044601210820FDF7F7FF012107
:102E30008804FDF7D3FF4FF48060ADF81400032041
:102E40008DF8160018208DF8170005A91548FDF714
:102E5000E4FC4FF40060ADF8140004208DF8170076
:102E600005A91048FDF7D9FC01940020ADF8080031
:102E7000ADF80A00ADF80C00ADF810000C20ADF86C
:102E80000E0001A90848FFF7FFFA012240F2255180
:102E90000548FFF7D3FA01210348FFF74BFA06B0C4
:102EA00010BD0000000C01400048004000C18140FE
:102EB00001C0804101C0804100C1814001C080410A
:102EC00000C1814000C1814001C0804101C08041FA
:102ED00000C1814000C1814001C0804100C18140EA
:102EE00001C0804101C0804100C1814001C08041DA
:102EF00000C1814000C1814001C0804100C18140CA
:102F000001C0804101C0804100C1814000C18140B9
:102F100001C0804101C0804100C1814001C08041A9
:102F200000C1814000C1814001C0804101C0804199
:102F300000C1814000C1814001C0804100C1814089
:102F400001C0804101C0804100C1814000C1814079
:102F500001C0804101C0804100C1814001C0804169
:102F600000C1814000C1814001C0804100C1814059
:102F700001C0804101C0804100C1814001C0804149
:102F800000C1814000C1814001C0804101C0804139
:102F900000C1814000C1814001C0804100C1814029
:102FA00001C0804101C0804100C1814000C0C10119
:102FB000C30302C2C60607C705C5C404CC0C0DCDA9
:102FC0000FCFCE0E0ACACB0BC90908C8D81819D919
:102FD0001BDBDA1A1EDEDF1FDD1D1CDC14D4D51549
:102FE000D71716D6D21213D311D1D010F03031F139
:102FF00033F3F23236F6F737F53534F43CFCFD3D69
:10300000FF3F3EFEFA3A3BFB39F9F83828E8E92958
:10301000EB2B2AEAEE2E2FEF2DEDEC2CE42425E508
:1030200027E7E62622E2E323E12120E0A06061A178
:1030300063A3A26266A6A767A56564A46CACAD6D28
:10304000AF6F6EAEAA6A6BAB69A9A86878B8B97998
:10305000BB7B7ABABE7E7FBF7DBDBC7CB47475B5C8
:1030600077B7B67672B2B373B17170B050909151B8
:103070009353529296565797559594549C5C5D9DE8
:103080005F9F9E5E5A9A9B5B9959589888484989D8
:103090004B8B8A4A4E8E8F4F8D4D4C8C4484854588
:1030A00087474686824243834181804008042171DC
:1030B0004B0000DC950805A62221F0415B2608E2C2
:1030C0002F1CBB0AA8942808058767E2581A075BDB
:1030D00008E1D072D88AB85B7D080511EC9E2823E0
:1030E0001B6D08E24F8AB2A92914130805D12E716D
:1030F0006A514C2C08E5802742A469B07F0805AAD4
:10310000812ABD45E8A808EAE4F024C99FCC3C0820
:103110000508F5050427629808EA6B6284A1F94A5C
:10312000E20805E977054F84EE3508E243C38DFBDD
:10313000AD5425080514065E39362F4508EA0C1CE7
:1031400074D011FC320805DA38BA0E3CE78B08EA75
:10315000B009E6FF94BBA90805D71129FEDC71D59B
:1031600008EA7F83A7609062180805847F6AD1917E
:10317000C65208EA2AD87B8E4A9F910805BDAA9DAF
:103180001618061508E255AD2D0A141F5D0805D363
:10319000E07C39CF01F008EF3A91726A03BB9608E0
:1031A000E7836DA492FC13A708EFF8FDCF62076FC9
:1031B0001E08E74CEA4A754FD6CF08E2F611E4261E
:1031C0000D4DC60805FBBFE80789C35108EF8227EC
:1031D000043F96A85808E741293C752A031C08EFCC
:1031E000AF599836AA0F0608E6F693412DEC0E99D2
:1031F0000805291990E5AA364008E7FB68107D7795
:103200005DC008E7CBB4DDCE9054BE08E7728AD625
:1032100002F4DDCC08E76A210B0286EC1508E77B97
:103220007C3D6B8103D008EF7D6136947CA0DF0884
:10323000EFCC853BDAE05C1C08E7E375BB39224B39
:10324000A808EFF9CEE05EEB1DCB08E7BDE270D534
:10325000AB4E3F08E7B78D20686B095208EFA11B02
:1032600090CD98006308EF54675D9C11FC4508E71A
:10327000D49BC897BE8A0708EF528D906373D52AF6
:1032800008EF03BC6E1C76BE4A08E7C2ED67BA5E63
:10329000662108EFE73F87BEE07A6D08E7C97093C3
:1032A0001D64F56C08EFF5280834B3B62C08EF3A26
:1032B0000AEC0FDB56CA08EF39A06EED79D024086E
:1032C000E76C0BAFA94E40B508E9B9AFBF2550D1A7
:1032D0003708059EDBDE3F94E96B08ECC505AA576D
:1032E000DC8A5E080570DA8484DDCA9007028100FA
:1032F00001C9C3800813200021000000000611004E
:103300000200520005110001032006110102000114
:10331000380811020400000000000D111009000817
:1033200014000F31000000000A1111060001B42B37
:103330000000001011120C00040108FFFF20020021
:10334000000000301011120C0C3000080480000046
:1033500000000000001011120C1800000000000016
:103360000000000000001011120C240000000000FA
:1033700000000000000000091112053000000000EC
:10338000001011200C000200070F424001C9C38049
:103390000005051120010C761011200C1801000801
:1033A000038000102000E8004B1011200C2406D3ED
:1033B000A007FF020000002386D40711200330007D
:1033C00098A00511200135E00711200338111010D5
:1033D0000811200440280CA4230E11200A450300E4
:1033E000AA0100FF060018400611200250840A06B8
:1033F000112002540307051120015700091120056F
:103400005B40040578201011210C007E641BBA5823
:103410000BDDCED6E6F6001011210C0C030315F0DF
:103420003F007E641BBA580B1011210C18DDCED65C
:10343000E6F600030315F03F000811220400087EA1
:10344000005D0B1123070034040B040770031011F7
:10345000300C000000000000000000000000000C24
:1034600011400800400AAAAA444420FE00000000BF
:103470009034000800000020DC0100006C0100080E
:1034800040350008DC010020140A0000C8010008D3
:1034900001DD84A24A048009010203040607080929
:1034A00013C51F1B0881041AA5041A49041A1D0418
:1034B0001A01041AE104139D1E1B08D5041AFD0C01
:1034C0001305201408C111140885131408AF121431
:1034D00008F110140855141B0865041A0D101A99E8
:1034E0001C1AD5141AE7101339151B08F5281AED04
:1034F000181B15272012281B086D044113C90B1C2B
:1035000008310C1C122914084D2A1B08DD181A89D1
:10351000081A1D041AAD041A7D041AD1141AE120E8
:103520001A410C1AC50C1A71081A1104C129D11AB2
:103530008970CB79251849E269E61C0204061E0051
:0400000508000219D4
:00000001FF
