:020000040800F2
:10000000C0080020D5010008950E0008210E000848
:10001000590E000849060008672400080000000087
:100020000000000000000000000000006F18000841
:10003000D1060008000000005D0F0008E11900086B
:10004000EF010008EF010008EF010008EF010008D0
:10005000EF010008EF010008EF010008EF010008C0
:10006000EF010008EF010008EF010008EF010008B0
:10007000EF010008EF010008EF010008EF010008A0
:10008000EF010008EF010008EF010008EF01000890
:10009000EF010008EF010008EF010008D306000897
:1000A000EF010008EF010008EF010008EF01000870
:1000B0008D1A00080D1B00084D1C0008EF010008F8
:1000C000EF010008EF010008EF010008EF01000850
:1000D000EF01000891220008EF010008EF0100087D
:1000E000EF010008EF010008EF010008EF01000830
:1000F000EF010008EF010008EF010008EF01000820
:10010000EF010008EF010008EF010008EF0100080F
:10011000EF010008EF010008EF010008EF010008FF
:10012000EF010008EF010008EF010008EF010008EF
:1001300000F002F800F03FF80AA090E8000C8244BA
:100140008344AAF10107DA4501D100F034F8AFF297
:10015000090EBAE80F0013F0010F18BFFB1A43F0A5
:1001600001031847FC2F00001C300000103A24BF88
:1001700078C878C1FAD8520724BF30C830C144BF0C
:1001800004680C607047000000230024002500264E
:10019000103A28BF78C1FBD8520728BF30C148BFEA
:1001A0000B607047642900F07780002070471FB50E
:1001B0001FBD10B510BD00F015FA1146FFF7F7FF8F
:1001C00002F08EFB00F033FA03B4FFF7F2FF03BC3A
:1001D00002F016FA0948804709480047FEE7FEE7A3
:1001E000FEE7FEE7FEE7FEE7FEE7FEE7FEE7FEE7E7
:1001F00004480549054A064B704700002D1A0008BF
:1002000031010008C0020020C0080020C004002006
:10021000C0040020704700000FB4044910B503AAC1
:10022000029800F07FF910BC5DF814FBCC000020B0
:100230002DE9F0410E460446002020622046E16888
:10024000884730B3252805D0D4E901219047206A9A
:10025000401CF2E7E168204600278847050018D0D7
:10026000A5F14100192802D820354FF40067324625
:10027000294620462760FFF795FF40B1012804D0AA
:10028000F61D26F007060836D8E7361DD6E72846BD
:10029000DAE7206ABDE8F0812DE9F0410646002446
:1002A00010687529314616A510D0AFF300800028DC
:1002B00002DA404213A507E031688A0701D512A58A
:1002C00002E0490704D511A5012401E0AFF3008045
:1002D00000210A2206F1240709E0B0FBF2FCB0FB82
:1002E000F2F302FB1C00303078541846491C0028F9
:1002F000F3D123462A463046BDE8F04100F0B9B8B4
:10030000000000002D0000002B0000002000000075
:1003100010B5431C02E010F8011B71B18107FAD13E
:100320004FF0013202C88C1A8C4314EAC211F9D082
:10033000C01A0A0603D0C01E10BDC01A10BD0A04A0
:1003400001D0801E10BD0902FCD0401E10BD032A42
:1003500040F2308010F0030C00F0158011F8013BE2
:10036000BCF1020F624498BF11F801CB00F8013BC9
:1003700038BF11F8013BA2F1040298BF00F801CB8D
:1003800038BF00F8013B11F0030300F0DD80083AAC
:10039000C0F0088051F8043B083A51F804CBA0E8BB
:1003A0000810F5E7121D5CBF51F8043B40F8043B10
:1003B000AFF30080D20724BF11F8013B11F801CB45
:1003C00048BF11F8012B24BF00F8013B00F801CB16
:1003D00048BF00F8012B70474FF000020429C0F01D
:1003E000128010F0030C00F01B80CCF1040CBCF167
:1003F000020F18BF00F8012BA8BF20F8022BA1EBB9
:100400000C0100F00DB85FEAC17C24BF00F8012B9D
:1004100000F8012B48BF00F8012B70474FF0000295
:1004200000B5134694469646203922BFA0E80C50EA
:10043000A0E80C50B1F12001BFF4F7AF090728BFC5
:10044000A0E80C5048BF0CC05DF804EB890028BF41
:1004500040F8042B08BF704748BF20F8022B11F06A
:10046000804F18BF00F8012B7047704770477047E6
:1004700070472DE9F0470D4699469246044600F133
:1004800024080168880604D5E06921F01001216084
:1004900000E00120A84201DD471B00E00027A16920
:1004A0007A1902EB0900081AA0612078C00602D46C
:1004B0002046AFF30080002608E0D4E901211AF8B5
:1004C00006009047206A401C761C20624E45F4DBF3
:1004D0002078C0060AD52046AFF3008006E0D4E9B4
:1004E000012130209047206A401C2062381EA7F16D
:1004F0000107F4DC07E0D4E9012118F80500904772
:10050000206A401C2062281EA5F10105F3DC20466C
:10051000AFF300802078000602D50220BDE8F08706
:100520000120FBE7074B70B50D467B4400F043F814
:100530000446284600F052F810B14FF0FF3070BD6D
:10054000204670BD9723000010B5203AC0F00B8004
:10055000B1E81850203AA0E81850B1E81850A0E8C7
:100560001850BFF4F5AF5FEA027C24BFB1E8185021
:10057000A0E8185044BF18C918C0BDE810405FEA91
:10058000827C24BF51F8043B40F8043B08BF70470D
:10059000D20728BF31F8023B48BF11F8012B28BF12
:1005A00020F8023B48BF00F8012B704701694A1C44
:1005B00002610878704700B58FB0CDE901310021A4
:1005C000059105497944CDE9031011466846FFF7C6
:1005D0002FFE0FB000BD0000E5FFFFFF007B00F025
:1005E00080007047754600F02BF8AE46050069465E
:1005F000534620F00700854618B020B5FFF7F8FDF8
:10060000BDE820404FF000064FF000074FF0000813
:100610004FF0000B21F00701AC46ACE8C009ACE894
:10062000C009ACE8C009ACE8C0098D46704710B5F8
:100630000446AFF300802046BDE81040FFF7C4BD7C
:10064000004870475C02002000BFFEE710B50024A0
:1006500040211C4800F084FA04468021194800F02B
:100660007FFA04EB4000C4B20121174800F078FA89
:1006700004EB8000C4B2072C21D2DFE804F020177D
:10068000041C0E1209004FF484701049088017E012
:100690004FF4C0700D49088012E081200B4908809A
:1006A0000EE040F601000949088009E04FF40160BE
:1006B0000649088004E018200449088000E000BFD3
:1006C00000BF10BD00080140000C0140202C01407B
:1006D000704710B54FF4807000F002F810BD0000B4
:1006E00001490860704700001404014000212349BB
:1006F0008279002A3AD00A46126803689A430B4668
:100700001A600A1D126803689A430B1D1A60027969
:1007100011440A6803681A430A60184A08321268CA
:1007200003689A43154B08331A601A1D1268036850
:100730009A43124B0C331A604279102A0ED11A1FB9
:10074000126803681A430D4B08331A601A1D1268A9
:1007500003681A43094B0C331A600DE007494279CC
:1007600011440A6803681A430A6005E002791144DB
:100770000A6803689A430A60704700000004014059
:1007800010B50B484168012088470948416802209C
:10079000884707484168032088474FF4805105483F
:1007A00000F0E9F900200449086001F01BF910BDD0
:1007B00034000020000C0140888121420149C860BA
:1007C000704700000020024030B5044604254FF475
:1007D000302000F085F80546042D17D10C4800693B
:1007E00040F002000A49086108464461006940F08F
:1007F000400008614FF4302000F072F805460448CC
:10080000006941F6FD71084001490861284630BD84
:100810000020024004200B49C96801F0010109B120
:1008200001200EE00749C96801F0040109B1022066
:1008300007E00449C96801F0100109B1032000E094
:1008400004207047002002400348006940F0800007
:1008500001490861704700000020024078B5064653
:100860000C46042500200090E80200F039F8054607
:10087000042D24D11348006940F00100114908619A
:100880003480E80200F02CF80546042D10D1B01C8D
:100890000090200C00990880E80200F021F805463D
:1008A0000848006941F6FE7108400649086106E003
:1008B0000448006941F6FE71084002490861284673
:1008C00078BD000000200240024803494860034808
:1008D000486070472301674500200240AB89EFCD97
:1008E00000B502460423FFF795FF034603E0FFF738
:1008F00091FF0346521E012B01D1002AF7D102B904
:100900000523184600BD000008B501211C2000F099
:1009100047FB0121084600F043FB18208DF8030037
:1009200003208DF802004FF46040ADF800006946E6
:100930000F4800F041F84FF4E060ADF80000694660
:100940000C4800F039F848208DF8030003208DF89A
:100950000200C020ADF800006946064800F02CF8FF
:100960000120ADF800006946014800F025F808BDF7
:10097000000C01400008014030B500228B071C0F1D
:100980000F2303FA04F20B4B8C1053F824309343DB
:10099000084C8D1044F8253023468C1053F8243031
:1009A0008C07240F00FA04F42343024C8D1044F802
:1009B000253030BD080001402DE9F04102460025F8
:1009C0000026002000230024002791F803C00CF02B
:1009D0000F0591F803C00CF0100CBCF1000F03D010
:1009E00091F802C04CEA050591F800C0BCF1000F77
:1009F00031D0146800202BE04FF0010C0CFA00F30A
:100A0000B1F800C00CEA03069E4220D183004FF0EB
:100A10000F0C0CFA03F7BC4305FA03FC4CEA040480
:100A200091F803C0BCF1280F06D14FF0010C0CFA6D
:100A300000FCC2F814C00AE091F803C0BCF1480FF2
:100A400005D14FF0010C0CFA00FCC2F810C0401C9C
:100A50000828D1D31460B1F800C0BCF1FF0F34DD19
:100A6000546800202EE000F1080C4FF0010808FA4D
:100A70000CF3B1F800C00CEA03069E4221D18300BA
:100A80004FF00F0C0CFA03F7BC4305FA03FC4CEAD9
:100A9000040491F803C0BCF1280F05D100F1080C43
:100AA00008FA0CF8C2F8148091F803C0BCF1480FA2
:100AB00007D100F1080C4FF0010808FA0CF8C2F851
:100AC0001080401C0828CED35460BDE8F08100009F
:100AD000F0B50A46002300240021002500F000465E
:100AE000B6F1004F02D11D4EF16901E01B4E716855
:100AF000C0F3034583B200F44016B6F5401F08D199
:100B000021F07061154E766826F07066134F7E6096
:100B100012E000F48016B6F5801F06D1032606FA0F
:100B200005F4A14341F0706106E0460D360103FA79
:100B300006F6B14341F0706122B1460D360103FA69
:100B400006F6314300F00046B6F1004F02D1034EE5
:100B5000F16101E0014E7160F0BD00000000014054
:100B60000246002093680B400BB1012000E00020FA
:100B700070474161704701617047000008B500216E
:100B8000214800909DF803300846491C1F4A135421
:100B90009DF802300846491C13549DF80130084660
:100BA000491C13549DF800300846491C135418483A
:100BB00000909DF803300846491C13549DF80230FC
:100BC0000846491C13549DF801300846491C13542B
:100BD0009DF800300846491C13540E4800909DF8BB
:100BE00003300846491C13549DF802300846491C3E
:100BF00013549DF801300846491C13549DF8000019
:100C00005054104608BD00007F040400E800002096
:100C10007F0302007F0201005548006830B155484B
:100C2000007820F040005349087007E051480078F0
:100C300040F040004F490870012048704E4800685D
:100C400030B94C48007820F080004A49087008E02C
:100C50004848007840F08000464908700020474925
:100C600008604748006830B14248007840F02000F2
:100C70004049087005E03F48007820F020003D49D9
:100C800008703F481C380068D8B93A48007820F00E
:100C90001000384908703B480088B0F5FA7F1EDD27
:100CA00033480838006828B90846007820F0020068
:100CB000087014E02F48007840F002002D490870B9
:100CC0000DE000202F49088001202F490870294895
:100CD000007840F01000274908700120487024482F
:100CE000001F006830B12348007820F00800214937
:100CF000087007E01F48007840F008001D490870A0
:100D0000012048701C480C30006830B11948007848
:100D100020F004001749087007E01648007840F0FA
:100D20000400144908700120487011480068A8B1F7
:100D30001148006890B91248006878B110481C3812
:100D4000006858B90A480838006838B90848001FD0
:100D5000006818B108480C30006820B90120064925
:100D60006831086003E0002003496831086070477B
:100D70003C0122423C000020208121422C00002026
:100D80002C012142280000203F00002010B51F49FF
:100D90000968486980471D480068016857208847EE
:100DA0001A4800680421026919489047194A1078C6
:100DB000164A1268116888471448006806210269BB
:100DC00015489047FFF7DAFE0446104800680C21EA
:100DD0000269204690470D490968086A80470B4818
:100DE000006801687520884708490968886A804753
:100DF0000A49C88305490968486A80470446074884
:100E0000C28B2146401CFFF7A2FA10BD0000002053
:100E1000080000203C0000200C0000203E010020C3
:100E200000BFFEE708B50121082000F0B9F8042052
:100E3000ADF8000010208DF8030003208DF80200AB
:100E400069460448FFF7B8FD04210248FFF791FE08
:100E500008BD0000000C014000BFFEE770B503466E
:100E6000FF24FF2509E011F8010B80EA040207487E
:100E7000805C80EA05040648855C181EA3F1010623
:100E8000F3B2F0D145EA042070BD00009C2B0008AD
:100E90009C2C00087047000070B5002100230F2231
:100EA000C47804B3154C246804F4E064C4F5E06429
:100EB000210AC1F10403CA40447804FA03F184789A
:100EC0001440214309010E4C0678A155047804F022
:100ED0001F050124AC4005786D11AD0005F1E0253A
:100EE000C5F8004109E0047804F01F050124AC4076
:100EF000044D0678761145F8264070BD0CED00E0F3
:100F000000E400E080E100E002490143024A116090
:100F1000704700000000FA050CED00E010B5024635
:100F200000200C4B186820F00300104318600A4B97
:100F30001B6843F00403084C2360012901D130BF32
:100F400000E020BF044B1B6823F00403024C236025
:100F500010BD00000070004010ED00E07047000080
:100F600029B1064AD2690243044BDA6104E0034A1C
:100F7000D2698243014BDA617047000000100240E1
:100F800029B1064A12690243044B1A6104E0034A7C
:100F900012698243014B1A61704700000010024041
:100FA00029B1064A92690243044B9A6104E0034A5C
:100FB00092698243014B9A61704700000010024021
:100FC00029B1064AD2680243044BDA6004E0034ABE
:100FD000D2688243014BDA60704700000010024083
:100FE00030B500210022002400232D4D6D6805F04E
:100FF0000C0121B1042905D0082923D105E0294D90
:10100000056022E0274D05601FE0254D6D6805F461
:101010007012234D6D6805F48034022505EB924271
:101020001CB9214D554305600BE01D4D6D6805F45D
:1010300000351DB11C4D5543056002E0194D554367
:10104000056002E0174D056000BF00BF144D6D68DC
:1010500005F0F0010909154D6B5C0568DD40456040
:101060000F4D6D6805F4E061090A104D6B5C456831
:10107000DD4085600A4D6D6805F46051C90A0B4D6D
:101080006B5C4568DD40C560054D6D6805F4404109
:10109000890B074D6B5CC568B5FBF3F5056130BD89
:1010A0000010024000127A0000093D00D20000202A
:1010B000E200002070B5044620252B462246802100
:1010C0000248007800F052FA002470BD06000020AB
:1010D00010B543480068007866287CD14048006815
:1010E0004078652877D13E4800688078572872D1CB
:1010F0003B480068C0783B49097888426BD1384842
:101100000068C07B642866D10E213548006801F074
:1011100085FA044632480068807BA04204D0402112
:101120003148FFF759F910BD2D480068407908B3E0
:101130002B48006840792D49097888421AD0284800
:101140000068407927490870254800684079274998
:1011500008702448017826484173264818222449FB
:1011600043680020984700F017F91E48017822A034
:10117000FFF752F82548007828B319480068407BEB
:10118000032811D101202249086022480078012853
:1011900009D100201F49087001201F490870012152
:1011A0001E4800F022FE0DE00020194908601A4890
:1011B000007830B90021194800F017FE00201849C6
:1011C000086000BF00BF1748FFF774FF0448002104
:1011D000016002E0FFE700F0C3FB00BFA3E70000EF
:1011E0004400002006000020FD0000200700002031
:1011F0007A010020C0000020474368616E6E656C74
:101200005365743D25640D0A0000000005000020B0
:10121000888121423F0000203E0000200004004061
:10122000740000203E01002010B503460020054C4C
:10123000234403E013F8014B0C54401C9042F9DBAB
:1012400010BD00000000010810B548F69F410120C4
:1012500000F0D2FCFFF758FB00F044FD10BD38B59C
:1012600004460020009034208DF800008DF80140E5
:101270000221684600F062FA38BD000070B5002413
:1012800008E0601C84B226490819294600F056FA85
:10129000601984B22248055D002DF2D1002141F28F
:1012A000062000F0A3F900214FF4905000F09EF9C1
:1012B000012141F2092000F099F92A2141F2082088
:1012C00000F094F9002141F20A2000F08FF900218A
:1012D00041F20D2000F08AF9012141F20E2000F0C8
:1012E00085F9002141F20F2000F080F9002141F240
:1012F000102000F07BF9002141F2112000F076F976
:10130000202141F2122000F071F9002141F2132056
:1013100000F06CF9002141F2142000F067F970BD73
:101320009C2D000808B50020009033208DF80000A7
:101330000121684600F002FA0321684600F0C0F877
:101340009DF8010000F00F0008BD000008B5012164
:101350000C20FFF725FE10208DF8030001208DF8EA
:1013600002000003ADF8000069460948FFF724FBBE
:1013700048208DF803000220ADF8000069460548BA
:10138000FFF71AFB4FF480510148FFF7F2FB08BD4D
:1013900000080140000C01401CB515490868804751
:1013A0001449086880471349486880471148816894
:1013B000114888470F49C86880470E4841697F2017
:1013C00088470C48016A0620884700BF0949C86958
:1013D00080470628FAD103200021CDE900100548F6
:1013E0000B460A46446A05480078A0471CBD000029
:1013F000B00000207C00002080C3C901060000204E
:1014000038B504460020009020208DF80000002010
:101410008DF801008DF802008DF803000421684664
:1014200000F08CF90921204600F04AF838BD1CB5BF
:10143000044600200090019002208DF80000012059
:101440008DF8010000208DF80200200E8DF80300B9
:10145000200C8DF80400200A8DF80500E0B28DF80C
:1014600006000721684600F069F91CBD70B5044606
:101470000025002600F03CF91048006820F40040E8
:101480000E490860772001F0CFF9FF2001F0CCF978
:1014900005462E4604E0FF2001F0C6F904F8010BD2
:1014A000281EA5F10101CDB2F5D10448006840F431
:1014B000004002490860304670BD00000C08014041
:1014C00070B504460D4600F013F90D48006820F48D
:1014D00000400B490860442001F0A6F904E0FF2019
:1014E00001F0A2F92070641C281EA5F10101CDB203
:1014F000F5D10348006840F400400149086070BD20
:101500000C08014010B50A48006840F480500849B2
:101510000860142001F0E6F80548006820F48050C7
:10152000034908600846006840F40040086010BDA8
:101530000C08014008B50020009015208DF800002F
:1015400002208DF801000221684600F0F7F808BD7E
:1015500008B50020009015208DF8000002208DF8BD
:1015600001000221684600F0E9F808BD2DE9F041CC
:101570000746884615461C462646FFF7E9FF1248EF
:10158000006820F4004010490860662001F04CF922
:10159000701CC6B2204601F047F903E015F8010BB4
:1015A00001F042F9201EA4F10101CCB2F6D10648A7
:1015B000006840F40040044908603246414638461D
:1015C00000F076F8BDE8F0810C08014010B5044643
:1015D000214642F2030000F022F810BD10B5044687
:1015E000214642F2012000F001F810BD7CB504460E
:1015F0000D4600200090019011208DF8000020126F
:101600008DF8010001208DF80200E0B28DF8030092
:101610008DF804500521684600F090F87CBD7CB53B
:1016200005460C4600200090019011208DF8000026
:1016300028128DF8010003208DF80200E8B28DF821
:101640000300200C8DF80400200A8DF80500E0B29C
:101650008DF806000721684600F070F87CBD2DE982
:10166000FC4705460F4614461E46DDE90A89002060
:1016700000900190FFF75EFFFFF76AFF32208DF8C0
:1016800000008DF801508DF80270E0B200128DF864
:101690000300E0B28DF804008DF805608DF8068037
:1016A0008DF807900821684600F048F8BDE8FC87EF
:1016B0007CB506460D46144600200090019031206E
:1016C0008DF800008DF801608DF80250E0B2001234
:1016D0008DF80300E0B28DF8040000208DF80500BD
:1016E0008DF806000721684600F028F87CBD000050
:1016F00070B5002500BF1048006820F400400E4976
:101700000860442001F090F8FF2001F08DF80446B5
:101710000948006840F40040074908602846691CF1
:101720008DB2B0F57A7F02D1FFF736FE01E0FF2CD3
:10173000E1D100BF70BD00000C08014070B5044647
:101740000D46FFF7D5FF0B48006820F4004009491B
:10175000086003E0207801F067F8641C281EA5F1FA
:101760000101CDB2F6D10348006840F400400149C0
:10177000086070BD0C08014008B501210820FFF782
:101780000FFC4FF48050ADF8000010208DF80300DE
:1017900003208DF8020069460448FFF70DF94FF465
:1017A00080510248FFF7E5F908BD0000000C014038
:1017B00021B1028842F04002028004E002884FF624
:1017C000BF731A400280704710B504461148844226
:1017D00008D101218014FFF7F3FB0021A014FFF7CB
:1017E000EFFB16E00C48844208D101210014FFF7FA
:1017F000C7FB00212014FFF7C3FB0AE0074884421F
:1018000007D10121C013FFF7BBFB0021E013FFF755
:10181000B7FB10BD0030014000380040003C0040E4
:101820000246002013890B400BB1012000E000208C
:10183000704710B50022028802F441520B884C8890
:1018400023438C882343CC8823430C8923434C892E
:1018500023438C892343CC8923431A430280838BFF
:101860004FF2FF74234083830B8A038210BD7047BD
:10187000004870474800002010B500F001F810BD86
:101880000CB50020019000903348006840F480308F
:101890003149086000BF3048006800F40030009013
:1018A0000198401C0190009818B90198B0F5A06FFC
:1018B000F1D12948006800F4003010B101200090F7
:1018C00001E0002000900098012843D123480068DF
:1018D00040F01000214908600846006820F003002D
:1018E00008600846006840F0020008601A48406836
:1018F000194948600846406848600846406840F416
:10190000806048600846406820F47C1048600846C3
:10191000406840F4E81048600846006840F0807075
:10192000086000BF0C48006800F000700028F9D083
:101930000948406820F003000749486008464068AD
:1019400040F00200486000BF0348406800F00C000F
:101950000828F9D10CBD0000001002400020024010
:101960001CB51148FFF74CFD0F48C07800F010007F
:10197000C8B10E48FFF77AFD044614B10B480C4974
:1019800008600620FFF76BFC00BFFFF7CBFC0628C2
:10199000FBD1032000210B460A46CDE90010054883
:1019A0000078FFF75CFE1CBDF4000020FD00002065
:1019B0004400002006000020042808D14FF0E02158
:1019C000096941F004014FF0E022116107E04FF096
:1019D000E021096921F004014FF0E0221161704714
:1019E0007047000010B501210807FFF7B9FA01217F
:1019F0000846FFF793FA00F019F8FFF7BDFE4FF421
:101A00007A7000F049FEFFF7C7FCFFF71DFC06489F
:101A10004FF47A710268012090470348012102685F
:101A20000220904710BD00003400002010B513487C
:101A3000006840F0010011490860084640681049FC
:101A400008400E494860084600680E4908400B49A6
:101A500008600846006820F4802008600846406856
:101A600020F4FE0048604FF41F008860FFF704FF79
:101A70004FF000600449086010BD000000100240F3
:101A80000000FFF8FFFFF6FE08ED00E010B50121B1
:101A9000880700F0C5F940B10121880700F0A2F9DC
:101AA00002480078401C0149087010BD3000002039
:101AB0007FB505460C4601210846FFF751FAADF8FF
:101AC0000850ADF804400020ADF80A00ADF806005B
:101AD00001A94FF0804000F0CDFA01221146900795
:101AE00000F0AFF91C208DF8000002208DF80100F5
:101AF0008DF8020001208DF803006846FFF7CCF94D
:101B00000121880700F071F97FBD000010B50121A7
:101B1000314800F085F900285DD001212E4800F001
:101B200061F92E480078E8B92D48007801280AD1DB
:101B300001212C4800F059F92B480068401C2A4923
:101B40000860FEF783FD28480068782843D300200A
:101B5000244920310880224908700021214800F0E2
:101B600044F938E02148006878B12148007860B92C
:101B700001211C4800F039F901201E49087000209D
:101B80001949086001201A4908701A48007801288C
:101B900006D115480068401C13490860FEF756FD41
:101BA00011480068782816D300200E49203108809B
:101BB00000210C4800F019F900200E4908700B486C
:101BC000006840B90A480078012804D1002008497B
:101BD00008700549086010BD0004004004000020A2
:101BE0003E000020002C0140740000201001214222
:101BF00079000020780000207FB505460C460121C1
:101C00000220FFF7ADF9ADF80850ADF80440002010
:101C1000ADF80A00ADF8060001A90B4800F02AFA59
:101C200001221146084800F00CF91D208DF8000033
:101C300002208DF8010001208DF802008DF80300CC
:101C40006846FFF729F97FBD0004004010B5012167
:101C5000094800F0E5F868B10121074800F0C2F832
:101C600006480088401C0549088005480068401C5B
:101C70000349086010BD0000000800402800002053
:101C80002C0000207FB505460C4601210420FFF7FB
:101C900067F9ADF80850ADF804400020ADF80A002F
:101CA000ADF8060001A90E4800F0E4F90122114642
:101CB0000B4800F0C6F81E208DF8000002208DF8B9
:101CC000010003208DF8020001208DF80300684612
:101CD000FFF7E2F80121024800F087F87FBD00001D
:101CE0000008004000B58BB00121C802FFF758F989
:101CF0004FF4FA60ADF824000220ADF82000002077
:101D0000ADF826004020ADF8220000208DF8280014
:101D100008A92B4800F0AEF97020ADF810000020A3
:101D2000ADF81200ADF81400ADF81800ADF81A00C7
:101D3000ADF81C00ADF81E000520ADF8160004A992
:101D40001F4800F087F808211D4800F0CFF8052053
:101D5000ADF8160004A91A4800F0D2F80821184876
:101D600000F020F90520ADF8160004A9144800F091
:101D700027F90821124800F073F94FF40060ADF81C
:101D800000004010ADF802008010ADF80400802083
:101D9000ADF806000020ADF808004FF48040ADF823
:101DA0000C006946064800F00DF80121044800F0D7
:101DB0001CF80121024800F024F80BB000BD00001F
:101DC000002C01400A884B881A438B881A43CB8821
:101DD0001A430B891A434B891A438B891A43A0F87B
:101DE00044207047CA430282704721B1028842F002
:101DF0000102028004E002884FF6FE731A4002805E
:101E0000704731B1B0F8442042F40042A0F84420B9
:101E100005E0B0F84420C2F30E02A0F84420704759
:101E200030B50246002000230024158A05EA01038C
:101E3000958905EA010413B10CB1012000E00020EE
:101E400030BD1AB183890B43838102E083898B43C0
:101E50008381704770B5002400220023058C4FF663
:101E6000FE7635400584028C8388048B4FF68F758F
:101E70002C40B51E2C400D882C43751E2A400D8920
:101E80002A434D882A43144DA8420BD0134DA84233
:101E900008D0134DA84205D0124DA84202D0124DD1
:101EA000A84213D14FF6F7752A404D892A434FF6C1
:101EB000FB752A408D882A434FF6FF652B404FF66D
:101EC000FF552B408D892B43CD892B438380048381
:101ED000CD888586028470BD002C0140003401400D
:101EE0000040014000440140004801400A460021F2
:101EF000018B4FF6F77319401143018370470000BF
:101F000070B5002400220023058C4FF6EF76354093
:101F10000584028C8388048B48F6FF752C404FF6AD
:101F2000FF452C400D884FF6FF7606EA05252C4329
:101F30004FF6DF752A400D8906EA05152A434D88BC
:101F400006EA05152A43154DA84202D0144DA842B1
:101F50001DD14FF67F752A404D894FF6FF7606EA70
:101F600005152A434FF6BF752A408D8806EA0515E8
:101F70002A434FF6FF352B404FF2FF752B408D89DA
:101F800006EA85052B43CD8906EA85052B43838028
:101F90000483CD880587028470BD0000002C0140B9
:101FA000003401400A460021018B4FF2FF731940B3
:101FB0004FF6FF7303EA02231943018370470000C1
:101FC00070B5002400220023058C4FF6FF663540D3
:101FD0000584028C8388848B4FF68F752C404FF6D6
:101FE000FC752C400D882C434FF6FF552A400D8977
:101FF0004FF6FF7606EA05252A434D8806EA0525B1
:102000002A43154DA84202D0144DA8421DD14FF2CB
:10201000FF752A404D894FF6FF7606EA05252A43CB
:102020004FF6FF352A408D8806EA05252A434EF6ED
:10203000FF752B404DF6FF752B408D8906EA05157F
:102040002B43CD8906EA05152B4383808483CD88F5
:102050008587028470BD0000002C014000340140DF
:102060000A460021818B4FF6F77319401143818393
:1020700070470000002202881D4B98420ED01D4B75
:1020800098420BD0B0F1804F08D01B4B984205D03E
:102090001A4B984202D01A4B984204D14FF68F73D4
:1020A0001A404B881A43174B984207D0164B984258
:1020B00004D04FF6FF431A40CB881A4302808B8826
:1020C00083850B8803850A4B98420BD0094B9842B5
:1020D00008D00E4B984205D00D4B984202D00D4BC4
:1020E000984201D10B7A0386012383827047000056
:1020F000002C014000340140000400400008004072
:10210000000C00400010004000140040004001405E
:10211000004401400048014008B50B490978891C7A
:10212000C8B20A49FEF79AFE00900848801C06498A
:1021300009680844BDF80010018003480068801C4D
:102140000149086008BD0000400000205E01002039
:1021500010B508480088801C81B2074800F05EFA7C
:1021600004490A680968491C024B19600249891C24
:10217000885410BD400000205E010020002004496A
:102180000860772003490870762048707047000087
:10219000400000205E01002070B505460C4607494E
:1021A000074A1268881822462946FEF7D0F80448E4
:1021B000006820440249086070BD000060010020F2
:1021C0004000002070B504462046FEF7A1F8054601
:1021D0000849094A126888182A462146FEF7B7F8C6
:1021E0002046FEF795F8044909680844024908604A
:1021F00070BD0000600100204000002001B50648CD
:10220000064909680844BDF80010018003480068C9
:10221000801C0249086008BD6001002040000020C9
:102220000549064A12681144086004490968091DF5
:10223000024A116070470000600100204000002049
:1022400004490A680968491C024B1960024988540C
:102250007047000040000020600100207521044804
:1022600002680068401C024B1860024881547047A5
:102270004000002060010020004870475E010020FF
:1022800002480088801C80B2704700004000002097
:1022900010B540F225511D4800F04AF810B31B4814
:1022A00000F0DCF8C4B21A48008800F40040C8B955
:1022B0001748008800F4804060B10A2C03D0002049
:1022C0001349088020E01248008840F4004010497B
:1022D000088019E00D2C06D10D48008840F480409C
:1022E0000B49088010E00A480088C0F30D00094936
:1022F0000C5407480088401C05490880084600889F
:10230000C72801DD0020088010BD00000038014012
:10231000D00000209201002021B1828942F40052B5
:10232000828104E082894DF6FF731A4082817047F2
:1023300070B50246002400230025002040F66A16EE
:10234000B14200D100BFC1F3421501F01F030126C5
:1023500006FA03F3012D02D19689334006E0022DDF
:1023600002D1168A334001E0968A33400C120126CE
:1023700006FA04F41688344013B10CB1012000E0D1
:10238000002070BD2DE9F04786B005460E460024BA
:10239000A24600BFA1460027B08900B100BF2F466A
:1023A0002C8A4CF6FF700440F08804432C82AC89E0
:1023B0004EF6F3100440B088318908437189084310
:1023C0000443AC81AC8A4FF6FF400440B08904431B
:1023D000AC8201A8FEF704FE1F48874202D1DDF857
:1023E00010A001E0DDF80CA0A88900F4004040B185
:1023F0000AEBCA0000EB0A1031684900B0FBF1F8A3
:1024000007E00AEBCA0000EB0A1031688900B0FB54
:10241000F1F86420B8FBF0F004012009642101FB0D
:102420001089A88900F4004040B1322000EBC900B7
:10243000B0FBF1F000F00700044308E0322000EBAD
:1024400009106421B0FBF1F000F00F0004432C816F
:1024500006B0BDE8F08700000038014001468888DA
:10246000C0F30800704700BFFEE700002DE9F04709
:1024700005460E4614460027B846FEF725FA3420D6
:10248000FEF79CF91248FEF79FF9124908700846BA
:102490000078042817D100BF0FE006EB080000F019
:1024A000B1F881460A4968184946FEF7D7F9094943
:1024B00008702D1D08F104087F1CE11704EB9171D1
:1024C000B7EBA10FE9DBFEF7BFF9BDE8F08700002D
:1024D00000000108BC00002008B501210020FEF723
:1024E0004BFA01211C20FEF75BFD1020ADF8000027
:1024F00048208DF8030003208DF802006946164835
:10250000FEF75AFA4FF40060ADF800006946124831
:10251000FEF752FA4FF40060ADF8000069460F482C
:10252000FEF74AFA4FF40050ADF8000069460C4837
:10253000FEF742FA4FF48040ADF8000069460848C3
:10254000FEF73AFA4FF40040ADF80000694604483F
:10255000FEF732FA08BD000000080140000C0140FF
:10256000001001401FB501210846FEF719FD0121A9
:102570000820FEF715FD08210120FEF7FDF94FF4B4
:102580000070ADF8000010208DF8030003208DF8D6
:10259000020069461848FEF70FFA4FF48070ADF854
:1025A000000048208DF8030003208DF802006946E2
:1025B0001148FEF701FA4FF48070029000208DF868
:1025C0000C0008208DF80D0001208DF80E0002A8E7
:1025D000FEF78CF817208DF8040000208DF8050018
:1025E00001208DF806008DF8070001A8FEF754FCC5
:1025F0000120024908601FBD000C0140A481214256
:1026000000BF70470146C87800068A7840EA024059
:102610004A7840EA02200A781043704730B50246F3
:102620000B46002010E012F8014B6040002109E049
:1026300000F001041CB18C2484EA600000E040102A
:102640004C1CE1B20829F3DB1C1EA3F10105ABB25F
:10265000E9D130BD10B56FF00400FFF7ADF90A48BD
:1026600000680A49B0FBF1F0094908700846007893
:1026700000EB4001C1EBC0104FF6FF7101EAC00052
:102680000449088010BD00001400002000127A00E8
:10269000C8000020CA0000200146114A12884A439F
:1026A0004FF0E0235A6100229A611A46126942F003
:1026B00001021A6100BF4FF0E022106900F0010230
:1026C0001AB100F48032002AF5D04FF0E0221269EE
:1026D00022F001024FF0E0231A6100229A61704754
:1026E000CA0000200146114A12784A434FF0E02305
:1026F0005A6100229A611A46126942F001021A6177
:1027000000BF4FF0E022106900F001021AB100F49E
:102710008032002AF5D04FF0E022126922F0010247
:102720004FF0E0231A6100229A617047C800002030
:1027300000B587B001210C20FEF732FC01210846CC
:10274000FEF72EFC01213448FEF7C2F901210846AC
:10275000FEF7BEF901208DF81A0018208DF81B0035
:102760000820ADF8180006A92C48FEF725F920200E
:10277000ADF8180006A92948FEF71EF920212748C0
:10278000FEF7F9F91020ADF8180006A92348FEF766
:1027900013F910212148FEF7EEF910208DF81B00E7
:1027A000C002ADF8180006A91D48FEF705F94FF460
:1027B00000411B48FEF7DFF91A48FFF705F8012131
:1027C0000803FEF7EDFB00211648FEF7F1FF00209D
:1027D000ADF804004FF48270ADF806000020ADF8AB
:1027E0000A00ADF80C00ADF808004FF40070ADF829
:1027F0000E002820ADF810000020ADF812000720D0
:10280000ADF8140001A90748FFF713F801210548A6
:10281000FEF7CEFF07B000BD00023000000C014003
:10282000000801400030014070B504460026002534
:1028300007E0681C80B205464FF6FF71884200D160
:1028400005E002210F48FEF7EBFF0028F1D000BFA2
:1028500047F6FF750B48848107E0681C80B2054687
:102860004FF6FF71884200D105E001210548FEF7CF
:10287000D7FF0028F1D000BF02488089C6B2304699
:1028800070BD00000030014070B504460D4616468C
:102890004FF400410A48FEF76CF905E02878FFF78D
:1028A000C3FF2070641C6D1C301EA6F101018EB2A6
:1028B000F4D14FF400410248FEF75DF970BD00000D
:1028C0000008014000BF054A128802F04002002AB9
:1028D000F9D0C2B2014B1B1D1A807047003801406D
:1028E0004FF4A060FEF710FBFFF7B4FE4FF4E130A9
:1028F00000F012F9FEF796FAFFF7EEFDFFF732FE51
:10290000FEF7A2FC4B4818224B4903680020984769
:102910004948407BFF2804D04748407B474908701E
:1029200002E00020454908704448017844A0FDF7C2
:1029300073FCFEF721FF4FF47A70FFF7ADFEFEF750
:102940002BFD45484FF47A710268012090474248B8
:102950000121026802209047FEF78AFF3F49086084
:1029600067E0FEF759F9FEF711FAFEF7B1FB3C48B4
:10297000006858BB3B48006840BB0A20FFF78CFE4C
:102980003748006810BB37480068F8B93648007807
:1029900008B9012000E000203349087014E03148F4
:1029A0005C30006808B9012000E000202D495C314E
:1029B00008606420FFF770FE2C48D0F83C0118B185
:1029C0002848006800B100E0E9E700BF2648007829
:1029D00028B100F057F800202549087002E00120D6
:1029E000234908701E480838006880B10121880713
:1029F000FFF7FBF91F480078022810DB00201E4972
:102A0000088000211C482038FFF7EFF907E000217B
:102A10004FF08040FFF7E9F9002016490870174889
:102A200000681749884204D9002014490860FDF75E
:102A3000A7FE96E7C00000207A01002006000020D3
:102A40005369343433384368616E6E656C53657412
:102A50003D25640D0A000000340000200000002025
:102A60003C0122422C81214204000020000022422D
:102A70000500002030000020202C01402C00002008
:102A8000C027090010B50648006820B90121054893
:102A9000FFF7ABF903E000210248FFF7A6F910BDEC
:102AA0002C0121420004004070B504460D46012C63
:102AB0000AD105EB85010122C2EB410188B241F642
:102AC0001F41FEF7F5FF0BE0022C09D105EB850154
:102AD0000122C2EB410188B241F61F41FFF7D2F853
:102AE00070BD000010B50446012C03D10021800701
:102AF000FFF77BF9022C03D100210548FFF775F998
:102B0000032C03D100210348FFF76FF910BD00002B
:102B1000000800400004004010B586B004460121C2
:102B200044F20800FEF73CFA01210846FEF738FAA5
:102B300001210420FDF7CCFF4020ADF81400032054
:102B40008DF8160018208DF8170005A91148FDF71B
:102B500033FF8020ADF8140004208DF8170005A97C
:102B60000C48FDF729FF01940020ADF80800ADF8EE
:102B70000A00ADF80C00ADF810000C20ADF80E0006
:102B800001A90548FFF7FEFB01210348FFF7C4FB3D
:102B900006B010BD000C01400038014000C181406A
:102BA00001C0804101C0804100C1814001C080411D
:102BB00000C1814000C1814001C0804101C080410D
:102BC00000C1814000C1814001C0804100C18140FD
:102BD00001C0804101C0804100C1814001C08041ED
:102BE00000C1814000C1814001C0804100C18140DD
:102BF00001C0804101C0804100C1814000C18140CD
:102C000001C0804101C0804100C1814001C08041BC
:102C100000C1814000C1814001C0804101C08041AC
:102C200000C1814000C1814001C0804100C181409C
:102C300001C0804101C0804100C1814000C181408C
:102C400001C0804101C0804100C1814001C080417C
:102C500000C1814000C1814001C0804100C181406C
:102C600001C0804101C0804100C1814001C080415C
:102C700000C1814000C1814001C0804101C080414C
:102C800000C1814000C1814001C0804100C181403C
:102C900001C0804101C0804100C1814000C0C1012C
:102CA000C30302C2C60607C705C5C404CC0C0DCDBC
:102CB0000FCFCE0E0ACACB0BC90908C8D81819D92C
:102CC0001BDBDA1A1EDEDF1FDD1D1CDC14D4D5155C
:102CD000D71716D6D21213D311D1D010F03031F14C
:102CE00033F3F23236F6F737F53534F43CFCFD3D7C
:102CF000FF3F3EFEFA3A3BFB39F9F83828E8E9296C
:102D0000EB2B2AEAEE2E2FEF2DEDEC2CE42425E51B
:102D100027E7E62622E2E323E12120E0A06061A18B
:102D200063A3A26266A6A767A56564A46CACAD6D3B
:102D3000AF6F6EAEAA6A6BAB69A9A86878B8B979AB
:102D4000BB7B7ABABE7E7FBF7DBDBC7CB47475B5DB
:102D500077B7B67672B2B373B17170B050909151CB
:102D60009353529296565797559594549C5C5D9DFB
:102D70005F9F9E5E5A9A9B5B9959589888484989EB
:102D80004B8B8A4A4E8E8F4F8D4D4C8C448485459B
:102D900087474686824243834181804008042171EF
:102DA0004B0000DC950805A62221F0415B2608E2D5
:102DB0002F1CBB0AA8942808058767E2581A075BEE
:102DC00008E1D072D88AB85B7D080511EC9E2823F3
:102DD0001B6D08E24F8AB2A92914130805D12E7180
:102DE0006A514C2C08E5802742A469B07F0805AAE7
:102DF000812ABD45E8A808EAE4F024C99FCC3C0834
:102E00000508F5050427629808EA6B6284A1F94A6F
:102E1000E20805E977054F84EE3508E243C38DFBF0
:102E2000AD5425080514065E39362F4508EA0C1CFA
:102E300074D011FC320805DA38BA0E3CE78B08EA88
:102E4000B009E6FF94BBA90805D71129FEDC71D5AE
:102E500008EA7F83A7609062180805847F6AD19191
:102E6000C65208EA2AD87B8E4A9F910805BDAA9DC2
:102E70001618061508E255AD2D0A141F5D0805D376
:102E8000E07C39CF01F008EF3A91726A03BB9608F3
:102E9000E7836DA492FC13A708EFF8FDCF62076FDC
:102EA0001E08E74CEA4A754FD6CF08E2F611E42631
:102EB0000D4DC60805FBBFE80789C35108EF8227FF
:102EC000043F96A85808E741293C752A031C08EFDF
:102ED000AF599836AA0F0608E6F693412DEC0E99E5
:102EE0000805291990E5AA364008E7FB68107D77A8
:102EF0005DC008E7CBB4DDCE9054BE08E7728AD639
:102F000002F4DDCC08E76A210B0286EC1508E77BAA
:102F10007C3D6B8103D008EF7D6136947CA0DF0897
:102F2000EFCC853BDAE05C1C08E7E375BB39224B4C
:102F3000A808EFF9CEE05EEB1DCB08E7BDE270D547
:102F4000AB4E3F08E7B78D20686B095208EFA11B15
:102F500090CD98006308EF54675D9C11FC4508E72D
:102F6000D49BC897BE8A0708EF528D906373D52A09
:102F700008EF03BC6E1C76BE4A08E7C2ED67BA5E76
:102F8000662108EFE73F87BEE07A6D08E7C97093D6
:102F90001D64F56C08EFF5280834B3B62C08EF3A39
:102FA0000AEC0FDB56CA08EF39A06EED79D0240881
:102FB000E76C0BAFA94E40B508E9B9AFBF2550D1BA
:102FC0003708059EDBDE3F94E96B08ECC505AA5780
:102FD000DC8A5E080570DA8484DDCA90070281000D
:102FE00001C9C38008132000210000000006110061
:102FF0000200520005110001032006110102000128
:10300000380811020400000000000D11100900082A
:1030100014000F31000000000A1111060001B42B4A
:103020000000001011120C00040108FFFF20020034
:10303000000000301011120C0C3000080480000059
:1030400000000000001011120C1800000000000029
:103050000000000000001011120C2400000000000D
:1030600000000000000000091112053000000000FF
:10307000001011200C000200070F424001C9C3805C
:103080000005051120010C761011200C1801000814
:10309000038000102000E8004B1011200C2406D300
:1030A000A007FF020000002386D407112003300090
:1030B00098A00511200135E00711200338111010E8
:1030C0000811200440280CA4230E11200A450300F7
:1030D000AA0100FF060018400611200250840A06CB
:1030E0001120025403070511200157000911200582
:1030F0005B40040578201011210C007E641BBA5837
:103100000BDDCED6E6F6001011210C0C030315F0F2
:103110003F007E641BBA580B1011210C18DDCED66F
:10312000E6F600030315F03F000811220400087EB4
:10313000005D0B1123070034040B0407700310110A
:10314000300C000000000000000000000000000C37
:1031500011400800400AAAAA444420FE00000000D2
:103160008031000800000020E80000006C01000829
:1031700068320008E8000020D80700008801000835
:10318000000000000000000000000000000000003F
:103190000000000000A24A0400000000000000003F
:1031A00001020304060708090000000000000000F7
:1031B00000000000A92A0008E52A0008000000001D
:1031C000000000000000000041220008FD2100086E
:1031D00021220008C5210008992100087D2100084E
:1031E0005D220008192100085121000879220008F9
:1031F0008122000800000000000000004D130008BC
:10320000051500082F1400087D120008CD150008D0
:10321000DD15000899130008251300085F12000847
:103220005F160008B11600086D1500086D1400083F
:103230003127000829280008892800080400000018
:10324000291200086D2400080000000000000000A2
:10325000000000000000010203040102030406074D
:08326000080902040608000041
:04000005080001D519
:00000001FF
