:020000040800F2
:1000000070080020CD010008810A00080D0A0008D0
:10001000450A000839040008AB1F00080000000072
:10002000000000000000000000000000B7130008FE
:10003000C104000800000000490B00082515000855
:10004000E7010008E7010008E7010008E7010008F0
:10005000E7010008E7010008E7010008E7010008E0
:10006000E7010008E7010008E7010008E7010008D0
:10007000E7010008E7010008E7010008E7010008C0
:10008000E7010008E7010008E7010008E7010008B0
:10009000E7010008E7010008E7010008C3040008C1
:1000A000E7010008E7010008E7010008E701000890
:1000B000D11500085116000891170008E701000843
:1000C000E7010008E7010008E7010008E701000870
:1000D000E7010008D51D0008E7010008E701000856
:1000E000E7010008E7010008E7010008E701000850
:1000F000E7010008E7010008E7010008E701000840
:10010000E7010008E7010008E7010008E70100082F
:10011000E7010008E7010008E7010008E70100081F
:10012000E7010008E7010008E7010008E70100080F
:1001300000F002F800F03AF80AA090E8000C8244BF
:100140008344AAF10107DA4501D100F02FF8AFF29C
:10015000090EBAE80F0013F0010F18BFFB1A43F0A5
:1001600001031847502A0000702A0000103A24BFEB
:1001700078C878C1FAD8520724BF30C830C144BF0C
:1001800004680C607047000000230024002500264E
:10019000103A28BF78C1FBD8520728BF30C148BFEA
:1001A0000B6070471FB51FBD10B510BD00F012F9F0
:1001B0001146FFF7F7FF02F0E5F800F030F903B45D
:1001C000FFF7F2FF03BC01F087FF000009488047FA
:1001D00009480047FEE7FEE7FEE7FEE7FEE7FEE729
:1001E000FEE7FEE7FEE7FEE704480549054A064B41
:1001F00070470000711500083101000870020020EE
:10020000700800207004002070040020704710B5B2
:10021000431C02E010F8011B71B18107FAD14FF0C5
:10022000013202C88C1A8C4314EAC211F9D0C01AE8
:100230000A0603D0C01E10BDC01A10BD0A0401D0AA
:10024000801E10BD0902FCD0401E10BD032A40F2E2
:10025000308010F0030C00F0158011F8013BBCF168
:10026000020F624498BF11F801CB00F8013B38BF80
:1002700011F8013BA2F1040298BF00F801CB38BF8E
:1002800000F8013B11F0030300F07280083AC0F05F
:10029000088051F8043B083A51F804CBA0E8081054
:1002A000F5E7121D5CBF51F8043B40F8043BAFF387
:1002B0000080D20724BF11F8013B11F801CB48BFE1
:1002C00011F8012B24BF00F8013B00F801CB48BF17
:1002D00000F8012B70474FF000020429C0F0128093
:1002E00010F0030C00F01B80CCF1040CBCF1020FE9
:1002F00018BF00F8012BA8BF20F8022BA1EB0C01BE
:1003000000F00DB85FEAC17C24BF00F8012B00F8B3
:10031000012B48BF00F8012B70474FF0000200B5D9
:10032000134694469646203922BFA0E80C50A0E818
:100330000C50B1F12001BFF4F7AF090728BFA0E8C6
:100340000C5048BF0CC05DF804EB890028BF40F892
:10035000042B08BF704748BF20F8022B11F0804FD4
:1003600018BF00F8012B70477047704770477047FF
:1003700010B5203AC0F00B80B1E81850203AA0E840
:100380001850B1E81850A0E81850BFF4F5AF5FEA74
:10039000027C24BFB1E81850A0E8185044BF18C927
:1003A00018C0BDE810405FEA827C24BF51F8043BCE
:1003B00040F8043B08BF7047D20728BF31F8023B22
:1003C00048BF11F8012B28BF20F8023B48BF00F8B6
:1003D000012B7047754600F02BF8AE4605006946C4
:1003E000534620F00700854618B020B5FFF7FCFE05
:1003F000BDE820404FF000064FF000074FF0000826
:100400004FF0000B21F00701AC46ACE8C009ACE8A6
:10041000C009ACE8C009ACE8C0098D46704710B50A
:100420000446AFF300802046BDE81040FFF7C7BE8A
:10043000004870471002002000BFFEE710B50024FE
:1004400040211C4800F0DEF904468021194800F0E4
:10045000D9F904EB4000C4B20121174800F0D2F9E9
:1004600004EB8000C4B2072C21D2DFE804F020178F
:10047000041C0E1209004FF484701049088017E024
:100480004FF4C0700D49088012E081200B490880AC
:100490000EE040F601000949088009E04FF40160D0
:1004A0000649088004E018200449088000E000BFE5
:1004B00000BF10BD00080140000C0140202C01408D
:1004C000704710B54FF4807000F002F810BD0000C6
:1004D00001490860704700001404014000212349CD
:1004E0008279002A3AD00A46126803689A430B467A
:1004F0001A600A1D126803689A430B1D1A6002797C
:1005000011440A6803681A430A60184A08321268DC
:1005100003689A43154B08331A601A1D1268036862
:100520009A43124B0C331A604279102A0ED11A1FCB
:10053000126803681A430D4B08331A601A1D1268BB
:1005400003681A43094B0C331A600DE007494279DE
:1005500011440A6803681A430A6005E002791144ED
:100560000A6803689A430A6070470000000401406B
:1005700010B50B48416801208847094841680220AE
:10058000884707484168032088474FF48051054851
:1005900000F043F900200449086000F0C5FF10BDD9
:1005A00030000020000C01408881214208B5012163
:1005B0001C2000F0EBFA0121084600F0E7FA1820B1
:1005C0008DF8030003208DF802004FF46040ADF871
:1005D000000069460F4800F041F84FF4E060ADF8C4
:1005E000000069460C4800F039F848208DF80300F7
:1005F00003208DF80200C020ADF8000069460648CF
:1006000000F02CF80120ADF800006946014800F028
:1006100025F808BD000C01400008014030B500225B
:100620008B071C0F0F2303FA04F20B4B8C1053F8AB
:1006300024309343084C8D1044F8253023468C1009
:1006400053F824308C07240F00FA04F42343024C9F
:100650008D1044F8253030BD080001402DE9F041EF
:10066000024600250026002000230024002791F8E0
:1006700003C00CF00F0591F803C00CF0100CBCF196
:10068000000F03D091F802C04CEA050591F800C0B4
:10069000BCF1000F31D0146800202BE04FF0010CAA
:1006A0000CFA00F3B1F800C00CEA03069E4220D118
:1006B00083004FF00F0C0CFA03F7BC4305FA03FC60
:1006C0004CEA040491F803C0BCF1280F06D14FF0A6
:1006D000010C0CFA00FCC2F814C00AE091F803C047
:1006E000BCF1480F05D14FF0010C0CFA00FCC2F828
:1006F00010C0401C0828D1D31460B1F800C0BCF170
:10070000FF0F34DD546800202EE000F1080C4FF09C
:10071000010808FA0CF3B1F800C00CEA03069E4287
:1007200021D183004FF00F0C0CFA03F7BC4305FAFC
:1007300003FC4CEA040491F803C0BCF1280F05D176
:1007400000F1080C08FA0CF8C2F8148091F803C004
:10075000BCF1480F07D100F1080C4FF0010808FA6E
:100760000CF8C2F81080401C0828CED35460BDE8B5
:10077000F0810000F0B50A46002300240021002586
:1007800000F00046B6F1004F02D11D4EF16901E0C4
:100790001B4E7168C0F3034583B200F44016B6F5F2
:1007A000401F08D121F07061154E766826F0706602
:1007B000134F7E6012E000F48016B6F5801F06D15C
:1007C000032606FA05F4A14341F0706106E0460DE8
:1007D000360103FA06F6B14341F0706122B1460DCD
:1007E000360103FA06F6314300F00046B6F1004F39
:1007F00002D1034EF16101E0014E7160F0BD0000D5
:10080000000001400246002093680B400BB101201C
:1008100000E00020704741617047016170470000AF
:100820000020514908605148D0F83C0130B150488F
:10083000007820F040004E4908700AE04C480078EB
:1008400040F040004A490870012047490860484983
:10085000487045486838006830B94548007820F04D
:100860008000434908700BE04148007840F0800068
:100870003F49087001203C49086000203D4908605C
:100880003D48006830B13A48007840F020003849CF
:10089000087008E03648007820F0200034490870DD
:1008A00001203149086034481C380068E8B93048F4
:1008B000007820F010002E49087030480088B0F50C
:1008C000FA7F23DD2E48006828B90846007820F01A
:1008D000020008701AE02648007840F0020024491F
:1008E000087001202049086010E001201E490860BE
:1008F0000020224908800120224908701C48007805
:1009000040F010001A490870012048701C48001D72
:10091000006830B11648007820F0080014490870CB
:100920000AE01348007840F00800114908700120DF
:100930000D4908600E4948700B485C38006830B1BA
:100940000B48007820F00400094908700AE00848C4
:10095000007840F004000649087001200249086050
:1009600003494870704700008881214200002242FC
:1009700038000020280000202C0121422400002003
:10098000340122423B00002010B51B490968486928
:100990008047194800680168572088471648006852
:1009A0000421026915489047154A1078124A1268C6
:1009B000116888471048006806210269114890476D
:1009C0000D490968086A80470B480068016875206E
:1009D000884709490968886A80470B49488206495F
:1009E0000968486A804704460748428A2146401CF5
:1009F000FFF72CFC10BD00000000002006000020C6
:100A0000380000200A0000202201002000BFFEE77D
:100A100008B50121082000F0B9F80420ADF8000065
:100A200010208DF8030003208DF802006946044869
:100A3000FFF714FE04210248FFF7EDFE08BD000099
:100A4000000C014000BFFEE770B50346FF24FF2500
:100A500009E011F8010B80EA04020748805C80EA93
:100A600005040648855C181EA3F10106F3B2F0D117
:100A700045EA042070BD0000F0250008F0260008BB
:100A80007047000070B5002100230F22C47804B322
:100A9000154C246804F4E064C4F5E064210AC1F153
:100AA0000403CA40447804FA03F1847814402143D3
:100AB00009010E4C0678A155047804F01F050124A5
:100AC000AC4005786D11AD0005F1E025C5F8004199
:100AD00009E0047804F01F050124AC40044D0678B9
:100AE000761145F8264070BD0CED00E000E400E012
:100AF00080E100E002490143024A116070470000B2
:100B00000000FA050CED00E010B5024600200C4B89
:100B1000186820F00300104318600A4B1B6843F06C
:100B20000403084C2360012901D130BF00E020BF3D
:100B3000044B1B6823F00403024C236010BD00002B
:100B40000070004010ED00E07047000029B1064A37
:100B5000D2690243044BDA6104E0034AD26982435A
:100B6000014BDA61704700000010024029B1064ACB
:100B700012690243044B1A6104E0034A126982437A
:100B8000014B1A61704700000010024029B1064A6B
:100B900092690243044B9A6104E0034A92698243DA
:100BA000014B9A61704700000010024029B1064ACB
:100BB000D2680243044BDA6004E0034AD2688243FD
:100BC000014BDA60704700000010024030B5002190
:100BD0000022002400232D4D6D6805F00C0121B189
:100BE000042905D0082923D105E0294D056022E01C
:100BF000274D05601FE0254D6D6805F47012234DEB
:100C00006D6805F48034022505EB92421CB9214D34
:100C1000554305600BE01D4D6D6805F400351DB1B1
:100C20001C4D5543056002E0194D5543056002E037
:100C3000174D056000BF00BF144D6D6805F0F00151
:100C40000909154D6B5C0568DD4045600F4D6D6809
:100C500005F4E061090A104D6B5C4568DD40856074
:100C60000A4D6D6805F46051C90A0B4D6B5C45680F
:100C7000DD40C560054D6D6805F44041890B074DA9
:100C80006B5CC568B5FBF3F5056130BD0010024033
:100C900000127A0000093D00C2000020D2000020AE
:100CA00070B5044614252B4622468021142000F0FE
:100CB00001FA002470BD000010B52E4800680078CD
:100CC000662853D12B480068407865284ED12948C2
:100CD00000688078572849D126480068C0781428D1
:100CE00044D124480068C07B64283FD10E212148AC
:100CF000006801F0F3F904461E480068807BA042BA
:100D000004D040211C48FFF7E6FA10BD1B480078CC
:100D100028B318480068407B032811D101201849E6
:100D2000086018480078012809D10020154908708A
:100D30000120154908700121144800F0F8FD0DE06C
:100D400000200F4908601048007830B900210F4892
:100D500000F0EDFD00200E49086000BF00BF0D4807
:100D6000FFF79EFF03480021016001E000F09CFBBB
:100D700000BFCAE740000020E1000020050000207D
:100D8000888121423B0000203A00002000040040FE
:100D9000700000202201002010B548F69F4101207C
:100DA00000F0CCFCFFF702FC00F03EFD10BD38B5B2
:100DB00004460020009034208DF800008DF801409A
:100DC0000221684600F05EFA38BD000070B50024CC
:100DD00008E0601C84B226490819294600F052FA3E
:100DE000601984B22248055D002DF2D1002141F244
:100DF000062000F09FF900214FF4905000F09AF97E
:100E0000012141F2092000F095F92A2141F2082040
:100E100000F090F9002141F20A2000F08BF9002146
:100E200041F20D2000F086F9012141F20E2000F080
:100E300081F9002141F20F2000F07CF9002141F2FC
:100E4000102000F077F9002141F2112000F072F932
:100E5000202141F2122000F06DF9002141F213200F
:100E600000F068F9002141F2142000F063F970BD30
:100E7000F027000808B50020009033208DF800000E
:100E80000121684600F0FEF90321684600F0BCF835
:100E90009DF8010000F00F0008BD000008B5012119
:100EA0000C20FFF773FE10208DF8030001208DF851
:100EB00002000003ADF8000069460948FFF7CEFBC9
:100EC00048208DF803000220ADF80000694605486F
:100ED000FFF7C4FB4FF480510148FFF79CFC08BDAD
:100EE00000080140000C01401CB514490868804707
:100EF000134908688047124948688047104881684C
:100F0000104888470E49C86880470D4841697F20CE
:100F100088470B48016A0620884700BF0849C8690E
:100F200080470628FAD103200021CDE900100448AB
:100F30000B460A46446A1420A0471CBDAC000020A2
:100F40007800002080C3C90138B504460020009015
:100F500020208DF8000000208DF801008DF802009F
:100F60008DF803000421684600F08CF90921204621
:100F700000F04AF838BD1CB50446002000900190EE
:100F800002208DF8000001208DF8010000208DF86E
:100F90000200200E8DF80300200C8DF80400200ABA
:100FA0008DF80500E0B28DF806000721684600F0D4
:100FB00069F91CBD70B504460025002600F03CF917
:100FC0001048006820F400400E490860772001F0C6
:100FD0008BF9FF2001F088F905462E4604E0FF203A
:100FE00001F082F904F8010B281EA5F10101CDB230
:100FF000F5D10448006840F40040024908603046DA
:1010000070BD00000C08014070B504460D4600F0AC
:1010100013F90D48006820F400400B490860442093
:1010200001F062F904E0FF2001F05EF92070641C19
:10103000281EA5F10101CDB2F5D10348006840F4A6
:1010400000400149086070BD0C08014010B50A4815
:10105000006840F4805008490860142001F0A2F8AC
:101060000548006820F4805003490860084600687D
:1010700040F40040086010BD0C08014008B5002095
:10108000009015208DF8000002208DF8010002214B
:10109000684600F0F7F808BD08B50020009015205C
:1010A0008DF8000002208DF801000221684600F052
:1010B000E9F808BD2DE9F0410746884615461C466B
:1010C0002646FFF7E9FF1248006820F40040104967
:1010D0000860662001F008F9701CC6B2204601F0D5
:1010E00003F903E015F8010B01F0FEF8201EA4F14E
:1010F0000101CCB2F6D10648006840F40040044932
:10110000086032464146384600F076F8BDE8F08186
:101110000C08014010B50446214642F2030000F0DD
:1011200022F810BD10B50446214642F2012000F01D
:1011300001F810BD7CB504460D46002000900190DA
:1011400011208DF8000020128DF8010001208DF88B
:101150000200E0B28DF803008DF8045005216846C6
:1011600000F090F87CBD7CB505460C460020009050
:10117000019011208DF8000028128DF80100032045
:101180008DF80200E8B28DF80300200C8DF8040001
:10119000200A8DF80500E0B28DF8060007216846A8
:1011A00000F070F87CBD2DE9FC4705460F4614465B
:1011B0001E46DDE90A89002000900190FFF75EFFDE
:1011C000FFF76AFF32208DF800008DF801508DF88E
:1011D0000270E0B200128DF80300E0B28DF8040056
:1011E0008DF805608DF806808DF807900821684617
:1011F00000F048F8BDE8FC877CB506460D4614466D
:1012000000200090019031208DF800008DF80160E1
:101210008DF80250E0B200128DF80300E0B28DF8B4
:10122000040000208DF805008DF8060007216846AF
:1012300000F028F87CBD000070B5002500BF104804
:10124000006820F400400E490860442001F04CF88A
:10125000FF2001F049F804460948006840F40040C6
:10126000074908602846691C8DB2B0F57A7F02D123
:10127000FFF73AFE01E0FF2CE1D100BF70BD000096
:101280000C08014070B504460D46FFF7D5FF0B482A
:10129000006820F400400949086003E0207801F06C
:1012A00023F8641C281EA5F10101CDB2F6D1034834
:1012B000006840F400400149086070BD0C0801401E
:1012C00008B501210820FFF761FC4FF48050ADF80C
:1012D000000010208DF8030003208DF802006946FD
:1012E0000448FFF7BBF94FF480510248FFF793FA27
:1012F00008BD0000000C014021B1028842F040020C
:10130000028004E002884FF6BF731A4002807047E3
:1013100010B504461148844208D101218014FFF71A
:1013200045FC0021A014FFF741FC16E00C48844264
:1013300008D101210014FFF719FC00212014FFF748
:1013400015FC0AE00748844207D10121C013FFF7CA
:101350000DFC0021E013FFF709FC10BD0030014037
:1013600000380040003C00400246002013890B403A
:101370000BB1012000E00020704710B50022028868
:1013800002F441520B884C8823438C882343CC8839
:1013900023430C8923434C8923438C892343CC89E1
:1013A00023431A430280838B4FF2FF7423408383CD
:1013B0000B8A038210BD704700487047440000202C
:1013C00010B500F001F810BD0CB5002001900090A0
:1013D0003348006840F480303149086000BF30482D
:1013E000006800F4003000900198401C01900098C3
:1013F00018B90198B0F5A06FF1D12948006800F440
:10140000003010B10120009001E000200090009811
:10141000012843D12348006840F0100021490860AA
:101420000846006820F0030008600846006840F0A5
:10143000020008601A484068194948600846406838
:1014400048600846406840F480604860084640684C
:1014500020F47C1048600846406840F4E81048607A
:101460000846006840F08070086000BF0C480068C3
:1014700000F000700028F9D00948406820F003000F
:10148000074948600846406840F00200486000BFD5
:101490000348406800F00C000828F9D10CBD00009A
:1014A00000100240002002401CB51148FFF74CFD1F
:1014B0000F48C07800F01000C0B10E48FFF77AFD69
:1014C000044614B10B480C4908600620FFF76FFC76
:1014D00000BFFFF7CFFC0628FBD1032000210B46FD
:1014E0000A46CDE900101420FFF75DFE1CBD000088
:1014F000D8000020E100002040000020042808D18E
:101500004FF0E021096941F004014FF0E022116140
:1015100007E04FF0E021096921F004014FF0E022DB
:10152000116170477047000010B501210807FFF7EF
:101530000DFB01210846FFF7E7FA00F019F8FFF765
:10154000BFFE4FF47A7000F007FEFFF7CDFCFFF707
:1015500023FC06484FF47A71026801209047034843
:10156000012102680220904710BD000030000020D9
:1015700010B51348006840F00100114908600846A2
:101580004068104908400E494860084600680E4906
:1015900008400B4908600846006820F48020086075
:1015A0000846406820F4FE0048604FF41F00886041
:1015B000FFF706FF4FF000600449086010BD00000F
:1015C000001002400000FFF8FFFFF6FE08ED00E00B
:1015D00010B50121880700F0C5F940B10121880745
:1015E00000F0A2F902480078401C0149087010BDC3
:1015F0002C0000207FB505460C4601210846FFF768
:10160000A5FAADF80850ADF804400020ADF80A0086
:10161000ADF8060001A94FF0804000F0CDFA01229C
:101620001146900700F0AFF91C208DF80000022051
:101630008DF801008DF8020001208DF80300684646
:10164000FFF720FA0121880700F071F97FBD000043
:1016500010B50121314800F085F900285DD0012145
:101660002E4800F061F92E480078E8B92D4800783E
:1016700001280AD101212C4800F059F92B480068B3
:10168000401C2A490860FEF7D9FE284800687828DF
:1016900043D30020244920310880224908700021CA
:1016A000214800F044F938E02148006878B1214829
:1016B000007860B901211C4800F039F901201E4969
:1016C000087000201949086001201A4908701A485A
:1016D0000078012806D115480068401C13490860AD
:1016E000FEF7ACFE11480068782816D300200E499A
:1016F0002031088000210C4800F019F900200E4923
:1017000008700B48006840B90A480078012804D1E5
:101710000020084908700549086010BD0004004019
:10172000040000203A000020002C0140700000203E
:101730001001214275000020740000207FB505468D
:101740000C4601210220FFF701FAADF80850ADF870
:1017500004400020ADF80A00ADF8060001A90B48CE
:1017600000F02AFA01221146084800F00CF91D2069
:101770008DF8000002208DF8010001208DF8020094
:101780008DF803006846FFF77DF97FBD0004004037
:1017900010B50121094800F0E5F868B101210748BA
:1017A00000F0C2F806480088401C0549088005483A
:1017B0000068401C0349086010BD0000000800409C
:1017C00024000020280000207FB505460C4601219A
:1017D0000420FFF7BBF9ADF80850ADF80440002035
:1017E000ADF80A00ADF8060001A90E4800F0E4F9D2
:1017F000012211460B4800F0C6F81E208DF80000AB
:1018000002208DF8010003208DF8020001208DF8E0
:1018100003006846FFF736F90121024800F087F817
:101820007FBD00000008004000B58BB00121C80258
:10183000FFF7ACF94FF4FA60ADF824000220ADF8E0
:1018400020000020ADF826004020ADF82200002046
:101850008DF8280008A92B4800F0AEF97020ADF8EB
:1018600010000020ADF81200ADF81400ADF818001B
:10187000ADF81A00ADF81C00ADF81E000520ADF85B
:10188000160004A91F4800F087F808211D4800F041
:10189000CFF80520ADF8160004A91A4800F0D2F8D8
:1018A0000821184800F020F90520ADF8160004A919
:1018B000144800F027F90821124800F073F94FF49A
:1018C0000060ADF800004010ADF802008010ADF8E7
:1018D00004008020ADF806000020ADF808004FF4A9
:1018E0008040ADF80C006946064800F00DF8012173
:1018F000044800F01CF80121024800F024F80BB065
:1019000000BD0000002C01400A884B881A438B88D8
:101910001A43CB881A430B891A434B891A438B8984
:101920001A43A0F844207047CA430282704721B18D
:10193000028842F00102028004E002884FF6FE7342
:101940001A400280704731B1B0F8442042F400429E
:10195000A0F8442005E0B0F84420C2F30E02A0F83D
:101960004420704730B50246002000230024158A29
:1019700005EA0103958905EA010413B10CB10120C0
:1019800000E0002030BD1AB183890B43838102E05F
:1019900083898B438381704770B500240022002324
:1019A000058C4FF6FE7635400584028C8388048BC7
:1019B0004FF68F752C40B51E2C400D882C43751E9C
:1019C0002A400D892A434D882A43144DA8420BD042
:1019D000134DA84208D0134DA84205D0124DA8427D
:1019E00002D0124DA84213D14FF6F7752A404D8907
:1019F0002A434FF6FB752A408D882A434FF6FF6530
:101A00002B404FF6FF552B408D892B43CD892B431F
:101A100083800483CD888586028470BD002C0140BC
:101A200000340140004001400044014000480140B2
:101A30000A460021018B4FF6F773194011430183C9
:101A40007047000070B5002400220023058C4FF67B
:101A5000EF7635400584028C8388048B48F6FF7549
:101A60002C404FF6FF452C400D884FF6FF7606EAD6
:101A700005252C434FF6DF752A400D8906EA05152A
:101A80002A434D8806EA05152A43154DA84202D07F
:101A9000144DA8421DD14FF67F752A404D894FF64F
:101AA000FF7606EA05152A434FF6BF752A408D8852
:101AB00006EA05152A434FF6FF352B404FF2FF7516
:101AC0002B408D8906EA85052B43CD8906EA8505DD
:101AD0002B4383800483CD880587028470BD00007A
:101AE000002C0140003401400A460021018B4FF2D6
:101AF000FF7319404FF6FF7303EA02231943018372
:101B00007047000070B5002400220023058C4FF6BA
:101B1000FF6635400584028C8388848B4FF68F7571
:101B20002C404FF6FC752C400D882C434FF6FF558A
:101B30002A400D894FF6FF7606EA05252A434D888F
:101B400006EA05252A43154DA84202D0144DA842A5
:101B50001DD14FF2FF752A404D894FF6FF7606EAF8
:101B600005252A434FF6FF352A408D8806EA0525CC
:101B70002A434EF6FF752B404DF6FF752B408D899D
:101B800006EA05152B43CD8906EA05152B4383800C
:101B90008483CD888587028470BD0000002C0140BD
:101BA000003401400A460021818B4FF6F77319403B
:101BB0001143818370470000002202881D4B984228
:101BC0000ED01D4B98420BD0B0F1804F08D01B4B6C
:101BD000984205D01A4B984202D01A4B984204D131
:101BE0004FF68F731A404B881A43174B984207D011
:101BF000164B984204D04FF6FF431A40CB881A4345
:101C000002808B8883850B8803850A4B98420BD012
:101C1000094B984208D00E4B984205D00D4B984284
:101C200002D00D4B984201D10B7A038601238382A7
:101C300070470000002C01400034014000040040C7
:101C400000080040000C004000100040001400405C
:101C500000400140004401400048014008B50B49E4
:101C60000978891CC8B20A49FEF7EEFE00900848C0
:101C7000801C064909680844BDF80010018003482B
:101C80000068801C0149086008BD00003C0000207D
:101C90003601002010B508480088801C81B2074832
:101CA00000F01CFA04490A680968491C024B1960D3
:101CB0000249891C885410BD3C00002036010020D8
:101CC0000020044908607720034908707620487096
:101CD000704700003C0000203601002070B505462A
:101CE0000C460749074A1268881822462946FEF71B
:101CF000ADFA0448006820440249086070BD000045
:101D0000380100203C00002070B504462046FEF754
:101D10007EFA05460849094A126888182A4621466B
:101D2000FEF794FA2046FEF772FA0449096808445F
:101D30000249086070BD0000380100203C0000200E
:101D400001B50648064909680844BDF8001001803D
:101D500003480068801C0249086008BD3801002063
:101D60003C0000200549064A1268114408600449F5
:101D70000968091D024A11607047000038010020FF
:101D80003C00002004490A680968491C024B19609C
:101D900002498854704700003C00002038010020B0
:101DA0007521044802680068401C024B1860024814
:101DB000815470473C0000203801002000487047E3
:101DC0003601002002480088801C80B27047000065
:101DD0003C00002010B540F225511D4800F04AF8A3
:101DE00010B31B4800F0DCF8C4B21A48008800F4B5
:101DF0000040C8B91748008800F4804060B10A2C40
:101E000003D000201349088020E01248008840F4E5
:101E100000401049088019E00D2C06D10D480088BB
:101E200040F480400B49088010E00A480088C0F365
:101E30000D0009490C5407480088401C05490880DA
:101E400008460088C72801DD0020088010BD00007A
:101E500000380140C00000204601002021B18289E5
:101E600042F40052828104E082894DF6FF731A40E9
:101E70008281704770B502460024002300250020AF
:101E800040F66A16B14200D100BFC1F3421501F01D
:101E90001F03012606FA03F3012D02D19689334070
:101EA00006E0022D02D1168A334001E0968A3340C3
:101EB0000C12012606FA04F41688344013B10CB152
:101EC000012000E0002070BD2DE9F04786B00546F6
:101ED0000E460024A24600BFA1460027B08900B1EB
:101EE00000BF2F462C8A4CF6FF700440F088044354
:101EF0002C82AC894EF6F3100440B0883189084337
:101F0000718908430443AC81AC8A4FF6FF4004401A
:101F1000B0890443AC8201A8FEF758FE1F488742EF
:101F200002D1DDF810A001E0DDF80CA0A88900F4D2
:101F3000004040B10AEBCA0000EB0A1031684900CA
:101F4000B0FBF1F807E00AEBCA0000EB0A103168B9
:101F50008900B0FBF1F86420B8FBF0F0040120091F
:101F6000642101FB1089A88900F4004040B13220AF
:101F700000EBC900B0FBF1F000F00700044308E0FB
:101F8000322000EB09106421B0FBF1F000F00F00EB
:101F900004432C8106B0BDE8F08700000038014002
:101FA00001468888C0F30800704700BFFEE70000C4
:101FB00008B501210020FEF731FB01211C20FEF7AE
:101FC000E5FD1020ADF8000048208DF80300032047
:101FD0008DF8020069461648FEF740FB4FF400609A
:101FE000ADF8000069461248FEF738FB4FF4006078
:101FF000ADF8000069460F48FEF730FB4FF4005083
:10200000ADF8000069460C48FEF728FB4FF480400D
:10201000ADF8000069460848FEF720FB4FF4004089
:10202000ADF8000069460448FEF718FB08BD000043
:1020300000080140000C0140001001401FB50121C3
:102040000846FEF7A3FD01210820FEF79FFD0821A9
:102050000120FEF7E3FA4FF40070ADF80000102005
:102060008DF8030003208DF8020069461848FEF73A
:10207000F5FA4FF48070ADF8000048208DF80300A9
:1020800003208DF8020069461148FEF7E7FA4FF485
:102090008070029000208DF80C0008208DF80D0053
:1020A00001208DF80E0002A8FEF718FA17208DF80F
:1020B000040000208DF8050001208DF806008DF841
:1020C000070001A8FEF7DEFC0120024908601FBDE1
:1020D000000C0140A481214200BF704730B5024688
:1020E0000B46002010E012F8014B6040002109E08F
:1020F00000F001041CB18C2484EA600000E0401070
:102100004C1CE1B20829F3DB1C1EA3F10105ABB2A4
:10211000E9D130BD10B56FF00400FFF7EFF90A48C0
:1021200000680A49B0FBF1F00949087008460078D8
:1021300000EB4001C1EBC0104FF6FF7101EAC00097
:102140000449088010BD00001000002000127A0031
:10215000B8000020BA0000200146114A12884A4304
:102160004FF0E0235A6100229A611A46126942F048
:1021700001021A6100BF4FF0E022106900F0010275
:102180001AB100F48032002AF5D04FF0E022126933
:1021900022F001024FF0E0231A6100229A61704799
:1021A000BA0000200146114A12784A434FF0E0235A
:1021B0005A6100229A611A46126942F001021A61BC
:1021C00000BF4FF0E022106900F001021AB100F4E4
:1021D0008032002AF5D04FF0E022126922F001028D
:1021E0004FF0E0231A6100229A617047B800002086
:1021F00000B587B001210C20FEF7C8FC012108467C
:10220000FEF7C4FC01213448FEF7B4FA0121084668
:10221000FEF7B0FA01208DF81A0018208DF81B0087
:102220000820ADF8180006A92C48FEF717FA202060
:10223000ADF8180006A92948FEF710FA2021274812
:10224000FEF7EBFA1020ADF8180006A92348FEF7B8
:1022500005FA10212148FEF7E0FA10208DF81B0046
:10226000C002ADF8180006A91D48FEF7F7F94FF4B3
:1022700000411B48FEF7D1FA1A48FFF749F801213F
:102280000803FEF783FC00211648FFF735F800200D
:10229000ADF804004FF48270ADF806000020ADF8F0
:1022A0000A00ADF80C00ADF808004FF40070ADF86E
:1022B0000E002820ADF810000020ADF81200072015
:1022C000ADF8140001A90748FFF757F801210548A8
:1022D000FFF712F807B000BD00023000000C01400B
:1022E000000801400030014070B50446002600257A
:1022F00007E0681C80B205464FF6FF71884200D1A6
:1023000005E002210F48FFF72FF80028F1D000BFA9
:1023100047F6FF750B48848107E0681C80B20546CC
:102320004FF6FF71884200D105E001210548FFF713
:102330001BF80028F1D000BF02488089C6B23046A1
:1023400070BD00000030014070B504460D461646D1
:102350004FF400410A48FEF75EFA05E02878FFF7DF
:10236000C3FF2070641C6D1C301EA6F101018EB2EB
:10237000F4D14FF400410248FEF74FFA70BD00005F
:1023800000080140FFF7C6FE4FF4A060FEF7B2FB65
:102390004FF4E13000F0EAF8FEF73AFBFFF708FEF1
:1023A000FFF74CFEFEF7F8FCFEF78AFF4FF47A7059
:1023B000FFF7D2FEFEF798FD3C484FF47A710268B1
:1023C0000120904739480121026802209047FEF71A
:1023D000F3FF3749086067E0FEF722FAFEF7D4FA08
:1023E000FEF76AFC3348006858BB3348006840BBBE
:1023F0000A20FFF7B1FE2F48006810BB2E48006886
:10240000F8B92E48007808B9012000E000202B49D7
:10241000087014E028485C30006808B9012000E02A
:10242000002025495C3108606420FFF795FE2448B0
:10243000D0F83C0118B12048006800B100E0E9E79D
:1024400000BF1E48007828B100F046F800201D4962
:10245000087002E001201B4908701648083800681F
:1024600080B101218807FFF762FA17480078022837
:1024700010DB002015490880002114482038FFF7A0
:1024800056FA07E000214FF08040FFF750FA002095
:102490000D4908700E4800680E49884204D9002092
:1024A0000B490860FEF764F896E700003000002052
:1024B000000000203C0122422C8121420400002027
:1024C00000002242050000202C000020202C0140AA
:1024D00028000020C027090010B50648006820B970
:1024E00001210548FFF723FA03E000210248FFF726
:1024F0001EFA10BD2C0121420004004070B50446B4
:102500000D46012C0AD105EB85010122C2EB4101E8
:1025100088B241F61F41FFF76DF80BE0022C09D19C
:1025200005EB85010122C2EB410188B241F61F4152
:10253000FFF74AF970BD000010B50446012C03D125
:1025400000218007FFF7F3F9022C03D10021054891
:10255000FFF7EDF9032C03D100210348FFF7E7F95A
:1025600010BD0000000800400004004010B586B017
:102570000446012144F20800FEF708FB0121084649
:10258000FEF704FB01210420FEF7F4F84020ADF82B
:10259000140003208DF8160018208DF8170005A9E7
:1025A0001148FEF75BF88020ADF8140004208DF888
:1025B000170005A90C48FEF751F801940020ADF86A
:1025C0000800ADF80A00ADF80C00ADF810000C20C2
:1025D000ADF80E0001A90548FFF776FC012103487C
:1025E000FFF73CFC06B010BD000C01400038014074
:1025F00000C1814001C0804101C0804100C18140D3
:1026000001C0804100C1814000C1814001C08041C2
:1026100001C0804100C1814000C1814001C08041B2
:1026200000C1814001C0804101C0804100C18140A2
:1026300001C0804100C1814000C1814001C0804192
:1026400000C1814001C0804101C0804100C1814082
:1026500000C1814001C0804101C0804100C1814072
:1026600001C0804100C1814000C1814001C0804162
:1026700001C0804100C1814000C1814001C0804152
:1026800000C1814001C0804101C0804100C1814042
:1026900000C1814001C0804101C0804100C1814032
:1026A00001C0804100C1814000C1814001C0804122
:1026B00000C1814001C0804101C0804100C1814012
:1026C00001C0804100C1814000C1814001C0804102
:1026D00001C0804100C1814000C1814001C08041F2
:1026E00000C1814001C0804101C0804100C18140E2
:1026F00000C0C101C30302C2C60607C705C5C404A2
:10270000CC0C0DCD0FCFCE0E0ACACB0BC90908C811
:10271000D81819D91BDBDA1A1EDEDF1FDD1D1CDC01
:1027200014D4D515D71716D6D21213D311D1D01071
:10273000F03031F133F3F23236F6F737F53534F461
:102740003CFCFD3DFF3F3EFEFA3A3BFB39F9F838D1
:1027500028E8E929EB2B2AEAEE2E2FEF2DEDEC2CC1
:10276000E42425E527E7E62622E2E323E12120E031
:10277000A06061A163A3A26266A6A767A56564A421
:102780006CACAD6DAF6F6EAEAA6A6BAB69A9A86891
:1027900078B8B979BB7B7ABABE7E7FBF7DBDBC7C81
:1027A000B47475B577B7B67672B2B373B17170B0F1
:1027B00050909151935352929656579755959454E1
:1027C0009C5C5D9D5F9F9E5E5A9A9B5B9959589851
:1027D000884849894B8B8A4A4E8E8F4F8D4D4C8C41
:1027E00044848545874746868242438341818040B1
:1027F000080421714B0000DC950805A62221F04158
:102800005B2608E22F1CBB0AA8942808058767E20C
:10281000581A075B08E1D072D88AB85B7D080511A9
:10282000EC9E28231B6D08E24F8AB2A929141308D5
:1028300005D12E716A514C2C08E5802742A469B05D
:102840007F0805AA812ABD45E8A808EAE4F024C962
:102850009FCC3C080508F5050427629808EA6B62DE
:1028600084A1F94AE20805E977054F84EE3508E2CC
:1028700043C38DFBAD5425080514065E39362F453C
:1028800008EA0C1C74D011FC320805DA38BA0E3C88
:10289000E78B08EAB009E6FF94BBA90805D7112920
:1028A000FEDC71D508EA7F83A76090621808058472
:1028B0007F6AD191C65208EA2AD87B8E4A9F910836
:1028C00005BDAA9D1618061508E255AD2D0A141F60
:1028D0005D0805D3E07C39CF01F008EF3A91726AC8
:1028E00003BB9608E7836DA492FC13A708EFF8FDDD
:1028F000CF62076F1E08E74CEA4A754FD6CF08E251
:10290000F611E4260D4DC60805FBBFE80789C35143
:1029100008EF8227043F96A85808E741293C752A0A
:10292000031C08EFAF599836AA0F0608E6F6934144
:102930002DEC0E990805291990E5AA364008E7FB09
:1029400068107D775DC008E7CBB4DDCE9054BE083B
:10295000E7728AD602F4DDCC08E76A210B0286EC26
:102960001508E77B7C3D6B8103D008EF7D613694D1
:102970007CA0DF08EFCC853BDAE05C1C08E7E37560
:10298000BB39224BA808EFF9CEE05EEB1DCB08E780
:10299000BDE270D5AB4E3F08E7B78D20686B09529A
:1029A00008EFA11B90CD98006308EF54675D9C1160
:1029B000FC4508E7D49BC897BE8A0708EF528D9064
:1029C0006373D52A08EF03BC6E1C76BE4A08E7C2C3
:1029D000ED67BA5E662108EFE73F87BEE07A6D08D3
:1029E000E7C970931D64F56C08EFF5280834B3B699
:1029F0002C08EF3A0AEC0FDB56CA08EF39A06EED4F
:102A000079D02408E76C0BAFA94E40B508E9B9AFFF
:102A1000BF2550D13708059EDBDE3F94E96B08ECFB
:102A2000C505AA57DC8A5E080570DA8484DDCA9081
:102A30000702810001C9C3800813200021000000A3
:102A400000061100020052000511000103200611CA
:102A500001020001380811020400000000000D11FD
:102A60001009000814000F31000000000A111106BF
:102A70000001B42B0000001011120C00040108FF2B
:102A8000FF200200000000301011120C0C30000872
:102A90000480000000000000001011120C1800005B
:102AA000000000000000000000001011120C2400C3
:102AB00000000000000000000000000911120530B5
:102AC00000000000001011200C000200070F42401F
:102AD00001C9C3800005051120010C761011200CDE
:102AE00018010008038000102000E8004B1011209E
:102AF0000C2406D3A007FF020000002386D4071190
:102B00002003300098A00511200135E007112003B3
:102B1000381110100811200440280CA4230E112095
:102B20000A450300AA0100FF060018400611200212
:102B300050840A0611200254030705112001570092
:102B4000091120055B40040578201011210C007E3E
:102B5000641BBA580BDDCED6E6F6001011210C0C22
:102B6000030315F03F007E641BBA580B1011210CB3
:102B700018DDCED6E6F600030315F03F000811225B
:102B80000400087E005D0B1123070034040B0407CA
:102B900070031011300C0000000000000000000065
:102BA0000000000C11400800400AAAAA444420FE7C
:102BB00000000000D42B000800000020D800000016
:102BC0006C010008AC2C0008D80000209807000019
:102BD0008801000800000000000000000000000064
:102BE0000000000000A24A040000000000000000F5
:102BF00001020304060708090000000000000000AD
:102C000000000000FD240008392500080000000035
:102C10000000000000000000851D0008411D0008A4
:102C2000651D0008091D0008DD1C0008C11C000806
:102C3000A11D00085D1C0008951C0008BD1D0008B2
:102C4000C51D000800000000000000009D0E0008E7
:102C50004D100008770F0008CD0D00081511000871
:102C600025110008E90E0008750E0008AF0D0008D8
:102C7000A7110008F9110008B5100008B50F0008E9
:102C8000F1210008E92200084923000800000000A3
:102C90000000000000000000000001020304010227
:0C2CA000030406070809020406080000EF
:04000005080001CD21
:00000001FF
