:020000040800F2
:10000000E8060020CD01000889070008490700081C
:10001000850700087D020008351800080000000070
:10002000000000000000000000000000830F000836
:1000300005030008000000001108000895100008E2
:10004000E7010008E7010008E7010008E7010008F0
:10005000E7010008E701000807030008E7010008BE
:10006000110300081B03000825030008E70100082E
:10007000E7010008E7010008E7010008E7010008C0
:10008000E7010008E7010008E7010008E7010008B0
:10009000E7010008E7010008E70100082F03000856
:1000A000E7010008E7010008E7010008E701000890
:1000B000F91000086D11000875120008E70100082A
:1000C000E7010008E7010008E7010008E701000870
:1000D000E7010008E7010008E7010008E701000860
:1000E000E7010008E7010008E7010008E701000850
:1000F000E7010008E7010008E7010008E701000840
:10010000E7010008E7010008E7010008E70100082F
:10011000E7010008E7010008E7010008E70100081F
:10012000E7010008E7010008E7010008E70100080F
:1001300000F002F800F03AF80AA090E8000C8244BF
:100140008344AAF10107DA4501D100F02FF8AFF29C
:10015000090EBAE80F0013F0010F18BFFB1A43F0A5
:1001600001031847241F0000441F0000103A24BF59
:1001700078C878C1FAD8520724BF30C830C144BF0C
:1001800004680C607047000000230024002500264E
:10019000103A28BF78C1FBD8520728BF30C148BFEA
:1001A0000B6070471FB51FBD10B510BD00F033F8D0
:1001B0001146FFF7F7FF01F0E1FC00F051F803B43E
:1001C000FFF7F2FF03BC01F09FFB000009488047E6
:1001D00009480047FEE7FEE7FEE7FEE7FEE7FEE729
:1001E000FEE7FEE7FEE7FEE704480549054A064B41
:1001F000704700009910000831010008E800002055
:10020000E8060020E8020020E8020020704770475E
:10021000704770477047754600F02CF8AE460500F1
:100220006946534620F00700854618B020B5FFF711
:10023000DBFFBDE820404FF000064FF000074FF015
:1002400000084FF0000B21F00701AC46ACE8C009F4
:10025000ACE8C009ACE8C009ACE8C0098D467047FD
:1002600010B50446AFF300802046BDE81040FFF70C
:10027000A6BF0000004870478800002000BFFEE7CE
:1002800010B5002440211C4800F0A2F9044680214A
:10029000194800F09DF904EB4000C4B20121174851
:1002A00000F096F904EB8000C4B2072C21D2DFE8FD
:1002B00004F02017041C0E1209004FF4847010493A
:1002C000088017E04FF4C0700D49088012E08120CB
:1002D0000B4908800EE040F601000949088009E05A
:1002E0004FF401600649088004E0182004490880A2
:1002F00000E000BF00BF10BD00080140000C01403D
:10030000202C0140704710B5012000F01BF810BDF3
:1003100010B5042000F016F810BD10B5082000F04C
:1003200011F810BD10B5102000F00CF810BD10B57C
:100330004FF4807000F00CF818B14FF4807000F0AA
:1003400001F810BD01490860704700001404014025
:10035000014600200022074B1B6803EA0102054BFF
:1003600014331B680B4013B10AB1012000E00020D8
:10037000704700000004014008B501211C2000F076
:1003800069FA0121084600F065FA18208DF803008B
:1003900003208DF802004FF46040ADF8000069467C
:1003A0000F4800F041F84FF4E060ADF800006946F6
:1003B0000C4800F039F848208DF8030003208DF830
:1003C0000200C020ADF800006946064800F02CF895
:1003D0000120ADF800006946014800F025F808BD8D
:1003E000000C01400008014030B500228B071C0FB3
:1003F0000F2303FA04F20B4B8C1053F82430934371
:10040000084C8D1044F8253023468C1053F82430C6
:100410008C07240F00FA04F42343024C8D1044F897
:10042000253030BD080001402DE9F041024600258D
:100430000026002000230024002791F803C00CF0C0
:100440000F0591F803C00CF0100CBCF1000F03D0A5
:1004500091F802C04CEA050591F800C0BCF1000F0C
:1004600031D0146800202BE04FF0010C0CFA00F39F
:10047000B1F800C00CEA03069E4220D183004FF081
:100480000F0C0CFA03F7BC4305FA03FC4CEA040416
:1004900091F803C0BCF1280F06D14FF0010C0CFA03
:1004A00000FCC2F814C00AE091F803C0BCF1480F88
:1004B00005D14FF0010C0CFA00FCC2F810C0401C32
:1004C0000828D1D31460B1F800C0BCF1FF0F34DDAF
:1004D000546800202EE000F1080C4FF0010808FAE3
:1004E0000CF3B1F800C00CEA03069E4221D1830050
:1004F0004FF00F0C0CFA03F7BC4305FA03FC4CEA6F
:10050000040491F803C0BCF1280F05D100F1080CD8
:1005100008FA0CF8C2F8148091F803C0BCF1480F37
:1005200007D100F1080C4FF0010808FA0CF8C2F8E6
:100530001080401C0828CED35460BDE8F081000034
:10054000F0B50A46002300240021002500F00046F3
:10055000B6F1004F02D11D4EF16901E01B4E7168EA
:10056000C0F3034583B200F44016B6F5401F08D12E
:1005700021F07061154E766826F07066134F7E602C
:1005800012E000F48016B6F5801F06D1032606FAA5
:1005900005F4A14341F0706106E0460D360103FA0F
:1005A00006F6B14341F0706122B1460D360103FAFF
:1005B00006F6314300F00046B6F1004F02D1034E7B
:1005C000F16101E0014E7160F0BD000000000140EA
:1005D0000246002093680B400BB1012000E0002090
:1005E00070474161704701617047000010B549488C
:1005F000006830B94848007820F08000464908700B
:1006000005E04548007840F08000434908704348C1
:10061000006830B14048007820F040003E49087042
:1006200005E03D48007840F040003B4908703B48F9
:100630002830006830B13848007820F02000364972
:10064000087005E03448007840F020003249087016
:1006500032481030006830B92F48007820F0100080
:100660002D49087005E02C48007840F010002A4918
:1006700008702A4810300068C0B9322001F068F9CB
:10068000264810300068B8B924480830006830B9EE
:100690002148007820F002001F4908700CE01E4835
:1006A000007840F002001C49087005E01A48007804
:1006B00020F00200184908701848001D006830B189
:1006C0001548007820F008001349087005E012482A
:1006D000007840F008001049087010480C3000689D
:1006E00030B10D48007820F004000B49087005E097
:1006F0000948007840F0040007490870064800786F
:1007000018B900200649086002E001200449086089
:1007100010BD0000208121422C0000200401214254
:10072000B401224210B50D20054908700548007833
:100730004870084600F018F900200249087010BD02
:10074000640000202C00002000BFFEE708B5012156
:10075000102000F07FF84FF40050ADF8000010209A
:100760008DF8030003208DF8020069460448FFF766
:100770005BFE4FF400510248FFF733FF08BD000055
:100780000010014000BFFEE77047000070B5002177
:1007900000230F22C47804B3154C246804F4E064E9
:1007A000C4F5E064210AC1F10403CA40447804FAA4
:1007B00003F184781440214309010E4C0678A155B9
:1007C000047804F01F050124AC4005786D11AD00DC
:1007D00005F1E025C5F8004109E0047804F01F05A3
:1007E0000124AC40044D0678761145F8264070BDD2
:1007F0000CED00E000E400E080E100E0024901438C
:10080000024A1160704700000000FA050CED00E09C
:100810007047000029B1064AD2690243044BDA61ED
:1008200004E0034AD2698243014BDA617047000059
:100830000010024029B1064A12690243044B1A61B2
:1008400004E0034A12698243014B1A6170470000B9
:100850000010024029B1064A92690243044B9A6192
:1008600004E0034A92698243014B9A617047000099
:100870000010024029B1064AD2680243044BDA60F4
:1008800004E0034AD2688243014BDA6070470000FB
:100890000010024030B500210022002400232D4D1D
:1008A0006D6805F00C0121B1042905D0082923D178
:1008B00005E0294D056022E0274D05601FE0254D2C
:1008C0006D6805F47012234D6D6805F480340225BF
:1008D00005EB92421CB9214D554305600BE01D4DBF
:1008E0006D6805F400351DB11C4D5543056002E0EF
:1008F000194D5543056002E0174D056000BF00BF6C
:10090000144D6D6805F0F0010909154D6B5C056823
:10091000DD4045600F4D6D6805F4E061090A104D3A
:100920006B5C4568DD4085600A4D6D6805F460517B
:10093000C90A0B4D6B5C4568DD40C560054D6D68AF
:1009400005F44041890B074D6B5CC568B5FBF3F5B9
:10095000056130BD0010024000127A0000093D0020
:10096000720000208200002070B504460225044871
:100970002B4622468021C66A0220B04770BD000087
:100980003000002010B548F69F41012000F042FCE5
:10099000FFF7F2FC00F0BCFC10BD38B504460020A7
:1009A000009034208DF800008DF801400221684647
:1009B00000F04EFA38BD000070B5002408E0601C5D
:1009C00084B226490819294600F042FA601984B217
:1009D0002248055D002DF2D1002141F2062000F0F1
:1009E0008FF900214FF4905000F08AF9012141F273
:1009F000092000F085F92A2141F2082000F080F951
:100A0000002141F20A2000F07BF9002141F20D2083
:100A100000F076F9012141F20E2000F071F9002179
:100A200041F20F2000F06CF9002141F2102000F09B
:100A300067F9002141F2112000F062F9202141F212
:100A4000122000F05DF9002141F2132000F058F966
:100A5000002141F2142000F053F970BDC41C0008BD
:100A600008B50020009033208DF800000121684671
:100A700000F0EEF90321684600F0ACF89DF80100A3
:100A800000F00F0008BD000008B501210C20FFF7A1
:100A9000E1FE10208DF8030001208DF80200000314
:100AA000ADF8000069460948FFF7BEFC48208DF804
:100AB00003000220ADF8000069460548FFF7B4FCCA
:100AC0004FF480510148FFF78CFD08BD000801403C
:100AD000000C01401CB500F0D9F94FF47A7000F019
:100AE00037FF14490868804713490868804712494E
:100AF0004868804710488168104888470E49C86890
:100B000080470D4841697F2088470B48016A0620CD
:100B1000884700BF0849C86980470628FAD10320E2
:100B20000021CDE9001004480B460A46446A022021
:100B3000A0471CBD140000203000002080C3C90164
:100B40001CB5044600200090019002208DF80000A2
:100B500001208DF8010000208DF80200200E8DF894
:100B60000300200C8DF80400200A8DF80500E0B287
:100B70008DF806000721684600F06AF91CBD0000E8
:100B800070B504460025002600F03CF910480068C6
:100B900020F400400E490860772000F0A1FFFF20FC
:100BA00000F09EFF05462E4604E0FF2000F098FF6F
:100BB00004F8010B281EA5F10101CDB2F5D10448BE
:100BC000006840F4004002490860304670BD0000F3
:100BD0000C08014070B504460D4600F013F90D48AD
:100BE000006820F400400B490860442000F078FFC2
:100BF00004E0FF2000F074FF2070641C281EA5F1A3
:100C00000101CDB2F5D10348006840F4004001492C
:100C1000086070BD0C08014010B50A48006840F437
:100C2000805008490860142000F0B8FE05480068AC
:100C300020F48050034908600846006840F40040F2
:100C4000086010BD0C08014008B500200090152078
:100C50008DF8000002208DF801000221684600F0A6
:100C6000F7F808BD08B50020009015208DF80000A9
:100C700002208DF801000221684600F0E9F808BD65
:100C80002DE9F0410746884615461C462646FFF7E3
:100C9000E9FF1248006820F400401049086066200F
:100CA00000F01EFF701CC6B2204600F019FF03E0E2
:100CB00015F8010B00F014FF201EA4F10101CCB2C5
:100CC000F6D10648006840F4004004490860324606
:100CD0004146384600F076F8BDE8F0810C08014046
:100CE00010B50446214642F2030000F022F810BD80
:100CF00010B50446214642F2012000F001F810BD73
:100D00007CB504460D4600200090019011208DF81E
:100D1000000020128DF8010001208DF80200E0B2E1
:100D20008DF803008DF804500521684600F090F816
:100D30007CBD7CB505460C4600200090019011203A
:100D40008DF8000028128DF8010003208DF80200B4
:100D5000E8B28DF80300200C8DF80400200A8DF80D
:100D60000500E0B28DF806000721684600F070F833
:100D70007CBD2DE9FC4705460F4614461E46DDE9BD
:100D80000A89002000900190FFF75EFFFFF76AFFDD
:100D900032208DF800008DF801508DF80270E0B21D
:100DA00000128DF80300E0B28DF804008DF80560A4
:100DB0008DF806808DF807900821684600F048F805
:100DC000BDE8FC877CB506460D4614460020009021
:100DD000019031208DF800008DF801608DF80250EF
:100DE000E0B200128DF80300E0B28DF8040000209C
:100DF0008DF805008DF806000721684600F028F8F8
:100E00007CBD000070B5002500BF1048006820F4CC
:100E100000400E490860442000F062FEFF2000F010
:100E20005FFE04460948006840F400400749086036
:100E30002846691C8DB2B0F57A7F02D1FFF74AFED1
:100E400001E0FF2CE1D100BF70BD00000C080140A3
:100E500070B504460D46FFF7D5FF0B48006820F437
:100E600000400949086003E0207800F039FE641C66
:100E7000281EA5F10101CDB2F6D10348006840F467
:100E800000400149086070BD0C08014008B501210F
:100E90000820FFF7DFFC4FF48050ADF80000102071
:100EA0008DF8030003208DF8020069460448FFF71F
:100EB000BBFA4FF480510248FFF793FB08BD0000D6
:100EC000000C014021B1028842F04002028004E09F
:100ED00002884FF6BF731A400280704710B504466F
:100EE0001148844208D101218014FFF7C3FC00217E
:100EF000A014FFF7BFFC16E00C48844208D1012182
:100F00000014FFF797FC00212014FFF793FC0AE080
:100F10000748844207D10121C013FFF78BFC002151
:100F2000E013FFF787FC10BD00300140003800409F
:100F3000003C00400246002013890B400BB1012009
:100F400000E00020704710B50022028802F44152F0
:100F50000B884C8823438C882343CC8823430C89FB
:100F600023434C8923438C892343CC8923431A434D
:100F70000280838B4FF2FF74234083830B8A0382AA
:100F800010BD704710B500F001F810BD0CB5002081
:100F9000019000903348006840F480303149086087
:100FA00000BF3048006800F4003000900198401CF9
:100FB0000190009818B90198B0F5A06FF1D12948B7
:100FC000006800F4003010B10120009001E0002022
:100FD00000900098012843D12348006840F0100099
:100FE000214908600846006820F0030008600846B0
:100FF000006840F0020008601A48406819494860DB
:101000000846406848600846406840F48060486090
:101010000846406820F47C1048600846406840F468
:10102000E81048600846006840F08070086000BF23
:101030000C48006800F000700028F9D009484068AA
:1010400020F00300074948600846406840F002006D
:10105000486000BF0348406800F00C000828F9D140
:101060000CBD00000010024000200240042808D1FE
:101070004FF0E021096941F004014FF0E0221161D5
:1010800007E04FF0E021096921F004014FF0E02270
:10109000116170477047000010B51348006840F0B8
:1010A00001001149086008464068104908400E498F
:1010B0004860084600680E4908400B490860084629
:1010C000006820F4802008600846406820F4FE0094
:1010D00048604FF41F008860FFF754FF4FF0006036
:1010E0000449086010BD0000001002400000FFF835
:1010F000FFFFF6FE08ED00E010B50121880700F0C3
:10110000A5F918B10121880700F082F910BD7FB55B
:1011100005460C4601210846FFF77CFBADF8085058
:10112000ADF804400020ADF80A00ADF8060001A9B2
:101130004FF0804000F0B4FA01221146900700F011
:1011400096F91E208DF8000001208DF80100022084
:101150008DF8020001208DF803006846FFF716FBAA
:101160000121880700F057F97FBD000010B501216B
:10117000214800F06BF900283DD001211E4800F005
:1011800047F91E480078401C1C4908701C4800683C
:1011900078B11C48007860B908460078142808DB4C
:1011A00001201949087000201849086001201549DC
:1011B000087015480078012806D114480068401CC2
:1011C00012490860FFF75CF810480068322812D313
:1011D00000200F4908800A48006860B90748007875
:1011E000142808DB002005490870074908700749E2
:1011F00008600449087010BD000400402D00002064
:10120000140121426D0000206C00002068000020C5
:10121000202C01407FB505460C4601210220FFF736
:10122000F9FAADF80850ADF804400020ADF80A0016
:10123000ADF8060001A90E4800F032FA012211466D
:101240000B4800F014F91D208DF8000000208DF8E7
:10125000010003208DF8020001208DF8030068468C
:10126000FFF794FA0021024800F0D5F87FBD000096
:101270000004004010B50121094800F0E7F870B102
:1012800008480068401C07490860084600683C2878
:1012900001DB002008600121014800F0B9F810BD11
:1012A00000080040200000207FB505460C460121C3
:1012B0000420FFF7AFFAADF80850ADF80440002065
:1012C000ADF80A00ADF8060001A90F4800F0E8F9F2
:1012D000012211460C4800F0CAF81E208DF80000CB
:1012E00000208DF8010004208DF8020001208DF807
:1012F00003006846FFF74AFA0121034800F08BF823
:101300000020024908607FBD000800402000002046
:1013100000B58BB00121C802FFF79CFA4FF4FA60C8
:10132000ADF824000220ADF820000020ADF8260022
:101330004020ADF8220000208DF8280008A92B4895
:1013400000F0AEF97020ADF810000020ADF81200EA
:10135000ADF81400ADF81800ADF81A00ADF81C0097
:10136000ADF81E000520ADF8160004A91F4800F0D6
:1013700087F808211D4800F0CFF80520ADF81600C9
:1013800004A91A4800F0D2F80821184800F020F902
:101390000520ADF8160004A9144800F027F908212B
:1013A000124800F073F94FF40060ADF800004010EF
:1013B000ADF802008010ADF804008020ADF8060002
:1013C0000020ADF808004FF48040ADF80C006946ED
:1013D000064800F00DF80121044800F01CF8012136
:1013E000024800F024F80BB000BD0000002C0140C2
:1013F0000A884B881A438B881A43CB881A430B8977
:101400001A434B891A438B891A43A0F8442070472A
:10141000CA430282704721B1028842F00102028071
:1014200004E002884FF6FE731A400280704731B123
:10143000B0F8442042F40042A0F8442005E0B0F89F
:101440004420C2F30E02A0F84420704730B5024693
:10145000002000230024158A05EA0103958905EA86
:10146000010413B10CB1012000E0002030BD1AB11D
:1014700083890B43838102E083898B438381704797
:1014800070B5002400220023058C4FF6FE7635400F
:101490000584028C8388048B4FF68F752C40B51E13
:1014A0002C400D882C43751E2A400D892A434D88F7
:1014B0002A43144DA8420BD0134DA84208D0134D17
:1014C000A84205D0124DA84202D0124DA84213D115
:1014D0004FF6F7752A404D892A434FF6FB752A408F
:1014E0008D882A434FF6FF652B404FF6FF552B4062
:1014F0008D892B43CD892B4383800483CD888586BA
:10150000028470BD002C01400034014000400140C5
:1015100000440140004801400A460021018B4FF67B
:10152000F7731940114301837047000070B5002420
:1015300000220023058C4FF6EF7635400584028C9F
:101540008388048B48F6FF752C404FF6FF452C40EE
:101550000D884FF6FF7606EA05252C434FF6DF751A
:101560002A400D8906EA05152A434D8806EA051525
:101570002A43154DA84202D0144DA8421DD14FF662
:101580007F752A404D894FF6FF7606EA05152A43F6
:101590004FF6BF752A408D8806EA05152A434FF697
:1015A000FF352B404FF2FF752B408D8906EA8505EC
:1015B0002B43CD8906EA85052B4383800483CD88A0
:1015C0000587028470BD0000002C014000340140FA
:1015D0000A460021018B4FF2FF7319404FF6FF734B
:1015E00003EA0223194301837047000070B5002409
:1015F00000220023058C4FF6FF6635400584028CDF
:101600008388848B4FF68F752C404FF6FC752C40E9
:101610000D882C434FF6FF552A400D894FF6FF7673
:1016200006EA05252A434D8806EA05252A43154D75
:10163000A84202D0144DA8421DD14FF2FF752A4096
:101640004D894FF6FF7606EA05252A434FF6FF350A
:101650002A408D8806EA05252A434EF6FF752B4061
:101660004DF6FF752B408D8906EA05152B43CD8974
:1016700006EA05152B4383808483CD888587028401
:1016800070BD0000002C0140003401400A460021DA
:10169000818B4FF6F7731940114381837047000027
:1016A000002202881D4B98420ED01D4B98420BD051
:1016B000B0F1804F08D01B4B984205D01A4B98428E
:1016C00002D01A4B984204D14FF68F731A404B88C0
:1016D0001A43174B984207D0164B984204D04FF646
:1016E000FF431A40CB881A4302808B8883850B887E
:1016F00003850A4B98420BD0094B984208D00E4BF9
:10170000984205D00D4B984202D00D4B984201D122
:101710000B7A03860123838270470000002C01406E
:10172000003401400004004000080040000C00406C
:1017300000100040001400400040014000440140FF
:101740000048014021B1828942F40052828104E0C4
:1017500082894DF6FF731A40828170472DE9F04768
:1017600086B005460E460024A24600BFA1460027CB
:10177000B08900B100BF2F462C8A4CF6FF700440A0
:10178000F08804432C82AC894EF6F3100440B088F4
:1017900031890843718908430443AC81AC8A4FF610
:1017A000FF400440B0890443AC8201A8FFF772F8FF
:1017B0001F48874202D1DDF810A001E0DDF80CA03F
:1017C000A88900F4004040B10AEBCA0000EB0A10FF
:1017D00031684900B0FBF1F807E00AEBCA0000EB02
:1017E0000A1031688900B0FBF1F86420B8FBF0F012
:1017F00004012009642101FB1089A88900F400403C
:1018000040B1322000EBC900B0FBF1F000F007005E
:10181000044308E0322000EB09106421B0FBF1F032
:1018200000F00F0004432C8106B0BDE8F0870000F3
:101830000038014000BFFEE708B501210020FEF797
:10184000D3FD01210420FFF705F82020ADF80000AA
:1018500048208DF8030003208DF8020069461448E3
:10186000FEF7E2FD4FF40060ADF800006946104855
:10187000FEF7DAFD1020ADF8000069460C48FEF7CF
:10188000D3FD0820ADF8000069460948FEF7CCFDFD
:101890000420ADF8000069460548FEF7C5FD0220AA
:1018A000ADF8000069460248FEF7BEFD08BD000025
:1018B0000008014008B501210820FEF7CBFF4FF4D6
:1018C0000070ADF8000010208DF8030003208DF8A3
:1018D000020069460A48FEF7A7FD4FF48070ADF894
:1018E000000048208DF8030003208DF802006946AF
:1018F0000348FEF799FD01200249086008BD000079
:10190000000C0140A481214200BF704710B56FF068
:101910000400FFF7ABFB0A4800680A49B0FBF1F08E
:10192000094908700846007800EB4001C1EBC0107F
:101930004FF6FF7101EAC0000449088010BD0000A5
:101940000000002000127A006E00002070000020CD
:101950000146114A12884A434FF0E0235A6100229F
:101960009A611A46126942F001021A6100BF4FF0F3
:10197000E022106900F001021AB100F48032002A5E
:10198000F5D04FF0E022126922F001024FF0E0237F
:101990001A6100229A617047700000200146114AC6
:1019A00012784A434FF0E0235A6100229A611A46A6
:1019B000126942F001021A6100BF4FF0E022106983
:1019C00000F001021AB100F48032002AF5D04FF085
:1019D000E022126922F001024FF0E0231A61002296
:1019E0009A6170476E00002000B587B001210C207D
:1019F000FEF730FF01210846FEF72CFF0121344895
:101A0000FEF79EFD01210846FEF79AFD01208DF8A4
:101A10001A0018208DF81B000820ADF8180006A940
:101A20002C48FEF701FD2020ADF8180006A9294832
:101A3000FEF7FAFC20212748FEF7D5FD1020ADF86F
:101A4000180006A92348FEF7EFFC10212148FEF7F5
:101A5000CAFD10208DF81B00C002ADF8180006A9C1
:101A60001D48FEF7E1FC4FF400411B48FEF7BBFDAB
:101A70001A48FFF733FA01210803FEF7EBFE0021B5
:101A80001648FFF71FFA0020ADF804004FF48270EB
:101A9000ADF806000020ADF80A00ADF80C00ADF876
:101AA00008004FF40070ADF80E002820ADF81000CB
:101AB0000020ADF812000720ADF8140001A9074876
:101AC000FFF741FA01210548FFF7FCF907B000BD17
:101AD00000023000000C01400008014000300140CD
:101AE00070B504460026002507E0681C80B2054654
:101AF0004FF6FF71884200D105E002210F48FFF741
:101B000019FA0028F1D000BF47F6FF750B48848111
:101B100007E0681C80B205464FF6FF71884200D18D
:101B200005E001210548FFF705FA0028F1D000BFC4
:101B300002488089C6B2304670BD000000300140C6
:101B400070B504460D4616464FF400410A48FEF7AC
:101B500048FD05E02878FFF7C3FF2070641C6D1C6A
:101B6000301EA6F101018EB2F4D14FF400410248BB
:101B7000FEF739FD70BD0000000801404FF4A06081
:101B8000FEF73CFEFFF7C2FE4FF4E13000F058F8DC
:101B9000FEF7DCFDFFF750FEFFF78CFEFEF7F2FECE
:101BA000FEF798FF15E00B48006820B901210A48AC
:101BB000FFF731FC06E000200849087000210648C4
:101BC000FFF729FCFEF712FDFEF7ACFD1420FFF72E
:101BD000BFFEE8E72C012142000400402D00002058
:101BE00070B504460D46012C0AD105EB8501012292
:101BF000C2EB410188B241F61F41FFF788FA0BE0C2
:101C0000022C09D105EB85010122C2EB410188B20A
:101C100041F61F41FFF748FB70BD000010B50446B8
:101C2000012C03D100218007FFF7F5FB022C03D123
:101C300000210248FFF7EFFB10BD00000008004044
:101C400010B586B00446012144F20800FEF702FEFA
:101C500001210846FEF7FEFD01210420FEF770FC7D
:101C60004020ADF8140003208DF8160018208DF8E0
:101C7000170005A91148FEF7D7FB8020ADF8140026
:101C800004208DF8170005A90C48FEF7CDFB019440
:101C90000020ADF80800ADF80A00ADF80C00ADF872
:101CA00010000C20ADF80E0001A90548FFF756FD05
:101CB00001210348FFF746FD06B010BD000C0140AE
:101CC00000380140080421714B0000DC950805A68E
:101CD0002221F0415B2608E22F1CBB0AA8942808A9
:101CE000058767E2581A075B08E1D072D88AB85BAB
:101CF0007D080511EC9E28231B6D08E24F8AB2A9CE
:101D00002914130805D12E716A514C2C08E580273F
:101D100042A469B07F0805AA812ABD45E8A808EA5F
:101D2000E4F024C99FCC3C080508F5050427629817
:101D300008EA6B6284A1F94AE20805E977054F8455
:101D4000EE3508E243C38DFBAD5425080514065E4D
:101D500039362F4508EA0C1C74D011FC320805DA1C
:101D600038BA0E3CE78B08EAB009E6FF94BBA90835
:101D700005D71129FEDC71D508EA7F83A760906240
:101D8000180805847F6AD191C65208EA2AD87B8E4A
:101D90004A9F910805BDAA9D1618061508E255AD83
:101DA0002D0A141F5D0805D3E07C39CF01F008EF40
:101DB0003A91726A03BB9608E7836DA492FC13A75D
:101DC00008EFF8FDCF62076F1E08E74CEA4A754F2F
:101DD000D6CF08E2F611E4260D4DC60805FBBFE894
:101DE0000789C35108EF8227043F96A85808E741A6
:101DF000293C752A031C08EFAF599836AA0F06082C
:101E0000E6F693412DEC0E990805291990E5AA36BE
:101E10004008E7FB68107D775DC008E7CBB4DDCEF6
:101E20009054BE08E7728AD602F4DDCC08E76A2136
:101E30000B0286EC1508E77B7C3D6B8103D008EF35
:101E40007D6136947CA0DF08EFCC853BDAE05C1C3A
:101E500008E7E375BB39224BA808EFF9CEE05EEB4B
:101E60001DCB08E7BDE270D5AB4E3F08E7B78D202C
:101E7000686B095208EFA11B90CD98006308EF54DE
:101E8000675D9C11FC4508E7D49BC897BE8A07088C
:101E9000EF528D906373D52A08EF03BC6E1C76BE9B
:101EA0004A08E7C2ED67BA5E662108EFE73F87BEE2
:101EB000E07A6D08E7C970931D64F56C08EFF528AA
:101EC0000834B3B62C08EF3A0AEC0FDB56CA08EF19
:101ED00039A06EED79D02408E76C0BAFA94E40B560
:101EE00008E9B9AFBF2550D13708059EDBDE3F9426
:101EF000E96B08ECC505AA57DC8A5E080570DA8430
:101F000084DDCA900702810001C9C3800813200044
:101F1000210000000006110002005200051100011E
:101F2000032006110102000138081102040000001C
:101F300000000D111009000814000F31000000000E
:101F40000A1111060001B42B0000001011120C0040
:101F5000040108FFFF200200000000301011120CE5
:101F60000C3000400480000000000000001011123E
:101F70000C1800000000000000000000000010111C
:101F8000120C240000000000000000000000000906
:101F90001112053000000000001011200C0002009A
:101FA000074C4B4001C9C3800028051120010CF6E5
:101FB0001011200C18010008038000003000E80018
:101FC0003C1011200C2408888907FF020000002320
:101FD0008FFF0711200330014CA00511200135E2CD
:101FE00007112003382207070811200440270CA4FA
:101FF000230E11200A4503013F0100FF080018408D
:102000000611200250840A0611200254040705110B
:1020100020015700091120055B40040978201011A8
:10202000210C00CCA130A021D1B9C9EA05121110B0
:1020300011210C0C0A0415FC0300CCA130A021D105
:102040001011210C18B9C9EA0512110A0415FC0374
:10205000000811220400087F005D0B112307000116
:10206000050B050200031011300C000000000000F9
:10207000000000000000000C11400800380DDDDDFC
:10208000444420FE00000000A820000800000020BA
:10209000880000006C010008302100088800002042
:1020A000600600008801000800A24A040000000049
:1020B000000000000102030406070809E9190008EE
:1020C000E11A0008411B000800000000E11B0008A5
:1020D0001D1C000800000000890A0008190C0008F7
:1020E000410B0008B9090008E10C0008F10C0008D8
:1020F000D50A0008610A00089B090008730D000852
:10210000C50D0008810C0008810B000800000000CC
:1021100000000000000000000000000000000102BC
:10212000030401020304060708090204060800006C
:04000005080001CD21
:00000001FF
