:020000040800F2
:100000009824002031020008512800089D21000892
:100010001328000829190008C93C00080000000046
:10002000000000000000000000000000B7320008DF
:10003000DD190008000000007D29000825340008B3
:100040004B0200084B0200084B0200084B0200085C
:100050004B0200084B0200085D1A00084B02000822
:100060004B0200084B0200084B0200084B0200083C
:100070004B0200084B0200084B0200084B0200082C
:100080004B0200084B0200084B0200084B0200081C
:100090004B0200084B0200084B020008911A0008AE
:1000A0004B0200084B0200084B0200084B020008FC
:1000B0008D3400080D350008953500084B02000806
:1000C0004B0200084B0200084B0200084B020008DC
:1000D0004B0200084B0200084B0200084B020008CC
:1000E000671A00084B0200084B0200084B02000888
:1000F0004B0200084B0200084B0200084B020008AC
:100100004B0200084B0200084B0200084B0200089B
:100110004B0200084B0200084B0200084B0200088B
:100120004B0200084B0200084B0200084B0200087B
:1001300000F002F800F06DF80AA090E8000C82448C
:100140008344AAF10107DA4501D100F062F8AFF269
:10015000090EBAE80F0013F0010F18BFFB1A43F0A5
:1001600001031847D08D0000F08D00000A444FF0C5
:10017000000C10F8013B13F0070408BF10F8014B06
:100180001D1108BF10F8015B641E05D010F8016B4B
:10019000641E01F8016BF9D113F0080F1EBF10F8AF
:1001A000014BAD1C0C1B09D16D1E58BF01F801CBD2
:1001B000FAD505E014F8016B01F8016B6D1EF9D555
:1001C0009142D6D37047000000230024002500266A
:1001D000103A28BF78C1FBD8520728BF30C148BFAA
:1001E0000B607047662908F01282642900F04E8087
:1001F000782900F08780002070471FB500F0B2FC1E
:1002000004000020002106F0C9FFE0601FBD10B50A
:1002100010BD00F0C7FD1146FFF7EFFF05F0D4F861
:1002200000F0E5FD03B4FFF7F2FF03BC04F0F5FBBB
:100230000948804709480047FEE7FEE7FEE7FEE77A
:10024000FEE7FEE7FEE7FEE7FEE7FEE704480549B6
:10025000054A064B704700002D34000831010008A4
:10026000981E00209824002098200020982000202C
:10027000704700000FB4044910B503AA029800F0BB
:100280002DFC10BC5DF814FB700000202DE9F0413E
:100290000646002410687529314616A510D0AFF324
:1002A0000080002802DA404213A507E031688A077F
:1002B00001D512A502E0490704D511A5012401E0EA
:1002C000AFF3008000210A2206F1240709E0B0FB09
:1002D000F2FCB0FBF2F302FB1C00303078541846FD
:1002E000491C0028F3D123462A463046BDE8F04198
:1002F00000F08CB9000000002D0000002B00000071
:100300002000000070B504460D4621461068AFF38A
:1003100000802188090502D50F4A7A4402E00E4A7E
:100320007A440E32002104F1240305E000F00F06A8
:100330000009965D5E54491C0028F7D120780023FF
:10034000000704D5702D02D009B1022311322046D6
:10035000BDE8704000F05AB9428A00002DE9F05F14
:10036000894604464FF0000ADFF824B1FB44C0F888
:1003700020A02046E168884700287DD0252806D0A7
:10038000D4E901219047206A401C2062F1E7002552
:100390005F462046E16888472028064607DB312E65
:1003A00005D2B81910F8200C08B10543F1E7A807E9
:1003B00001D525F00405C4F81CA00027C4F818A036
:1003C0002A2E09D0304604F021FB38B304EB87080D
:1003D000303EC8F8186019E059F8041B204604EBB9
:1003E00087029161E1688847012F064618D1E069CC
:1003F000002820DA25F020051DE0D8F8180000EBD1
:10040000800006EB40003038C8F818002046E1684C
:100410008847064604F0FAFA0028EED1012F0AD0E8
:100420002E2E08D12046E16888477F1C0646022F01
:1004300045F02005C4DBA069002803DA404245F0FE
:100440000105A061E80701D025F01005A6B1A6F1CD
:100450004100192802D8203645F400654A46314645
:10046000204625604D46FFF7BDFE60B1012807D04C
:10047000ED1D25F0070000E007E000F1080978E72E
:1004800005F1040975E730467AE7206ABDE8F09F78
:10049000188A000010B5431C02E010F8011B71B16E
:1004A0008107FAD14FF0013202C88C1A8C4314EA4A
:1004B000C211F9D0C01A0A0603D0C01E10BDC01A5E
:1004C00010BD0A0401D0801E10BD0902FCD0401EE0
:1004D00010BD032A40F2308010F0030C00F01580AC
:1004E00011F8013BBCF1020F624498BF11F801CB37
:1004F00000F8013B38BF11F8013BA2F1040298BF9C
:1005000000F801CB38BF00F8013B11F0030300F005
:10051000F782083AC0F0088051F8043B083A51F8D5
:1005200004CBA0E80810F5E7121D5CBF51F8043BAE
:1005300040F8043BAFF30080D20724BF11F8013B21
:1005400011F801CB48BF11F8012B24BF00F8013B83
:1005500000F801CB48BF00F8012B70474FF00002B4
:100560000429C0F0128010F0030C00F01B80CCF1C5
:10057000040CBCF1020F18BF00F8012BA8BF20F833
:10058000022BA1EB0C0100F00DB85FEAC17C24BF87
:1005900000F8012B00F8012B48BF00F8012B704731
:1005A0004FF0000200B5134694469646203922BF0C
:1005B000A0E80C50A0E80C50B1F12001BFF4F7AF57
:1005C000090728BFA0E80C5048BF0CC05DF804EB39
:1005D000890028BF40F8042B08BF704748BF20F8A7
:1005E000022B11F0804F18BF00F8012B70477047A5
:1005F00070477047704710B500F0B8FA006810BD3A
:1006000010B5044600F0B2FA046010BD2DE9F047C1
:100610000D4699469246044600F124080168880672
:1006200004D5E06921F01001216000E00120A8421A
:1006300001DD471B00E00027A1697A1902EB0900E0
:10064000081AA0612078C00602D42046AFF30080CB
:10065000002608E0D4E901211AF806009047206A34
:10066000401C761C20624E45F4DB2078C0060AD57B
:100670002046AFF3008006E0D4E901213020904706
:10068000206A401C2062381EA7F10107F4DC07E055
:10069000D4E9012118F805009047206A401C206227
:1006A000281EA5F10105F3DC2046AFF30080207879
:1006B000000602D50220BDE8F0870120FBE7704765
:1006C0002DE9FF4F0C461E464FF0FF378BB0D2E9A5
:1006D0000001DDF860800A908A46C1F30A5505B929
:1006E0003D46002108464FF00000BAF1000F00F42B
:1006F000400005DA00EB80004FF4400101EA5000B1
:100700004FEA9059B9F1010F00DDB9460A9850EA55
:100710004A000ED044F61050A5F2FF3545432F1481
:10072000B8F1000F1ED07542291E1EDDC9F100026E
:100730001CE0B8F1010F4FF0000001D0302103E0C0
:10074000F24305E02154401CB042FBDB304600225E
:10075000002121540B99C1F80880C1E900200FB095
:10076000BDE8F08FBD1B6D1CDEE74A4600DA69422A
:1007700006A800F09DFA06AB93E8070003AB83E8F8
:10078000070050460A9900F07BFB8DE80700A0F5B2
:1007900000501F3800900398002D0ADD42F21F011F
:1007A0004A460844002303A90390684600F0E4FD8C
:1007B00009E0A0F500504A461F38002303A9039022
:1007C000684600F0EEFD8DE807000004000C03D041
:1007D0004FF0FF30410800E01046B8F1000F03D0A1
:1007E0000022009215461EE0751E05D400F0C2F9E5
:1007F000303262556D1EF9D5B3460122084302D04E
:1008000000227F1C04E02078302801D100227F1EC6
:10081000002A099784D01DE0112D07DA00F0AAF90B
:10082000303262556D1C50EA0102F5D1084302D006
:100830000098C8B10EE00021681E05E0235C625CF0
:1008400063542254401E491C8142F7DBAB46A81B6F
:10085000401E0990002004F80B000B98099AC0F87C
:100860000880C0E9002B7AE711264FF0000857E70F
:100870002DE9F04F88460446D21D22F0070191B0C1
:10088000D1E90001CDE90A0103F064FF02460B98AB
:10089000C00F01D02D2007E02068810701D52B2053
:1008A00002E0202101EAC000032A099001D0072AB2
:1008B00005DB03464146204600F0BAF90BE12078FB
:1008C000800601D5E06900E00620B8F1650F814699
:1008D00006D0B8F1660F18D0B8F1670F70D131E0CB
:1008E0000020B9F1110F009001DB112301E009F1A3
:1008F00001030AAA01A90CA8FFF7E2FEDDE90C70CA
:10090000002609F10105834647E001204B4600908F
:100910004FF000470AAA01A90CA8FFF7D1FEDDE9B4
:100920000DB00C995D46002610B909F101000D18B3
:10093000B9EB050003D4C0F1FF3609F10105A5EBC1
:1009400009002BE0B9F1010F01DA4FF00109002095
:10095000B9F1110F0090484601DD112300E0034674
:100960000AAA01A90CA8FFF7ABFEDDE90C704D4601
:1009700000268346207800070AD4AB4500DA5D469E
:1009800001A8012D04DD411911F8011C302907D0FF
:100990004F4502DA17F1040F04DA012082460FE016
:1009A0006D1EEEE7002F02DCED1B3E4403E0781CD9
:1009B000A84200DD7D1CB81B00F1010A4FF0004782
:1009C0002078000703D4AA4501DB4FF0FF3A00214D
:1009D000B7F1004F0DF143088DF8431024D00220E9
:1009E0002B23002F01DA7F422D230A21021EA0F1C2
:1009F000010000DC5FB197FBF1FC97FBF1F201FB1A
:100A00001C7C17460CF1300C08F801CDEEE7A8F17C
:100A1000010003702188090501D5452100E0652109
:100A2000A0F1010800F8011C09980FA9A1EB080723
:100A3000FF1D00B10120411901EBEA70A1693844A2
:100A4000081A401EA0612078C00602D42046AFF3E9
:100A50000080099828B1D4E901219047206A401C00
:100A600020622078C00622D52046AFF300801EE029
:100A7000002E04DBB34502DD01A8805D00E03020DC
:100A8000D4E901219047206A401C2062761CAAF11B
:100A900001005FEA000A0AD100F064F8C06801684A
:100AA000405CD4E901219047206A401C2062281E46
:100AB000A5F10105DCDC07E0D4E9012118F8010B00
:100AC0009047206A401C2062381EA7F10107F3DC22
:100AD0002046AFF30080032011B041E6074B70B50C
:100AE0000D467B4400F091F80446284600F052F988
:100AF00010B14FF0FF3070BD204670BDA344000020
:100B000010B5203AC0F00B80B1E81850203AA0E8A8
:100B10001850B1E81850A0E81850BFF4F5AF5FEADC
:100B2000027C24BFB1E81850A0E8185044BF18C98F
:100B300018C0BDE810405FEA827C24BF51F8043B36
:100B400040F8043B08BF7047D20728BF31F8023B8A
:100B500048BF11F8012B28BF20F8023B48BF00F81E
:100B6000012B704700487047581E0020004870470E
:100B7000381E002030B5B0F10A024FEA900E71F134
:100B800000034EEA817EB0EB0E0061EB91014FEA6B
:100B9000101E4EEA017E10EB0E0041EB11114FEAE0
:100BA000102E4EEA016E10EB0E0041EB11214FEAC0
:100BB000104E4EEA014E10EB0E0041EB1141401871
:100BC00041F100014FEAD00040EA41704FEAD10103
:100BD00010EB80054FEA810444EA907444EB010471
:100BE0006D1944EB0404521BA3414FF0000348BFAE
:100BF0000A3200D530BD401C41F1000130BD00007B
:100C000001694A1C02610878704700B58FB0CDE9D0
:100C100001310021059105497944CDE903101146C0
:100C20006846FFF79BFB0FB000BD0000E5FFFFFF2C
:100C30002DE9F0411F46044603260168072A01F406
:100C4000006004DB08B116A505E016A503E008B1B5
:100C500015A500E015A521F010002060A069C01EB8
:100C6000A0610FB1401EA0612046AFF300804FB1DC
:100C7000D4E9012138469047206A401C2062C01CFC
:100C8000206206E0206AFAE7D4E9012115F8010B99
:100C90009047761EF8D22046AFF30080BDE8F08181
:100CA0004E414E006E616E00494E4600696E660010
:100CB0002DE9F047814616468AB0354878440DC87C
:100CC0008DE80D0032487844801C03AC0DC884E8E0
:100CD0000D0041F69B300844372190FBF1F290FB68
:100CE000F1F5A5F1800501FB12041B3C02D564421D
:100CF000012000E00020DFF898A080460027FA4499
:100D0000AAF1BE0A0EE0E0070AD03246684607EBB9
:100D1000470101230AEB810100F043FB8DE8070046
:100D200064107F1C002CEED1194F7F44AE3F19E0B8
:100D3000E80715D007EB04100DF1180A90E80E0033
:100D40008AE80E00C068F04201D198190890324636
:100D5000012306A903A800F024FB03AB83E80700E6
:100D60006D10641C002DE3D14FF00103324669463B
:100D7000B8F1000F03A802D000F0FEFA01E000F085
:100D800010FBC9E90001C9F808200AB0BDE8F087E6
:100D90000C820000007B00F0800070470048704724
:100DA000381E00207546FFF7F9FFAE46050069467C
:100DB000534620F00700854618B020B5FFF746FAE5
:100DC000BDE820404FF000064FF000074FF000084C
:100DD0004FF0000B21F00701AC46ACE8C009ACE8CD
:100DE000C009ACE8C009ACE8C0098D46704710B531
:100DF0000446AFF300802046BDE81040FFF712BA6A
:100E00004FF0013C50F8042B51F8043B9A4221D199
:100E1000A2EB0C03934313EACC1317D150F8042B25
:100E200051F8043B9A4215D1A2EB0C03934313EA09
:100E3000CC130BD150F8042B51F8043B9A4209D142
:100E4000A2EB0C03934313EACC13DBD04FF000006A
:100E5000704700BFD01A01BAB1FA81F101F0180150
:100E600022FA01F0CB40C1F12001DBB2C0B2C01ABE
:100E70002CFA01F3D11A914311EAC311E6D170475C
:100E80005FEA400C08BF91F0000F4FEA8C234FEA55
:100E9000C12243EA51514FEA1C5018BF00F5F040FF
:100EA0004FEA300018BF41F000415FEA6C5C00F08F
:100EB0002980BCF1FF3F08BF40F080407047130C11
:100EC00006BF12044FF0100C4FF0000C130E04BFBD
:100ED00012020CF1080C130F04BF12010CF1040CE8
:100EE000930F04BF92000CF1020CD30F04BF520009
:100EF0000CF1010C11464FF00002A0F11F00A0EB15
:100F00000C00704711F0004F08BF704731F00041EE
:100F10003FF4D5AF0B0C06BF09044FF0100C4FF097
:100F2000000C0B0E04BF09020CF1080C0B0F04BFE0
:100F300009010CF1040C8B0F04BF89000CF1020CA9
:100F4000CB0F04BF49000CF1010CCCF12003A0EB46
:100F50000C0022FA03F302FA0CF241EA030100F159
:100F60000100704720F07F4C80EA030023F07F47A8
:100F7000ACEB070303F57C5300F0004003F1FF03E3
:100F80002DE980494FEA154B09B44FEA144325EA8D
:100F90000B4E24EA03480FF2042606EB13274908F8
:100FA0003E785FEA320203FB0667C7F5000707FBDE
:100FB00006F64FEA54374FEAD64606F1020607FB1B
:100FC000066CCCF1005C4FEA1C472CEA074C07FB8F
:100FD00006F40CFB06F504EB15464FEA961634BFF3
:100FE00000204FF000404FEAD13706FB07FC4FEAE4
:100FF0001C4C0CFB0BF7D21B03FB0CF761EB07013E
:101000000CFB0EF7B0EB074072EB17420CFB08F736
:1010100034BFA2EB0742B2EB074261EB17414FEA44
:101020000C444FEA910706FB07FC4FEA1C4C0CFBF3
:101030000BF7B0EBC74072EB573203FB0CF734BF32
:10104000A2EBC742B2EBC74261EB57310CFB0EF784
:10105000B0EBC70072EB57720CFB08F734BFA2EB82
:10106000C702B2EBC70261EB5771039F4FEA816180
:1010700041EA921104EBCC044FEAD1374FEA826285
:1010800006FB07FC42EA90124FEA80604FEA1C4CD4
:101090000CFB0BF7D21B03FB0CF761EB07010CFBFE
:1010A0000EF7B0EB074072EB17420CFB08F734BFAA
:1010B000A2EB0742B2EB074261EB17414FEA8C55B6
:1010C0004FEA910704EB9C2406FB07FC4FEA1C4CFB
:1010D0000CFB0BF7B0EBC74072EB573203FB0CF77E
:1010E00034BFA2EBC742B2EBC74261EB57310CFBF6
:1010F0000EF7B0EBC70072EB57720CFB08F734BF6A
:10110000A2EBC702B2EBC70261EB577115EB4C259E
:101110004FEA816141EA92114FEA82624FEAD13788
:1011200042EA901206FB07FC44F100044FEA80609B
:101130004FEA1C4C0CFB0BF7D21B03FB0CF761EBCB
:1011400007010CFB0EF7B0EB074072EB17420CFBEC
:1011500008F734BFA2EB0742B2EB074261EB17413D
:1011600015EB1C154FEA813141EA92414FEA823278
:1011700042EA90424FEA80304FEA0C7644F1000494
:1011800048EA03434EEA0B484FF0000EB2EB080C5E
:1011900071EB030724BF624639464EEB0E0E4FF04B
:1011A000000B0018524149414BEB0B0BB2EB080C02
:1011B00071EB03077BF1000B24BF624639464EEB0F
:1011C0000E0E4FF0000B0018524149414BEB0B0B38
:1011D000B2EB080C71EB03077BF1000B24BF6246F6
:1011E00039464EEB0E0E51EA020718BF46F00106D3
:1011F00016EB0E7655F1000254F1000103D5BDE85F
:101200008901BDE80088BDE88901BDE80048B6193C
:10121000524141EB0101A3F10103704780807F7EC1
:101220007D7C7B7A7978777676757473727171705C
:101230006F6E6E6D6C6C6B6A6A696868676666650E
:101240006464636362616160605F5F5E5E5D5D5C9C
:101250005C5B5B5A5A59595858575756565555550D
:101260005454535352525251515050504F4F4F4E6D
:101270004E4D4D4D4C4C4C4B4B4B4A4A4A494949BB
:1012800048484847474747464646454545444444FD
:10129000444343434342424242414141002B9C4626
:1012A00030D477002BD01CB54FEA370703B44FF08A
:1012B00010004FF01001BAF1000F06D0BCF1000F82
:1012C000DCBF40F0080040F008014FF000000FBC08
:1012D000BDE810400BF1010BBBF1010F08BF5FEA45
:1012E000170722BF12F1010211F101014FF0004175
:1012F00043F1000300F0004043EA00007047F9D3D7
:101300005708D0E746EA064613F1400F4FEA164663
:101310001FDD13F1200FDFBF16430A4600212033E3
:101320005B42BED0C3F1200746EA064602FA07F741
:101330004FEA164646EA0706C3F1200722FA03F2EF
:1013400001FA07F721FA03F14FF0000342EA07021E
:10135000A7E746EA020646EA06464FEA164646EA86
:101360000106BCBF46EA0646360C4FF000034FF0BC
:1013700000024FF0000194E72DE9804C9A46934615
:1013800070B491E8380007C831EA400C48BF34EA2D
:10139000430C03D5FFF7E6FDFFF780FFF0BCBDE887
:1013A000008C2DE9804C9A46934670B491E8380041
:1013B00007C810F0804F08BF13F0804F03D100F032
:1013C00005F8FFF76BFFF0BCBDE8008C20F07F470D
:1013D00080EA030023F07F4C07EB0C03A3F57C535A
:1013E00000F00040A3F1FE0392F0000F00F0B38084
:1013F00095F0000F00F077802DE901494FEA114088
:101400004FEA144621EA004800FB06FC24EA06479E
:1014100008FB06F607FB08F800FB07F718EB064881
:101420004CEB164C4FEA124B18EB07484FEA1546A7
:101430004CEB174022EA0B4E0BFB06FC25EA064755
:101440000EFB06F607FB0EFE0BFB07F71EEB064E28
:101450004CEB164C4FF000061EEB074E4CEB174BB7
:1014600018EB0B0840F1000018EB0E0B58EB0008CE
:1014700040F100008F1A4FF000013CBFC943661BCA
:1014800014BFB5EB040C00213CBFC943F61B4FEA67
:1014900017444EEA8E0E27EA04454FEA1C4704FB28
:1014A00007622CEA074C05FB07F70CFB05F604FB6B
:1014B0000CFC16EB074642EB174216EB0C4642EBD0
:1014C0001C421BEB060658EB0202414146EA9E060F
:1014D00001D5BDE80189B619524141EB0101A3F1E3
:1014E0000103BDE801894FEA14454FEA114724EA98
:1014F000054621EA074C05FB07F406FB07F70CFB42
:1015000006F105FB0CFC11EB074144EB17444FEAD5
:10151000124711EB0C4144EB1C4422EA074C05FB3B
:1015200007F206FB07F70CFB06F605FB0CFC16EBB7
:10153000074642EB174216EB0C4642EB1C456A1875
:1015400054F1000148BF7047B619524141EB010107
:10155000A3F10103704795F0000F37D04FEA114215
:101560004FEA144721EA024624EA074C02FB07F13E
:1015700006FB07F70CFB06F402FB0CFC14EB07441C
:1015800041EB17414FEA154714EB0C4441EB1C416A
:1015900025EA074C02FB07F506FB07F70CFB06F6EE
:1015A00002FB0CFC16EB074645EB174516EB0C4609
:1015B00045EB1C42121951F1000148BF7047B619A2
:1015C000524141EB0101A3F1010370474FEA144579
:1015D0004FEA114724EA054621EA074C05FB07F1CB
:1015E00006FB07F70CFB06F24FF0000605FB0CFCB0
:1015F00012EB074241EB174112EB0C4251EB1C413D
:1016000048BF7047921841EB0101A3F101037047F5
:1016100021B1826842F00102826003E0826822F018
:10162000010282607047000010B5044612488442EF
:1016300008D10121401501F04BFA0021601501F09D
:1016400047FA17E00D48844208D10121001501F046
:101650003FFA0021201501F03BFA0BE008488442D4
:1016600008D10121C80301F033FA00214FF40040F2
:1016700001F02EFA10BD00000024014000280140B6
:10168000003C0140014600208A6802F004020AB1D1
:10169000012000E0002070470146C86C80B270470E
:1016A0000246002013680B400BB1012000E000202F
:1016B0007047014600208A6802F008020AB1012042
:1016C00000E000207047000030B5024600200023F3
:1016D00050680F4C20400D790C6844EA05242043E3
:1016E000506090680B4C2040D1E902542C434D7956
:1016F00044EA450420439060D06A20F470000C7CDA
:10170000641EE4B2234340EA0350D06230BD0000BF
:10171000FFFEF0FFFDF7F1FFF0B504460D46002097
:101720000021092D11DDE068A5F10A0606EB460748
:10173000072606FA07F18843A5F10A0606EB4606D6
:1017400003FA06F10843E0600CE0206905EB450769
:10175000072606FA07F1884305EB450603FA06F16A
:1017600008432061072A0FDA606B561E06EB8607D6
:101770001F2606FA07F18843561E06EB860605FA71
:1017800006F10843606322E00D2A0FDA206BD61FB2
:1017900006EB86071F2606FA07F18843D61F06EBDD
:1017A000860605FA06F10843206310E0E06AA2F11C
:1017B0000D0606EB86071F2606FA07F18843A2F1FD
:1017C0000D0606EB860605FA06F10843E062F0BD59
:1017D000816841F008018160704721B1826842F45C
:1017E000A002826003E0826822F4A0028260704757
:1017F000816841F0040181607047000030B1074901
:10180000096841F40001054A116005E003490968CF
:1018100021F40001014A11607047000008240140D2
:1018200008B50121042001F043F94FF6FF60ADF83F
:10183000000003208DF8020000208DF803006946A7
:101840000A4800F0E5FA0121082001F031F940F6DC
:10185000F770ADF8000003208DF8020000208DF82D
:1018600003006946024800F0D3FA08BD00080140B1
:10187000000C014010B500210148FFF7C9FE10BD62
:101880000024014000B587B001214FF4017001F040
:101890000FF94FF4004001F0DFF80220ADF804002A
:1018A00000208DF8070001A9194800F0B1FA194885
:1018B000FFF7BAFE002002908DF80C008DF80D00A5
:1018C0004FF4602004900020059001208DF818004E
:1018D00002A91048FFF7F8FE0120FFF78FFF012152
:1018E0000C48FFF795FE0B48FFF772FF00BF094851
:1018F000FFF7DFFE0028FAD10648FFF779FF00BFA7
:101900000448FFF7BFFE0028FAD107B000BD000071
:10191000000801400024014010B5012005F0E2FB61
:10192000022005F0DFFB10BD00BFFEE710B5FFF79A
:10193000F3FFC82003F054FA2148006840680122F0
:10194000114643684FF47A709847FFF793FF0821D8
:101950001C4800F0FCFA21E01B494869804758B94F
:1019600000201A49086001201949C1F8B401C1F8E2
:10197000B8011849486880471349486980470128D9
:101980000CD100201149091F086001201049C1F83D
:10199000B401C1F8BC010F49486880470A49086989
:1019A00080470128D8D008490869804708B101203C
:1019B00000E00020084988700120087110BD000077
:1019C000040000200008014034010020BC812142B5
:1019D00000802142A800002018000020704700006D
:1019E0000348006820F40060014908607047000067
:1019F000000401400348006820F480700149086039
:101A0000704700000004014010B510490968C8681B
:101A1000804770B90E480068401C0D4908600846B0
:101A2000006841F2707188420ED1012009490871A5
:101A30000AE009480078401CC0B207490870322803
:101A400002DD00200249086010BD00000C000020EB
:101A500024000020180000201100002010B50120F3
:101A600000F026F810BD10B54FF4006000F026F825
:101A700018B14FF4006000F01BF84FF4805000F0F4
:101A80001DF818B14FF4805000F012F810BD00009E
:101A900010B54FF4807000F011F830B14FF4807041
:101AA00000F006F801200149087010BD7401002003
:101AB00001490860704700001404014001460020FD
:101AC0000022074B1B6803EA0102054B14331B6815
:101AD0000B4013B10AB1012000E000207047000064
:101AE00000040140002123498279002A3AD00A46A5
:101AF000126803689A430B461A600A1D126803684D
:101B00009A430B1D1A60027911440A6803681A434C
:101B10000A60184A0832126803689A43154B083362
:101B20001A601A1D126803689A43124B0C331A602C
:101B30004279102A0ED11A1F126803681A430D4BFE
:101B400008331A601A1D126803681A43094B0C33D4
:101B50001A600DE00749427911440A6803681A4384
:101B60000A6005E0027911440A6803689A430A6032
:101B700070470000000401400348006840F4006022
:101B800001490860704700000004014003480068F4
:101B900040F4807001490860704700000004014073
:101BA00010B5FFF7B9FE0C480068406801221146E5
:101BB00043684FF47A7098470821084800F0C7F945
:101BC000074948688047FFF755FE012000F032FFC3
:101BD000002000F02FFF10BD04000020000801408D
:101BE000C000002010B50121080700F041FF0020CF
:101BF0004FF0E021086188610121084600F098FE5D
:101C000001F014FC10BD00001FB50121052000F0FB
:101C10004FFF0120ADF80C0028208DF80F0003A91C
:101C2000194800F0F5F80021084600F0D1F801202D
:101C3000019000208DF8080008208DF8090001208F
:101C40008DF80A0001A8FFF74DFF06208DF800006F
:101C500000208DF8010002208DF8020001208DF88F
:101C60000300684600F0F6FD00214FF4FE7000F01E
:101C70002FFF0121080700F0FBFE012000F078FE95
:101C800000F03CFE1FBD00000008014010B501211E
:101C9000080700F0EDFE00204FF0E02108618861A8
:101CA000012100F045FE01F0C1FB10BD70B50446F6
:101CB0000D46164632462946204600F037FC70BDD8
:101CC00070B504460D46164632462946204600F0B9
:101CD00055FC70BD10B500F07FFC10BD70B5054619
:101CE000002400F0A3FC11A0FEF7C4FA752000F058
:101CF00009FD0446682C05D0214611A0FEF7BAFA6A
:101D0000012070BD03F0AEFC04461CB1214613A0B7
:101D1000FEF7B0FA782004F029FB782003F0E2FB0C
:101D2000A8B204F0D5FA0020EBE700006D70752032
:101D3000393235302073746172742E2E2E0D0A00E4
:101D40004D50555F41444452206661696C65643A68
:101D5000206572726E6F203D202564006D70755F86
:101D6000696E6974206661696C65643A2065727297
:101D70006E6F203D2025640010B500F0F7F804696F
:101D8000A04710BD70B504460D461646324629469A
:101D9000204603F0CFFD70BD2DE9F84304460D4603
:101DA00016461F46DDF820803B463246294620462F
:101DB000CDF8008003F0C0FEBDE8F88310B500F058
:101DC000CDF802494860084610BD00001801002007
:101DD00030B500228B071C0F0F2303FA04F20B4BC4
:101DE0008C1053F824309343084C8D1044F8253060
:101DF00023468C1053F824308C07240F00FA04F487
:101E00002343024C8D1044F8253030BD08000140BA
:101E10002DE9F04102460025002600200023002481
:101E2000002791F803C00CF00F0591F803C00CF0E7
:101E3000100CBCF1000F03D091F802C04CEA05056C
:101E400091F800C0BCF1000F31D0146800202BE0E5
:101E50004FF0010C0CFA00F3B1F800C00CEA0306D5
:101E60009E4220D183004FF00F0C0CFA03F7BC43C5
:101E700005FA03FC4CEA040491F803C0BCF1280FF6
:101E800006D14FF0010C0CFA00FCC2F814C00AE0B5
:101E900091F803C0BCF1480F05D14FF0010C0CFACA
:101EA00000FCC2F810C0401C0828D1D31460B1F85F
:101EB00000C0BCF1FF0F34DD546800202EE000F1BB
:101EC000080C4FF0010808FA0CF3B1F800C00CEA56
:101ED00003069E4221D183004FF00F0C0CFA03F74A
:101EE000BC4305FA03FC4CEA040491F803C0BCF1BE
:101EF000280F05D100F1080C08FA0CF8C2F814807C
:101F000091F803C0BCF1480F07D100F1080C4FF065
:101F1000010808FA0CF8C2F81080401C0828CED33B
:101F20005460BDE8F0810246002093680B400BB17D
:101F3000012000E00020704702460020D3680B40DB
:101F40000BB1012000E00020704741617047016142
:101F5000704710B5FFF732FF10BD00000048704712
:101F60005001002010B500F0F3F810BD10B500F0DE
:101F7000FDF810BD10B500F007F910BD10B504460E
:101F80000723012221460948FFF7C6FB0121074824
:101F9000FFF723FC00BF02210448FFF781FB002864
:101FA000F9D00248FFF778FB10BD00000024014083
:101FB0002DE9F04107460C4600253846FFF7DEFFC5
:101FC000002605E03846FFF7D9FF0544701CC6B26D
:101FD000A642F7DBB5FBF4F080B2BDE8F08100006B
:101FE00010B54FF480510248FFF79DFF10BD00006F
:101FF000000C014010B54FF400610248FFF793FF59
:1020000010BD0000000C0140024908780021014A7F
:10201000117070477401002070B502F083FD044612
:102020004FF0804106F0BEF83F490860084600685E
:1020300005F086FE044600223C4B05F06FFC03D8F9
:1020400064203B4908706CE03748006805F078FE72
:1020500004460022354B05F027FB0DD232480068BC
:1020600005F06EFE0446334A334B05F057FC03D8A7
:1020700050202F49087054E02B48006805F060FE9E
:1020800004462C4A2C4B05F00FFB0DD22648006865
:1020900005F056FE0446294A294B05F03FFC03D8BB
:1020A0003C20234908703CE01F48006805F048FECA
:1020B0000446224A224B05F0F7FA0DD21A4800686E
:1020C00005F03EFE04461F4A1F4B05F027FC03D8CF
:1020D00028201749087024E01348006805F030FEF6
:1020E0000446184A184B05F0DFFA0DD20E48006876
:1020F00005F026FE04460F4A144B05F00FFC03D8EA
:1021000014200B4908700CE00748006805F018FE21
:102110000446084A0D4B05F0C7FA02D201200449D3
:1021200008700348007870BD3001002000001040A6
:102130002C010020CDCCCCCCCCCC0E40295C8FC265
:10214000F5280E40C3F5285C8FC20D40CCCC0C4066
:1021500010B50548007828B9034948688047012030
:1021600001490870004810BD7800002010B50548EE
:10217000007828B903494868804701200149087060
:10218000004810BD780100200348007810B90120F4
:102190000149087000487047A800002000BFFEE712
:1021A00010B500200E4908600E48006820F070400D
:1021B0000C4908600846006840F040500860002064
:1021C0000949C1F89C0100F011F801200449086098
:1021D00000F00CF800200449C1F8980110BD00007F
:1021E00098812142000C01400080214210B5024834
:1021F000C1680220884710BD5C00002008B501219D
:10220000082000F055FCC020ADF8000014208DF827
:10221000030003208DF8020069460448FFF7F8FD2B
:10222000C0210248FFF793FE08BD0000000C0140EA
:1022300010B500200E4908600E48006820F070407C
:102240000C4908600846006840F0405008600120D2
:102250000949C1F89C01FFF7C9FF01200449086042
:10226000FFF7C4FF00200449C1F8980110BD000029
:1022700098812142000C01400080214270B5054642
:1022800000241648006820F0704014490860084691
:10229000006840F000400860002614E0002010496B
:1022A0000860FFF7A3FF01200E49C1F898016006FE
:1022B000040E0B487C38006808B1601CC4B2FFF7FC
:1022C00095FF701CC6B2082EE8DB15B9FFF7B0FF0A
:1022D00001E0FFF765FF204670BD0000000C0140E3
:1022E000988121420080214270B50446124800685E
:1022F00020F07040104908600846006840F04050E7
:10230000086000200D490860002512E0E0090B4933
:10231000091D08606006040E01200949C1F89801F2
:10232000FFF764FF002005490860FFF75FFF681CA6
:10233000C5B2082DEADB70BD000C01409881214236
:102340000080214210B50E48006820F070400C4912
:1023500008600846006840F04050086001200949C4
:1023600008600949C1F89801FFF740FF00200549BE
:102370000860FFF73BFF00200349C1F8980110BD3A
:10238000000C01409C8121420080214210B50E4882
:10239000006820F070400C4908600846006840F072
:1023A000405008600020094908600949C1F89C01B3
:1023B000FFF71CFF0120054908600549C1F89C0191
:1023C000FFF714FF10BD0000000C0140988121426E
:1023D0000080214210B500241448006820F07040AD
:1023E000124908600846006840F00040086001207B
:1023F0000F490860FFF7FAFE01200E49C1F8980165
:10240000FFF7F4FE07E0601CC4B2FA2C03DDFFF70F
:10241000BDFF012010BD0648803800680028F2D1B9
:102420000349091F086000BFF4E70000000C0140E9
:102430009C8121420080214210B516480078012875
:1024400027D11448C07801280BD1134800780A28F6
:102450001FDB002010490870104881680120884760
:1024600017E00C48407801280AD100200C49086088
:1024700001200C49C1F8B80109490831086008E099
:102480000020074908600749C1F8B801044908312C
:10249000086010BD180000209C000020C000002033
:1024A000B48121420080214208B50121082000F0BA
:1024B000FFFA4FF46040ADF8000010208DF80300E3
:1024C00003208DF8020069460148FFF7A1FC08BD12
:1024D000000C01407047000008B50121082000F001
:1024E000E7FA4FF46040ADF8000003208DF80200D9
:1024F00000208DF8030069460648FFF789FC01209B
:10250000054908600549C1F8B80103490831086068
:1025100008BD0000000C0140B4812142008021422E
:1025200010B50446204602F05BFC10BD2DE9FC41CD
:1025300004460D4616466B4606223B21682000F0F5
:10254000FEF80746BFB99DF801009DF8001040EA6B
:10255000012000B220809DF803009DF8021040EA9F
:10256000012000B228809DF805009DF8041040EA83
:10257000012000B230803846BDE8FC812DE9FC41E5
:1025800004460D4616466B4606224321682000F09D
:10259000D6F80746BFB99DF801009DF8001040EA43
:1025A000012000B220809DF803009DF8021040EA4F
:1025B000012000B228809DF805009DF8041040EA33
:1025C000012000B230803846BDE8FC8110B50446D9
:1025D000204602F021FD10BD2DE9F84F6B46022286
:1025E0004121682000F0ABF89DF801009DF8001033
:1025F00040EA01200FFA80FA504605F02BF8804699
:102600000022074B04F0CEFE0646064A064B04F0B5
:102610000DFE044604F0D8FD83465846BDE8F88F09
:1026200000407540A4703D0AD743424010B5FFF703
:1026300099FC0149086010BD7001002010B50446E6
:1026400002480068016A2046884710BD70010020DA
:1026500010B5044602480068C1692046884710BD8D
:102660007001002010B5024909688868804710BDD4
:102670007001002010B502490968C868804710BD84
:102680007001002010B5024909680869804710BD33
:10269000700100201FB50121042000F009FA032079
:1026A0008DF80E004FF48070ADF80C0048208DF8C6
:1026B0000F0003A91248FFF7ABFB08210020FFF72A
:1026C00087FB4FF48070009000208DF804000C20F0
:1026D0008DF8050001208DF806006846FFF702FA24
:1026E00017208DF8080002208DF8090001208DF8D0
:1026F0000A008DF80B0002A800F0ACF81FBD000026
:102700000008014070B50446FFF7ACFFD020FFF78A
:102710009FFFFFF7B7FF2046FFF79AFFFFF7B2FFD3
:10272000FFF7A0FFD120FFF793FFFFF7ABFF0020DB
:10273000FFF784FF0546FFF79DFF284670BD2DE992
:10274000F04106460F4614461D46FFF78BFF002159
:1027500041EA4601C8B2FFF77BFFFFF793FF20B1C4
:10276000FFF788FF0120BDE8F0813846FFF770FFD2
:10277000FFF788FFFFF776FF012101EB4601C8B2A2
:10278000FFF766FFFFF77EFF0DE0012C04D100206C
:10279000FFF754FF287003E00120FFF74FFF287078
:1027A000601EC4B26D1C002CEFD1FFF763FF002048
:1027B000D9E72DE9F04105460E4617469846FFF742
:1027C00051FF002141EA4501C8B2FFF741FFFFF781
:1027D00059FF20B1FFF74EFF0120BDE8F0813046E0
:1027E000FFF736FFFFF74EFF00240CE018F8040057
:1027F000FFF72EFFFFF746FF18B1FFF73BFF012061
:10280000EBE7601CC4B2BC42F0DBFFF733FF0020F3
:10281000E3E700BFFEE7000070B50346FF24FF2595
:1028200009E011F8010B80EA04020748805C80EAA5
:1028300005040648855C181EA3F10106F3B2F0D129
:1028400045EA042070BD00004E8700084E8800084D
:102850007047000070B5002100230F22C47804B334
:10286000154C246804F4E064C4F5E064210AC1F165
:102870000403CA40447804FA03F1847814402143E5
:1028800009010E4C0678A155047804F01F050124B7
:10289000AC4005786D11AD0005F1E025C5F80041AB
:1028A00009E0047804F01F050124AC40044D0678CB
:1028B000761145F8264070BD0CED00E000E400E024
:1028C00080E100E002490143024A116070470000C4
:1028D0000000FA050CED00E00648006800F4E06036
:1028E00005490843001D03490860BFF34F8F00BF2F
:1028F000FEE700000CED00E00000FA050A48006861
:1029000040F00400084908600846006840F00200F2
:1029100008600648006840F004000449086000BFF1
:1029200000BF30BF704700000070004010ED00E0B5
:1029300010B5024600200C4B186820F0030010432D
:1029400018600A4B1B6843F00403084C23600129FC
:1029500001D130BF00E020BF044B1B6823F004030B
:10296000024C236010BD00000070004010ED00E03C
:102970000149086070470000A0000E427047000047
:102980001FB50121092000F093F84FF48050ADF8F5
:102990000C0004208DF80F0003208DF80E0003A911
:1029A0002348FFF735FA4FF40060ADF80C004820DB
:1029B0008DF80F0003208DF80E0003A91C48FFF7C7
:1029C00027FA0B210120FFF703FA4FF40060009073
:1029D00000208DF8040010208DF8050001208DF8EE
:1029E00006006846FFF77EF80C210120FFF7F0F99A
:1029F0004FF48050009000208DF8040010208DF8D6
:102A0000050001208DF806006846FFF76BF82820C6
:102A10008DF8080002208DF8090003208DF80A00C7
:102A200001208DF80B0002A8FFF714FF1FBD000066
:102A3000000C014070B5044624B9FFF79BFA4569C4
:102A4000A84707E0FFF796FA0569A847FFF792FA4B
:102A50008568A84770BD000001460020034A506801
:102A600020F44040084350607047000000100240CE
:102A700029B1064AD2690243044BDA6104E0034AF1
:102A8000D2698243014BDA617047000000100240B6
:102A900029B1064A12690243044B1A6104E0034A51
:102AA00012698243014B1A61704700000010024016
:102AB00029B1064A92690243044B9A6104E0034A31
:102AC00092698243014B9A617047000000100240F6
:102AD00029B1064AD2680243044BDA6004E0034A93
:102AE000D2688243014BDA60704700000010024058
:102AF00030B500210022002400232D4D6D6805F023
:102B00000C0121B1042905D0082923D105E0294D64
:102B1000056022E0274D05601FE0254D6D6805F436
:102B20007012234D6D6805F48034022505EB924246
:102B30001CB9214D554305600BE01D4D6D6805F432
:102B400000351DB11C4D5543056002E0194D55433C
:102B5000056002E0174D056000BF00BF144D6D68B1
:102B600005F0F0010909154D6B5C0568DD40456015
:102B70000F4D6D6805F4E061090A104D6B5C456806
:102B8000DD4085600A4D6D6805F46051C90A0B4D42
:102B90006B5C4568DD40C560054D6D6805F44041DE
:102BA000890B074D6B5CC568B5FBF3F5056130BD5E
:102BB0000010024000127A0000093D004000002091
:102BC0005000002070B5044612252B462246802175
:102BD0000E2000F0F1F970BD10B51C4800680078B7
:102BE000562823D11948006840780E281ED10020AD
:102BF00017490860012017494870144800680021EF
:102C0000018015490968086980470446002105F0DC
:102C1000F9F91AD01148FFF7D5FF0F210F48401CD2
:102C2000FDF79CFC00200D4908700EE00848006884
:102C3000401C0749086000F0B7FB05480068B0F584
:102C4000FA6F02DB00200349487010BDE400002049
:102C500014000020180000200C0000203402002086
:102C600072B6FFF739FE000010B5FEF7D9FD0A482D
:102C700000F0DEFC4FF0804000F0DAFC0748FEF781
:102C8000D3FC074800F004FF064800F001FF0648A7
:102C900000F0FEFE10BD00000008004000240140CE
:102CA0000038014000440040004800401CB502F0DC
:102CB000D1F800F099F800F047F90E4800F0D9F883
:102CC00000F02AF80C4800F0A7F97F2000F0ACF9DA
:102CD000062000F013F800BF00F072F80628FBD1C0
:102CE000032000210B460A46CDE900100E2000F01B
:102CF000DCF91CBD80C3C90140420F0038B5044651
:102D00000020009034208DF800008DF80140022151
:102D1000684600F039FA38BD70B5002408E0601C40
:102D200084B226490819294600F02EFA601984B2A7
:102D30002248055D002DF2D1002141F2062000F06D
:102D40007BF900214FF4905000F076F9012141F217
:102D5000092000F071F92A2141F2082000F06CF9F5
:102D6000002141F20A2000F067F9002141F20D2014
:102D700000F062F9012141F20E2000F05DF900211E
:102D800041F20F2000F058F9002141F2102000F02C
:102D900053F9002141F2112000F04EF9202141F2B7
:102DA000122000F049F9002141F2132000F044F90B
:102DB000002141F2142000F03FF970BD4E89000857
:102DC00008B50020009033208DF8000001216846EE
:102DD00000F0DAF90321684600F094F89DF801004C
:102DE00000F00F0008BD000008B501210820FFF722
:102DF0005FFE10208DF8030001208DF802000220F4
:102E0000ADF8000069460948FFF702F848208DF840
:102E100003000120ADF8000069460448FEF7F8FF02
:102E200002210248FFF791F808BD0000000C0140A4
:102E300010B500F0C7F94FF47A7001F0D1FFFFF739
:102E400035FF10BD38B504460020009020208DF8D5
:102E5000000000208DF801008DF802008DF80300BD
:102E60000421684600F090F90921204600F04AF854
:102E700038BD1CB5044600200090019002208DF85A
:102E8000000001208DF8010000208DF80200200EC6
:102E90008DF80300200C8DF80400200A8DF8050041
:102EA000E0B28DF806000721684600F06DF91CBD00
:102EB00070B504460025002600F040F9104800686F
:102EC00020F010000E490860772002F02DF8FF2056
:102ED00002F02AF805462E4604E0FF2002F024F80E
:102EE00004F8010B281EA5F10101CDB2F5D104486B
:102EF000006840F0100002490860304670BD0000D4
:102F00000C08014070B504460D4600F017F90D4855
:102F1000006820F010000B490860442002F004F81B
:102F200004E0FF2002F000F82070641C281EA5F1C8
:102F30000101CDB2F5D10348006840F0100001490D
:102F4000086070BD0C08014010B50B48006840F0E7
:102F5000020009490860142001F072FF0648006869
:102F600020F00200044908600448006840F01000A6
:102F70000249086010BD00000C0C01400C08014023
:102F800008B50020009015208DF8000002208DF873
:102F900001000221684600F0F7F808BD08B50020DE
:102FA000009015208DF8000002208DF8010002210C
:102FB000684600F0E9F808BD2DE9F041074688466B
:102FC00015461C462646FFF7E9FF1248006820F028
:102FD000100010490860662001F0A6FF701CC6B200
:102FE000204601F0A1FF03E015F8010B01F09CFF62
:102FF000201EA4F10101CCB2F6D10648006840F0D1
:1030000010000449086032464146384600F076F820
:10301000BDE8F0810C08014010B50446214642F29B
:10302000030000F022F810BD10B50446214642F21C
:10303000012000F001F810BD7CB504460D460020CB
:103040000090019011208DF8000020128DF80100F1
:1030500001208DF80200E0B28DF803008DF80450D5
:103060000521684600F090F87CBD7CB505460C460D
:1030700000200090019011208DF8000028128DF89A
:10308000010003208DF80200E8B28DF80300200C47
:103090008DF80400200A8DF80500E0B28DF80600D6
:1030A0000721684600F070F87CBD2DE9FC47054615
:1030B0000F4614461E46DDE90A8900200090019063
:1030C000FFF75EFFFFF76AFF32208DF800008DF8F2
:1030D00001508DF80270E0B200128DF80300E0B2EA
:1030E0008DF804008DF805608DF806808DF8079046
:1030F0000821684600F048F8BDE8FC877CB5064624
:103100000D46144600200090019031208DF80000FB
:103110008DF801608DF80250E0B200128DF80300C6
:10312000E0B28DF8040000208DF805008DF806004F
:103130000721684600F028F87CBD000070B5002526
:1031400000BF1048006820F010000E4908604420BD
:1031500001F0EAFEFF2001F0E7FE0446094800689E
:1031600040F01000074908602846691C8DB2B0F590
:103170007A7F02D1FFF75CFE01E0FF2CE1D100BFB6
:1031800070BD00000C08014070B504460D46FFF705
:10319000D5FF0B48006820F010000949086003E0E3
:1031A000207801F0C1FE641C281EA5F10101CDB2FA
:1031B000F6D10348006840F010000149086070BD76
:1031C0000C08014008B501210420FFF771FC08201C
:1031D000ADF8000010208DF8030003208DF80200E8
:1031E00069460448FEF714FE08210248FEF7ADFECA
:1031F00008BD00000008014021B1028842F04002F1
:10320000028004E002884FF6BF731A4002807047C4
:1032100010B504461148844208D101218014FFF7FB
:1032200057FC0021A014FFF753FC16E00C48844221
:1032300008D101210014FFF72BFC00212014FFF717
:1032400027FC0AE00748844207D10121C013FFF799
:103250001FFC0021E013FFF71BFC10BD00300140F4
:1032600000380040003C00400246002013890B401B
:103270000BB1012000E00020704710B50022028849
:1032800002F441520B884C8823438C882343CC881A
:1032900023430C8923434C8923438C892343CC89C2
:1032A00023431A430280838B4FF2FF7423408383AE
:1032B0000B8A038210BD704700487047EC00002065
:1032C00010B500F001F810BD0CB500200190009081
:1032D0003348006840F480303149086000BF30480E
:1032E000006800F4003000900198401C01900098A4
:1032F00018B90198B0F5A06FF1D12948006800F421
:10330000003010B10120009001E0002000900098F2
:10331000012843D12348006840F01000214908608B
:103320000846006820F0030008600846006840F086
:10333000020008601A484068194948600846406819
:1033400048600846406840F480604860084640682D
:1033500020F47C1048600846406840F4E81048605B
:103360000846006840F08070086000BF0C480068A4
:1033700000F000700028F9D00948406820F00300F0
:10338000074948600846406840F00200486000BFB6
:103390000348406800F00C000828F9D10CBD00007B
:1033A00000100240002002401CB51148FFF74AFD02
:1033B0000F48C07800F01000C0B10E48FFF778FD4C
:1033C000044614B10B480C4908600620FFF796FC30
:1033D00000BFFFF7F5FC0628FBD1032000210B46B8
:1033E0000A46CDE900100E20FFF75FFE1CBD00006D
:1033F000460200204F020020E4000020042808D1EB
:103400004FF0E021096941F004014FF0E022116121
:1034100007E04FF0E021096921F004014FF0E022BC
:103420001161704710B500F01FFB10BD10B51348B7
:10343000006840F0010011490860084640681049E2
:1034400008400E494860084600680E4908400B498C
:1034500008600846006820F480200860084640683C
:1034600020F4FE0048604FF41F008860FFF728FF3B
:103470004FF000600449086010BD000000100240D9
:103480000000FFF8FFFFF6FE08ED00E010B5012197
:10349000880700F0C1F948B10121880700F0B8F8A9
:1034A00000F0EAFB00F0AEFBFEF7AEFA10BD7FB510
:1034B00005460C4601210846FFF7DAFAADF8085038
:1034C000ADF804400020ADF80A00ADF8060001A9EF
:1034D0004FF0804000F0BAF901221146900700F049
:1034E000ACF91C208DF8000000208DF801000220AE
:1034F0008DF8020001208DF803006846FFF7AAF955
:103500000121880700F087F87FBD000010B5012178
:10351000064800F081F940B10121044800F078F834
:1035200003480078401C0249087010BD00040040A8
:103530009C0000207FB505460C4601210220FFF7C4
:1035400097FAADF80850ADF804400020ADF80A0035
:10355000ADF8060001A90E4800F078F901221146E5
:103560000B4800F06AF91D208DF8000000208DF84E
:10357000010003208DF8020001208DF80300684649
:10358000FFF768F90121024800F045F87FBD00000F
:103590000004004010B50121044800F03DF918B1C5
:1035A0000121024800F034F810BD0000000800407E
:1035B0007FB505460C4601210420FFF759FAADF806
:1035C0000850ADF804400020ADF80A00ADF8060040
:1035D00001A90E4800F03AF9012211460B4800F00B
:1035E0002CF91E208DF8000000208DF80100042029
:1035F0008DF8020001208DF803006846FFF72AF9D4
:103600000121024800F007F87FBD000000080040DB
:10361000CA430282704721B1028842F0010202804F
:1036200004E002884FF6FE731A40028070470000E3
:1036300010B504466848844208D10121C014FFF740
:1036400047FA0021E014FFF743FAC4E0B4F1804FD9
:1036500008D101210846FFF71BFA00210120FFF7DE
:1036600017FAB8E05D48844208D101210220FFF733
:103670000FFA00210220FFF70BFAACE05848844211
:1036800008D101210420FFF703FA00210420FFF7ED
:10369000FFF9A0E05348844208D101210820FFF738
:1036A000F7F900210820FFF7F3F994E04E4884422F
:1036B00008D101211020FFF7EBF900211020FFF7BE
:1036C000E7F988E04948844208D101212020FFF72A
:1036D000DFF900212020FFF7DBF97CE04448844239
:1036E00008D101214014FFF7F3F900216014FFF71E
:1036F000EFF970E03F48844209D10121C804FFF787
:10370000E7F900214FF40020FFF7E2F963E03A48BF
:10371000844209D101210805FFF7DAF900214FF4AD
:103720008010FFF7D5F956E03448844209D10121D1
:103730004805FFF7CDF900214FF40010FFF7C8F955
:1037400049E02F48844208D101214020FFF7A0F929
:1037500000214020FFF79CF93DE02A48844208D12F
:1037600001218020FFF794F900218020FFF790F9D4
:1037700031E02548844208D101218015FFF788F9FE
:103780000021A015FFF784F925E02048844209D1E3
:1037900001210804FFF79CF900214FF48030FFF766
:1037A00097F918E01A48844209D101214804FFF72B
:1037B0008FF900214FF40030FFF78AF90BE015482C
:1037C000844208D101218804FFF782F900214FF4D7
:1037D0008020FFF77DF910BD002C0140000400405F
:1037E00000080040000C00400010004000140040A1
:1037F00000340140004C01400050014000540140A1
:1038000000180040001C0040002000400040014023
:10381000004401400048014030B50246002000232A
:103820000024158A05EA0103958905EA010413B10C
:103830000CB1012000E0002030BD1AB183890B4398
:10384000838102E083898B43838170470022028851
:103850001D4B98420ED01D4B98420BD0B0F1804FBB
:1038600008D01B4B984205D01A4B984202D01A4BF5
:10387000984204D14FF68F731A404B881A43174B66
:10388000984207D0164B984204D04FF6FF431A4097
:10389000CB881A4302808B8883850B8803850A4B6B
:1038A00098420BD0094B984208D00E4B984205D055
:1038B0000D4B984202D00D4B984201D10B7A0386F2
:1038C0000123838270470000002C01400034014036
:1038D0000004004000080040000C004000100040C0
:1038E00000140040004001400044014000480140F5
:1038F00008B50B490978891CC8B20A49FEF78CFF44
:1039000000900848801C064909680844BDF800106A
:10391000018003480068801C0149086008BD000060
:10392000E80000208F02002010B508480088801CA5
:1039300081B2074801F0F0F904490A680968491C96
:10394000024B19600249891C885410BDE800002010
:103950008F02002000200449086077200349087086
:103960007620487070470000E80000208F02002099
:1039700070B505460C460749074A12688818224662
:103980002946FCF7A6FD0448006820440249086067
:1039900070BD000091020020E800002070B50446D0
:1039A0002046FCF777FD05460849094A1268881841
:1039B0002A462146FCF78DFD2046FCF76BFD0449A5
:1039C000096808440249086070BD000091020020A7
:1039D000E800002001B50648064909680844BDF81A
:1039E0000010018003480068801C0249086008BD7F
:1039F00091020020E80000200549064A126811449F
:103A0000086004490968091D024A116070470000F6
:103A100091020020E800002004490A680968491C56
:103A2000024B19600249885470470000E8000020EA
:103A3000910200207521044802680068401C024B76
:103A40001860024881547047E8000020910200206D
:103A5000004870478F02002002480088801C80B216
:103A600070470000E800002002480068401C01493F
:103A7000086070475800002021B1828942F400524A
:103A8000828104E082894DF6FF731A40828170477B
:103A900010B504462048844209D101218803FFF76C
:103AA00017F800214FF48040FFF712F832E01B486E
:103AB000844209D101214804FEF7EAFF00214FF4B6
:103AC0000030FEF7E5FF25E01548844209D10121C9
:103AD0008804FEF7DDFF00214FF48020FEF7D8FFB9
:103AE00018E01048844209D10121C804FEF7D0FF34
:103AF00000214FF40020FEF7CBFF0BE00A48844280
:103B000008D101210805FEF7C3FF00214FF4801002
:103B1000FEF7BEFF10BD0000003801400044004029
:103B200000480040004C0040005000402DE9F047A4
:103B300086B005460E460024A24600BFA1460027D7
:103B4000B08900B100BF2F462C8A4CF6FF700440AC
:103B5000F08804432C82AC894EF6F3100440B08800
:103B600031890843718908430443AC81AC8A4FF61C
:103B7000FF400440B0890443AC8201A8FEF7B8FFBF
:103B80001F48874202D1DDF810A001E0DDF80CA04B
:103B9000A88900F4004040B10AEBCA0000EB0A100B
:103BA00031684900B0FBF1F807E00AEBCA0000EB0E
:103BB0000A1031688900B0FBF1F86420B8FBF0F01E
:103BC00004012009642101FB1089A88900F4004048
:103BD00040B1322000EBC900B0FBF1F000F007006B
:103BE000044308E0322000EB09106421B0FBF1F03F
:103BF00000F00F0004432C8106B0BDE8F087000000
:103C00000038014010B51749886980471649087087
:103C100008460078142814DC14480078401C134926
:103C20000870002012490870104800780A2818DD32
:103C300001201049C8700C480078012811D1087182
:103C40000FE000200949087009480078401C084925
:103C50000870084600780A2803DD00200549C8706E
:103C6000087110BD34010020100000201F0000204A
:103C7000200000201800002010B5104800784006F1
:103C8000000E0E4908700E4908698047012806D1C8
:103C90000A48007840F001000849087002E000205E
:103CA0000649087005480078FF2803D1012005491E
:103CB000887002E000200349887010BD1E000020BB
:103CC000340100201800002000BFFEE703B5ABB0B0
:103CD000FE48B0F900102B98B0F90000081A42F223
:103CE0001071884215DCF948B0F902102B98B0F930
:103CF0000200081A42F2107188420ADCF348B0F957
:103D000004102B98B0F90400081A42F2107188428E
:103D100008DDEF480068401CED490860032801DA1F
:103D20002DB000BD0020EA49086027902890299016
:103D30002490259026902190229023901E901F90F1
:103D400020902B980088E14908802B984088488073
:103D50002B98808888802B98B0F900000D9004F093
:103D6000C1F90E90DB4801680E9804F01BFA279009
:103D70002B98B0F902000D9004F0B4F90E90D548DC
:103D800001680E9804F00EFA28902B98B0F9040000
:103D90000D9004F0A7F90E90CE4801680E9804F03B
:103DA00001FA29902C98B0F900000D9004F09AF9CE
:103DB0000E90C94801680E9804F0F4F924902C98EC
:103DC000B0F902000D9004F08DF90E90C248016820
:103DD0000E9804F0E7F925902C98B0F904000D90A6
:103DE00004F080F90E90BC4801680E9804F0DAF9EE
:103DF0002690279801460E90B848006801F0D2F846
:103E00002790289801460E90B548006801F0CAF83E
:103E10002890299801460E90B248006801F0C2F837
:103E20002990249801460E90AF48006801F0BAF836
:103E30002490259801460E90AC48006801F0B2F835
:103E40002590269801460E90A948006801F0AAF82E
:103E500026902998059003F073FF00224FF08043CD
:103E6000CDE9060102F0EAFACDE90A0128980190AD
:103E700003F066FF00224FF08043CDE9020102F01B
:103E8000DDFACDE906012798019003F059FF0022E1
:103E90004FF08043CDE9020102F0D0FACDE90401F0
:103EA000DDE9062303F0C2F9CDE90801DDE90A23C3
:103EB00003F0BCF9CDE90C0103F086F91D908D49A2
:103EC0001D98096849698B4A126842F8210089489F
:103ED000006801698748006850F821000E90854805
:103EE000006840698349096851F820000D900E99D7
:103EF00004F018FB1C9080481C99006803F04CFFEC
:103F00007D4908607D497C48006803F0B9FF1B903B
:103F1000784800684069401CC1170E9000EB917012
:103F200081100E98A0EB81007249096848617148C0
:103F300000680069401CC1170E9000EB9170811061
:103F40000E98A0EB81006B49096808616C491D98C7
:103F50000968D1F8D8176A4A126842F821006848FF
:103F60000068D0F8D4076649096851F820000E901F
:103F700063480068D0F8D8076149096851F8200003
:103F80000D900E9904F0CEFA1A905E481A990068C6
:103F900003F002FF5B4908605B495A48006803F080
:103FA0006FFF199056480068D0F8D807401C40F2BF
:103FB000F51190FBF1F201FB120051490968C1F8BB
:103FC000D8074F480068D0F8D407401C40F2F511DC
:103FD00090FBF1F201FB120049490968C1F8D407CE
:103FE0004A482499006800F58050D0F8D402474A26
:103FF000126842F8201045482599006800F5805065
:10400000D0F8D4224148006800F2B44040F82210B1
:104010003E482699006800F58050D0F8D4223B48ED
:10402000006800F6681040F822103848006800F573
:104030008050D0F8D0023549096851F820000E9020
:104040003248006800F58050D0F8D4022F49096842
:1040500051F820000D900E9904F064FA18902B4846
:10406000006800F58050D0F8D0122848006800F2AF
:10407000B44050F821000E902448006800F58050AC
:10408000D0F8D4122148006800F2B44050F8210062
:104090000D900E9904F046FA17901C48006800F540
:1040A0008050D0F8D0121948006800F6681050F817
:1040B00021000E901548006800F58050D0F8D41209
:1040C0001248006800F6681022E000001402002088
:1040D0001C020020E8010020F4010020C40100209F
:1040E000C8010020CC010020D0010020D401002014
:1040F000D8010020DC010020FC010020000040402D
:10410000E0010020F80100200000FA43E401002053
:1041100050F821000D900E9904F004FA1690FD4815
:1041200000680E90189903F037FEFA4908600846B7
:1041300040680E90179903F02FFEF6494860084634
:1041400080680E90169903F027FEF24988600846B1
:104150000068F1490E9003F093FE2190ED4840680D
:10416000ED490E9003F08CFE2290EA488068EA49FF
:104170000E9003F085FE23902398059003F0E0FD58
:1041800000224FF08043CDE9060102F057F9CDE956
:104190000A012298019003F0D3FD00224FF08043E2
:1041A000CDE9020102F04AF9CDE90601219801901A
:1041B00003F0C6FD00224FF08043CDE9020102F07A
:1041C0003DF9CDE90401DDE9062303F02FF8CDE93F
:1041D0000801DDE90A2303F029F8CDE90C0102F01A
:1041E000F3FF0E9002F084FE1590CC48159903F071
:1041F00047FE149021980E90149903F0D3FF21905C
:1042000022980E90149903F0CDFF229023980E90DF
:10421000149903F0C7FF239021980E9024980D90D5
:104220000E9904F07FF91E9022980E9025980D901B
:104230000E9904F077F91F9023980E9026980D9010
:104240000E9904F06FF920902098059003F078FD06
:1042500000224FF08043CDE9060102F0EFF8CDE9EE
:104260000A011F98019003F06BFD00224FF080437C
:10427000CDE9020102F0E2F8CDE906011E980190B5
:1042800003F05EFD00224FF08043CDE9020102F011
:10429000D5F8CDE90401DDE9062302F0C7FFCDE939
:1042A0000801DDE90A2302F0C1FFCDE90C0102F0AB
:1042B0008BFF13909A491398096801F58051D1F842
:1042C000D4229749096801F61C6141F822009448FC
:1042D000006800F58050D0F8D0129148006800F6D0
:1042E0001C6050F821000E908D48006800F5805049
:1042F000D0F8D4128A48006800F61C6050F82100FB
:104300000D900E9904F00EF91290864812990068EB
:1043100003F042FD834908607F498248006803F04A
:10432000AFFD11907E48006800F58050D0F8D402AF
:10433000401C40F22D1190FBF1F201FB1201784874
:10434000006800F58050C0F8D4127548006800F588
:104350008050D0F8D002401C40F22D1190FBF1F2B9
:1043600001FB12016E48006800F58050C0F8D012C1
:104370006D496E48006803F0E1FE14D26A491B984B
:1043800003F0DCFE0FD26A480068401C68490860F0
:104390000846016841F28830814207DD4FF496708B
:1043A0006349086002E000206149086060480068D5
:1043B000032807DB5C491B9803F0C0FE02D20020F3
:1043C0005C4908701B9803F0BBFC4FF066325A4BF7
:1043D000CDE90C0103F0A2FA02D80120554908707A
:1043E00052491B980860199810905449109803F08E
:1043F000A5FF01D85148109051480168109803F06A
:10440000D1FE10904F49119803F03AFD0F904E499C
:104410000F9803F093FF01D84B480F904B48016869
:104420000F9803F0BFFE0F904FF07C500F9903F0F0
:10443000B9FE0E904FF07C50109903F0B3FE0D9032
:104440000E9903F0A9FC424908604FF080414048B2
:10445000006803F0A7FE3E4908603E493C480068FA
:1044600003F06CFE08D24FF07E513948006803F02B
:1044700099FE374908603BE037493548006803F04A
:104480005DFF13D833493248006803F057FE0DD260
:104490004FF07E512E48006803F084FE4FF07E51AD
:1044A0000E9003F079FC2A49086021E02949284848
:1044B000006803F043FF13D828492548006803F03B
:1044C0003DFE0DD24FF07E512148006803F06AFE98
:1044D0004FF07F510E9003F05FFC1D49086007E02C
:1044E0004FF07E511A48006803F05CFE18490860DE
:1044F00014491748006803F021FF02D811481449F5
:10450000086017491248006803F04CFE1049086023
:1045100000BF05E42C1E0020000096430AE81C4161
:10452000E4010020040200203333333F0002002066
:10453000080200200C0200206666E63F0000C84129
:10454000EC0100200000204100004842F001002062
:10455000100200200000F0400000E0400000084190
:104560000000C842014800687047000010020020A7
:1045700001480078704700000C02002070B5044626
:10458000204603F0C7FD0546244A29462448006812
:1045900000F046FA204603F0BDFD05461F4A2946B5
:1045A0002048006800F03CFA204603F0B3FD0546C1
:1045B0001A4A29461C48006800F032FA204603F0E7
:1045C000A9FD0546154A29461848006800F028FA52
:1045D000204603F09FFD0546104A2946144800680E
:1045E00000F01EFA204603F095FD05460B4A2946C9
:1045F0001048006800F014FA0F48006800F01CFD35
:104600000E48006800F074FD0D48006800F031FDB0
:1046100000200C4908600C49086070BD0000704122
:10462000C4010020C8010020CC010020D0010020DE
:10463000D4010020D8010020DC010020E00100208E
:10464000E4010020FC010020F80100200048704730
:104650002002002030B589B000200490059002901F
:10466000039036490968496888698047002862D004
:1046700032480068016908A8884706A800902F48BA
:104680000068406807AB08AA04A9846802A8A0478C
:10469000002850D12A48006804A9826802A89047DF
:1046A00028490968486980472648006801685620FB
:1046B000884724480068042102692348904720491C
:1046C0000968C868804704461E480068016820469B
:1046D00088471B49096808698047054603F0E2FCE2
:1046E00084B2184800684168204688471548006829
:1046F0000168002088471348006801681348007863
:10470000884710490968086A80470E4800680168B0
:10471000752088470B490968886A80470C490882D8
:1047200008490968486A804704460948028A2146C0
:10473000401CFBF7CEFE09B030BD00000400002095
:104740000C0000200800002028000020100000209D
:1047500034020020490050EAC12018BF04204A0D4D
:1047600018BF40F0010040F2FF72B2EB515F08BF8A
:1047700040F00200012808BF0520704741000802F0
:1047800018BF04200A0E18BF40F001004FF07F420E
:1047900032EA010108BF40F00200012808BF0520ED
:1047A00070472DE9F0414F1E00EBC7010446D1E9E7
:1047B000000115461E4637F006020DD02A46334644
:1047C00002F0AEFF7F1E04EBC703D3E9002302F023
:1047D0002DFD37F00602F1D1022F25D0042F13D082
:1047E000062F18BFBDE8F0812A46334602F098FF35
:1047F000D4E90A2302F01AFD2A46334602F090FF5C
:10480000D4E9082302F012FD2A46334602F088FF5D
:10481000D4E9062302F00AFD2A46334602F080FF5F
:10482000D4E9042302F002FD2A46334602F078FF61
:10483000D4E9022302F0FAFC2A46334602F070FF64
:10484000D4E90023BDE8F04102F0F0BC0022134699
:104850001046014902F0A6BD0000F03F02F0E6BCA0
:10486000002213461046114602F09CBD40F2013270
:1048700000204FF0E04103F0FEBE0000024A00209D
:10488000110703F0F8BE000001FDFFFF012103F056
:1048900020BF0021084603F0F3BA6FF05E0108075D
:1048A00003F017BF2DE9F04D0D4614464FF07F4140
:1048B000B1EB440F9EBF4FF0FF312960BDE8F08D92
:1048C0004FF0004040EA0421C4F3C750783810F09C
:1048D0001F024A4B4FEA601CC2F120067B44C4F31E
:1048E000C750A0F178004FEA601003EB800053F846
:1048F0002C3008BFD0E901C612D0D0F804C09340D4
:104900002CFA06F73B4387680CFA02FC27FA06F8F4
:10491000C06807FA02F2F0404CEA080C42EA0006CE
:10492000A3FB0132ACFB01C0A6FB016101EB0C064D
:104930008E4234BF4FF0010C4FF0000CC11861449F
:10494000BCF1000F02D0814202D903E0814201D2C2
:10495000012000E00020104400F120024FEA9218EC
:104960008006CA0C40EA42304F03C5F8008003F0CD
:10497000B9FB8246384603F0CDFB6FF0120103F01D
:10498000A8FE0746304603F0C5FB6FF0250103F093
:10499000A0FE83463946504603F0FEF9594603F01F
:1049A000FBF900F500666FF30B065146304603F045
:1049B000B9FD394603F0B6FD594603F021FD104913
:1049C00003F0F0FB07460F49304603F0EBFB394696
:1049D00003F0E2F907460C49304603F0E3FB3946A1
:1049E00003F0DAF914F0004F08BFBDE8F08DC8F10C
:1049F000805180F000402960BDE8F08D50450000F6
:104A0000DB0FC92F22AAFD290000C92F30380A2840
:104A100001D2012070470020704700BF704700009E
:104A20002DE9FF5F04460E4615460020039000273F
:104A300002900021284603F081FB01D8BDE8FF9FCA
:104A40002946304603F01CFA03903448039903F0DA
:104A500017FA804602F062FA07463946384603F0F4
:104A6000A1FB83462E4800F099F84FF08041019059
:104A700003F098FB8246394603F094FB81464FF0E1
:104A80007E5103F089F98046594603F085F902907A
:104A900025603946384603F085FB8046029903F0CD
:104AA000EFF9E0604FF08040E16803F07BFB2061AC
:104AB000E06860613946384603F074FB82464FF087
:104AC0007E5103F02FFD81464FF0804103F06AFBD9
:104AD0008046029903F0D4F960603946384603F005
:104AE00061FB01900E4800F059F84FF080410090B2
:104AF00003F058FB8346394603F054FB82464FF0DF
:104B00007E5103F07DFC8146019903F045F9804612
:104B1000029903F0B5F9A06000BF8FE7DA0F4940B2
:104B2000DA0F493F2DE9FE4F03210120FDF740FA3E
:104B30000190019803F0EEFA804603F001F9064671
:104B40004FF06632134B02F0EBFD044602F03CFBE3
:104B5000029003211120FDF72BFA009002F091FD45
:104B6000804642460B464FF033300B4902F01AFCA8
:104B700004460D46019803F0CDFA804603F0E0F8B4
:104B8000064622462B4602F0CBFD824602F01CFB75
:104B9000BDE8FE8F66664A3F3333F33F2DE9F843A5
:104BA000044602464F486946B0EB420F09D94FF020
:104BB000E640B0EB420F94BF00204FF0FF30009072
:104BC00030E0494B22F00040834271D947492046EA
:104BD00003F0E8FA03F0E4FB804603F047FA00F044
:104BE000030000904249404603F0DCFA0546414983
:104BF000404603F0D7FA06463F49404603F0D2FA52
:104C000007463E49404603F0CDFA214603F0F8FB43
:104C1000394603F087FC314603F084FC294603F053
:104C200081FC04462546009C002C45DB294614F0F7
:104C3000010F08461CD003F0B5FA0646304903F0D0
:104C4000B1FA304903F0DCFB314603F0ABFA2E49F0
:104C500003F0A2F8314603F0A5FA294603F0A2FAC0
:104C6000294603F099F814F0020F1CD0BDE8F88330
:104C700003F098FA0546254903F094FA244903F015
:104C80008BF8294603F08EFA224903F085F829466D
:104C900003F088FA4FF07E5103F07EF814F0020F13
:104CA00008BFBDE8F88380F00040BDE8F883FFE767
:104CB0001046FFF7F7FDB4E76800B0F17F4F3CBF47
:104CC0004FF07E50BDE8F88307D14FF00100FBF7AD
:104CD00097FCBDE8F843FFF7DCBD2846BDE8F84384
:104CE000FFF7D4BDB61F927E490E494683F9223F95
:104CF0001A61342C0020A23300A0FD390000C93F06
:104D0000336D4C39DA82083CA0AA2ABEB93AB2BA4D
:104D1000CA9F2A3DDDFFFFBE30B502460B4600208C
:104D200010E012F8014B6040002109E000F001049E
:104D30001CB18C2484EA600000E040104C1CE1B2FD
:104D40000829F3DB1C1EA3F10105ABB2E9D130BD8C
:104D500010B56FF00400FEF751FB0A4800680A49DD
:104D6000B0FBF1F0094908700846007800EB4001FB
:104D7000C1EBC0104FF6FF7101EAC0000449088082
:104D800010BD00002C00002000127A00540000200A
:104D9000560000200146114A12884A434FF0E02392
:104DA0005A6100229A611A46126942F001021A61A0
:104DB00000BF4FF0E022106900F001021AB100F4C8
:104DC0008032002AF5D04FF0E022126922F0010271
:104DD0004FF0E0231A6100229A61704756000020CC
:104DE00010B50446024881682046884710BD00007F
:104DF0005C0000200146114A12784A434FF0E0233C
:104E00005A6100229A611A46126942F001021A613F
:104E100000BF4FF0E022106900F001021AB100F467
:104E20008032002AF5D04FF0E022126922F0010210
:104E30004FF0E0231A6100229A617047540000206D
:104E400010B504460248C1682046884710BD0000DE
:104E50005C00002000B587B001210420FDF728FE8A
:104E600001208DF81A0018208DF81B002020ADF8C5
:104E7000180006A92A48FCF7CBFF8020ADF81800DF
:104E800006A92748FCF7C4FF80212548FDF75FF8F5
:104E90004020ADF8180006A92148FCF7B9FF4021D1
:104EA0001F48FDF754F810208DF81B00ADF81800CE
:104EB00006A91B48FCF7ACFF10211948FDF747F87D
:104EC0001848FEF7A5F901210803FDF7F1FD0021BF
:104ED0001448FEF791F90020ADF804004FF48270F9
:104EE000ADF806000020ADF80A00ADF80C00ADF8F2
:104EF00008004FF40070ADF80E002820ADF8100047
:104F00000020ADF812000720ADF8140001A90548F3
:104F1000FEF7B3F901210348FEF76EF907B000BDB3
:104F2000000801400030014070B50446002600250D
:104F300007E0681C80B205464FF6FF71884200D139
:104F400005E002210F48FEF78FF90028F1D000BFDD
:104F500047F6FF750B48848107E0681C80B2054660
:104F60004FF6FF71884200D105E001210548FEF7A8
:104F70007BF90028F1D000BF02488089C6B23046D4
:104F800070BD00000030014000BF054A128802F0E9
:104F90004002002AF9D0C2B2014B1B1D1A80704793
:104FA000003801402DE9F05F04460E4600212068DC
:104FB00003F0C4F802D83046BDE8F09FA168E0696C
:104FC00003F0F0F881466168A06903F0EBF88246CF
:104FD000314603F015FA8046494603F0A3FA054628
:104FE0006169E06903F0DEF881462169A06903F098
:104FF000D9F882462846E16803F0D4F88346514642
:1050000002F0CAFE8046494602F0C6FE0746A06985
:10501000E061A5613846CFE7014909680160704742
:105020005800002010B50446024801692046884710
:1050300010BD00005C0000200021416101610CE016
:105040000021426940F822104269511CCA1701EB45
:1050500092729210A1EB820242614269511CCB17FD
:1050600001EB93739B10A1EB830302699A42E7D192
:105070007047002241F2D4210A50091F0A5027E04C
:10508000002241F2D421095840F8212041F2D421D4
:105090000B5800F2B44141F8232041F2D4210B58BF
:1050A00000F6681141F8232041F2D4210B5800F694
:1050B0001C6141F8232041F2D4210958491C40F2D7
:1050C0002D1291FBF2F302FB131241F2D4210A508C
:1050D00041F2D4210958491C40F22D1291FBF2F300
:1050E00002FB131241F2D02109588A42C8D17047FD
:1050F0000021C0F8D817C0F8D4170FE00021D0F86D
:10510000D82740F82210D0F8D817491C40F2F512E1
:1051100091FBF2F302FB1311C0F8D817D0F8D8179F
:10512000491C40F2F51291FBF2F302FB1311D0F887
:10513000D4279142E2D1704710B5044624B900212A
:10514000032000F019F803E00121032000F014F817
:1051500010BD000010B54FF400510648FCF7ECFEFE
:1051600008B1012000E0002004462146032000F0A1
:1051700003F810BD000C014070B505460C464FF415
:1051800060413448FCF7E3FE082D60D2DFE805F00B
:105190005F04111E2B3845522CB14FF400412D48AD
:1051A000FCF7D3FE04E04FF400412A48FCF7CFFEA1
:1051B0004EE02CB14FF480412648FCF7C6FE04E0D7
:1051C0004FF480412348FCF7C2FE41E02CB14FF47C
:1051D00000512048FCF7B9FE04E04FF400511D488F
:1051E000FCF7B5FE34E02CB14FF440411948FCF710
:1051F000ACFE04E04FF440411648FCF7A8FE27E05F
:105200002CB14FF420411348FCF79FFE04E04FF40B
:1052100020411048FCF79BFE1AE02CB14FF4C0412E
:105220000C48FCF792FE04E04FF4C0410948FCF73B
:105230008EFE0DE02CB14FF460410648FCF785FE70
:1052400004E04FF460410348FCF781FE00E000BF3A
:1052500000BF70BD000C014010B5044624B9002108
:105260000220FFF789FF03E001210220FFF784FFFE
:1052700010BD000010B54FF480410648FCF75CFEFD
:1052800008B1012000E00020044621460220FFF77B
:1052900073FF10BD000C014010B54FF4C04106482B
:1052A000FCF74AFE08B1012000E000200446214638
:1052B0000620FFF761FF10BD000C014010B54FF450
:1052C00020410648FCF738FE08B1012000E000202C
:1052D000044621460520FFF74FFF10BD000C01409A
:1052E00010B5044624B900210120FFF745FF03E073
:1052F00001210846FFF740FF10BD000010B54FF434
:1053000000410648FCF718FE08B1012000E000202B
:10531000044621460120FFF72FFF10BD000C01407D
:1053200010B50446082C1AD2DFE804F01904070A65
:105330001013160DFFF7E2FF12E0FFF79BFF0FE0DF
:10534000FFF708FF0CE000F01BF809E000F02AF876
:1053500006E0FFF7B3FF03E0FFF79EFF00E000BFAA
:1053600000BF10BD10B5044624B900210720FFF787
:1053700003FF03E001210720FFF7FEFE10BD000040
:1053800010B54FF460410648FCF7D6FD08B1012086
:1053900000E00020044621460720FFF7EDFE10BD87
:1053A000000C014010B54FF440410648FCF7C4FD25
:1053B00008B1012000E00020044621460420FFF748
:1053C000DBFE10BD000C014000244FF4A060FDF78F
:1053D00079FAFFF7BDFC4FF4E13001F09FFEFDF7D5
:1053E00063F8FCF74FFA374948688047FFF72EF912
:1053F000354908600846006841684FF49670884750
:10540000FDF75AFF3149086031494868804701205B
:105410002F490870FCF79DFD2E490860084600687A
:10542000406801684FF496708847FDF701FD6421DC
:10543000012001F02DFE6421022001F029FE214906
:10544000886980470446142807DC012C02D12249D0
:10545000087102E001202049C8701F4880780128A7
:1054600002D100201C49087101201B49087027E067
:1054700019480079012802D1FCF792FB20E0164878
:105480008078012802D1FCF751FA19E0FFF7E2F821
:10549000FDF7A2FBFCF7D0FF0B49096808698047BC
:1054A000804602F04DFC05460E4607490968C8686B
:1054B000804707462A463346394608A0FAF7DAFEFF
:1054C000D6E70000340100200C0000200800002076
:1054D0005C000020040000201800002025782D2505
:1054E000660D0A0070B50446002624F00104184831
:1054F00090F8240008B1002070BD1548807A10B9DA
:105500004FF0FF30F8E71248057C807A20401049C0
:1055100008740846007CA04202D04FF0FF3600E03D
:10552000002614B90A48007D18B1012001F072FC70
:1055300002E0002001F06EFC3CB100F0F9FB20B16C
:10554000034805744FF0FF30D6E73046D4E700003B
:105550008C01002001461148407A30B1012807D063
:10556000022808D003280CD108E0022008700BE0C4
:105570000420087008E00820087005E0102008707A
:1055800002E04FF0FF30704700BF0448C07C18B104
:1055900008784006000E08700020F4E78C01002017
:1055A00001460248007C0870002070478C010020F2
:1055B00001460F48007A30B1012807D0022809D0EF
:1055C00003280FD10AE0FA2008800EE04FF4FA70A9
:1055D00008800AE04FF47A70088006E04FF4FA6021
:1055E000088002E00020088000BF00BF0020704754
:1055F0008C01002001461248C07A082817D2DFE843
:1056000000F01704070A0D101318BC20088013E0DF
:105610006220088010E02A2008800DE01420088015
:105620000AE00A20088007E00520088004E000BFA7
:1056300000BF0020088000BF00BF002070470000AE
:105640008C0100200146064890F8240010B14FF06C
:10565000FF3070470248C08908800020F9E7000049
:105660008C0100201CB580208DF80000654A12686E
:10567000917C644A526810786B460122FDF799F8D4
:1056800010B14FF0FF301CBD6420FCF749FF002033
:105690008DF800005B4A1268917C5A4A5268107873
:1056A0006B460122FDF785F810B14FF0FF30EAE7B5
:1056B000544A1268917D534A526810786B4606220C
:1056C000FDF73DF810B14FF0FF30DCE79DF8050025
:1056D000C007400F9DF8031001F0010140EA4100AE
:1056E0009DF8011001F0010140EA010494B1012C80
:1056F00003D101214348C17431E0022C03D10021C0
:105700004048C1742BE021463FA0FAF7B3FD4FF0AB
:10571000FF30B8E73B4A1268D1783A4A52681078AD
:105720006B460122FDF70BF810B14FF0FF30AAE7EE
:105730009DF8000000F00F042CB93D48FAF79AFDDF
:105740004FF0FF309FE7042C06D13AA0FAF792FD04
:1057500001212C48C17402E000212A48C174FF21B4
:1057600028488172FF2027490872FF21254841728D
:10577000C1724FF6FF71C181FF2101748174012153
:10578000017380F82210002180F823104175017503
:105790001630016041608160163880F8241080F86E
:1057A0002510C1844FF4FA6000F0D6FC10B14FF020
:1057B000FF3068E7042000F09FFB10B14FF0FF308E
:1057C00061E72A2000F042FD10B14FF0FF305AE7A8
:1057D000322000F07DFD10B14FF0FF3053E7002084
:1057E000FFF780FE10B14FF0FF304CE7002000F0D3
:1057F000C5FB10B14FF0FF3045E7002000F0B6FDCB
:10580000002040E78C010020556E737570706F7238
:1058100074656420736F6674776172652070726F4F
:1058200064756374207265762025642E0A0000007A
:10583000E48E000848616C662073656E7369746954
:1058400076697479207061727420666F756E642E4B
:105850000A00000038B50446282C02DD4FF0FF3066
:1058600038BDDCB9002000F0BBFC00208DF8000042
:1058700007208DF801002E4A1268917C2C4A52684C
:1058800010786B460222FCF794FF10B14FF0FF3006
:10589000E6E70021264801750020E1E7012000F03D
:1058A0009FFC20208DF80000012C06D100208DF8EF
:1058B0000100052000F0CAFC17E0052C06DC0120E1
:1058C0008DF80100052000F0C1FC0EE0142C06DC70
:1058D00002208DF801000A2000F0B8FC05E003204A
:1058E0008DF80100142000F0B1FC9DF801000721A3
:1058F00001EB8010C0B28DF801000D4A1268917C56
:105900000B4A526810786B460222FCF752FF10B126
:105910004FF0FF30A4E70821054881720021017390
:10592000012101750020FFF7DDFD002098E7000050
:105930008C010020F8B505460F461446002C70D0A7
:10594000B5F5FF5F01DDFF2605E0202D01DA012618
:1059500001E0C5F3471607B90127282C02DD4FF0F7
:10596000FF30F8BD7348407D28BB724890F8240092
:1059700038B1002000F0A8FB01216E4880F820100B
:1059800003E000216B4880F820106A481630FFF7CA
:105990000FFE68481830FFF7DDFD66481A30FFF744
:1059A00029FE64481C30FFF74DFE6248817A8177FA
:1059B0001F30FFF7F5FD002001F02CFA0020FFF763
:1059C00049FF00208DF800005A4A12689178594A20
:1059D000526810786B460122FCF7EBFE10B14FF0D5
:1059E000FF30BEE740208DF80000524A1268D17B9C
:1059F000504A526810786B460122FCF7DAFE00B17B
:105A000065E08DF800608DF801704A4A1268117ADD
:105A1000484A526810786B460222FCF7CAFE08B169
:105A200055E047E00520FCF77BFD4248407A07211E
:105A300001EBC000C0B28DF800003E4A1268D17977
:105A40003C4A526810786B460122FCF7B2FE00B166
:105A50003DE020208DF80000012C03D100208DF8BE
:105A600001000EE0052C03DC01208DF8010008E0A8
:105A7000142C03DC02208DF8010002E003208DF8D5
:105A800001009DF80100072101EB8010C0B28DF8E4
:105A90000100284A1268917C264A526810786B46A9
:105AA0000222FCF786FE00B111E001212148417578
:105AB000002056E71F4A1632002103E0505C00B177
:105AC00005E0491C0C29F9D34FF0FF3049E7FF20CE
:105AD00018490872FF2117484172C1724FF6FF71D1
