:020000040800F2
:10000000F04F0020C5020008A11F0008F1130008EE
:10001000651F0008110D0008AB2F0008000000004C
:100020000000000000000000000000002D02000899
:10003000FD0F00080000000071020008C92A000836
:10004000DF020008DF020008DF020008DF0200080C
:10005000DF020008DF020008DF020008DF020008FC
:10006000DF020008DF020008DF020008DF020008EC
:10007000DF020008DF020008DF020008DF020008DC
:10008000DF020008DF020008DF020008DF020008CC
:10009000DF020008DF020008DF020008DF020008BC
:1000A000DF020008DF020008DF020008DF020008AC
:1000B000DF020008DF020008952B0008DF020008BD
:1000C000DF020008DF020008DF020008DF0200088C
:1000D000DF020008DF020008292D0008DF02000807
:1000E000DF020008DF020008DF020008DF0200086C
:1000F000DF020008DF020008DF020008DF0200085C
:10010000DF020008DF020008DF020008DF0200084B
:10011000DF020008DF020008DF020008DF0200083B
:10012000DF020008DF020008DF020008DF0200082B
:1001300000F002F800F06BF80AA090E8000C82448E
:100140008344AAF10107DA4501D100F060F8AFF26B
:10015000090EBAE80F0013F0010F18BFFB1A43F0A5
:1001600001031847F0500000105100000A444FF0FE
:10017000000C10F8013B13F0070408BF10F8014B06
:100180001D1108BF10F8015B641E05D010F8016B4B
:10019000641E01F8016BF9D113F0080F1EBF10F8AF
:1001A000014BAD1C0C1B09D16D1E58BF01F801CBD2
:1001B000FAD505E014F8016B01F8016B6D1EF9D555
:1001C0009142D6D37047000000230024002500266A
:1001D000103A28BF78C1FBD8520728BF30C148BFAA
:1001E0000B607047642900F0CD80732900F007830D
:1001F000002070471FB500F031FC040000200021F2
:1002000004F028FD401C60601FBD10B510BD00F05B
:1002100000FC1146FFF7EEFF03F05EFC00F030FC3F
:1002200003B4FFF7F2FF03BC03F02DFA224B196869
:100230000868B0E8F00F80F30988BFF36F8F4FF0C4
:10024000000080F311884EF00D0E70470000000092
:1002500006480068006880F3088862B661B6BFF39C
:100260004F8FBFF36F8F00DF00BF00BF08ED00E0CE
:10027000EFF30980BFF36F8F0F4B1A6820E9F00F7F
:10028000106008B54FF0BF0080F31188BFF34F8FA7
:10029000BFF36F8F04F0D8FA4FF0000080F311889D
:1002A000BDE8084019680868B0E8F00F80F30988D5
:1002B000BFF36F8F704700BF94010020EFF30580FC
:1002C000704700000948804709480047FEE7FEE7FD
:1002D000FEE7FEE7FEE7FEE7FEE7FEE7FEE7FEE7F6
:1002E00004480549054A064B70470000D92A000812
:1002F00031010008F0490020F04F0020F04B0020B1
:10030000F04B0020704700000FB41CB5074B06AA45
:100310007B4469460090059800F047FA0020694642
:1003200000F056FA1CBC5DF814FB0000BD04000090
:1003300070B50C460546012A05D02878800600D500
:10034000EA69002302E0012305E05B1C934202D22C
:10035000E05C0028F9D1A869E618C01AA861286AEB
:10036000184428622846AFF3008004E0D5E9012153
:1003700014F8010B9047B442F8D32846AFF300803D
:1003800070BD00002DE9F041064600241068752973
:10039000314616A510D0AFF30080002802DA4042A3
:1003A00013A507E031688A0701D512A502E04907C5
:1003B00004D511A5012401E0AFF3008000210A2239
:1003C00006F1240709E0B0FBF2FCB0FBF2F302FBFC
:1003D0001C00303078541846491C0028F3D12346BD
:1003E0002A463046BDE8F04100F080B90000000028
:1003F0002D0000002B000000200000002DE9F05F20
:10040000894604464FF0000ADFF824B1FB44C0F8E7
:1004100020A02046E168884700287DD0252806D006
:10042000D4E901219047206A401C2062F1E70025B1
:100430005F462046E16888472028064607DB312EC4
:1004400005D2B81910F8200C08B10543F1E7A80748
:1004500001D525F00405C4F81CA00027C4F818A095
:100460002A2E09D0304603F007F938B304EB870889
:10047000303EC8F8186019E059F8041B204604EB18
:1004800087029161E1688847012F064618D1E0692B
:10049000002820DA25F020051DE0D8F8180000EB30
:1004A000800006EB40003038C8F818002046E168AC
:1004B0008847064603F0E0F80028EED1012F0AD065
:1004C0002E2E08D12046E16888477F1C0646022F61
:1004D00045F02005C4DBA069002803DA404245F05E
:1004E0000105A061E80701D025F01005A6B1A6F12D
:1004F0004100192802D8203645F400654A463146A5
:10050000204625604D46FFF76DFE60B1012807D0FB
:10051000ED1D25F0070000E007E000F1080978E78D
:1005200005F1040975E730467AE7206ABDE8F09FD7
:10053000314E000070B5064600F0D4F80468054658
:1005400030460A22002100F05EF92C6070BD0000E8
:10055000014A00F091B90000F801002030B50546CD
:100560000B462A4613F8014B12F8010B08B1A042C2
:10057000F8D01CB1002802D06D1CF1E7284630BD30
:1005800010B5431C02E010F8011B71B18107FAD1CC
:100590004FF0013202C88C1A8C4314EAC211F9D010
:1005A000C01A0A0603D0C01E10BDC01A10BD0A042E
:1005B00001D0801E10BD0902FCD0401E10BD032AD0
:1005C00040F2308010F0030C00F0158011F8013B70
:1005D000BCF1020F624498BF11F801CB00F8013B57
:1005E00038BF11F8013BA2F1040298BF00F801CB1B
:1005F00038BF00F8013B11F0030300F05F81083AB7
:10060000C0F0088051F8043B083A51F804CBA0E848
:100610000810F5E7121D5CBF51F8043B40F8043B9D
:10062000AFF30080D20724BF11F8013B11F801CBD2
:1006300048BF11F8012B24BF00F8013B00F801CBA3
:1006400048BF00F8012B70474FF000020429C0F0AA
:10065000128010F0030C00F01B80CCF1040CBCF1F4
:10066000020F18BF00F8012BA8BF20F8022BA1EB46
:100670000C0100F00DB85FEAC17C24BF00F8012B2B
:1006800000F8012B48BF00F8012B70474FF0000223
:1006900000B5134694469646203922BFA0E80C5078
:1006A000A0E80C50B1F12001BFF4F7AF090728BF53
:1006B000A0E80C5048BF0CC05DF804EB890028BFCF
:1006C00040F8042B08BF704748BF20F8022B11F0F8
:1006D000804F18BF00F8012B704770477047704774
:1006E0007047000000487047904900202DE9F0470E
:1006F0000D4699469246044600F124080168880692
:1007000004D5E06921F01001216000E00120A84239
:1007100001DD471B00E00027A1697A1902EB0900FF
:10072000081AA0612078C00602D42046AFF30080EA
:10073000002608E0D4E901211AF806009047206A53
:10074000401C761C20624E45F4DB2078C0060AD59A
:100750002046AFF3008006E0D4E901213020904725
:10076000206A401C2062381EA7F10107F4DC07E074
:10077000D4E9012118F805009047206A401C206246
:10078000281EA5F10105F3DC2046AFF30080207898
:10079000000602D50220BDE8F0870120FBE700003B
:1007A00001694A1C02610878704700B58FB0CDE935
:1007B00001310021059105497944CDE90310114625
:1007C0006846FFF71BFE0FB000BD0000E5FFFFFF0E
:1007D0000A6802F8010B0A60704710B5436913B14B
:1007E000AFF3008001E0FFF7A3FD012010BD1278F8
:1007F00000F124010A7000224A700122EDE711681D
:100800004FF0FF32E9E72DE9F04791460F46804669
:100810000446002614F8015B2DB100F085F800684D
:10082000405DC007F6D12B2D02D02D2D18D0641EAF
:100830004A463946204600F07FF827B13968A14280
:1008400001D1C7F800804FF0020471050BD540427A
:10085000002803DDFFF746FF0460A007BDE8F0872E
:1008600046F48066E4E70028F8DAFFF73BFF04600F
:100870006FF00040F2E700002DE9F04115460E460A
:10088000040002D12C6804B90BA4204600F0B3F890
:100890000444207870B127463146384600F09BF872
:1008A0000444207810B1002004F8010B38462C6075
:1008B000BDE8F0810027F9E70000000010B5203AFC
:1008C000C0F00B80B1E81850203AA0E81850B1E809
:1008D0001850A0E81850BFF4F5AF5FEA027C24BFBF
:1008E000B1E81850A0E8185044BF18C918C0BDE8B6
:1008F00010405FEA827C24BF51F8043B40F8043B7F
:1009000008BF7047D20728BF31F8023B48BF11F833
:10091000012B28BF20F8023B48BF00F8012B70478D
:10092000004870479049002010B500F097F8001D6E
:1009300010BD00BF214300002DE9F05F824615463F
:100940008B4600270AF10104B9460078302801D00F
:100950009DB113E014F8010B0127782803D0582823
:1009600001D045B10AE00DB1102D07D1002714F8D0
:10097000010B102502E0082500E00A250026B046FC
:100980000EE005FB080005FB06F101271FFA80F8C1
:1009900001EB1046B6F5803F00D3B94614F8010BC1
:1009A000294600F05FF80028EBDABBF1000F05D014
:1009B0000FB1641E00E05446CBF80040B9F1000FBF
:1009C00006D0FFF78FFE02210160C81EBDE8F09F30
:1009D00048EA0640FAE730B503461D781DB10A46DD
:1009E00003E0AC4201D1181A30BD12F8014B002CC3
:1009F000F7D15B1CF1E730B503461D783DB10A46DF
:100A000012F8014B1CB1AC42FAD15B1CF5E7181A85
:100A100030BD7546FFF784FFAE4605006946534674
:100A200020F00700854618B020B5FFF759FCBDE857
:100A300020404FF000064FF000074FF000084FF045
:100A4000000B21F00701AC46ACE8C009ACE8C009D6
:100A5000ACE8C009ACE8C0098D4670470048704753
:100A6000B04900203A2800D2303820F02002412A34
:100A700001D3A2F13700884201D34FF0FF30704715
:100A800010B50446AFF300802046BDE81040FFF7E4
:100A9000C7BB00004FF0013C50F8042B51F8043B59
:100AA0009A4221D1A2EB0C03934313EACC1317D142
:100AB00050F8042B51F8043B9A4215D1A2EB0C03D9
:100AC000934313EACC130BD150F8042B51F8043B99
:100AD0009A4209D1A2EB0C03934313EACC13DBD067
:100AE0004FF00000704700BFD01A01BAB1FA81F18F
:100AF00001F0180122FA01F0CB40C1F12001DBB274
:100B0000C0B2C01A2CFA01F3D11A914311EAC311F1
:100B1000E6D170474D48407801280BD100204C4960
:100B200008604A4948704B48008840F0080049492D
:100B300008800FE046480068401C454908600846A8
:100B40000068642806D300204249088042480021FA
:100B5000C0F801103D48807801280BD100203F49A2
:100B600008603A4988703E48008840F004003C49DB
:100B700008800FE039480068401C38490860084682
:100B80000068642806D300203549088032480021D7
:100B9000C0F805102D48007801280BD100203149FC
:100BA00008602A4908703048008840F010002E493B
:100BB000088012E02B480068401C2A49086008465B
:100BC0000068642809D3002027490880224908705A
:100BD000264800210160416001811F484078244976
:100BE00081F83E001C488178214880F83F101A485F
:100BF000C1781F4880F84010174840791C4981F897
:100C00004100154881791A4880F842101248C1798C
:100C1000174880F84310104801781448493880F884
:100C20004E100D480079134988700B48007AC8703F
:100C3000084800880A49098808430B49098808437D
:100C40000B49A1F84700084670470000F800002053
:100C5000E8000020DE00002031030020EC0000202E
:100C6000E0000020E4000020DC0000205D02002005
:100C700068020020F00000201CB5012000F022FCDA
:100C800000282FD01848C07F1749897FCDE9001070
:100C90001548437F027F15A11748FFF735FB12481F
:100CA000007FFF2813D11048407FFF280FD10E4846
:100CB000807FFF280BD10C48C07FFF2807D105E0BB
:100CC0000E49086A8047642002F0F0FDF8E7012031
:100CD00002F03AFC20B10AA207490BA002F070FC16
:100CE00002F028FB1CBD0000BB03002025642E255C
:100CF000642E25642E256400E703002054000020A4
:100D000038303837000000005544504300000000E0
:100D100000BFFEE700B587B001210C2001F0FEF90D
:100D20000121084601F0FAF90121344800F098FA4F
:100D30000121084600F094FA01208DF81A001820CD
:100D40008DF81B000820ADF8180006A92C4800F00B
:100D5000FCF92020ADF8180006A9294800F0F5F9A3
:100D60002021274800F0CFFA1020ADF8180006A97E
:100D7000234800F0EAF91021214800F0C4FA1020BD
:100D80008DF81B00C002ADF8180006A91D4800F040
:100D9000DCF94FF400411B4800F0B5FA1A4801F0A5
:100DA00009FD0121080301F0B9F90021164801F0FD
:100DB000F5FC0020ADF804004FF48270ADF8060099
:100DC0000020ADF80A00ADF80C00ADF808004FF4B3
:100DD0000070ADF80E002820ADF810000020ADF82E
:100DE00012000720ADF8140001A9074801F017FD13
:100DF0000121054801F0D2FC07B000BD000230001F
:100E0000000C0140000801400030014070B504466C
:100E10000026002507E0681C80B205464FF6FF71EA
:100E2000884200D105E002210F4801F0EFFC0028C4
:100E3000F1D000BF47F6FF750B48848107E0681CBE
:100E400080B205464FF6FF71884200D105E00121CE
:100E5000054801F0DBFC0028F1D000BF0248808982
:100E6000C6B2304670BD00000030014070B5044687
:100E70000D4616464FF400410A4800F042FA05E0DC
:100E80002878FFF7C3FF2070641C6D1C301EA6F18C
:100E900001018EB2F4D14FF40041024800F033FA60
:100EA00070BD0000000801402DE9F04104460D46E8
:100EB0000A2D01DABDE8F0810026207899286ED14C
:100EC00060783328FBD1207A00F10C05A91EC8B246
:100ED000214601F049F83E49088008463D4908602E
:100EE000681E205C09684978884207D0A81E205CEB
:100EF000384909680978884200D0DBE7267A802ED5
:100F000005DA324604F10A013348FFF758FB607AEC
:100F1000092850D2DFE800F04F054F4F4F1A1F2B22
:100F20003C002E48007850B901202C4948703246C8
:100F300029492B48FFF743FB01202849087001206D
:100F40002849087000202849086035E0E9B22046A9
:100F500003F044FA30E001202049487032461E492F
:100F60001F48FFF72CFB01201C49087024E01A4899
:100F700040781E4981F85300084690F853101C48E9
:100F800041731C4818221A4943680020984713E00F
:100F90001148807A012803D1104908710AE014E051
:100FA0000D48807A30B900F0B1F907460C2211469D
:100FB00002F052FE00E000BF00BF29462046FFF7C6
:100FC00043FB2C210C48FFF73FFB00BF72E70000FA
:100FD000400100204401002047040020200100209F
:100FE000BB030020180100201C0100201402002077
:100FF000FC0100204C00002083030020704700000B
:101000000149C860704700000020024030B5044626
:1010100004254FF4302000F085F80546042D17D143
:101020000C48006940F002000A4908610846446122
:10103000006940F0400008614FF4302000F072F881
:1010400005460448006941F6FD7108400149086100
:10105000284630BD0020024004200B49C96801F039
:10106000010109B101200EE00749C96801F004013E
:1010700009B1022007E00449C96801F0100109B173
:10108000032000E00420704700200240034800696C
:1010900040F08000014908617047000000200240D4
:1010A00078B506460C46042500200090E80200F0C2
:1010B00039F80546042D24D11348006940F0010099
:1010C000114908613480E80200F02CF80546042D2F
:1010D00010D1B01C0090200C00990880E80200F0AC
:1010E00021F805460848006941F6FE7108400649A6
:1010F000086106E00448006941F6FE7108400249B3
:101100000861284678BD00000020024002480349DB
:10111000486003484860704723016745002002404B
:10112000AB89EFCD00B502460423FFF795FF0346D8
:1011300003E0FFF791FF0346521E012B01D1002A65
:10114000F7D102B90523184600BD2DE9F04102464A
:1011500000250026002000230024002791F803C06A
:101160000CF00F0591F803C00CF0100CBCF1000F4F
:1011700003D091F802C04CEA050591F800C0BCF11B
:10118000000F31D0146800202BE04FF0010C0CFA56
:1011900000F3B1F800C00CEA03069E4220D18300A0
:1011A0004FF00F0C0CFA03F7BC4305FA03FC4CEAB2
:1011B000040491F803C0BCF1280F06D14FF0010CD4
:1011C0000CFA00FCC2F814C00AE091F803C0BCF1AC
:1011D000480F05D14FF0010C0CFA00FCC2F810C00A
:1011E000401C0828D1D31460B1F800C0BCF1FF0F37
:1011F00034DD546800202EE000F1080C4FF00108A7
:1012000008FA0CF3B1F800C00CEA03069E4221D1A3
:1012100083004FF00F0C0CFA03F7BC4305FA03FCF4
:101220004CEA040491F803C0BCF1280F05D100F189
:10123000080C08FA0CF8C2F8148091F803C0BCF14D
:10124000480F07D100F1080C4FF0010808FA0CF81C
:10125000C2F81080401C0828CED35460BDE8F0814D
:10126000F0B50A46002300240021002500F00046C6
:10127000B6F1004F02D11D4EF16901E01B4E7168BD
:10128000C0F3034583B200F44016B6F5401F08D101
:1012900021F07061154E766826F07066134F7E60FF
:1012A00012E000F48016B6F5801F06D1032606FA78
:1012B00005F4A14341F0706106E0460D360103FAE2
:1012C00006F6B14341F0706122B1460D360103FAD2
:1012D00006F6314300F00046B6F1004F02D1034E4E
:1012E000F16101E0014E7160F0BD000000000140BD
:1012F00002460020D3680B400BB1012000E0002023
:1013000070474161704701617047000008B50021D6
:10131000214800909DF803300846491C1F4A135489
:101320009DF802300846491C13549DF801300846C8
:10133000491C13549DF800300846491C13541848A2
:1013400000909DF803300846491C13549DF8023064
:101350000846491C13549DF801300846491C135493
:101360009DF800300846491C13544FF4813000901A
:101370009DF803300846491C13549DF80230084676
:10138000491C13549DF801300846491C13549DF81C
:1013900000005054104608BD0F000205DB0300207A
:1013A0000F01020510B5002015E00146C31700EB40
:1013B00093739B100A4C246854F823300246C417D8
:1013C00000EB9474A410A0EB8404E400E340054C0B
:1013D0002354411CC8B20C28E7DB024810BD0000B2
:1013E00028010020FB03002000487047F000002087
:1013F00000BFFEE713480068401C12490860084619
:10140000006840F6B83188420CD300200E490860CD
:101410000E49C1F898010C49083108600C49087060
:10142000084908600A480078012809D100200649C7
:10143000086001200549C1F8980103490831086096
:10144000704700001C01002094012142000021424D
:101450001801002008B50121042000F05FFEE02003
:10146000ADF8000010208DF8030003208DF8020075
:1014700069460248FFF769FE08BD00000008014008
:1014800008B50121042000F049FEE020ADF800007D
:1014900003208DF8020010208DF8030069460648ED
:1014A000FFF753FE0120054908600549C1F898017E
:1014B00002490831086008BD00080140940121423A
:1014C000000021427CB504460025404804700078A5
:1014D000012808D102F038F8D8B13DA23EA142A0BF
:1014E00002F06EF815E039480078022811D1404822
:1014F000C0783F498978CDE900103D4843780278AB
:101500003CA13F48FEF700FF31A23D4936A002F062
:1015100057F801F00FFF43E000BF3C2D02D9002532
:1015200001F008FF6D1C37480068A0BB0025274864
:101530000078012810D102220C21334802F08CFBE4
:101540001E2000F0A5FD18B1642002F069F9E4E75F
:101550002E49C86880471FE01C48007802281BD12C
:1015600006220C21284802F077FB2948C078401C4D
:101570002749C8701E2000F08BFD18B1642002F0CE
:101580004FF9CAE72149486980472148C0781E2899
:1015900002D100207CBDFFE74FF47A7002F040F9E1
:1015A0001B4840780028B7D011481A49C969016022
:1015B00007A10A68426009790172174818220C498C
:1015C0004368002098470120E4E700003F01002025
:1015D00038303837000000003235352E3235352EA0
:1015E0003235352E32353500554450430000000069
:1015F000FC01002025642E25642E25642E25640020
:10160000E703002004012142AF0300205400002022
:1016100020010020BB0300204C00002070B50346D1
:101620000024002010E00E5C451C4D5D46EA0526B6
:10163000851C4D5D46EA0546C51C4D5D46EA0565BF
:1016400043F82450641C001D9042ECD370BD70B56B
:10165000034614460022002015E011F822501D54C4
:1016600031F82250C5F30726451C5E5551F822502B
:10167000C5F30746851C5E5551F822502D0EC61C39
:101680009D55521C001DA042E7D370BD2DE9FC41C1
:1016900004460E46002500272088C0F3C505382DD6
:1016A00002D2C5F1380001E0C5F1780007460822F2
:1016B00021466846FFF7CBFF3A460849204600F02E
:1016C0000BFC08226946204600F006FC102204F1BB
:1016D00008013046FFF7BBFFBDE8FC819400002005
:1016E00000210160416005498160054AC260CA432A
:1016F0000261034AD24342617047000001234567FB
:1017000089ABCDEF2DE9F043C0B080468946D8F8CB
:101710000040D8F80450D8F80860D8F80C7040227F
:1017200049466846FFF77AFF05EA060027EA050101
:10173000084300990844FE4908440444E00140EA93
:1017400054642C4404EA050026EA04010843019984
:101750000844F84908440744380340EA1757274427
:1017600007EA040025EA0701084302990844F24900
:1017700008440644700440EAD6363E4406EA0700B0
:1017800024EA0601084303990844EC490844054447
:10179000A80540EA9525354405EA060027EA050133
:1017A000084304990844E64908440444E00140EA37
:1017B00054642C4404EA050026EA04010843059910
:1017C0000844E04908440744380340EA17572744CF
:1017D00007EA040025EA0701084306990844DA49A4
:1017E00008440644700440EAD6363E4406EA070040
:1017F00024EA0601084307990844D44908440544EB
:10180000A80540EA9525354405EA060027EA0501C2
:10181000084308990844CE4908440444E00140EADA
:1018200054642C4404EA050026EA0401084309999B
:101830000844C84908440744380340EA1757274476
:1018400007EA040025EA070108430A990844A0F5BD
:1018500024404F380644700440EAD6363E4406EA37
:10186000070024EA060108430B990844BA490844D2
:101870000544A80540EA9525354405EA060027EA0F
:10188000050108430C990844B44908440444E001A4
:1018900040EA54642C4404EA050026EA04010843A3
:1018A0000D990844AE4908440744380340EA1757E5
:1018B000274407EA040025EA070108430E99084473
:1018C000A84908440644700440EAD6363E4406EA75
:1018D000070024EA060108430F990844A249084476
:1018E0000544A80540EA9525354405EA070026EA9F
:1018F00007010843019908449C49084404446001D5
:1019000040EAD4642C4404EA060025EA06010843B0
:1019100006990844964908440744780240EAD75794
:10192000274407EA050024EA050108430B99084407
:10193000904908440644B00340EA96463E4406EA0D
:10194000040027EA04010843009908448A4908442E
:101950000544280540EA1535354405EA070026EA1E
:101960000701084305990844844908440444600178
:1019700040EAD4642C4404EA060025EA0601084340
:101980000A9908447E4908440744780240EAD75738
:10199000274407EA050024EA050108430F99084493
:1019A000784908440644B00340EA96463E4406EAB5
:1019B000040027EA040108430499084472490844D2
:1019C0000544280540EA1535354405EA070026EAAE
:1019D00007010843099908446C490844044460011C
:1019E00040EAD4642C4404EA060025EA06010843D0
:1019F0000E990844664908440744780240EAD757DC
:101A0000274407EA050024EA05010843039908442E
:101A1000604908440644B00340EA96463E4406EA5C
:101A2000040027EA04010843089908445A49084475
:101A30000544280540EA1535354405EA070026EA3D
:101A4000070108430D9908445449084404446001BF
:101A500040EAD4642C4404EA060025EA060108435F
:101A6000029908444E4908440744780240EAD7578F
:101A7000274407EA050024EA0501084307990844BA
:101A8000484908440644B00340EA96463E4406EA04
:101A9000040027EA040108430C9908444249084419
:101AA0000544280540EA1535354485EA06007840A6
:101AB000059908443D4908440444200140EA14744F
:101AC0002C4484EA050070400899084438490844C9
:101AD0000744F80240EA5757274487EA0400684061
:101AE0000B990844334908440644300440EA16463A
:101AF0003E4486EA070060400E9908442E49084497
:101B00000544E80540EA5525354485EA0600784055
:101B100001990844294908440444200140EA147406
:101B20002C4484EA0500704004990844244949E0A3
:101B300078A46AD756B7C7E8DB702024EECEBDC1C3
:101B4000AF0F7CF52AC68747134630A8019546FD9E
:101B5000D8988069AFF7448BBED75C892211906B0F
:101B6000937198FD8E4379A62108B44962251EF62B
:101B700040B340C0515A5E26AAC7B6E95D102FD6C1
:101B80005314440281E6A1D8C8FBD3E7E6CDE12196
:101B9000D60737C3870DD5F4ED145A4505E9E3A9F7
:101BA000F8A3EFFCD9026F678A4C2A8D4239FAFFFD
:101BB00081F6718722619D6D0C38E5FD44EABEA473
:101BC000A9CFDE4B08440744F80240EA57572744A0
:101BD00087EA0400684007990844A5490844064478
:101BE000300440EA16463E4486EA070060400A99FF
:101BF0000844A04908440544E80540EA5525354411
:101C000085EA060078400D9908449B49084404443D
:101C1000200140EA14742C4484EA050070400099C5
:101C20000844964908440744F80240EA57572744B5
:101C300087EA04006840039908449149084406442F
:101C4000300440EA16463E4486EA070060400699A2
:101C500008448C4908440544E80540EA55253544C4
:101C600085EA0600784009990844874908440444F5
:101C7000200140EA14742C4484EA050070400C9959
:101C80000844824908440744F80240EA5757274469
:101C900087EA040068400F9908447D4908440644D7
:101CA000300440EA16463E4486EA07006040029946
:101CB0000844784908440544E80540EA5525354478
:101CC00065EA0700704000990844734908440444D9
:101CD000A00140EA94642C4464EA06006840079935
:101CE00008446E4908440744B80240EA975727441D
:101CF00067EA050060400E990844694908440644B3
:101D0000F00340EA56463E4466EA040078400599EE
:101D10000844644908440544680540EAD52535442B
:101D200065EA070070400C9908445F490844044480
:101D3000A00140EA94642C4464EA060068400399D8
:101D400008445A4908440744B80240EA97572744D0
:101D500067EA050060400A9908445549084406446A
:101D6000F00340EA56463E4466EA04007840019992
:101D70000844504908440544680540EAD5253544DF
:101D800065EA07007040089908444B490844044438
:101D9000A00140EA94642C4464EA060068400F996C
:101DA0000844464908440744B80240EA9757274484
:101DB00067EA050060400699084441490844064422
:101DC000F00340EA56463E4466EA040078400D9926
:101DD00008443C4908440544680540EAD525354493
:101DE00065EA0700704004990844374908440444F0
:101DF000A00140EA94642C4464EA060068400B9910
:101E00000844324908440744B80240EA9757274437
:101E100067EA05006040029908442D4908440644D9
:101E2000F00340EA56463E4466EA040078400999C9
:101E30000844284908440544680540EAD525354446
:101E4000D8F800002044C8F80000D8F8040028445E
:101E5000C8F80400D8F808003044C8F80800D8F8DA
:101E60000C003844C8F80C0040B0BDE8F083000016
:101E7000604BBBF670BCBFBEC67E9B28FA27A1EAAA
:101E80008530EFD4051D880439D0D4D9E599DBE637
:101E9000F87CA21F6556ACC4442229F497FF2A435C
:101EA000A72394AB39A093FCC3595B6592CC0C8FEC
:101EB0007DF4EFFFD15D84854F7EA86FE0E62CFEB8
:101EC000144301A3A111084E827E53F735F23ABDA7
:101ED000BBD2D72A91D386EB2DE9F04704460F46B3
:101EE00015460026B046B1462088C0F3C508C8F1A3
:101EF0004009206800EBC50020602068B0EBC50FEA
:101F000002D26068401C6060606800EB55706060E1
:101F10004D451CD304F1180101EB08004A4639462F
:101F2000FEF74DFB04F1180104F10800FFF7EAFB8E
:101F30004E4605E0B91904F10800FFF7E3FB40360F
:101F400006F14000A842F5D94FF0000800E0002655
:101F5000AA1BB91904F1180303EB0800FEF72FFBC5
:101F6000BDE8F08700BFFEE770B50346FF24FF25FC
:101F700009E011F8010B80EA04020748805C80EA5E
:101F800005040648855C181EA3F10106F3B2F0D1E2
:101F900045EA042070BD0000804C0008804D000818
:101FA0007047000070B5002100230F22C47804B3ED
:101FB000154C246804F4E064C4F5E064210AC1F11E
:101FC0000403CA40447804FA03F18478144021439E
:101FD00009010E4C0678A155047804F01F05012470
:101FE000AC4005786D11AD0005F1E025C5F8004164
:101FF00009E0047804F01F050124AC40044D067884
:10200000761145F8264070BD0CED00E000E400E0DC
:1020100080E100E002490143024A1160704700007C
:102020000000FA050CED00E008B501210C2000F0DD
:1020300075F80120ADF8000010208DF80300032092
:102040008DF8020069461048FFF77FF84FF44060B2
:10205000ADF8000010208DF8030003208DF8020079
:1020600069460A48FFF771F84FF48050ADF8000058
:1020700048208DF8030003208DF8020069460348CC
:10208000FFF763F808BD0000000C014000080140A4
:1020900010B504460E480068A0B90E480078401CF0
:1020A0000C4908700C49486980470A480078A042EA
:1020B00006DB094988688047002005497C310860B3
:1020C000012010BD00200349087000BFF9E700009F
:1020D00030012142D80000205400002029B1064AD6
:1020E000D2690243044BDA6104E0034AD2698243B5
:1020F000014BDA61704700000010024029B1064A26
:1021000012690243044B1A6104E0034A12698243D4
:10211000014B1A61704700000010024029B1064AC5
:1021200092690243044B9A6104E0034A9269824334
:10213000014B9A61704700000010024029B1064A25
:10214000D2680243044BDA6004E0034AD268824357
:10215000014BDA60704700000010024030B50021EA
:102160000022002400232D4D6D6805F00C0121B1E3
:10217000042905D0082923D105E0294D056022E076
:10218000274D05601FE0254D6D6805F47012234D45
:102190006D6805F48034022505EB92421CB9214D8F
:1021A000554305600BE01D4D6D6805F400351DB10C
:1021B0001C4D5543056002E0194D5543056002E092
:1021C000174D056000BF00BF144D6D6805F0F001AC
:1021D0000909154D6B5C0568DD4045600F4D6D6864
:1021E00005F4E061090A104D6B5C4568DD408560CF
:1021F0000A4D6D6805F46051C90A0B4D6B5C45686A
:10220000DD40C560054D6D6805F44041890B074D03
:102210006B5CC568B5FBF3F5056130BD001002408D
:1022200000127A0000093D0080010020900100208A
:1022300070B504460225064991F853002B46224604
:10224000802100F0A5F929460248FEF7FDF970BD8E
:10225000140200200101002010B503460020054CA7
:10226000234403E013F8014B0C54401C9042F9DB6B
:1022700010BD00000000010838B5044600200090A1
:1022800034208DF800008DF801400221684600F0EE
:1022900067FA38BD70B5002408E0601C84B2264996
:1022A0000819294600F05CFA601984B22248055DDD
:1022B000002DF2D1002141F2062000F0A9F9002101
:1022C0004FF4905000F0A4F9012141F2092000F0F0
:1022D0009FF92A2141F2082000F09AF9002141F2E9
:1022E0000A2000F095F9002141F20D2000F090F94C
:1022F000012141F20E2000F08BF9002141F20F2064
:1023000000F086F9002141F2102000F081F900214F
:1023100041F2112000F07CF9202141F2122000F05E
:1023200077F9002141F2132000F072F9002141F207
:10233000142000F06DF970BD804E000808B5002033
:10234000009033208DF800000121684600F008FA63
:102350000321684600F0C2F89DF8010000F00F006C
:1023600008BD000008B501210C20FFF7D7FE1020A2
:102370008DF8030001208DF802004003ADF8000045
:1023800069460948FEF7E1FE48208DF80300102059
:10239000ADF8000069460548FEF7D7FE4FF400513E
:1023A0000148FEF7AEFF08BD000C014000080140E7
:1023B0001CB51649086880471549086880471449C4
:1023C0004868804712488168124888471049C868A1
:1023D00080470F4841697F2088470D48016A0620E1
:1023E000884700BF0A49C86980470628FAD10320F8
:1023F0000021CDE90010084991F853000449002359
:102400001A464C6A1946A0471CBD00003000002047
:102410004801002080C3C9011402002038B50446D9
:102420000020009020208DF8000000208DF8010091
:102430008DF802008DF803000421684600F090F941
:102440000921204600F04AF838BD1CB5044600209A
:102450000090019002208DF8000001208DF801000D
:1024600000208DF80200200E8DF80300200C8DF85E
:102470000400200A8DF80500E0B28DF8060007215F
:10248000684600F06DF91CBD70B5044600250026B5
:1024900000F040F91048006820F400400E49086040
:1024A0007720FEF7B3FCFF20FEF7B0FC05462E4672
:1024B00004E0FF20FEF7AAFC04F8010B281EA5F19A
:1024C0000101CDB2F5D10448006840F40040024952
:1024D0000860304670BD00000C08014070B504462D
:1024E0000D4600F017F90D48006820F400400B4934
:1024F00008604420FEF78AFC04E0FF20FEF786FC1B
:102500002070641C281EA5F10101CDB2F5D103484D
:10251000006840F400400149086070BD0C080140AB
:1025200010B50B48006840F40050094908601420B9
:1025300001F098F90648006820F40050044908604A
:102540000448006840F400400249086010BD0000E3
:102550000C0C01400C08014008B50020009015202B
:102560008DF8000002208DF801000221684600F07D
:10257000F7F808BD08B50020009015208DF8000080
:1025800002208DF801000221684600F0E9F808BD3C
:102590002DE9F0410746884615461C462646FFF7BA
:1025A000E9FF1248006820F40040104908606620E6
:1025B000FEF72CFC701CC6B22046FEF727FC03E099
:1025C00015F8010BFEF722FC201EA4F10101CCB28C
:1025D000F6D10648006840F40040044908603246DD
:1025E0004146384600F076F8BDE8F0810C0801401D
:1025F00010B50446214642F2030000F022F810BD57
:1026000010B50446214642F2012000F001F810BD49
:102610007CB504460D4600200090019011208DF8F5
:10262000000020128DF8010001208DF80200E0B2B8
:102630008DF803008DF804500521684600F090F8ED
:102640007CBD7CB505460C46002000900190112011
:102650008DF8000028128DF8010003208DF802008B
:10266000E8B28DF80300200C8DF80400200A8DF8E4
:102670000500E0B28DF806000721684600F070F80A
:102680007CBD2DE9FC4705460F4614461E46DDE994
:102690000A89002000900190FFF75EFFFFF76AFFB4
:1026A00032208DF800008DF801508DF80270E0B2F4
:1026B00000128DF80300E0B28DF804008DF805607B
:1026C0008DF806808DF807900821684600F048F8DC
:1026D000BDE8FC877CB506460D46144600200090F8
:1026E000019031208DF800008DF801608DF80250C6
:1026F000E0B200128DF80300E0B28DF80400002073
:102700008DF805008DF806000721684600F028F8CE
:102710007CBD000070B5002500BF1048006820F4A3
:1027200000400E4908604420FEF770FBFF20FEF7D2
:102730006DFB04460948006840F400400749086002
:102740002846691C8DB2B0F57A7F02D1FFF730FEC2
:1027500001E0FF2CE1D100BF70BD00000C0801407A
:1027600070B504460D46FFF7D5FF0B48006820F40E
:1027700000400949086003E02078FEF747FB641C2D
:10278000281EA5F10101CDB2F6D10348006840F43E
:1027900000400149086070BD0C08014021B1028869
:1027A00042F04002028004E002884FF6BF731A40F4
:1027B0000280704710B504461148844208D10121B7
:1027C0008014FFF7BBFC0021A014FFF7B7FC16E054
:1027D0000C48844208D101210014FFF78FFC00212E
:1027E0002014FFF78BFC0AE00748844207D101213F
:1027F000C013FFF783FC0021E013FFF77FFC10BD3F
:102800000030014000380040003C004002460020FB
:1028100013890B400BB1012000E00020704710B578
:102820000022028802F441520B884C8823438C8892
:102830002343CC8823430C8923434C8923438C892D
:102840002343CC8923431A430280838B4FF2FF74C6
:10285000234083830B8A038210BD000010B5044619
:10286000012C04D0022C06D0032C0CD107E05520FB
:102870000A49087008E056200849087004E057200B
:102880000649087000E000BF00BF054890F85300FB
:10289000024948700846FFF7CBFC10BD010100203B
:1028A0001402002010B500F001F810BD0CB5002096
:1028B000019000903348006840F48030314908604E
:1028C00000BF3048006800F4003000900198401CC0
:1028D0000190009818B90198B0F5A06FF1D129487E
:1028E000006800F4003010B10120009001E00020E9
:1028F00000900098012843D12348006840F0100060
:10290000214908600846006820F003000860084676
:10291000006840F0020008601A48406819494860A1
:102920000846406848600846406840F48060486057
:102930000846406820F47C1048600846406840F42F
:10294000E81048600846006840F08070086000BFEA
:102950000C48006800F000700028F9D00948406871
:1029600020F00300074948600846406840F0020034
:10297000486000BF0348406800F00C000828F9D107
:102980000CBD000000100240002002401CB53E4873
:10299000FFF744FD3C48C07800F01000002872D0DA
:1029A0003A48FFF771FD0446002C58D037483849A3
:1029B0000860084600684078772850D108460068CB
:1029C000807876284BD108460068807B752846D1F0
:1029D00008460068C078572808D101202D490870A2
:1029E0002B480068007A2C49087038E028480068B5
:1029F000C078552817D1012026494870244800681E
:102A0000007A2549487022480068417A224881703E
:102A10001F480068817A2048C1701D480068017B0A
:102A20001D4801711BE01A480068C078562816D16D
:102A300001201849887016480068007A16494871C4
:102A400013480068417A1448817111480068817AFE
:102A50001148C1710E480068017B0F4801720620C1
:102A6000FFF70AFC00BFFFF769FC0628FBD1032033
:102A70000021CDE90010094991F8530000231A46BE
:102A80001946FFF7FEFD1CBD3A030020430300205A
:102A900004010020F800002031030020140200206F
:102AA000042808D14FF0E021096941F004014FF0FA
:102AB000E022116107E04FF0E021096921F00401F3
:102AC0004FF0E0221161704710B501F0B1FF01280D
:102AD00001D001F063FF10BD10B51348006840F04D
:102AE00001001149086008464068104908400E4935
:102AF0004860084600680E4908400B4908600846CF
:102B0000006820F4802008600846406820F4FE0039
:102B100048604FF41F008860FFF7C4FE4FF000606C
:102B20000449086010BD0000001002400000FFF8DA
:102B3000FFFFF6FE08ED00E07FB505460C460121DB
:102B40000846FFF7CBFAADF80850ADF80440002076
:102B5000ADF80A00ADF8060001A94FF0804000F082
:102B600091F801221146900700F082F81C208DF8A0
:102B7000000002208DF801008DF8020001208DF880
:102B800003006846FFF70EFA0121880700F053F8AA
:102B90007FBD000010B50121094800F058F870B160
:102BA00008480068401C07490860084600683C283F
:102BB00001DB002008600121014800F039F810BD58
:102BC000000800403C0000207FB505460C4601216E
:102BD0000420FFF783FAADF80850ADF80440002058
:102BE000ADF80A00ADF8060001A90F4800F04AF858
:102BF000012211460C4800F03BF81E208DF8000021
:102C000000208DF8010004208DF8020001208DF8CD
:102C100003006846FFF7C6F90121034800F00BF8EE
:102C20000020024908607FBD000800403C000020F1
:102C3000CA430282704721B1028842F00102028039
:102C400004E002884FF6FE731A400280704730B5E8
:102C50000246002000230024158A05EA0103958915
:102C600005EA010413B10CB1012000E0002030BDE1
:102C70001AB183890B43838102E083898B4383816B
:102C800070470000002202881D4B98420ED01D4B59
:102C900098420BD0B0F1804F08D01B4B984205D022
:102CA0001A4B984202D01A4B984204D14FF68F73B8
:102CB0001A404B881A43174B984207D0164B98423C
:102CC00004D04FF6FF431A40CB881A4302808B880A
:102CD00083850B8803850A4B98420BD0094B984299
:102CE00008D00E4B984205D00D4B984202D00D4BA8
:102CF000984201D10B7A038601238382704700003A
:102D0000002C014000340140000400400008004055
:102D1000000C004000100040001400400040014042
:102D2000004401400048014010B540F225512348BD
:102D300000F076F800283FD040F225511F4800F0FF
:102D400047F81F4800781F4908701C4800F024F914
:102D50001B490870084601781B4802680068401C3F
:102D6000194B1860194881541648007899280DD1DC
:102D700013480078332809D11248007813490870A5
:102D80000F48007848700220194608600E48006815
:102D90002C280CDA0C480068801E0C49085C0D28B1
:102DA0000AD109480068401E085C0A2804D10020A6
:102DB000034908700449086010BD00000044004049
:102DC00010010020110100201401002083030020C5
:102DD00010B50022002340F66A14A14200D100BFC2
:102DE0000A1201249440A3B2DC43048010BD21B137
:102DF000828942F40052828104E082894DF6FF7399
:102E00001A408281704702460020B1F5007F00D150
:102E100000BF13880B400BB1012000E00020704779
:102E200070B50246002400230025002040F66A16F3
:102E3000B14200D100BFC1F3421501F01F030126CA
:102E400006FA03F3012D02D19689334006E0022DE4
:102E500002D1168A334001E0968A33400C120126D3
:102E600006FA04F41688344013B10CB1012000E0D6
:102E7000002070BDF0B50346002400260025002088
:102E800040F66A17B94200D100BF1846C1F3421498
:102E900001F01F06012707FA06F5012C01D10C30BD
:102EA00004E0022C01D1103000E014301AB10768A0
:102EB0002F43076002E00768AF430760F0BD0000E2
:102EC0002DE9F04786B005460E460024A24600BF15
:102ED000A1460027B08900B100BF2F462C8A4CF6CE
:102EE000FF700440F08804432C82AC894EF6F31046
:102EF0000440B08831890843718908430443AC8198
:102F0000AC8A4FF6FF400440B0890443AC8201A86C
:102F1000FFF724F91F48874202D1DDF810A001E035
:102F2000DDF80CA0A88900F4004040B10AEBCA000B
:102F300000EB0A1031684900B0FBF1F807E00AEB3A
:102F4000CA0000EB0A1031688900B0FBF1F8642078
:102F5000B8FBF0F004012009642101FB1089A88965
:102F600000F4004040B1322000EBC900B0FBF1F0AA
:102F700000F00700044308E0322000EB0910642150
:102F8000B0FBF1F000F00F0004432C8106B0BDE867
:102F9000F08700000038014001468888C0F308002F
:102FA0007047C1F308028280704700BFFEE770B52A
:102FB00004460D4629462046FFF7F3FF00BF802157
:102FC0002046FFF720FF0028F9D070BD10B586B06D
:102FD000044601210420FFF7A1F801214804FFF76E
:102FE0007DF80420ADF8140003208DF81600182099
:102FF0008DF8170005A91E48FEF7A7F80820ADF8C0
:10300000140004208DF8170005A91948FEF79DF853
:1030100000F032F800F04AF826208DF80000022077
:103020008DF8010003208DF8020001208DF80300C7
:103030006846FEF7B7FF01940020ADF80800ADF830
:103040000A00ADF80C00ADF810000C20ADF80E0031
:1030500001A90848FFF734FF012240F22551054835
:10306000FFF708FF01210348FFF7C1FE06B010BDBE
:10307000000801400044004008B501210420FFF78A
:103080004DF80120ADF8000010208DF8030003205A
:103090008DF8020069460448FEF757F801210248FE
:1030A000FEF731F908BD00000008014008B5012114
:1030B0000C20FFF733F84FF48070ADF80000482083
:1030C0008DF8030003208DF8020069460848FEF7DA
:1030D0003CF80220ADF8000048208DF803000320E2
:1030E0008DF8020069460348FEF72FF808BD00007E
:1030F000000C01400008014010B53248006800286B
:103100005FD1C82000F08CFB2E480068002858D101
:1031100055E02D480078401C2B490870294800686C
:10312000002823D10846007814281FDB00200870EF
:10313000012000F009FA00BF24A125A000F04EF9FB
:103140000028F9D10A2000F06BFB00BF1FA124A0CA
:1031500000F044F90028F9D10A2000F061FB00BF1B
:103160001AA125A000F03AF90028F9D117A000F023
:103170006BF820B30020144908702748007830B954
:1031800001202549087011A124A000F027F90D485D
:103190002C38006820B923480078401C2149087069
:1031A00008482C38006820B11E480078052800DD4A
:1031B00006E01D49C8698047642000F031FBA8E79C
:1031C00000BF10BD30012142360100202B4F4B00C3
:1031D00041542B574D4F44453D41500D0A000000CE
:1031E00041542B5741503D5A592D546563682C4E1C
:1031F0004F4E450D0A00000041542B554152543D9D
:103200003131353230302C382C312C4E4F4E452C4C
:103210004E46430D0A0000003701002041542B5A4E
:103220000D0A0000380100205400002010B52C21A8
:103230000348FDF709FA00200249086010BD0000AC
:10324000830300201401002010B5044621460448E1
:10325000FDF784F908B1012010BD0020FCE7000053
:103260008303002010B500F04FF92C4902680A6072
:103270008088888000F0E2F828490068C1F80600DC
:1032800027480A680260898881802448D0F806406F
:103290003CE024480078401CC0B2224908706428F1
:1032A00016D10020087000F045F802E01E49886938
:1032B00080471E4800680028F8D100F0BFF8174981
:1032C0000068C1F806000846D0F8064004B11FE0C7
:1032D00016482C30006898B913494869804714484B
:1032E0000078401C12490870084600781E280ADB46
:1032F0000D498868804700200C49A831086002E029
:10330000094988698047642000F0D0FA002CC0D0B9
:1033100000BF41F697700149488110BDAF030020FE
:10332000FB0000203E010020540000200401214247
:103330003D01002010B50020054908604FF4FA70E7
:1033400000F06EFA01200349C1F8800110BD0000B1
:10335000800121420000214210B530E01B48006886
:1033600018B91B49886980472DE01A480088401C1D
:1033700080B218490880642803D100200880FFF734
:10338000D9FF12482C30006840B913480078401C1F
:10339000114908700E494869804702E00C49086AE3
:1033A00080470D4800781E2806DB09498868804759
:1033B00000200649A8310860642000F031FA034873
:1033C00000680028CAD100BF10BD000004012142DE
:1033D000540000203A0100203C0100202DE9F0417A
:1033E00004460D463226FFF721FF2046FDF7C8F8B8
:1033F00007463A4621460E4801F008F810E00D480D
:103400000068002809DD29460B48FDF7A7F810B130
:103410000120BDE8F081FFF709FF0A2000F000FA63
:10342000301EA6F10101CEB2E9D100BFF1E70000E4
:10343000004400401401002083030020F0B5A9B02F
:10344000012000F081F800284AD026A126A0FFF72D
:10345000C5FF402227492848FDF7B1F8264D27A18E
:103460002846FDF775F806463046FDF789F804460C
:103470002246314601A8FDF7A2F8012413E01FA15E
:103480000020FDF765F806463046FDF779F8074657
:1034900004EB840101AA02EBC1003A463146FDF774
:1034A0008EF8601CC4B2042CE9DB15A10BA8FDF753
:1034B0004FF80446FDF73EF81249087001240AE06F
:1034C0000FA10020FDF744F80746FDF733F80D493A
:1034D0000855601CC4B2042CF2DB0A4829B0F0BDC8
:1034E0000020FBE72B4F4B0041542B57414E4E0D14
:1034F0000A00000083030020070400202C000000C5
:103500002E0000003201002030B59BB001A8FEF76C
:10351000E7F8FDF747FF04462046FDF731F805467A
:103520002A46214601A8FEF7D7FC17A901A8FEF7F5
:10353000ADF8044818990160BDF8641081801BB093
:1035400030BD00002C01002070B504460025012C80
:103550001AD1002111A0FFF741FF00B90125DC209D
:1035600000F05EF9012D17D10FA110A0FFF736FF73
:103570000A2000F055F90EA10BA0FFF72FFF0A203B
:1035800000F04EF9012070BD022C05D108A109A060
:10359000FFF724FF0220F6E70020F4E741542B5602
:1035A00045520D0A00000000610000002B2B2B008B
:1035B0002B4F4B0041542B454E544D0D0A0000003B
:1035C00070B58AB004460D461646202102A8FDF7C4
:1035D0005DF82B46224607A102A80096FCF794FE50
:1035E00009A102A8FFF7FAFE202102A8FDF74EF874
:1035F0000AB070BD41542B534F434B413D25732CB2
:1036000025732C25730D0A002B4F4B002DE9F04735
:1036100005460E4614460027B846FDF777FD3420D0
:10362000FDF7EEFC1248FDF7F1FC12490870084660
:103630000078042817D100BF0FE006EB080000F067
:103640003DF881460A4968184946FDF729FD0949B0
:1036500008702D1D08F104087F1CE11704EB91711F
:10366000B7EBA10FE9DBFDF711FDBDE8F087000026
:10367000000001084800002030380A2801D201204B
:1036800070470020704700BF7047000070B54924A4
:1036900021460948FCF7D8FFFDF73CFA05462246CB
:1036A00029460548FCF78BFF032204F10B01024871
:1036B00000F0D2FA70BD0000140200200146C87864
:1036C00000068A7840EA02404A7840EA02200A78F6
:1036D00010437047F8B505460F4614461E460020B5
:1036E000354908606621344802680068401C324B46
:1036F000186032488154FF21184602680068401C57
:1037000018602E4881540921184602680068401C40
:1037100018602A48815419460968084428490A68EB
:1037200002608988818018460068801D19460860FB
:10373000224809680844056018460068001D1946BB
:1037400008600021184602680068401C18601B4889
:103750008154184602680068401C18601748845459
:10376000184601680068401C1A4610601348465409
:1037700001461268881822463946FCF720FF0E4899
:10378000006820440C49086008780C49FEF7ECFBFF
:1037900000900A48084909680844BDF800100180F3
:1037A00005480068801C044908600846008881B20A
:1037B000024800F087F8F8BD08010020B10200209F
:1037C000FB00002010B50420FFF76AF910480068DC
:1037D0001049B0FBF1F0104908700D4800680D4920
:1037E000B0FBF1F44FF47A70444301200B49088098
:1037F0004FF0E020006940F002004FF0E021086146
:1038000008464461006940F00100086110BD0000F5
:103810001C00002040420F007C0100207E0100209F
:1038200070B5044601F004F9012811D00C48008855
:10383000844206DB0A48008894FBF0F5284600F035
:103840009DFE0748008894FBF0F100FB114084B214
:103850004FF47A7104FB01F000F004F870BD000031
:103860007E01002070B5034600224FF0E026756906
:103870000D4E367803FB06F44FF0E026B16910E0F8
:103880004FF0E026B06988420BD0884202D20E1A6F
:10389000324402E02E1A0E4432440146A24200D3C2
:1038A00000E0EDE700BF70BD7C01002030B50446AC
:1038B000002504E04FF47A70FFF7D4FF6D1CA54299
:1038C000F8D330BD70B504460D4604E014F8011B72
:1038D0000448FFF76CFB281EA5F101018DB2F5D15C
:1038E00070BD00000044004010B50021032000F02E
:1038F00019F810BD10B50121032000F013F810BD18
:1039000010B520210648FDF7F3FC08B1012000E0C6
:10391000002004462146032000F004F810BD0000FA
:103920000008014070B505460C46E0212D48FDF722
:10393000EAFC082D52D2DFE805F051040F1A2530B9
:103940003B4624B180212748FDF7DBFC03E08021C2
:103950002448FDF7D8FC42E024B140212148FDF77E
:10396000D0FC03E040211F48FDF7CDFC37E024B137
:1039700020211C48FDF7C5FC03E020211948FDF774
:10398000C2FC2CE024B1C0211648FDF7BAFC03E0CC
:10399000C0211448FDF7B7FC21E024B1A021114853
:1039A000FDF7AFFC03E0A0210E48FDF7ACFC16E0EC
:1039B00024B160210B48FDF7A4FC03E06021094815
:1039C000FDF7A1FC0BE024B1E0210648FDF799FCCE
:1039D00003E0E0210348FDF796FC00E000BF00BFD4
:1039E00070BD00000008014010B500210220FFF763
:1039F00099FF10BD10B540210648FDF779FC08B1CC
:103A0000012000E00020044621460220FFF78AFF43
:103A100010BD00000008014010B501210520FFF78E
:103A200081FF10BD10B5A0210648FDF761FC08B16B
:103A3000012000E00020044621460520FFF772FF28
:103A400010BD00000008014010B500210120FFF763
:103A500069FF10BD10B580210648FDF749FC08B18B
:103A6000012000E00020044621460120FFF75AFF14
:103A700010BD00000008014010B500210720FFF72D
:103A800051FF10BD10B501210720FFF74BFF10BDFE
:103A900010B5E0210648FDF72BFC08B1012000E03D
:103AA0000020044621460720FFF73CFF10BD000020
:103AB0000008014010B5C0210648FDF719FC08B107
:103AC000012000E00020044621460420FFF72AFFE1
:103AD00010BD0000000801401CB54FF44070FEF717
:103AE00099FAFFF76FFE4FF4E13000F037FCFEF774
:103AF0009BFA2749486880474FF4E130FFF766FAA0
:103B000040F6B830FFF7D2FE0120224908604FF49A
:103B10007A70FFF7CBFE00201F49C1F880014FF4F7
:103B20007A70FFF7C3FEFFF7E7FAFFF715FCFFF720
:103B300099FB1A4818221A49036800209847184828
:103B4000407B28B11648407B164981F8530003E0BA
:103B50001220144981F85300FEF72AFC00200D4979
:103B60001439086001201049C1F89401094910393D
:103B700008600E48012100238022CDE900100CA12D
:103B80000E4800F025FF00F0B5FD00201CBD000030
:103B900054000020AC012142008021424C00002052
:103BA000FC0100201402002000002142000000203F
:103BB00073746172745F7461736B00002542000856
:103BC0003DE01F480078012817D1FFF75FFD1D4831
:103BD0000088401C80B21B490880B0F5616F0CDB87
:103BE00019480078012808D100200880FDF7FCFB67
:103BF00004460A22052100F02FF814480068B0B9E5
:103C000013480078401C12490870124948698047DF
:103C10000F4800781E2806DB0E4988688047002080
:103C20000A497C3108606420FFF740FE04E0002070
:103C300007490870FDF7DEFB0A2000F09FFCC0E793
:103C4000200100201800002018010020300121422E
:103C5000160000205400002070B504460D4616469C
:103C600007480068401C0649086033462A4621463A
:103C700003480068FFF72EFD0148006870BD000092
:103C80000C0100202DE9F04105460E461C4807684E
:103C90001C480068001D00F0CDFB50B919480068B1
:103CA00090F82C1001208840174909688143164874
:103CB0000160681C38B936B112480168091D134803
:103CC00000F0F6FB1AE07C190E4800684460BC4224
:103CD00007D20C480168091D0D48006800F0CEFBB2
:103CE0000CE008480168091D0A48006800F0C6FB9E
:103CF00009480068844201D207480460BDE8F081A9
:103D0000A801002094010020AC0100207C050020C7
:103D10009C01002098010020C401002010B5044639
:103D200000F0D2FB23480068401C2249086022486A
:103D3000006840B9204804600846006801280DD199
:103D400000F00CF90AE01D48006838B91A4800680C
:103D5000C06AE16A884201D81748046018480068C0
:103D6000401C1749086094F82C1001208840154920
:103D70000968084313490860E16A01EB8101124AAE
:103D800002EB8100211D00F093FB00F0AFFB0B481C
:103D9000006868B108480068C06AE16A884207D2D2
:103DA0004FF0805009490860BFF34F8FBFF36F8F0A
:103DB00010BD0000A401002094010020B0010020EB
:103DC000C0010020AC010020C804002004ED00E088
:103DD00010B516E000F078FB0C48C068C468201DE0
:103DE00000F028FB0A480068401E0949086009489D
:103DF0000068401E0749086000F078FB204600F08C
:103E00000BF8044800680028E4D110BD68050020C4
:103E1000A4010020A001002010B50446206B00F092
:103E200075FB204600F072FB10BD000030B54FF46A
:103E30008843174800F007042CB1C01D20F007008C
:103E4000134C041B1B1B0246124C22600024114D14
:103E50006C60D018083820F007000F4C2060002458
:103E60000D4D2D686C600C4D2D682C601146441A68
:103E70004C60094C24680C60084D4C682C60084D5F
:103E80004C682C604FF00044064D2C6030BD0000A3
:103E900090050020D8010020E0010020E80100206A
:103EA000E4010020F401002000BFFFF791FF064865
:103EB00000680128F9D94FF0805004490860BFF329
:103EC0004F8FBFF36F8FF0E7C804002004ED00E0D0
:103ED0002DE9FF5F80460E469146DDE90E7A109C83
:103EE000A9F10100216B01EB800B2BF0070B86B1D0
:103EF000002507E0715D04F134004155705D00B9A3
:103F000002E06D1C102DF5D300BF002143200155A8
:103F100002E0002084F83400052F00D30427E76274
:103F2000201D00F0A8FA04F1180000F0A4FA2461A2
:103F3000C7F10500A06164620020606484F8480055
:103F400041465846039A00F033F92060BAF1000F59
:103F500001D0CAF80040BDE8FF9F000010B5002462
:103F600007E004EB84010F4A02EB810000F076FACF
:103F7000641C052CF5D30C4800F070FA0B4800F0D7
:103F80006DFA0B4800F06AFA0A4800F067FA0A482E
:103F900000F064FA044809490860044808490860C8
:103FA00010BD0000C80400202C05002040050020A2
:103FB00054050020680500207C05002098010020A1
:103FC0009C01002010B50146164800E00068036817
:103FD0008B42FBD30246436813448B4204D14368AF
:103FE0004C682344436001460A464B681344046806
:103FF000A34211D10C4C03682468A34208D04B683B
:104000000468646823444B6003681B680B6005E028
:10401000054B1B680B6001E003680B60884200D011
:10402000016010BDD8010020E001002009480068AF
:10403000006808B9012000E0002020B14FF0FF30F7
:104040000549086005E003480068C0680068024947
:104050000860704798010020C401002000BFBF2005
:1040600080F31188BFF34F8FBFF36F8F00BF00BF86
:10407000FEE7000010B5014600200A460B4C5369CC
:10408000A34201D1012300E0002373B1084C936ADD
:10409000A34201D1012300E0002333B9936A0BB995
:1040A000012300E0002303B1012010BD7C050020A6
:1040B000540500202DE9F04104464FF0000800F0BF
:1040C000BBFB3548006808B9FFF7B0FE334800680D
:1040D000204000285BD1B4B104F10800A04212D9FD
:1040E000083404F0070078B104F00700C0F10800BC
:1040F0002044A04205D904F00700C0F108000444A0
:1041000002E0002400E00024002C40D02448006895
:1041100084423CD8234E3046056801E02E462D6887
:104120006868A04202D228680028F7D11A480068BF
:1041300085422CD0306800F1080828683060686833
:10414000001B102807D92F196868001B78606C6065
:104150003846FFF737FF124968680968081A10499E
:1041600008600846006810490968884203D20C4874
:1041700000680D4908600949686809680843686073
:104180000020286009480068401C0849086000F0C9
:10419000EDFC4046BDE8F081E0010020F401002084
:1041A000E4010020D8010020E8010020EC010020FB
:1041B000001F4FF080730360001F21F001030360B4
:1041C000001F034B03601438026020387047000062
:1041D0005D40000821E011480078401C0F4908703C
:1041E00008460078052813D10D480078401C0C497A
:1041F000087008460078FEF731FB0948007803286C
:1042000002DB00200649087000200449087001E024
:10421000FEF7BCFB0A2000F0B1F9DCE71500002036
:10422000140000201CB5044600F04EF91B48022182
:1042300000238022CDE9001019A11C4800F0C8FB22
:104240001B48032100238022CDE9001019A11D483D
:1042500000F0BEFB1C48042100238022CDE90010A1
:104260001AA11E4800F0B4FB1D480521002380223E
:10427000CDE900101BA11F4800F0AAFB0748006809
:1042800000F06EFA1648006800F06AFA1A480068F2
:1042900000F08EF900F02AF91CBD00000400002097
:1042A0006D61737465725F7461736B00C13B00086C
:1042B000080000207769666972656376655F7461DE
:1042C000736B00001D4900080C00002077696669C7
:1042D0006D6F64655F7461736B000000A94800082E
:1042E00010000020736934333361636B5F74617352
:1042F0006B000000D54100080000002070B50446A6
:104300000D46012C0AD105EB85010122C2EB4101CA
:1043100088B241F61F41FEF70FFC0BE0022C09D1D9
:1043200005EB85010122C2EB410188B241F61F4134
:10433000FEF74AFC70BD000010B50446012C03D105
:1043400000218007FEF777FC022C03D100210248F0
:10435000FEF771FC10BD00000008004010B586B0EB
:10436000044601210820FDF7D9FE01218804FDF74C
:10437000B5FE4FF48060ADF8140003208DF81600F0
:1043800018208DF8170005A91248FCF7DEFE4FF43F
:104390000060ADF8140004208DF8170005A90D4841
:1043A000FCF7D3FE01940020ADF80800ADF80A0038
:1043B000ADF80C00ADF810000C20ADF80E0001A90E
:1043C0000548FEF77DFD01210348FEF710FD06B00C
:1043D00010BD0000000C01400048004070B50446CC
:1043E0000D460BE000BF80210748FEF70CFD0028BA
:1043F000F9D020780449091D0880641C281EA5F105
:104400000101CDB2EED170BD0048004010B5038867
:1044100023F04003038008E011F8013B838000BFD4
:10442000038803F04003002BFAD0131EA2F101020F
:10443000F2D110BD01460A69D1E901309860D1E995
:10444000010358605068884201D18868506000209C
:1044500008611068401E10601068704700F1080184
:1044600041604FF0FF31816000F10801C1600161DE
:1044700000210160704700210161704710B50246BC
:104480000B685C1C0CB9106907E002F1080000E041
:104490004068446824689C42FAD944684C604C687F
:1044A000A160886041600A611468641C146010BDDA
:1044B00042684A6093688B609368596091600861B4
:1044C00003685B1C0360704700BFBF2080F3118846
:1044D000BFF34F8FBFF36F8F00BF03480068401CCE
:1044E0000149086070470000D401002006480068B8
:1044F000401E054908600846006820B9002080F386
:10450000118800BF00BF7047D401002070B5064677
:104510003546FEB1083D2C460F49606809680840E1
:10452000C0B12068B0B90C49606809688843606010
:1045300000F082F909496068096808440749086081
:104540002046FFF73FFD06480068401C044908600C
:1045500000F00CFB70BD0000F4010020E40100201D
:10456000F001002000204FF0E0210861886102483E
:1045700048610720086170473F19010070B5044683
:10458000002544B100F058F900212046FFF77AFBDE
:1045900000F0ECFA05463DB94FF080500349086041
:1045A000BFF34F8FBFF36F8F70BD000004ED00E0CD
:1045B00070B50546FFF788FF15B92748006800E089
:1045C00028460446201DFFF735FF78B9E06A00EB66
:1045D0008000224951F8200040B994F82C100120A5
:1045E00088401F49096881431D480160A06A18B1CD
:1045F00004F11800FFF71EFF1A480068401C194913
:10460000086015480068844209D1211D1648FFF74B
:104610004FFF16480068401C1449086009E0144820
:104620000068401E124908602046FFF7F5FBFFF7BF
:10463000FDFCFFF75BFF0F48006858B106480068B3
:10464000844207D14FF080500B490860BFF34F8F71
:10465000BFF36F8F70BD000094010020C8040020DC
:10466000AC010020C001002068050020A00100204E
:10467000A4010020B001002004ED00E070B5054663
:104680002C461848006884422BD054B3FFF71CFF17
:104690002046FFF7EFFC10B3201DFFF7CBFE94F888
:1046A0002C10012088401049096808430E49086011
:1046B000E16A01EB81010D4A02EB8100211DFFF748
:1046C000F7FE0849E06A0968C96A884207D34FF0D3
:1046D000805007490860BFF34F8FBFF36F8FFFF71C
:1046E00005FF70BD94010020AC010020C80400202B
:1046F00004ED00E01CB5124800210B468022CDE9F4
:10470000001010A1114800F063F90446012C14D1E7
:1047100000BFBF2080F31188BFF34F8FBFF36F8FAF
:1047200000BF4FF0FF300A490860012009490860C6
:1047300000200949086000F017F9084800681CBD0E
:10474000C801002049444C4500000000A93E000873
:10475000C4010020B0010020A8010020CC010020ED
:1047600070B50546FFF7B0FE15B92C48006800E0AB
:1047700028460446201DFFF75DFE78B9E06A00EB8D
:104780008000274951F8200040B994F82C100120EE
:10479000884024490968814322480160A06A18B111
:1047A00004F11800FFF746FE211D1F48FFF780FEA9
:1047B000002009E004F14801095C012903D100222D
:1047C00004F148010A54401C0128F3DBFFF78EFE78
:1047D0001648006828B1FFF777FEFFF727FCFFF7C0
:1047E00085FE0E480068844217D11048006840B129
:1047F0004FF080500E490860BFF34F8FBFF36F8FAB
:104800000BE0094800680B490968884203D1002081
:104810000249086001E000F017F870BD9401002023
:10482000C8040020AC0100207C050020B00100205D
:1048300004ED00E0A401002002480068401C01498A
:1048400008607047D00100201248006818B10120AC
:10485000114908601DE000200F4908600F480068FA
:10486000B0FA80F0C0F11F0101EB81020C4B03EBA9
:10487000820042685268426000F108024368934235
:1048800002D14268526842604268D268054B1A60A1
:1048900000BF7047D0010020B8010020AC0100200B
:1048A000C80400209401002018480078FF280CD18B
:1048B00016484078FF2808D114488078FF2804D192
:1048C0001248C078FF2800D104E00220FCF7FAFD6E
:1048D00010B900BFFCF7D0F916E00D48407870B170
:1048E00000200B4948700B480068FFF7C7FE0A48D4
:1048F0000068FFF7C3FE0020FFF732FF01E0FCF77E
:10490000BBF90A20FFF73AFEE7E70000FC010020B0
:1049100020010020040000201000002018E02C21BD
:104920000C48FCF7C1FA0C48007970B10B480068DC
:10493000FFF716FF0A480068FFF712FF09480068F2
:10494000FFF79CFE0020044908710A20FFF716FEBD
:10495000E5E7000083030020200100200400002080
:10496000100000200C00002010B50A48006840F438
:104970007F00084908600846006840F07F400860F2
:10498000FFF7F0FD002004490860FBF761FC002000
:1049900010BD000020ED00E0D401002010B500BFE4
:1049A000BF2080F31188BFF34F8FBFF36F8F00BF1D
:1049B00000F04EF818B14FF080500449086000BF75
:1049C000002080F3118800BF10BD000004ED00E05E
:1049D0002DE9FF4F85B0804689461746DDE912ABC9
:1049E000B800FFF767FB064656B14C20FFF762FBA5
:1049F00004460CB1266304E03046FFF787FD00E073
:104A000000247CB10020CDE900ABCDE902403A465C
:104A100049464046089BFFF75BFA2046FFF77EF9C0
:104A2000012501E04FF0FF35284609B0BDE8F08FC1
:104A30000549096809B9012005E00449096809B96F
:104A4000022000E000207047B0010020D0010020CB
:104A50002DE9F04100273A480068002867D139481D
:104A60000068451C374805608DB93748D0F800808C
:104A700036480068344908603448C0F8008034483B
:104A80000068401C32490860FFF7D0FA00BF314887
:104A9000006885423BD300BF2B480068006808B916
:104AA000012000E0002020B14FF0FF3029490860CC
:104AB0002CE025480068C068C4686668B54202D228
:104AC0002448066022E0201DFFF7B4FCA06A18B15C
:104AD00004F11800FFF7AEFC94F82C100120884078
:104AE0001D49096808431C490860E16A01EB81011E
:104AF0001A4A02EB8100211DFFF7DAFC1849E06A2F
:104B00000968C96A8842C7D30127C5E700BF1448AE
:104B10000068C06A00EB8000104951F820000128AD
:104B200000D901270F48006800B1012704E00E48B2
:104B30000068401C0C4908603846BDE8F081000060
:104B4000D0010020A8010020980100209C01002035
:104B5000BC010020C4010020AC010020C8040020DA
:104B600094010020B8010020B401002070B5002499
:104B70000026FFF7A9FC2E480068401E2C4908605B
:104B80000846006800284FD12A48006800284BD00A
:104B900024E02948C068C46804F11800FFF74AFC03
:104BA000201DFFF747FC94F82C1001208840234972
:104BB0000968084321490860E16A01EB8101204A44
:104BC00002EB8100211DFFF773FC1E49E06A0968B2
:104BD000C96A884202D301201B4908601648006850
:104BE00008B9012000E000200028D2D00CB1FFF766
:104BF0001DFA1648056865B100BFFFF729FF10B11F
:104C00000120114908606D1E002DF6D100200F49CA
:104C100008600D48006838B1012630070C4908606B
:104C2000BFF34F8FBFF36F8FFFF760FC304670BD4F
:104C3000D0010020A401002054050020AC01002078
:104C4000C804002094010020B8010020B401002015
:104C500004ED00E010B500290AD00878002807D03C
:104C600005487844FBF716FF002801D0002010BD4E
:104C70000248784410BD0000120600000A06000039
:104C800000C1814001C0804101C0804100C181401C
:104C900001C0804100C1814000C1814001C080410C
:104CA00001C0804100C1814000C1814001C08041FC
:104CB00000C1814001C0804101C0804100C18140EC
:104CC00001C0804100C1814000C1814001C08041DC
:104CD00000C1814001C0804101C0804100C18140CC
:104CE00000C1814001C0804101C0804100C18140BC
:104CF00001C0804100C1814000C1814001C08041AC
:104D000001C0804100C1814000C1814001C080419B
:104D100000C1814001C0804101C0804100C181408B
:104D200000C1814001C0804101C0804100C181407B
:104D300001C0804100C1814000C1814001C080416B
:104D400000C1814001C0804101C0804100C181405B
:104D500001C0804100C1814000C1814001C080414B
:104D600001C0804100C1814000C1814001C080413B
:104D700000C1814001C0804101C0804100C181402B
:104D800000C0C101C30302C2C60607C705C5C404EB
:104D9000CC0C0DCD0FCFCE0E0ACACB0BC90908C85B
:104DA000D81819D91BDBDA1A1EDEDF1FDD1D1CDC4B
:104DB00014D4D515D71716D6D21213D311D1D010BB
:104DC000F03031F133F3F23236F6F737F53534F4AB
:104DD0003CFCFD3DFF3F3EFEFA3A3BFB39F9F8381B
:104DE00028E8E929EB2B2AEAEE2E2FEF2DEDEC2C0B
:104DF000E42425E527E7E62622E2E323E12120E07B
:104E0000A06061A163A3A26266A6A767A56564A46A
:104E10006CACAD6DAF6F6EAEAA6A6BAB69A9A868DA
:104E200078B8B979BB7B7ABABE7E7FBF7DBDBC7CCA
:104E3000B47475B577B7B67672B2B373B17170B03A
:104E4000509091519353529296565797559594542A
:104E50009C5C5D9D5F9F9E5E5A9A9B5B995958989A
:104E6000884849894B8B8A4A4E8E8F4F8D4D4C8C8A
:104E700044848545874746868242438341818040FA
:104E8000080421714B0000DC950805A62221F041A1
:104E90005B2608E22F1CBB0AA8942808058767E256
:104EA000581A075B08E1D072D88AB85B7D080511F3
:104EB000EC9E28231B6D08E24F8AB2A9291413081F
:104EC00005D12E716A514C2C08E5802742A469B0A7
:104ED0007F0805AA812ABD45E8A808EAE4F024C9AC
:104EE0009FCC3C080508F5050427629808EA6B6228
:104EF00084A1F94AE20805E977054F84EE3508E216
:104F000043C38DFBAD5425080514065E39362F4585
:104F100008EA0C1C74D011FC320805DA38BA0E3CD1
:104F2000E78B08EAB009E6FF94BBA90805D7112969
:104F3000FEDC71D508EA7F83A760906218080584BB
:104F40007F6AD191C65208EA2AD87B8E4A9F91087F
:104F500005BDAA9D1618061508E255AD2D0A141FA9
:104F60005D0805D3E07C39CF01F008EF3A91726A11
:104F700003BB9608E7836DA492FC13A708EFF8FD26
:104F8000CF62076F1E08E74CEA4A754FD6CF08E29A
:104F9000F611E4260D4DC60805FBBFE80789C3518D
:104FA00008EF8227043F96A85808E741293C752A54
:104FB000031C08EFAF599836AA0F0608E6F693418E
:104FC0002DEC0E990805291990E5AA364008E7FB53
:104FD00068107D775DC008E7CBB4DDCE9054BE0885
:104FE000E7728AD602F4DDCC08E76A210B0286EC70
:104FF0001508E77B7C3D6B8103D008EF7D6136941B
:105000007CA0DF08EFCC853BDAE05C1C08E7E375A9
:10501000BB39224BA808EFF9CEE05EEB1DCB08E7C9
:10502000BDE270D5AB4E3F08E7B78D20686B0952E3
:1050300008EFA11B90CD98006308EF54675D9C11A9
:10504000FC4508E7D49BC897BE8A0708EF528D90AD
:105050006373D52A08EF03BC6E1C76BE4A08E7C20C
:10506000ED67BA5E662108EFE73F87BEE07A6D081C
:10507000E7C970931D64F56C08EFF5280834B3B6E2
:105080002C08EF3A0AEC0FDB56CA08EF39A06EED98
:1050900079D02408E76C0BAFA94E40B508E9B9AF49
:1050A000BF2550D13708059EDBDE3F94E96B08EC45
:1050B000C505AA57DC8A5E080570DA8484DDCA90CB
:1050C0000702810001C9C3800813200021000000ED
:1050D0000006110002005200051100010320061114
:1050E00001020001380811020400000000000D1147
:1050F0001009000814000F31000000000A11110609
:105100000001B42B0000001011120C00040108FF74
:10511000FF200200000000301011120C0C300008BB
:105120000480000000000000001011120C180000A4
:10513000000000000000000000001011120C24000C
:1051400000000000000000000000000911120530FE
:1051500000000000001011200C000200070F424068
:1051600001C9C3800005051120010C761011200C27
:1051700018010008038000102000E8004B101120E7
:105180000C2406D3A007FF020000002386D40711D9
:105190002003300098A00511200135E007112003FD
:1051A000381110100811200440280CA4230E1120DF
:1051B0000A450300AA0100FF06001840061120025C
:1051C00050840A06112002540307051120015700DC
:1051D000091120055B40040578201011210C007E88
:1051E000641BBA580BDDCED6E6F6001011210C0C6C
:1051F000030315F03F007E641BBA580B1011210CFD
:1052000018DDCED6E6F600030315F03F00081122A4
:105210000400087E005D0B1123070034040B040713
:1052200070031011300C00000000000000000000AE
:105230000000000C11400800400AAAAA444420FEC5
:10524000000400000800000000000000020001004F
:10525000001000008453000800000020FC01000042
:105260006C01000830540008FC010020F44D0000DF
:10527000C80100081001000043000000F8FFFFFF14
:105280000040404040404040404041414141414059
:10529000404040404040404040404040404040400E
:1052A000400502020202020202020202020202029D
:1052B00002202020202020202020200202020202A2
:1052C00002029090909090901010101010101010FA
:1052D0001010101010101010101010100202020206
:1052E000020288888888888808080808080808084A
:1052F0000808080808080808080808080202020246
:10530000400000000000000000000000000000005D
:10531000000000000000000000000000000000008D
:10532000000000000000000000000000000000007D
:10533000000000000000000000000000000000006D
:10534000000000000000000000000000000000005D
:10535000000000000000000000000000000000004D
:10536000000000000000000000000000000000003D
:10537000000000000000000000000000000000002D
:1053800000000000011D84A24A04100B0102030466
:1053900006070809150D14080D0E1B086D044113AE
:1053A000FD42140839432A08291B59221C4A361881
:1053B0001355141B08810413F5391408553A1B08BA
:1053C00001081A91081A25041AB5041A850413F560
:1053D000381B08E9181A490C1AE90C1A79081A1925
:1053E00004029380051CE8F7FF1F136523140821AE
:1053F0002514084B24140895221B08F10C130126D0
:105400001B08B1181A3D041A79141A83101AD5040E
:105410001A911C1A8928812D0102030404780806B8
:1054200007080902040618013072041AAA010124AF
:04000005080002C528
:00000001FF
