:020000040800F2
:10000000784F0020B9020008891B0008DD100008A5
:100010004D1B0008ED0A0008F32A0008000000004C
:1000200000000000000000000000000021020008A5
:10003000950C000800000000650200080D2800086B
:10004000D3020008D3020008D3020008D30200083C
:10005000D3020008D3020008D3020008D30200082C
:10006000D3020008D3020008D3020008D30200081C
:10007000D3020008D3020008D3020008D30200080C
:10008000D3020008D3020008D3020008D3020008FC
:10009000D3020008D3020008D3020008D3020008EC
:1000A000D3020008D3020008D3020008D3020008DC
:1000B000D3020008D3020008D3020008D3020008CC
:1000C000D3020008D3020008D3020008D3020008BC
:1000D000D30200087D280008D3020008D3020008DC
:1000E000D3020008D3020008D3020008D30200089C
:1000F000D3020008D3020008D3020008D30200088C
:10010000D3020008D3020008D3020008D30200087B
:10011000D3020008D3020008D3020008D30200086B
:10012000D3020008D3020008D3020008D30200085B
:1001300000F002F800F065F80AA090E8000C824494
:100140008344AAF10107DA4501D100F05AF8AFF271
:10015000090EBAE80F0013F0010F18BFFB1A43F0A5
:1001600001031847D8460000F84600000A444FF043
:10017000000C10F8013B13F0070408BF10F8014B06
:100180001D1108BF10F8015B641E05D010F8016B4B
:10019000641E01F8016BF9D113F0080F1EBF10F8AF
:1001A000014BAD1C0C1B09D16D1E58BF01F801CBD2
:1001B000FAD505E014F8016B01F8016B6D1EF9D555
:1001C0009142D6D37047000000230024002500266A
:1001D000103A28BF78C1FBD8520728BF30C148BFAA
:1001E0000B607047642900F0E580782900F01E81DB
:1001F000732900F0FF82002070471FB51FBD10B5A6
:1002000010BD00F05BFB1146FFF7F7FF03F04AF863
:1002100000F079FB03B4FFF7F2FF03BC02F0D7FC58
:10022000224B19680868B0E8F00F80F30988BFF323
:100230006F8F4FF0000080F311884EF00D0E704765
:100240000000000006480068006880F3088862B675
:1002500061B6BFF34F8FBFF36F8F00DF00BF00BFEA
:1002600008ED00E0EFF30980BFF36F8F0F4B1A68C2
:1002700020E9F00F106008B54FF0BF0080F311883F
:10028000BFF34F8FBFF36F8F03F024FE4FF00000DA
:1002900080F31188BDE8084019680868B0E8F00FDD
:1002A00080F30988BFF36F8F704700BF640100209F
:1002B000EFF3058070470000094880470948004770
:1002C000FEE7FEE7FEE7FEE7FEE7FEE7FEE7FEE706
:1002D000FEE7FEE704480549054A064B7047000063
:1002E0001D2800083101000878490020784F0020BF
:1002F000784B0020784B0020704700000FB4044971
:1003000010B503AA029800F079FA10BC5DF814FB4E
:100310004801002070B5044685690068C10601D512
:10032000302600E02026C00707D070BDD4E90121A7
:1003300030469047206A401C20626D1EF6D570BD85
:1003400070B5044685690078C00707D170BDD4E94F
:10035000012120209047206A401C20626D1EF6D5A6
:1003600070BD70B50C460546012A05D02878800678
:1003700000D5EA69002302E0012305E05B1C9342FB
:1003800002D2E05C0028F9D1A869E618C01AA86179
:10039000286A184428622846FFF7BCFF04E0D5E924
:1003A000012114F8010B9047B442F8D32846FFF717
:1003B000C7FF70BD2DE9F04106460024106875297D
:1003C000314616A510D0AFF30080002802DA404273
:1003D00013A507E031688A0701D512A502E0490795
:1003E00004D511A5012401E0AFF3008000210A2209
:1003F00006F1240709E0B0FBF2FCB0FBF2F302FBCC
:100400001C00303078541846491C0028F3D123468C
:100410002A463046BDE8F04100F081B900000000F6
:100420002D0000002B0000002000000070B50446E5
:100430000D4621461068AFF300802188090502D5DA
:100440000F4A7A4402E00E4A7A440E32002104F147
:10045000240305E000F00F060009965D5E54491C78
:100460000028F7D120780023000704D5702D02D092
:1004700009B1022311322046BDE8704000F04FB9A7
:10048000BB4300002DE9F05F894604464FF0000AA7
:10049000DFF824B1FB44C0F820A02046E16888477B
:1004A00000287DD0252806D0D4E901219047206A74
:1004B000401C2062F1E700255F462046E16888473E
:1004C0002028064607DB312E05D2B81910F8200C7B
:1004D00008B10543F1E7A80701D525F00405C4F8E4
:1004E0001CA00027C4F818A02A2E09D0304602F01C
:1004F00067FB38B304EB8708303EC8F8186019E092
:1005000059F8041B204604EB87029161E168884793
:10051000012F064618D1E069002820DA25F02005D1
:100520001DE0D8F8180000EB800006EB40003038E2
:10053000C8F818002046E1688847064602F040FBEC
:100540000028EED1012F0AD02E2E08D12046E168D6
:1005500088477F1C0646022F45F02005C4DBA069B2
:10056000002803DA404245F00105A061E80701D008
:1005700025F01005A6B1A6F14100192802D82036B1
:1005800045F400654A463146204625604D46FFF752
:1005900029FE60B1012807D0ED1D25F0070000E01D
:1005A00007E000F1080978E705F1040975E730462E
:1005B0007AE7206ABDE8F09F9143000010B5431C24
:1005C00002E010F8011B71B18107FAD14FF001323E
:1005D00002C88C1A8C4314EAC211F9D0C01A0A0658
:1005E00003D0C01E10BDC01A10BD0A0401D0801E69
:1005F00010BD0902FCD0401E10BD032A40F230801D
:1006000010F0030C00F0158011F8013BBCF1020F53
:10061000624498BF11F801CB00F8013B38BF11F8D4
:10062000013BA2F1040298BF00F801CB38BF00F8EB
:10063000013B11F0030300F0F380083AC0F008809A
:1006400051F8043B083A51F804CBA0E80810F5E74C
:10065000121D5CBF51F8043B40F8043BAFF300802F
:10066000D20724BF11F8013B11F801CB48BF11F8A4
:10067000012B24BF00F8013B00F801CB48BF00F874
:10068000012B70474FF000020429C0F0128010F0D7
:10069000030C00F01B80CCF1040CBCF1020F18BF5E
:1006A00000F8012BA8BF20F8022BA1EB0C0100F0F1
:1006B0000DB85FEAC17C24BF00F8012B00F8012BC4
:1006C00048BF00F8012B70474FF0000200B51346F9
:1006D00094469646203922BFA0E80C50A0E80C5062
:1006E000B1F12001BFF4F7AF090728BFA0E80C5013
:1006F00048BF0CC05DF804EB890028BF40F8042B0C
:1007000008BF704748BF20F8022B11F0804F18BF78
:1007100000F8012B704770477047704770472DE90C
:10072000F0470D4699469246044600F124080168B8
:10073000880604D5E06921F01001216000E0012065
:10074000A84201DD471B00E00027A1697A1902EBEE
:100750000900081AA0612078C00602D42046FFF7DD
:10076000D9FD002608E0D4E901211AF806009047D7
:10077000206A401C761C20624E45F4DB2078C006BF
:100780000AD52046FFF7C6FD06E0D4E90121302056
:100790009047206A401C2062381EA7F10107F4DC54
:1007A00007E0D4E9012118F805009047206A401CB1
:1007B0002062281EA5F10105F3DC2046FFF7C0FDED
:1007C0002078000602D50220BDE8F0870120FBE773
:1007D00010B5436913B1AFF3008001E0FFF7C1FD2D
:1007E000012010BD127800F124010A7000224A7025
:1007F0000122EDE711684FF0FF32E9E7074B70B5D2
:100800000D467B4400F043F80446284600F052F8B9
:1008100010B14FF0FF3070BD204670BD6F28000052
:1008200010B5203AC0F00B80B1E81850203AA0E88B
:100830001850B1E81850A0E81850BFF4F5AF5FEABF
:10084000027C24BFB1E81850A0E8185044BF18C972
:1008500018C0BDE810405FEA827C24BF51F8043B19
:1008600040F8043B08BF7047D20728BF31F8023B6D
:1008700048BF11F8012B28BF20F8023B48BF00F801
:10088000012B704701694A1C02610878704700B566
:100890008FB0CDE901310021059105497944CDE9B9
:1008A000031011466846FFF7EDFD0FB000BD0000D4
:1008B000E5FFFFFF007B00F080007047754600F009
:1008C0002BF8AE4605006946534620F007008546E2
:1008D00018B020B5FFF7FEFCBDE820404FF0000641
:1008E0004FF000074FF000084FF0000B21F0070118
:1008F000AC46ACE8C009ACE8C009ACE8C009ACE85B
:10090000C0098D46704710B50446AFF300802046FD
:10091000BDE81040FFF77EBC004870471849002032
:1009200010B563484078012815D162480078401C12
:10093000604908700020604908705E4800784628C9
:100940001DDB00205A4948705C48008840F00800D0
:100950005A49088013E058480078401C56490870EE
:1009600000205449087054480078462807DB0020CE
:100970005249088052480021C18780F840104C48F5
:100980008078012815D14F480078401C4D490870E7
:1009900000204D4908704B48007846281DDB002098
:1009A000434988704948008840F00400474908805E
:1009B00013E045480078401C434908700020414935
:1009C000087041480078462807DB00203F4908802E
:1009D0003B48413000210180817035480078012872
:1009E00015D100203A4908703A480078401C39492E
:1009F00008700846007846281DDB00202C49087046
:100A00003548008840F010003349088013E0304832
:100A10000078401C2E49087000202E4908702C4890
:100A20000078462807DB00202B4908802B4800214E
:100A30000160416001811E48C078012815D1284815
:100A40000078401C26490870002026490870244878
:100A5000007846281CDB00201549C8702248008811
:100A600040F480602049088012E01E480078401C55
:100A70001C49087000201A4908701A480078462856
:100A800006DB00201849088038210D48FFF7FAFDE1
:100A90000A4800880D49098808430F490988084316
:100AA0001149098808430649A1F84700084610BDC6
:100AB000CC000020BD000020C1000020B6000020B6
:100AC00034020020BE000020C2000020B800002038
:100AD000C0000020BC000020B4000020290200203B
:100AE000BF000020C3000020BA00002000BFFEE7C6
:100AF0002DE9F04104460D460A2D01DABDE8F081EA
:100B000000262078992871D160783328FBD1207A8B
:100B100000F10C05A91EC8B2214601F019F8504990
:100B2000088008464F490860681E205C09684978BB
:100B3000884207D0A81E205C4A4909680978884283
:100B400000D0DBE7267A802E05DA324604F10A016E
:100B50004548FFF752FD607A092878D2DFE800F0B7
:100B6000770577777719304758004048007850B9B3
:100B700001203E49487032463B493D48FFF73DFD64
:100B800001203A49087001203A4908703749087035
:100B90005EE03948006803F029F9322002F094F948
:100BA000EBB2364991F853002246802101F000FB58
:100BB000322002F089F93048006803F0A5F847E0D8
:100BC00001202A494870324627492948FFF715FD78
:100BD0000120264908700020294908600120294980
:100BE000C1F8980126490831086031E031E01E481B
:100BF0004078224981F85300084690F85310224863
:100C000041732248182220494368002098471FE07A
:100C10001548807A012802D101F02CF911E0124820
:100C2000807A38B900F0BEF907460C22114602F06E
:100C3000CDFB06E00C48807A032802D101200B4945
:100C4000C87180210848FFF71DFD01E0FFE700BFE4
:100C500000BF2C210E48FFF715FD00BF4EE7000036
:100C6000FE00002000010020CF030020BA03002076
:100C70009A030020F10000200C000020E001002079
:100C80009401214200002142C80100202C000020D4
:100C900056030020704700000149C86070470000FB
:100CA0000020024030B5044604254FF4302000F007
:100CB00085F80546042D17D10C48006940F0020064
:100CC0000A49086108464461006940F04000086133
:100CD0004FF4302000F072F805460448006941F6F0
:100CE000FD71084001490861284630BD00200240DE
:100CF00004200B49C96801F0010109B101200EE08F
:100D00000749C96801F0040109B1022007E004495C
:100D1000C96801F0100109B1032000E00420704708
:100D2000002002400348006940F08000014908614A
:100D3000704700000020024078B506460C460425A6
:100D400000200090E80200F039F80546042D24D177
:100D50001348006940F00100114908613480E8023D
:100D600000F02CF80546042D10D1B01C0090200C8A
:100D700000990880E80200F021F80546084800695B
:100D800041F6FE7108400649086106E00448006922
:100D900041F6FE71084002490861284678BD00000E
:100DA00000200240024803494860034848607047F9
:100DB0002301674500200240AB89EFCD00B5024614
:100DC0000423FFF795FF034603E0FFF791FF034677
:100DD000521E012B01D1002AF7D102B90523184672
:100DE00000BD2DE9F0410246002500260020002329
:100DF0000024002791F803C00CF00F0591F803C000
:100E00000CF0100CBCF1000F03D091F802C04CEABA
:100E1000050591F800C0BCF1000F31D01468002026
:100E20002BE04FF0010C0CFA00F3B1F800C00CEA13
:100E300003069E4220D183004FF00F0C0CFA03F7FB
:100E4000BC4305FA03FC4CEA040491F803C0BCF16E
:100E5000280F06D14FF0010C0CFA00FCC2F814C0A8
:100E60000AE091F803C0BCF1480F05D14FF0010C26
:100E70000CFA00FCC2F810C0401C0828D1D3146042
:100E8000B1F800C0BCF1FF0F34DD546800202EE043
:100E900000F1080C4FF0010808FA0CF3B1F800C09B
:100EA0000CEA03069E4221D183004FF00F0C0CFA8E
:100EB00003F7BC4305FA03FC4CEA040491F803C0B1
:100EC000BCF1280F05D100F1080C08FA0CF8C2F8A3
:100ED000148091F803C0BCF1480F07D100F1080C51
:100EE0004FF0010808FA0CF8C2F81080401C0828DE
:100EF000CED35460BDE8F081F0B50A46002300244B
:100F00000021002500F00046B6F1004F02D11D4E31
:100F1000F16901E01B4E7168C0F3034583B200F430
:100F20004016B6F5401F08D121F07061154E766865
:100F300026F07066134F7E6012E000F48016B6F55E
:100F4000801F06D1032606FA05F4A14341F0706123
:100F500006E0460D360103FA06F6B14341F0706132
:100F600022B1460D360103FA06F6314300F0004681
:100F7000B6F1004F02D1034EF16101E0014E716004
:100F8000F0BD00000000014002460020D3680B4085
:100F90000BB1012000E00020704741617047016102
:100FA0007047000008B50021214800909DF80330EB
:100FB0000846491C1F4A13549DF802300846491C34
:100FC00013549DF801300846491C13549DF8003015
:100FD0000846491C1354184800909DF803300846F1
:100FE000491C13549DF802300846491C13549DF8BF
:100FF00001300846491C13549DF800300846491C2E
:1010000013540E4800909DF803300846491C1354B1
:101010009DF802300846491C13549DF801300846DB
:10102000491C13549DF800005054104608BD0000A0
:101030007F000205820300207F0102057F0201007C
:1010400010B5002015E00146C31700EB93739B1009
:101050000A4C246854F823300246C41700EB9474F9
:10106000A410A0EB8404E400E340054C2354411C8D
:10107000C8B20C28E7DB024810BD0000F4000020D5
:10108000C30300201CB501F045FD0C4902680A604D
:10109000808888800A480A6802608988818041F6D1
:1010A00097700649488107A0062307A2CDE90010E2
:1010B00006A1102001F046FE1CBD00008E0300209A
:1010C000D00000200D0A0000200000004D41433AEE
:1010D0000000000000487047C400002000BFFEE789
:1010E00008B50121042000F0D9FDE020ADF8000092
:1010F00010208DF8030003208DF802006946154882
:10110000FFF76FFE00201449086001201349C1F861
:101110009801114908310860C82001F08FFE0020B5
:101120000D49091D08600120091F08600B49C1F81D
:101130009C01C82001F082FE0020074908310860A8
:10114000012005490860091D0860C82001F076FEED
:1011500008BD000000080140940121420000214226
:1011600008B50121042000F099FDE020ADF8000051
:1011700003208DF8020010208DF803006946064810
:10118000FFF72FFE0120054908600549C1F89801C5
:1011900002490831086008BD00080140940121425D
:1011A0000000214210B504460BE006220C210E4837
:1011B00002F00CF90D49486980474FF47A7001F04C
:1011C0003DFE0B4840780028EFD00A480AA10A6883
:1011D0004260097901720A481822064943680020D2
:1011E0009847012010BD00008E030020340000202D
:1011F000BA030020C8010020383038370000000052
:101200002C00002070B503460024002010E00E5C86
:10121000451C4D5D46EA0526851C4D5D46EA0546A2
:10122000C51C4D5D46EA056543F82450641C001D4D
:101230009042ECD370BD70B50346144600220020E6
:1012400015E011F822501D5431F82250C5F307263D
:10125000451C5E5551F82250C5F30746851C5E5566
:1012600051F822502D0EC61C9D55521C001DA04247
:10127000E7D370BD2DE9FC4104460E46002500274A
:101280002088C0F3C505382D02D2C5F1380001E031
:10129000C5F178000746082221466846FFF7CBFFD4
:1012A0003A460849204600F00BFC082269462046D1
:1012B00000F006FC102204F108013046FFF7BBFFE6
:1012C000BDE8FC81740000200021016041600549F7
:1012D0008160054AC260CA430261034AD243426147
:1012E000704700000123456789ABCDEF2DE9F0433E
:1012F000C0B080468946D8F80040D8F80450D8F8E5
:101300000860D8F80C70402249466846FFF77AFF1B
:1013100005EA060027EA0501084300990844FE494A
:1013200008440444E00140EA54642C4404EA050003
:1013300026EA0401084301990844F849084407448F
:10134000380340EA1757274407EA040025EA070153
:10135000084302990844F24908440644700440EAEC
:10136000D6363E4406EA070024EA060108430399FC
:101370000844EC4908440544A80540EA952535444D
:1013800005EA060027EA0501084304990844E649EE
:1013900008440444E00140EA54642C4404EA050093
:1013A00026EA0401084305990844E0490844074433
:1013B000380340EA1757274407EA040025EA0701E3
:1013C000084306990844DA4908440644700440EA90
:1013D000D6363E4406EA070024EA06010843079988
:1013E0000844D44908440544A80540EA95253544F5
:1013F00005EA060027EA0501084308990844CE4992
:1014000008440444E00140EA54642C4404EA050022
:1014100026EA0401084309990844C84908440744D6
:10142000380340EA1757274407EA040025EA070172
:1014300008430A990844A0F524404F380644700434
:1014400040EAD6363E4406EA070024EA060108438D
:101450000B990844BA4908440544A80540EA952573
:10146000354405EA060027EA050108430C990844BB
:10147000B44908440444E00140EA54642C4404EABA
:10148000050026EA040108430D990844AE490844C2
:101490000744380340EA1757274407EA040025EABF
:1014A000070108430E990844A849084406447004FB
:1014B00040EAD6363E4406EA070024EA060108431D
:1014C0000F990844A24908440544A80540EA952517
:1014D000354405EA070026EA070108430199084454
:1014E0009C4908440444600140EAD4642C4404EA62
:1014F000060025EA0601084306990844964908446F
:101500000744780240EAD757274407EA050024EA4F
:10151000050108430B990844904908440644B00368
:1015200040EA96463E4406EA040027EA04010843DE
:10153000009908448A4908440544280540EA1535BD
:10154000354405EA070026EA0701084305990844DF
:10155000844908440444600140EAD4642C4404EA09
:10156000060025EA060108430A9908447E49084412
:101570000744780240EAD757274407EA050024EADF
:10158000050108430F990844784908440644B0030C
:1015900040EA96463E4406EA040027EA040108436E
:1015A00004990844724908440544280540EA153561
:1015B000354405EA070026EA07010843099908446B
:1015C0006C4908440444600140EAD4642C4404EAB1
:1015D000060025EA060108430E99084466490844B6
:1015E0000744780240EAD757274407EA050024EA6F
:1015F0000501084303990844604908440644B003C0
:1016000040EA96463E4406EA040027EA04010843FD
:10161000089908445A4908440544280540EA153504
:10162000354405EA070026EA070108430D990844F6
:10163000544908440444600140EAD4642C4404EA58
:10164000060025EA06010843029908444E49084469
:101650000744780240EAD757274407EA050024EAFE
:101660000501084307990844484908440644B00363
:1016700040EA96463E4406EA040027EA040108438D
:101680000C990844424908440544280540EA1535A8
:10169000354485EA06007840059908443D490844E8
:1016A0000444200140EA14742C4484EA050070408C
:1016B00008990844384908440744F80240EA575753
:1016C000274487EA040068400B99084433490844DA
:1016D0000644300440EA16463E4486EA070060406D
:1016E0000E9908442E4908440544E80540EA55256A
:1016F000354485EA060078400199084429490844A0
:101700000444200140EA14742C4484EA050070402B
:1017100004990844244949E078A46AD756B7C7E831
:10172000DB702024EECEBDC1AF0F7CF52AC6874703
:10173000134630A8019546FDD8988069AFF7448BD1
:10174000BED75C892211906B937198FD8E4379A668
:101750002108B44962251EF640B340C0515A5E26A6
:10176000AAC7B6E95D102FD65314440281E6A1D86A
:10177000C8FBD3E7E6CDE121D60737C3870DD5F403
:10178000ED145A4505E9E3A9F8A3EFFCD9026F6708
:101790008A4C2A8D4239FAFF81F6718722619D6D4C
:1017A0000C38E5FD44EABEA4A9CFDE4B084407444B
:1017B000F80240EA5757274487EA0400684007992F
:1017C0000844A54908440644300440EA16463E440D
:1017D00086EA070060400A990844A0490844054485
:1017E000E80540EA5525354485EA060078400D991C
:1017F00008449B4908440444200140EA14742C44E2
:1018000084EA05007040009908449649084407445A
:10181000F80240EA5757274487EA040068400399D2
:101820000844914908440644300440EA16463E44C0
:1018300086EA07006040069908448C49084405443C
:10184000E80540EA5525354485EA060078400999BF
:101850000844874908440444200140EA14742C4495
:1018600084EA050070400C99084482490844074402
:10187000F80240EA5757274487EA040068400F9966
:1018800008447D4908440644300440EA16463E4474
:1018900086EA0700604002990844784908440544F4
:1018A000E80540EA5525354465EA0700704000998F
:1018B0000844734908440444A00140EA94642C4459
:1018C00064EA06006840079908446E4908440744E2
:1018D000B80240EA9757274467EA050060400E992E
:1018E0000844694908440644F00340EA56463E4429
:1018F00066EA0400784005990844644908440544B0
:10190000680540EAD525354465EA070070400C9922
:1019100008445F4908440444A00140EA94642C440C
:1019200064EA06006840039908445A490844074499
:10193000B80240EA9757274467EA050060400A99D1
:101940000844554908440644F00340EA56463E44DC
:1019500066EA040078400199084450490844054467
:10196000680540EAD525354465EA070070400899C6
:1019700008444B4908440444A00140EA94642C44C0
:1019800064EA060068400F99084446490844074441
:10199000B80240EA9757274467EA05006040069975
:1019A0000844414908440644F00340EA56463E4490
:1019B00066EA040078400D9908443C49084405440F
:1019C000680540EAD525354465EA0700704004996A
:1019D0000844374908440444A00140EA94642C4474
:1019E00064EA060068400B990844324908440744F9
:1019F000B80240EA9757274467EA05006040029919
:101A000008442D4908440644F00340EA56463E4443
:101A100066EA0400784009990844284908440544C6
:101A2000680540EAD5253544D8F800002044C8F8B8
:101A30000000D8F804002844C8F80400D8F80800CA
:101A40003044C8F80800D8F80C003844C8F80C0036
:101A500040B0BDE8F0830000604BBBF670BCBFBE79
:101A6000C67E9B28FA27A1EA8530EFD4051D88049D
:101A700039D0D4D9E599DBE6F87CA21F6556ACC411
:101A8000442229F497FF2A43A72394AB39A093FC5F
:101A9000C3595B6592CC0C8F7DF4EFFFD15D8485DB
:101AA0004F7EA86FE0E62CFE144301A3A111084E5F
:101AB000827E53F735F23ABDBBD2D72A91D386EB5B
:101AC0002DE9F04704460F4615460026B046B146BC
:101AD0002088C0F3C508C8F14009206800EBC500A4
:101AE00020602068B0EBC50F02D26068401C6060C7
:101AF000606800EB557060604D451CD304F118011F
:101B000001EB08004A463946FEF777FD04F118015B
:101B100004F10800FFF7EAFB4E4605E0B91904F1AD
:101B20000800FFF7E3FB403606F14000A842F5D974
:101B30004FF0000800E00026AA1BB91904F11803B1
:101B400003EB0800FEF759FDBDE8F08700BFFEE794
:101B500070B50346FF24FF2509E011F8010B80EA68
:101B600004020748805C80EA05040648855C181E6C
:101B7000A3F10106F3B2F0D145EA042070BD0000E4
:101B800040420008404300087047000070B5002143
:101B900000230F22C47804B3154C246804F4E064D5
:101BA000C4F5E064210AC1F10403CA40447804FA90
:101BB00003F184781440214309010E4C0678A155A5
:101BC000047804F01F050124AC4005786D11AD00C8
:101BD00005F1E025C5F8004109E0047804F01F058F
:101BE0000124AC40044D0678761145F8264070BDBE
:101BF0000CED00E000E400E080E100E00249014378
:101C0000024A1160704700000000FA050CED00E088
:101C100008B501210C2000F041F80120ADF80000CA
:101C200010208DF8030003208DF802006946094852
:101C3000FFF7D7F84FF4C050ADF8000010208DF832
:101C4000030003208DF8020069460348FFF7C9F836
:101C500008BD0000000C01400008014029B1064AFF
:101C6000D2690243044BDA6104E0034AD269824339
:101C7000014BDA61704700000010024029B1064AAA
:101C800012690243044B1A6104E0034A1269824359
:101C9000014B1A61704700000010024029B1064A4A
:101CA00092690243044B9A6104E0034A92698243B9
:101CB000014B9A61704700000010024029B1064AAA
:101CC000D2680243044BDA6004E0034AD2688243DC
:101CD000014BDA60704700000010024030B500216F
:101CE0000022002400232D4D6D6805F00C0121B168
:101CF000042905D0082923D105E0294D056022E0FB
:101D0000274D05601FE0254D6D6805F47012234DC9
:101D10006D6805F48034022505EB92421CB9214D13
:101D2000554305600BE01D4D6D6805F400351DB190
:101D30001C4D5543056002E0194D5543056002E016
:101D4000174D056000BF00BF144D6D6805F0F00130
:101D50000909154D6B5C0568DD4045600F4D6D68E8
:101D600005F4E061090A104D6B5C4568DD40856053
:101D70000A4D6D6805F46051C90A0B4D6B5C4568EE
:101D8000DD40C560054D6D6805F44041890B074D88
:101D90006B5CC568B5FBF3F5056130BD0010024012
:101DA00000127A0000093D004E0100205E01002073
:101DB00010B586B00446012144F20400FFF76EFF1F
:101DC0004FF40070ADF8140003208DF816001820B1
:101DD0008DF8170005A91D48FFF703F84FF4806040
:101DE000ADF8140004208DF8170005A91748FEF778
:101DF000F8FF25208DF8000002208DF80100032057
:101E00008DF8020001208DF803006846FFF7BEFE42
:101E100001940020ADF80800ADF80A00ADF80C0000
:101E2000ADF810000C20ADF80E0001A9084800F034
:101E3000EBFD012240F22551054800F0BFFD0121D4
:101E4000034800F078FD06B010BD00000008014016
:101E50000038014010B503460020054C234403E040
:101E600013F8014B0C54401C9042F9DB10BD0000EC
:101E700000000108012080F3138800BF00BF07485D
:101E8000006800F4E06006490843001D034908604B
:101E9000BFF34F8F00BF00BFFEE700000CED00E076
:101EA0000000FA0538B504460020009034208DF873
:101EB00000008DF801400221684600F061FA38BD4B
:101EC00070B5002408E0601C84B226490819294630
:101ED00000F056FA601984B22248055D002DF2D157
:101EE000002141F2062000F0A3F900214FF49050A8
:101EF00000F09EF9012141F2092000F099F92A2110
:101F000041F2082000F094F9002141F20A2000F08B
:101F10008FF9002141F20D2000F08AF9012141F2F0
:101F20000E2000F085F9002141F20F2000F080F929
:101F3000002141F2102000F07BF9002141F2112034
:101F400000F076F9202141F2122000F071F9002111
:101F500041F2132000F06CF9002141F2142000F04E
:101F600067F970BD4044000808B500200090332098
:101F70008DF800000121684600F002FA032168464E
:101F800000F0BCF89DF8010000F00F0008BD000053
:101F900008B501210C20FFF781FE10208DF8030009
:101FA00001208DF802004003ADF8000069460948A1
:101FB000FEF717FF48208DF803001020ADF8000051
:101FC00069460548FEF70DFF4FF400510148FEF742
:101FD000E4FF08BD000C0140000801401CB5144995
:101FE0000868804713490868804712494868804755
:101FF00010488168104888470E49C86880470D48D6
:1020000041697F2088470B48016A0620884700BF46
:102010000849C86980470628FAD103200021CDE984
:10202000001004480B460A46446A0846A0471CBDF7
:10203000380100200401002080C3C90138B50446DE
:102040000020009020208DF8000000208DF8010075
:102050008DF802008DF803000421684600F090F925
:102060000921204600F04AF838BD1CB5044600207E
:102070000090019002208DF8000001208DF80100F1
:1020800000208DF80200200E8DF80300200C8DF842
:102090000400200A8DF80500E0B28DF80600072143
:1020A000684600F06DF91CBD70B504460025002699
:1020B00000F040F91048006820F400400E49086024
:1020C000772000F089FFFF2000F086FF05462E46AE
:1020D00004E0FF2000F080FF04F8010B281EA5F1AA
:1020E0000101CDB2F5D10448006840F40040024936
:1020F0000860304670BD00000C08014070B5044611
:102100000D4600F017F90D48006820F400400B4917
:102110000860442000F060FF04E0FF2000F05CFF56
:102120002070641C281EA5F10101CDB2F5D1034831
:10213000006840F400400149086070BD0C0801408F
:1021400010B50B48006840F400500949086014209D
:1021500000F096FE0648006820F40050044908602C
:102160000448006840F400400249086010BD0000C7
:102170000C0C01400C08014008B50020009015200F
:102180008DF8000002208DF801000221684600F061
:10219000F7F808BD08B50020009015208DF8000064
:1021A00002208DF801000221684600F0E9F808BD20
:1021B0002DE9F0410746884615461C462646FFF79E
:1021C000E9FF1248006820F40040104908606620CA
:1021D00000F002FF701CC6B2204600F0FDFE03E0D6
:1021E00015F8010B00F0F8FE201EA4F10101CCB29D
:1021F000F6D10648006840F40040044908603246C1
:102200004146384600F076F8BDE8F0810C08014000
:1022100010B50446214642F2030000F022F810BD3A
:1022200010B50446214642F2012000F001F810BD2D
:102230007CB504460D4600200090019011208DF8D9
:10224000000020128DF8010001208DF80200E0B29C
:102250008DF803008DF804500521684600F090F8D1
:102260007CBD7CB505460C460020009001901120F5
:102270008DF8000028128DF8010003208DF802006F
:10228000E8B28DF80300200C8DF80400200A8DF8C8
:102290000500E0B28DF806000721684600F070F8EE
:1022A0007CBD2DE9FC4705460F4614461E46DDE978
:1022B0000A89002000900190FFF75EFFFFF76AFF98
:1022C00032208DF800008DF801508DF80270E0B2D8
:1022D00000128DF80300E0B28DF804008DF805605F
:1022E0008DF806808DF807900821684600F048F8C0
:1022F000BDE8FC877CB506460D46144600200090DC
:10230000019031208DF800008DF801608DF80250A9
:10231000E0B200128DF80300E0B28DF80400002056
:102320008DF805008DF806000721684600F028F8B2
:102330007CBD000070B5002500BF1048006820F487
:1023400000400E490860442000F046FEFF2000F0E7
:1023500043FE04460948006840F40040074908600D
:102360002846691C8DB2B0F57A7F02D1FFF736FEA0
:1023700001E0FF2CE1D100BF70BD00000C0801405E
:1023800070B504460D46FFF7D5FF0B48006820F4F2
:1023900000400949086003E0207800F01DFE641C3D
:1023A000281EA5F10101CDB2F6D10348006840F422
:1023B00000400149086070BD0C08014021B102884D
:1023C00042F04002028004E002884FF6BF731A40D8
:1023D0000280704710B504461148844208D101219B
:1023E0008014FFF76BFC0021A014FFF767FC16E0D8
:1023F0000C48844208D101210014FFF73FFC002162
:102400002014FFF73BFC0AE00748844207D1012172
:10241000C013FFF733FC0021E013FFF72FFC10BDC2
:102420000030014000380040003C004002460020DF
:1024300013890B400BB1012000E00020704710B55C
:102440000022028802F441520B884C8823438C8876
:102450002343CC8823430C8923434C8923438C8911
:102460002343CC8923431A430280838B4FF2FF74AA
:10247000234083830B8A038210BD000010B50446FD
:1024800066202649087065204870254890F853005A
:10249000C8700C200871012C06D0022C1FD0032C10
:1024A00021D0042C27D122E057201C4988701D48D8
:1024B000C07901280FD1032048731B480078401CC5
:1024C0001949087008460078022807DB00200870C8
:1024D0001449C87102E00020104948730CE05820EC
:1024E0000E49887008E055200C49887004E0562099
:1024F0000A49887000E000BF00BF0E21074800F0C5
:102500008DFB064988736420C873054991F8530010
:102510001023024A8021FFF74BFE10BDFD02002070
:10252000E0010020BA030020D600002010B500F022
:1025300001F810BD0CB500200190009033480068F0
:1025400040F480303149086000BF3048006800F432
:10255000003000900198401C0190009818B9019833
:10256000B0F5A06FF1D12948006800F4003010B137
:102570000120009001E0002000900098012843D144
:102580002348006840F010002149086008460068B0
:1025900020F0030008600846006840F00200086070
:1025A0001A4840681949486008464068486008462B
:1025B000406840F4806048600846406820F47C1021
:1025C00048600846406840F4E810486008460068E3
:1025D00040F08070086000BF0C48006800F0007098
:1025E0000028F9D00948406820F0030007494860F6
:1025F0000846406840F00200486000BF0348406859
:1026000000F00C000828F9D10CBD000000100240B9
:10261000002002407CB56C48FFF710FD6A48C07886
:1026200000F01000002874D06848FFF73DFD044614
:10263000002C6FD0654866490860084600684078FD
:10264000772868D10846006880787628F9D108464E
:102650000068007C7528F4D10E215D480068401C9C
:1026600000F0DCFA05465A480068C07BA84204D056
:1026700040215648FEF706F87CBD55480068C078F2
:10268000552810D0562829D0572802D058287CD158
:1026900042E001204F4908704D480068017A4E48D9
:1026A00080F84E1072E001204A494870484800689E
:1026B000007A4A4981F83E0045480068417A474817
:1026C00080F83F1042480068817A444880F8401002
:1026D0003F480068007B4249887057E001203D492F
:1026E00088703B480068007A3C4981F841003848CE
:1026F0000068417A394880F8421035480068817A8C
:10270000364880F8431032480068007B3449C8706E
:102710003CE056E03EE03AE001202E49C8702C48EB
:10272000006800792D490875294800684079487586
:10273000274800688079887525480068C079C87581
:1027400023480068407A81F8380021480068817A7F
:10275000224880F839101E480068C17A1F4880F866
:102760003A101B480068017B1C4880F83B10184851
:102770000068417B194880F83C1015480068817B4F
:10278000164880F83D1001E0FFE700BF02E0104866
:10279000002101600620FFF785FB00BFFFF7E4FB87
:1027A0000628FBD103200021CDE900100A4991F849
:1027B000530000231A461946FFF773FD0448002111
:1027C000016000BF58E700000D0300201603002041
:1027D000D8000020CC000020E001002034020020BE
:1027E000C4000020042808D14FF0E021096941F01D
:1027F00004014FF0E022116107E04FF0E021096988
:1028000021F004014FF0E0221161704710B501F092
:1028100005FC012801D001F0B7FB10BD10B513482D
:10282000006840F0010011490860084640681049FE
:1028300008400E494860084600680E4908400B49A8
:1028400008600846006820F4802008600846406858
:1028500020F4FE0048604FF41F008860FFF766FE1A
:102860004FF000600449086010BD000000100240F5
:102870000000FFF8FFFFF6FE08ED00E010B540F2A3
:1028800025511F4800F070F8002838D040F225513B
:102890001B4800F041F81B4800781B490870184895
:1028A00000F01EF9174908700846017817480268B9
:1028B0000068401C154B1860154881541248007878
:1028C00099280DD10F480078332809D10E48007897
:1028D0000F4908700B4800784870022019460860BC
:1028E0000B48007A0C300B490870084800680978DA
:1028F000884204DB0020054908600649087010BDC5
:1029000000380140E8000020E9000020EC00002031
:1029100056030020F000002010B50022002340F6EE
:102920006A14A14200D100BF0A1201249440A3B24C
:10293000DC43048010BD21B1828942F400528281BF
:1029400004E082894DF6FF731A4082817047024687
:102950000020B1F5007F00D100BF13880B400BB100
:10296000012000E00020704770B5024600240023DB
:102970000025002040F66A16B14200D100BFC1F325
:10298000421501F01F03012606FA03F3012D02D1BF
:102990009689334006E0022D02D1168A334001E0C9
:1029A000968A33400C12012606FA04F41688344045
:1029B00013B10CB1012000E0002070BDF0B503465A
:1029C000002400260025002040F66A17B94200D1F5
:1029D00000BF1846C1F3421401F01F06012707FA91
:1029E00006F5012C01D10C3004E0022C01D110308D
:1029F00000E014301AB107682F43076002E007684F
:102A0000AF430760F0BD00002DE9F04786B00546F2
:102A10000E460024A24600BFA1460027B08900B19F
:102A200000BF2F462C8A4CF6FF700440F088044308
:102A30002C82AC894EF6F3100440B08831890843EB
:102A4000718908430443AC81AC8A4FF6FF400440CF
:102A5000B0890443AC8201A8FFF740F91F488742C0
:102A600002D1DDF810A001E0DDF80CA0A88900F487
:102A7000004040B10AEBCA0000EB0A10316849007F
:102A8000B0FBF1F807E00AEBCA0000EB0A1031686E
:102A90008900B0FBF1F86420B8FBF0F004012009D4
:102AA000642101FB1089A88900F4004040B1322064
:102AB00000EBC900B0FBF1F000F00700044308E0B0
:102AC000322000EB09106421B0FBF1F000F00F00A0
:102AD00004432C8106B0BDE8F087000000380140B7
:102AE00001468888C0F308007047C1F3080282805D
:102AF000704700BFFEE770B504460D4629462046E4
:102B0000FFF7F3FF00BF80212046FFF720FF0028DA
:102B1000F9D070BD30B59BB001A8FEF7D5FBFEF72C
:102B20008FFA04462046FDF749FD05462A46214610
:102B300001A8FEF7C5FF17A901A8FEF79BFB0448F3
:102B400018990160BDF8641081801BB030BD000091
:102B5000F80000202DE9F04705460E4614460027F0
:102B6000B846FEF71FF93420FEF796F81248FEF734
:102B700099F81249087008460078042817D100BF58
:102B80000FE006EB080000F03DF881460A4968189E
:102B90004946FEF7D1F8094908702D1D08F10408CF
:102BA0007F1CE11704EB9171B7EBA10FE9DBFEF796
:102BB000B9F8BDE8F08700000000010828000020F7
:102BC00030380A2801D2012070470020704700BF2A
:102BD0007047000070B5492421460948FDF752FDB1
:102BE000FDF79EFE0546224629460548FDF705FDF0
:102BF000032204F10B01024800F0E8FB70BD000065
:102C0000E00100200146C87800068A7840EA0240C8
:102C10004A7840EA02200A781043704730B50246ED
:102C20000B46002010E012F8014B6040002109E043
:102C300000F001041CB18C2484EA600000E0401024
:102C40004C1CE1B20829F3DB1C1EA3F10105ABB259
:102C5000E9D130BDF8B505460F4614461E460020A2
:102C6000354908606621344802680068401C324BD0
:102C7000186032488154FF21184602680068401CE1
:102C800018602E4881540921184602680068401CCB
:102C900018602A48815419460968084428490A6876
:102CA00002608988818018460068801D1946086086
:102CB000224809680844056018460068001D194646
:102CC00008600021184602680068401C18601B4814
:102CD0008154184602680068401C186017488454E4
:102CE000184601680068401C1A4610601348465494
:102CF00001461268881822463946FDF77EFC0E48C8
:102D0000006820440C49086008780C49FEF720FF51
:102D100000900A48084909680844BDF8001001807D
:102D200005480068801C044908600846008881B294
:102D3000024800F0ADF9F8BDE00000207D0200205F
:102D4000D00000202DE9F0470746884691461C46F2
:102D5000DDE9086A414619A0FDF7D0FA102F12D11B
:102D600000250EE0601EA84205DD715D4A4615A0F3
:102D7000FDF7C4FA03E0715D14A0FDF7BFFA681C0B
:102D8000C5B2A542EEDB0A2F12D100250EE0601E6F
:102D9000A84205DD715D4A460EA0FDF7AFFA03E0DB
:102DA000715D0EA0FDF7AAFA681CC5B2A542EEDB64
:102DB000514605A0FDF7A2FABDE8F0875B6170708F
:102DC0005D25730025303278257300002530327878
:102DD0000000000025642573000000002564000049
:102DE00010B50420FFF7FEFC104800681049B0FB46
:102DF000F1F0104908700D4800680D49B0FBF1F47E
:102E00004FF47A70444301200B4908804FF0E020D2
:102E1000006940F002004FF0E0210861084644617B
:102E2000006940F00100086110BD0000140000209E
:102E300040420F00440100204601002070B50446C6
:102E400001F0ECF8012811D00C480088844206DB20
:102E50000A48008894FBF0F5284600F0D5FE0748A4
:102E6000008894FBF0F100FB114084B24FF47A71BA
:102E700004FB01F000F004F870BD000046010020E2
:102E800070B5034600224FF0E02675690D4E367886
:102E900003FB06F44FF0E026B16910E04FF0E026A6
:102EA000B06988420BD0884202D20E1A324402E046
:102EB0002E1A0E4432440146A24200D300E0EDE750
:102EC00000BF70BD4401002030B50446002504E079
:102ED0004FF47A70FFF7D4FF6D1CA542F8D330BDD4
:102EE00000B587B001210C20FEF7D8FE012108466D
:102EF000FEF7D4FE01213448FDF7FEFF012108460C
:102F0000FDF7FAFF01208DF81A0018208DF81B003C
:102F10000820ADF8180006A92C48FDF762FF202014
:102F2000ADF8180006A92948FDF75BFF20212748C6
:102F3000FEF735F81020ADF8180006A92348FDF774
:102F400050FF10212148FEF72AF810208DF81B00B1
:102F5000C002ADF8180006A91D48FDF742FF4FF466
:102F600000411B48FEF71BF81A48FFF733FA01210E
:102F70000803FEF793FE00211648FFF71FFA002012
:102F8000ADF804004FF48270ADF806000020ADF8F3
:102F90000A00ADF80C00ADF808004FF40070ADF871
:102FA0000E002820ADF810000020ADF81200072018
:102FB000ADF8140001A90748FFF741FA01210548BF
:102FC000FFF7FCF907B000BD00023000000C014023
:102FD000000801400030014070B50446002600257D
:102FE00007E0681C80B205464FF6FF71884200D1A9
:102FF00005E002210F48FFF719FA0028F1D000BFC1
:1030000047F6FF750B48848107E0681C80B20546CF
:103010004FF6FF71884200D105E001210548FFF716
:1030200005FA0028F1D000BF02488089C6B23046B8
:1030300070BD00000030014070B504460D461646D4
:103040004FF400410A48FDF7A8FF05E02878FFF794
:10305000C3FF2070641C6D1C301EA6F101018EB2EE
:10306000F4D14FF400410248FDF799FF70BD000014
:103070000008014000BF054A128802F04002002A01
:10308000F9D0C2B2014B1B1D1A80704700440040AA
:1030900070B504460D4604E014F8011B0448FFF720
:1030A0002AFD281EA5F101018DB2F5D170BD0000E9
:1030B0000038014010B50021032000F019F810BDC0
:1030C00010B50121032000F013F810BD10B5202128
:1030D0000648FDF759FF08B1012000E00020044632
:1030E0002146032000F004F810BD00000008014054
:1030F00070B505460C46E0212D48FDF750FF082D20
:1031000052D2DFE805F051040F1A25303B4624B1B6
:1031100080212748FDF741FF03E080212448FDF787
:103120003EFF42E024B140212148FDF736FF03E095
:1031300040211F48FDF733FF37E024B120211C4810
:10314000FDF72BFF03E020211948FDF728FF2CE0B5
:1031500024B1C0211648FDF720FF03E0C021144828
:10316000FDF71DFF21E024B1A0211148FDF715FF57
:1031700003E0A0210E48FDF712FF16E024B1602104
:103180000B48FDF70AFF03E060210948FDF707FF40
:103190000BE024B1E0210648FDF7FFFE03E0E0214B
:1031A0000348FDF7FCFE00E000BF00BF70BD00005B
:1031B0000008014010B500210220FFF799FF10BD63
:1031C00010B540210648FDF7DFFE08B1012000E000
:1031D0000020044621460220FFF78AFF10BD0000B0
:1031E0000008014010B501210520FFF781FF10BD47
:1031F00010B5A0210648FDF7C7FE08B1012000E088
:103200000020044621460520FFF772FF10BD000094
:103210000008014010B500210120FFF769FF10BD33
:1032200010B580210648FDF7AFFE08B1012000E08F
:103230000020044621460120FFF75AFF10BD000080
:103240000008014010B500210720FFF751FF10BD15
:1032500010B501210720FFF74BFF10BD10B5E0218D
:103260000648FDF791FE08B1012000E00020044669
:1032700021460720FFF73CFF10BD00000008014079
:1032800010B5C0210648FDF77FFE08B1012000E01F
:103290000020044621460420FFF72AFF10BD00004D
:1032A000000801401CB54FF44070FEF7A7FCFFF783
:1032B00097FD4FF4E13000F0C5FBFEF7A9FC24496F
:1032C000486880474FF46120FEF772FD00202149D5
:1032D00008606420FFF7F8FD01201F49C1F8B00124
:1032E00000201E490860FDF7CDFE1D4818221D492B
:1032F0000368002098471B48407B28B11948407B51
:10330000194981F8530003E01220174981F853004E
:10331000FEF764FE00200F491439086001200E49B1
:10332000C1F894010B49103908604FF47A70FFF727
:10333000CBFD0E48012100238022CDE900100CA115
:103340000E4800F03BFE00F01BFD00201CBD0000FD
:1033500034000020AC012142000021428081214242
:103360002C000020C8010020E00100200000002007
:1033700073746172745F7461736B0000A13900082B
:103380000120FDF70FFF18B10E48006800F0BCFCEB
:1033900016E0FFF71FFC0C480088401C80B20A4969
:1033A0000880B0F5616F08DB00200880FDF792FE11
:1033B00004460A22052100F009F81E2000F024FC32
:1033C000E7E700000C0000201200002070B5044662
:1033D0000D46164607480068401C064908603346FB
:1033E0002A46214603480068FFF734FC014800687C
:1033F00070BD0000E40000202DE9F04105460E46B6
:103400001C4807681C480068001D00F059FB50B9B3
:103410001948006890F82C10012088401749096865
:10342000814316480160681C38B936B112480168FA
:10343000091D134800F082FB1AE07C190E48006851
:103440004460BC4207D20C480168091D0D48006861
:1034500000F05AFB0CE008480168091D0A480068A2
:1034600000F052FB09480068844201D2074804601A
:10347000BDE8F08178010020640100207C0100207B
:10348000040500206C010020680100209401002048
:1034900010B5044600F05EFB23480068401C22493A
:1034A00008602248006840B9204804600846006867
:1034B00001280DD100F00CF90AE01D48006838B968
:1034C0001A480068C06AE16A884201D81748046057
:1034D00018480068401C1749086094F82C10012017
:1034E000884015490968084313490860E16A01EBFF
:1034F0008101124A02EB8100211D00F01FFB00F048
:103500003BFB0B48006868B108480068C06AE16A84
:10351000884207D24FF0805009490860BFF34F8FAF
:10352000BFF36F8F10BD0000740100206401002004
:1035300080010020900100207C0100205004002028
:1035400004ED00E010B516E000F004FB0C48C06884
:10355000C468201D00F0B4FA0A480068401E0949FA
:10356000086009480068401E0749086000F004FB35
:10357000204600F00BF8044800680028E4D110BD94
:10358000F0040020740100207001002010B50446F2
:10359000206B00F001FB204600F0FEFA10BD000099
:1035A00030B54FF48843174800F007042CB1C01D14
:1035B00020F00700134C041B1B1B0246124C226018
:1035C0000024114D6C60D018083820F007000F4C13
:1035D000206000240D4D2D686C600C4D2D682C6012
:1035E0001146441A4C60094C24680C60084D4C6824
:1035F0002C60084D4C682C604FF00044064D2C6048
:1036000030BD000018050020A8010020B0010020F6
:10361000B8010020B4010020C401002000BFFFF762
:1036200091FF064800680128F9D94FF080500449FD
:103630000860BFF34F8FBFF36F8FF0E75004002097
:1036400004ED00E02DE9FF5F80460E469146DDE97E
:103650000E7A109CA9F10100216B01EB800B2BF07D
:10366000070B86B1002507E0715D04F13400415578
:10367000705D00B902E06D1C102DF5D300BF002174
:103680004320015502E0002084F83400052F00D3C8
:103690000427E762201D00F034FA04F1180000F05E
:1036A00030FA2461C7F10500A06164620020606403
:1036B00084F8480041465846039A00F033F92060E8
:1036C000BAF1000F01D0CAF80040BDE8FF9F00002A
:1036D00010B5002407E004EB84010F4A02EB8100DF
:1036E00000F002FA641C052CF5D30C4800F0FCF93C
:1036F0000B4800F0F9F90B4800F0F6F90A4800F021
:10370000F3F90A4800F0F0F9044809490860044850
:103710000849086010BD000050040020B4040020D7
:10372000C8040020DC040020F00400200405002070
:10373000680100206C01002010B50146164800E029
:10374000006803688B42FBD30246436813448B42F4
:1037500004D143684C682344436001460A464B68E1
:1037600013440468A34211D10C4C03682468A3429B
:1037700008D04B680468646823444B6003681B6886
:103780000B6005E0054B1B680B6001E003680B60F4
:10379000884200D0016010BDA8010020B0010020C7
:1037A00009480068006808B9012000E0002020B145
:1037B0004FF0FF300549086005E003480068C06825
:1037C00000680249086070476801002094010020E9
:1037D00000BFBF2080F31188BFF34F8FBFF36F8FFF
:1037E00000BF00BFFEE7000010B5014600200A46FA
:1037F0000B4C5369A34201D1012300E0002373B1B4
:10380000084C936AA34201D1012300E0002333B99D
:10381000936A0BB9012300E0002303B1012010BD1E
:1038200004050020DC0400202DE9F04104464FF09F
:10383000000800F047FB3548006808B9FFF7B0FE04
:1038400033480068204000285BD1B4B104F108007F
:10385000A04212D9083404F0070078B104F0070040
:10386000C0F108002044A04205D904F00700C0F1CF
:103870000800044402E0002400E00024002C40D0B2
:103880002448006884423CD8234E3046056801E055
:103890002E462D686868A04202D228680028F7D119
:1038A0001A48006885422CD0306800F10808286862
:1038B00030606868001B102807D92F196868001B42
:1038C00078606C603846FFF737FF1249686809680E
:1038D000081A1049086008460068104909688842BB
:1038E00003D20C4800680D490860094968680968F6
:1038F000084368600020286009480068401C0849A7
:10390000086000F029FC4046BDE8F081B0010020CD
:10391000C4010020B4010020A8010020B80100204B
:10392000BC010020001F4FF080730360001F21F0D6
:1039300001030360001F034B03601438026020384A
:1039400070470000D137000824E000F003F9124866
:1039500001780078401C104A1070022913D10F48DA
:103960000078401C0D49087008460078FEF786FD77
:103970000A480078042802DB00200849087000206B
:103980000549087001E0FEF745FE00F0F5F8052056
:1039900000F03AF9D9E700001100002010000020E3
:1039A0001CB5044600F0D6F81448032100238022F9
:1039B000CDE9001012A1154800F000FB14480221C7
:1039C00000238022CDE9001012A1164800F0F6FA7B
:1039D0001548042100238022CDE9001013A11748C7
:1039E00000F0ECFA1048006800F000FA1448006893
:1039F00000F024F900F0C0F81CBD00000800002011
:103A00006D61737465725F7461736B00813300085C
:103A1000040000207769666972656376655F74618A
:103A2000736B0000353F00080C00002073693433CD
:103A30003361636B5F7461736B0000004939000888
:103A40000000002010B586B0044601210420FEF7D6
:103A500025F901214804FEF701F90420ADF814000E
:103A600003208DF8160018208DF8170005A91248BC
:103A7000FDF7B7F90820ADF8140004208DF8170001
:103A800005A90D48FDF7ADF901940020ADF8080037
:103A9000ADF80A00ADF80C00ADF810000C20ADF840
:103AA0000E0001A90548FEF7AFFF01210348FEF70C
:103AB00042FF06B010BD0000000801400044004075
:103AC00001460A69D1E901309860D1E901035860E3
:103AD0005068884201D188685060002008611068F1
:103AE000401E10601068704700F1080141604FF0FF
:103AF000FF31816000F10801C160016100210160B6
:103B0000704700210161704710B502460B685C1CCC
:103B10000CB9106907E002F1080000E04068446851
:103B200024689C42FAD944684C604C68A160886063
:103B300041600A611468641C146010BD42684A60E8
:103B400093688B60936859609160086103685B1C9F
:103B50000360704700BFBF2080F31188BFF34F8F11
:103B6000BFF36F8F00BF03480068401C0149086025
:103B700070470000A401002006480068401E054967
:103B800008600846006820B9002080F3118800BF53
:103B900000BF7047A401002070B506463546FEB14F
:103BA000083D2C460F49606809680840C0B120688C
:103BB000B0B90C49606809688843606000F082F918
:103BC0000949606809680844074908602046FFF70A
:103BD000B3FD06480068401C0449086000F0BCFAC8
:103BE00070BD0000C4010020B4010020C00100200D
:103BF00000204FF0E02108618861024848610720F9
:103C0000086170473F19010070B50446002544B1B2
:103C100000F058F900212046FFF7EEFB00F09CFA77
:103C200005463DB94FF0805003490860BFF34F8F00
:103C3000BFF36F8F70BD000004ED00E070B5054666
:103C4000FFF788FF15B92748006800E028460446BA
:103C5000201DFFF735FF78B9E06A00EB80002249AC
:103C600051F8200040B994F82C10012088401F49D9
:103C7000096881431D480160A06A18B104F1180069
:103C8000FFF71EFF1A480068401C194908601548D4
:103C90000068844209D1211D1648FFF74FFF1648DE
:103CA0000068401C1449086009E014480068401E80
:103CB000124908602046FFF769FCFFF771FDFFF726
:103CC0005BFF0F48006858B106480068844207D17E
:103CD0004FF080500B490860BFF34F8FBFF36F8FD9
:103CE00070BD000064010020500400207C01002011
:103CF00090010020F00400207001002074010020D9
:103D00008001002004ED00E070B505462C461848FF
:103D1000006884422BD054B3FFF71CFF2046FFF706
:103D200063FD10B3201DFFF7CBFE94F82C1001208B
:103D300088401049096808430E490860E16A01EBB0
:103D400081010D4A02EB8100211DFFF7F7FE0849B2
:103D5000E06A0968C96A884207D34FF08050074972
:103D60000860BFF34F8FBFF36F8FFFF705FF70BD84
:103D7000640100207C0100205004002004ED00E0DC
:103D80001CB5124800210B468022CDE9001010A17D
:103D9000114800F013F90446012C14D100BFBF20D4
:103DA00080F31188BFF34F8FBFF36F8F00BF4FF0C9
:103DB000FF300A49086001200949086000200949CC
:103DC000086000F0C7F8084800681CBD9801002092
:103DD00049444C45000000001D36000894010020B5
:103DE00080010020780100209C01002070B505466C
:103DF000FFF7B0FE15B92C48006800E028460446DD
:103E0000201DFFF75DFE78B9E06A00EB80002749CE
:103E100051F8200040B994F82C1001208840244922
:103E20000968814322480160A06A18B104F11800B2
:103E3000FFF746FE211D1F48FFF780FE002009E026
:103E400004F14801095C012903D1002204F1480171
:103E50000A54401C0128F3DBFFF78EFE1648006869
:103E600028B1FFF777FEFFF79BFCFFF785FE0E48B2
:103E70000068844217D11048006840B14FF080506C
:103E80000E490860BFF34F8FBFF36F8F0BE00948F7
:103E900000680B490968884203D100200249086084
:103EA00001E000F017F870BD64010020500400200C
:103EB0007C010020040500208001002004ED00E0CA
:103EC0007401002002480068401C014908607047E6
:103ED000A00100201248006818B1012011490860B3
:103EE0001DE000200F4908600F480068B0FA80F01C
:103EF000C0F11F0101EB81020C4B03EB8200426811
:103F00005268426000F108024368934202D142685D
:103F1000526842604268D268054B1A6000BF704721
:103F2000A0010020880100207C0100205004002016
:103F3000640100200AE0FFF70DFE2C210448FCF785
:103F4000D7FDFFF719FE1E20FFF75EFEF3E7000026
:103F50005603002010B50A48006840F47F00084965
:103F600008600846006840F07F400860FFF740FEA8
:103F7000002004490860FCF765F9002010BD00002E
:103F800020ED00E0A401002010B500BFBF2080F3A9
:103F90001188BFF34F8FBFF36F8F00BF00F04EF853
:103FA00018B14FF080500449086000BF002080F332
:103FB000118800BF10BD000004ED00E02DE9FF4FA7
:103FC00085B0804689461746DDE912ABB800FFF799
:103FD0002BFC064656B14C20FFF726FC04460CB1DC
:103FE000266304E03046FFF7D7FD00E000247CB1F3
:103FF0000020CDE900ABCDE902403A4649464046B3
:10400000089BFFF71FFB2046FFF742FA012501E05E
:104010004FF0FF35284609B0BDE8F08F0549096823
:1040200009B9012005E00449096809B9022000E046
:104030000020704780010020A00100202DE9F04100
:1040400000273A480068002867D139480068451CB5
:10405000374805608DB93748D0F800803648006889
:10406000344908603448C0F8008034480068401C77
:1040700032490860FFF794FB00BF31480068854271
:104080003BD300BF2B480068006808B9012000E05E
:10409000002020B14FF0FF30294908602CE025486E
:1040A0000068C068C4686668B54202D224480660E9
:1040B00022E0201DFFF704FDA06A18B104F11800EA
:1040C000FFF7FEFC94F82C10012088401D49096878
:1040D00008431C490860E16A01EB81011A4A02EBBE
:1040E0008100211DFFF72AFD1849E06A0968C96AA5
:1040F0008842C7D30127C5E700BF14480068C06ADB
:1041000000EB8000104951F82000012800D9012758
:104110000F48006800B1012704E00E480068401C09
:104120000C4908603846BDE8F0810000A00100207D
:1041300078010020680100206C0100208C01002023
:10414000940100207C010020500400206401002024
:10415000880100208401002070B500240026FFF7AC
:10416000F9FC2E480068401E2C490860084600688B
:1041700000284FD12A48006800284BD024E0294865
:10418000C068C46804F11800FFF79AFC201DFFF70F
:1041900097FC94F82C1001208840234909680843B3
:1041A00021490860E16A01EB8101204A02EB8100AC
:1041B000211DFFF7C3FC1E49E06A0968C96A8842ED
:1041C00002D301201B4908601648006808B9012085
:1041D00000E000200028D2D00CB1FFF7E1FA164829
:1041E000056865B100BFFFF729FF10B10120114933
:1041F00008606D1E002DF6D100200F4908600D48A3
:10420000006838B1012630070C490860BFF34F8FB2
:10421000BFF36F8FFFF7B0FC304670BDA0010020E8
:1042200074010020DC0400207C01002050040020E8
:1042300064010020880100208401002004ED00E0DA
:1042400000C1814001C0804101C0804100C1814066
:1042500001C0804100C1814000C1814001C0804156
:1042600001C0804100C1814000C1814001C0804146
:1042700000C1814001C0804101C0804100C1814036
:1042800001C0804100C1814000C1814001C0804126
:1042900000C1814001C0804101C0804100C1814016
:1042A00000C1814001C0804101C0804100C1814006
:1042B00001C0804100C1814000C1814001C08041F6
:1042C00001C0804100C1814000C1814001C08041E6
:1042D00000C1814001C0804101C0804100C18140D6
:1042E00000C1814001C0804101C0804100C18140C6
:1042F00001C0804100C1814000C1814001C08041B6
:1043000000C1814001C0804101C0804100C18140A5
:1043100001C0804100C1814000C1814001C0804195
:1043200001C0804100C1814000C1814001C0804185
:1043300000C1814001C0804101C0804100C1814075
:1043400000C0C101C30302C2C60607C705C5C40435
:10435000CC0C0DCD0FCFCE0E0ACACB0BC90908C8A5
:10436000D81819D91BDBDA1A1EDEDF1FDD1D1CDC95
:1043700014D4D515D71716D6D21213D311D1D01005
:10438000F03031F133F3F23236F6F737F53534F4F5
:104390003CFCFD3DFF3F3EFEFA3A3BFB39F9F83865
:1043A00028E8E929EB2B2AEAEE2E2FEF2DEDEC2C55
:1043B000E42425E527E7E62622E2E323E12120E0C5
:1043C000A06061A163A3A26266A6A767A56564A4B5
:1043D0006CACAD6DAF6F6EAEAA6A6BAB69A9A86825
:1043E00078B8B979BB7B7ABABE7E7FBF7DBDBC7C15
:1043F000B47475B577B7B67672B2B373B17170B085
:104400005090915193535292965657975595945474
:104410009C5C5D9D5F9F9E5E5A9A9B5B99595898E4
:10442000884849894B8B8A4A4E8E8F4F8D4D4C8CD4
:104430004484854587474686824243834181804044
:10444000080421714B0000DC950805A62221F041EB
:104450005B2608E22F1CBB0AA8942808058767E2A0
:10446000581A075B08E1D072D88AB85B7D0805113D
:10447000EC9E28231B6D08E24F8AB2A92914130869
:1044800005D12E716A514C2C08E5802742A469B0F1
:104490007F0805AA812ABD45E8A808EAE4F024C9F6
:1044A0009FCC3C080508F5050427629808EA6B6272
:1044B00084A1F94AE20805E977054F84EE3508E260
:1044C00043C38DFBAD5425080514065E39362F45D0
:1044D00008EA0C1C74D011FC320805DA38BA0E3C1C
:1044E000E78B08EAB009E6FF94BBA90805D71129B4
:1044F000FEDC71D508EA7F83A76090621808058406
:104500007F6AD191C65208EA2AD87B8E4A9F9108C9
:1045100005BDAA9D1618061508E255AD2D0A141FF3
:104520005D0805D3E07C39CF01F008EF3A91726A5B
:1045300003BB9608E7836DA492FC13A708EFF8FD70
:10454000CF62076F1E08E74CEA4A754FD6CF08E2E4
:10455000F611E4260D4DC60805FBBFE80789C351D7
:1045600008EF8227043F96A85808E741293C752A9E
:10457000031C08EFAF599836AA0F0608E6F69341D8
:104580002DEC0E990805291990E5AA364008E7FB9D
:1045900068107D775DC008E7CBB4DDCE9054BE08CF
:1045A000E7728AD602F4DDCC08E76A210B0286ECBA
:1045B0001508E77B7C3D6B8103D008EF7D61369465
:1045C0007CA0DF08EFCC853BDAE05C1C08E7E375F4
:1045D000BB39224BA808EFF9CEE05EEB1DCB08E714
:1045E000BDE270D5AB4E3F08E7B78D20686B09522E
:1045F00008EFA11B90CD98006308EF54675D9C11F4
:10460000FC4508E7D49BC897BE8A0708EF528D90F7
:104610006373D52A08EF03BC6E1C76BE4A08E7C256
:10462000ED67BA5E662108EFE73F87BEE07A6D0866
:10463000E7C970931D64F56C08EFF5280834B3B62C
:104640002C08EF3A0AEC0FDB56CA08EF39A06EEDE2
:1046500079D02408E76C0BAFA94E40B508E9B9AF93
:10466000BF2550D13708059EDBDE3F94E96B08EC8F
:10467000C505AA57DC8A5E080570DA8484DDCA9015
:104680000702810001C9C380081320002100000037
:10469000000611000200520005110001032006115E
:1046A00001020001380811020400000000000D1191
:1046B0001009000814000F31000000000A11110653
:1046C0000001B42B0000001011120C00040108FFBF
:1046D000FF200200000000301011120C0C30000806
:1046E0000480000000000000001011120C180000EF
:1046F000000000000000000000001011120C240057
:104700000000000000000000000000091112053048
:1047100000000000001011200C000200070F4240B2
:1047200001C9C3800005051120010C761011200C71
:1047300018010008038000102000E8004B10112031
:104740000C2406D3A007FF020000002386D4071123
:104750002003300098A00511200135E00711200347
:10476000381110100811200440280CA4230E112029
:104770000A450300AA0100FF0600184006112002A6
:1047800050840A0611200254030705112001570026
:10479000091120055B40040578201011210C007ED2
:1047A000641BBA580BDDCED6E6F6001011210C0CB6
:1047B000030315F03F007E641BBA580B1011210C47
:1047C00018DDCED6E6F600030315F03F00081122EF
:1047D0000400087E005D0B1123070034040B04075E
:1047E00070031011300C00000000000000000000F9
:1047F0000000000C11400800400AAAAA444420FE10
:10480000003031323334353637383941424344454C
:10481000464030580030313233343536373839611C
:1048200062636465664030780004000008000000A0
:104830000000000002000100001000005C480008B9
:1048400000000020C80100006C01000800490008B9
:10485000C8010020B04D0000C8010008011584A265
:104860004A04280901020304060708091113551E0A
:104870001408552B420813E110140861111408C1E3
:1048800031140821321408CD301B085D081AF110CC
:104890001A81081A51041AC1141AB5101A150C1AE3
:1048A000B50C1A45081AE510027F80C5E8F7FF1F0E
:1048B00013911F140841211C086B20B419E41B112B
:1048C00022D419041ADD181A69041AA5141AA3109F
:1048D0001AF5041AB1281AA92813E12E1408D92FA1
:1048E0001B0839D8E12D0102030404D80806070883
:1048F000090204061E012C72041AAA0101200000FC
:04000005080002B934
:00000001FF
