:020000040800F2
:20000000F00B002019020008B50C0008090B0008790C0008C90600087B25000800000000B1
:20002000000000000000000000000000F7160008CD060008000000003D0D000869180008F5
:200040003302000833020008330200083302000833020008330200083302000833020008B8
:20006000330200083302000833020008330200083302000833020008330200083302000898
:20008000330200083302000833020008330200083302000833020008330200083302000878
:2000A0003302000833020008330200083302000895190008330200083302000833020008DF
:2000C000330200083302000833020008330200083302000833020008452100088522000895
:2000E000330200083302000833020008330200083302000833020008330200083302000818
:200100003302000833020008330200083302000833020008330200083302000833020008F7
:200120003302000833020008330200083302000800F002F800F061F80AA090E8000C8244A4
:200140008344AAF10107DA4501D100F056F8AFF2090EBAE80F0013F0010F18BFFB1A43F06B
:200160000103184714330000343300000A444FF0000C10F8013B13F0070408BF10F8014B68
:200180001D1108BF10F8015B641E05D010F8016B641E01F8016BF9D113F0080F1EBF10F88B
:2001A000014BAD1C0C1B09D16D1E58BF01F801CBFAD505E014F8016B01F8016B6D1EF9D5D8
:2001C0009142D6D3704700000023002400250026103A28BF78C1FBD8520728BF30C148BFE5
:2001E0000B607047642900F07980002070471FB500F0C5F81FBD10B510BD00F033FA11462D
:20020000FFF7F5FF02F068FC00F051FA03B4FFF7F2FF03BC02F0EAF9094880470948004781
:20022000FEE7FEE7FEE7FEE7FEE7FEE7FEE7FEE7FEE7FEE704480549054A064B70470000DB
:200240006D18000831010008F0050020F00B0020F0070020F0070020704700000FB40449B2
:2002600010B503AA029800F09DF910BC5DF814FBC00100202DE9F0410E4604460020206254
:200280002046E168884730B3252805D0D4E901219047206A401CF2E7E168204600278847C1
:2002A000050018D0A5F14100192802D820354FF400673246294620462760FFF793FF40B113
:2002C000012804D0F61D26F007060836D8E7361DD6E72846DAE7206ABDE8F0812DE9F041C8
:2002E0000646002410687529314616A510D0AFF30080002802DA404213A507E031688A07F5
:2003000001D512A502E0490704D511A5012401E0AFF3008000210A2206F1240709E0B0FB64
:20032000F2FCB0FBF2F302FB1C00303078541846491C0028F3D123462A463046BDE8F04126
:2003400000F0D7B8000000002D0000002B000000200000000B4910B5A1F17C020A4CC2E97C
:200360003712372106E000EB104342F82130074B00FB03400B1EA1F10101F4DC10BD012022
:20038000E8E7000024050020E119D666CD0D010010B5431C02E010F8011B71B18107FAD195
:2003A0004FF0013202C88C1A8C4314EAC211F9D0C01A0A0603D0C01E10BDC01A10BD0A04D5
:2003C00001D0801E10BD0902FCD0401E10BD032A40F2308010F0030C00F0158011F8013BF7
:2003E000BCF1020F624498BF11F801CB00F8013B38BF11F8013BA2F1040298BF00F801CB49
:2004000038BF00F8013B11F0030300F0DD80083AC0F0088051F8043B083A51F804CBA0E879
:200420000810F5E7121D5CBF51F8043B40F8043BAFF30080D20724BF11F8013B11F801CB87
:2004400048BF11F8012B24BF00F8013B00F801CB48BF00F8012B70474FF000020429C0F085
:20046000128010F0030C00F01B80CCF1040CBCF1020F18BF00F8012BA8BF20F8022BA1EB92
:200480000C0100F00DB85FEAC17C24BF00F8012B00F8012B48BF00F8012B70474FF00002C6
:2004A00000B5134694469646203922BFA0E80C50A0E80C50B1F12001BFF4F7AF090728BF63
:2004C000A0E80C5048BF0CC05DF804EB890028BF40F8042B08BF704748BF20F8022B11F07F
:2004E000804F18BF00F8012B704770477047704770472DE9F0470D4699469246044600F10D
:2005000024080168880604D5E06921F01001216000E00120A84201DD471B00E00027A169B7
:200520007A1902EB0900081AA0612078C00602D42046AFF30080002608E0D4E901211AF854
:2005400006009047206A401C761C20624E45F4DB2078C0060AD52046AFF3008006E0D4E9FA
:20056000012130209047206A401C2062381EA7F10107F4DC07E0D4E9012118F80500904752
:20058000206A401C2062281EA5F10105F3DC2046AFF300802078000602D50220BDE8F08707
:2005A0000120FBE7074B70B50D467B4400F043F80446284600F052F810B14FF0FF3070BD36
:2005C000204670BD0323000010B5203AC0F00B80B1E81850203AA0E81850B1E81850A0E834
:2005E0001850BFF4F5AF5FEA027C24BFB1E81850A0E8185044BF18C918C0BDE810405FEAA7
:20060000827C24BF51F8043B40F8043B08BF7047D20728BF31F8023B48BF11F8012B28BF33
:2006200020F8023B48BF00F8012B704701694A1C02610878704700B58FB0CDE9013100211C
:20064000059105497944CDE9031011466846FFF711FE0FB000BD0000E5FFFFFF007B00F05D
:2006600080007047754600F02BF8AE4605006946534620F00700854618B020B5FFF7DAFDE8
:20068000BDE820404FF000064FF000074FF000084FF0000B21F00701AC46ACE8C009ACE83D
:2006A000C009ACE8C009ACE8C0098D46704710B50446AFF300802046BDE81040FFF7A6BD48
:2006C000004870478C05002000BFFEE7704700000149C860704700000020024030B5044655
:2006E00004254FF4302000F085F80546042D17D10C48006940F002000A49086108464461CF
:20070000006940F0400008614FF4302000F072F805460448006941F6FD710840014908610A
:20072000284630BD0020024004200B49C96801F0010109B101200EE00749C96801F0040120
:2007400009B1022007E00449C96801F0100109B1032000E0042070470020024003480069A8
:2007600040F0800001490861704700000020024078B506460C46042500200090E80200F07F
:2007800039F80546042D24D11348006940F00100114908613480E80200F02CF80546042DD1
:2007A00010D1B01C0090200C00990880E80200F021F805460848006941F6FE71084006497B
:2007C000086106E00448006941F6FE71084002490861284678BD00000020024002480349D8
:2007E00048600348486070472301674500200240AB89EFCD00B502460423FFF795FF03468E
:2008000003E0FFF791FF0346521E012B01D1002AF7D102B90523184600BD2DE9F041024639
:2008200000250026002000230024002791F803C00CF00F0591F803C00CF0100CBCF1000F63
:2008400003D091F802C04CEA050591F800C0BCF1000F31D0146800202BE04FF0010C0CFA3B
:2008600000F3B1F800C00CEA03069E4220D183004FF00F0C0CFA03F7BC4305FA03FC4CEA3C
:20088000040491F803C0BCF1280F06D14FF0010C0CFA00FCC2F814C00AE091F803C0BCF18A
:2008A000480F05D14FF0010C0CFA00FCC2F810C0401C0828D1D31460B1F800C0BCF1FF0F6B
:2008C00034DD546800202EE000F1080C4FF0010808FA0CF3B1F800C00CEA03069E4221D195
:2008E00083004FF00F0C0CFA03F7BC4305FA03FC4CEA040491F803C0BCF1280F05D100F1E9
:20090000080C08FA0CF8C2F8148091F803C0BCF1480F07D100F1080C4FF0010808FA0CF8F4
:20092000C2F81080401C0828CED35460BDE8F081F0B50A46002300240021002500F00046BE
:20094000B6F1004F02D11D4EF16901E01B4E7168C0F3034583B200F44016B6F5401F08D189
:2009600021F07061154E766826F07066134F7E6012E000F48016B6F5801F06D1032606FA62
:2009800005F4A14341F0706106E0460D360103FA06F6B14341F0706122B1460D360103FABF
:2009A00006F6314300F00046B6F1004F02D1034EF16101E0014E7160F0BD00000000014036
:2009C00002460020D3680B400BB1012000E0002070474161704701617047000008B5002145
:2009E000214800909DF803300846491C1F4A13549DF802300846491C13549DF801300846BE
:200A0000491C13549DF800300846491C1354184800909DF803300846491C13549DF8023092
:200A20000846491C13549DF801300846491C13549DF800300846491C13540E4800909DF862
:200A400003300846491C13549DF802300846491C13549DF801300846491C13549DF80000F3
:200A60005054104608BD00007F010600980200207F0302007F02010010B520490968486921
:200A800080471E4800680168582088471B480068042102691A489047194A907A174A126835
:200AA0001168884715480068062102691448001D9047FFF793FF0446104800680C2102691D
:200AC000204690470D490968086A80470B48006801687520884709490968886A8047094983
:200AE000C88306490968486A804704460548C28B2146401CFFF76BFC10BD00000000002081
:200B0000A40200207802002000BFFEE710B586B004460121480400F061F9294801F01AFC5C
:200B20000420ADF8140003208DF8160018208DF8170005A92348FFF770FE0820ADF81400E8
:200B400004208DF8170005A91E48FFF766FE26208DF8000002208DF801008DF8020001204C
:200B60008DF80300684600F0A7F801940020ADF80800ADF80A00ADF80C00ADF810000C200D
:200B8000ADF80E0001A90E4801F082FC002240F227710B4801F056FC4021094801F0B6FB5D
:200BA000012240F22551064801F04CFC2021044801F0ACFB0121024801F0C0FB06B010BD23
:200BC000004400400008014008B50121082000F025F94FF45040ADF8000010208DF8030003
:200BE00003208DF8020069460E48FFF716FE01200D4908600D49C1F8B0010B49091F0860B9
:200C0000091D086008490C3908600749091F0860091D086004490C3908600349091F086004
:200C200008BD0000000C0140BC8121420080214208B50121082000F0F1F84FF45040ADF8C7
:200C4000000003208DF8020010208DF8030069460648FFF7E2FD0120054908600549C1F882
:200C6000B0010349091F086008BD0000000C0140BC8121420080214200BFFEE770B5034640
:200C8000FF24FF2509E011F8010B80EA04020748805C80EA05040648855C181EA3F1010601
:200CA000F3B2F0D145EA042070BD0000B42E0008B42F00087047000070B5002100230F2228
:200CC000C47804B3154C246804F4E064C4F5E064210AC1F10403CA40447804FA03F1847863
:200CE0001440214309010E4C0678A155047804F01F050124AC4005786D11AD0005F1E0251C
:200D0000C5F8004109E0047804F01F050124AC40044D0678761145F8264070BD0CED00E048
:200D200000E400E080E100E002490143024A1160704700000000FA050CED00E0704700001C
:200D400008B50121142000F069F840F62100ADF8000010208DF8030003208DF80200694622
:200D60000848FFF75AFD4FF40050ADF8000048208DF8030003208DF8020069460248FFF715
:200D80004CFD08BD000801400010014010B504460E480068A8B90E480078401C0C49087086
:200DA0000C49486980470A480078A04207DB09498868804700200849086000BFFEE7012031
:200DC00010BD00200249087000BFF9E734012242A4010020640100208001214229B1064AD3
:200DE000D2690243044BDA6104E0034AD2698243014BDA61704700000010024029B1064AFE
:200E000012690243044B1A6104E0034A12698243014B1A61704700000010024029B1064ADD
:200E200092690243044B9A6104E0034A92698243014B9A61704700000010024029B1064ABD
:200E4000D2680243044BDA6004E0034AD2688243014BDA60704700000010024030B50021C5
:200E60000022002400232D4D6D6805F00C0121B1042905D0082923D105E0294D056022E0FD
:200E8000274D05601FE0254D6D6805F47012234D6D6805F48034022505EB92421CB9214D98
:200EA000554305600BE01D4D6D6805F400351DB11C4D5543056002E0194D5543056002E082
:200EC000174D056000BF00BF144D6D6805F0F0010909154D6B5C0568DD4045600F4D6D6814
:200EE00005F4E061090A104D6B5C4568DD4085600A4D6D6805F46051C90A0B4D6B5C45685D
:200F0000DD40C560054D6D6805F44041890B074D6B5CC568B5FBF3F5056130BD00100240D5
:200F200000127A0000093D00C6010020D601002070B5044620252B46224680210248007811
:200F400000F058FA70BD00000600002010B5414800680078662856D13E48006840786528E6
:200F600051D13C480068807858284CD139480068C07839490978884245D136480068C07BA9
:200F8000642840D10E213348006801F03DFB044630480068807BA04204D040212F48FFF7D0
:200FA0005BFA10BD2B480068C079A8B129480068C079294908700846017829484173294849
:200FC0001822274943680020984700F01FF92248017825A0FFF742F90020284908800120A2
:200FE000274908702748FFF7A3FF1C212548401CFFF732FA002023490870102115480068E0
:20100000FFF72AFA23E013480068007899280ED1104800684078332809D100F045F81021CD
:201020000C480068FFF718FA01F004FE0FE000F0DBFB12480088401C10490880084600884F
:20104000B0F5FA6F03DD002008800D49087000BFA7E70000F4000020060000201B02002068
:20106000C5030020B4010020474368616E6E656C5365743D25640D0A00000000D8000020B2
:20108000040000207802002010B503460020054C234403E013F8014B0C54401C9042F9DB10
:2010A00010BD00000000010810B507480068007A0649087008460278034801680A3104489A
:2010C000FFF785F910BD0000F400002005000020DC01002038B504460020009034208DF8D9
:2010E00000008DF801400221684600F06BFA38BD70B5002408E0601C84B22649081929462D
:2011000000F060FA601984B22248055D002DF2D1002141F2062000F0ADF900214FF49050C6
:2011200000F0A8F9012141F2092000F0A3F92A2141F2082000F09EF9002141F20A2000F079
:2011400099F9002141F20D2000F094F9012141F20E2000F08FF9002141F20F2000F08AF90E
:20116000002141F2102000F085F9002141F2112000F080F9202141F2122000F07BF9002164
:2011800041F2132000F076F9002141F2142000F071F970BDB430000808B5002000903320CF
:2011A0008DF800000121684600F00CFA0321684600F0C6F89DF8010000F00F0008BD00000A
:2011C00008B501210C20FFF729FE10208DF8030001208DF802004003ADF80000694609489F
:2011E000FFF71BFB48208DF803001020ADF8000069460548FFF711FB4FF400510148FFF74D
:20120000E8FB08BD000C0140000801401CB500F0F7F94FF47A7001F035FA154908688047FD
:2012200014490868804713494868804711488168114888470F49C86880470E4841697F20EF
:2012400088470C48016A0620884700BF0949C86980470628FAD103200021CDE900100548B2
:201260000B460A46446A05480078A0471CBD0000580100202401002080C3C90106000020A9
:2012800038B504460020009020208DF8000000208DF801008DF802008DF80300042168461A
:2012A00000F090F90921204600F04AF838BD1CB5044600200090019002208DF800000120DA
:2012C0008DF8010000208DF80200200E8DF80300200C8DF80400200A8DF80500E0B28DF8AB
:2012E00006000721684600F06DF91CBD70B504460025002600F040F91048006820F40040EC
:201300000E490860772001F085FAFF2001F082FA05462E4604E0FF2001F07CFA04F8010B4A
:20132000281EA5F10101CDB2F5D10448006840F4004002490860304670BD00000C080140B7
:2013400070B504460D4600F017F90D48006820F400400B490860442001F05CFA04E0FF2050
:2013600001F058FA2070641C281EA5F10101CDB2F5D10348006840F400400149086070BDF1
:201380000C08014010B50B48006840F4005009490860142001F09CF90648006820F4005066
:2013A000044908600448006840F400400249086010BD00000C0C01400C08014008B5002045
:2013C000009015208DF8000002208DF801000221684600F0F7F808BD08B500200090152004
:2013E0008DF8000002208DF801000221684600F0E9F808BD2DE9F0410746884615461C463A
:201400002646FFF7E9FF1248006820F4004010490860662001F0FEF9701CC6B2204601F0E2
:20142000F9F903E015F8010B01F0F4F9201EA4F10101CCB2F6D10648006840F4004004494F
:20144000086032464146384600F076F8BDE8F0810C08014010B50446214642F2030000F041
:2014600022F810BD10B50446214642F2012000F001F810BD7CB504460D46002000900190F5
:2014800011208DF8000020128DF8010001208DF80200E0B28DF803008DF80450052168466F
:2014A00000F090F87CBD7CB505460C4600200090019011208DF8000028128DF801000320D3
:2014C0008DF80200E8B28DF80300200C8DF80400200A8DF80500E0B28DF806000721684607
:2014E00000F070F87CBD2DE9FC4705460F4614461E46DDE90A89002000900190FFF75EFFB7
:20150000FFF76AFF32208DF800008DF801508DF80270E0B200128DF80300E0B28DF8040081
:201520008DF805608DF806808DF807900821684600F048F8BDE8FC877CB506460D46144641
:2015400000200090019031208DF800008DF801608DF80250E0B200128DF80300E0B28DF874
:20156000040000208DF805008DF806000721684600F028F87CBD000070B5002500BF1048B2
:20158000006820F400400E490860442001F042F9FF2001F03FF904460948006840F4004081
:2015A000074908602846691C8DB2B0F57A7F02D1FFF72CFE01E0FF2CE1D100BF70BD000006
:2015C0000C08014070B504460D46FFF7D5FF0B48006820F400400949086003E0207801F0F5
:2015E00019F9641C281EA5F10101CDB2F6D10348006840F400400149086070BD0C080140DA
:2016000008B501210820FFF709FC4FF48050ADF8000010208DF8030003208DF802006946FF
:201620000448FFF7FAF84FF480510248FFF7D1F908BD0000000C014021B1028842F0400276
:20164000028004E002884FF6BF731A400280704710B504461148844208D101218014FFF7DD
:20166000EDFB0021A014FFF7E9FB16E00C48844208D101210014FFF7C1FB00212014FFF7B7
:20168000BDFB0AE00748844207D10121C013FFF7B5FB0021E013FFF7B1FB10BD003001402C
:2016A00000380040003C00400246002013890B400BB1012000E00020704710B500220288E2
:2016C00002F441520B884C8823438C882343CC8823430C8923434C8923438C892343CC897A
:2016E00023431A430280838B4FF2FF74234083830B8A038210BD704700487047F8000020C5
:2017000010B500F001F810BD0CB50020019000903348006840F480303149086000BF30486C
:20172000006800F4003000900198401C0190009818B90198B0F5A06FF1D12948006800F4C2
:20174000003010B10120009001E0002000900098012843D12348006840F01000214908609C
:201760000846006820F0030008600846006840F0020008601A4840681949486008464068DE
:2017800048600846406840F4806048600846406820F47C1048600846406840F4E8104860E7
:2017A0000846006840F08070086000BF0C48006800F000700028F9D00948406820F0030013
:2017C000074948600846406840F00200486000BF0348406800F00C000828F9D10CBD0000D0
:2017E00000100240002002401CB51148FFF748FD0F48C07800F01000C8B10E48FFF776FD09
:20180000044614B10B480C4908600620FFF762FC00BFFFF7C1FC0628FBD1032000210B462E
:201820000A46CDE9001005480078FFF75CFE1CBD120200201B020020F400002006000020F9
:20184000042808D14FF0E021096941F004014FF0E022116107E04FF0E021096921F0040139
:201860004FF0E022116170477047000010B51348006840F00100114908600846406810497D
:2018800008400E494860084600680E4908400B4908600846006820F4802008600846406828
:2018A00020F4FE0048604FF41F008860FFF728FF4FF000600449086010BD00000010024094
:2018C0000000FFF8FFFFF6FE08ED00E000B585B001210520FFF7A2FA01211348FFF728F8F4
:2018E0004FF40070ADF8100018208DF8130003208DF8120004A90D48FEF78FFF684600F0D3
:2019000071FA7020ADF800000120ADF802000020ADF806000220ADF808006946044800F0DA
:20192000BFF905B000BD00004000160000080140002C014000B585B001210520FFF76EFAE2
:2019400001211148FEF7F4FF4FF48060ADF8100018208DF8130003208DF8120004A90B48C2
:20196000FEF75BFF7020ADF800000120ADF802000020ADF806000220ADF808006946044886
:2019800000F0E0F905B000BD4000160000080140002C014010B50121880700F01AF900285F
:2019A00055D00121880700F0F6F829480078401C274908702748808828B126488088401E22
:2019C0002449888002E00020234908802348808828B122488088401E2049888002E000200D
:2019E0001F4908801F48808828B11E488088401E1C49888002E000201B4908801B4880881D
:201A000040B101201A49087018488088401E174988800FE016480078012807D11548008800
:201A2000401C1449088000201149087000200E49091F08801048808828B10F488088401E56
:201A40000D49888003E000200349091F088010BDA6010020C80000203C2C0140D000002014
:201A600034040040180000203808004020000020AA010020A80100204800002000B585B010
:201A800001210520FFF7CAF94020ADF8100018208DF8130003208DF8120004A90A48FEF7B3
:201AA000BCFE7020ADF800000120ADF802000020ADF806000220ADF808006946034800F0EB
:201AC000A3F805B000BD0000000801400004004000B585B001210920FFF7A0F94020ADF8A3
:201AE000100018208DF8130003208DF8120004A90A48FEF792FE7020ADF800000120ADF8CD
:201B000002000020ADF806000220ADF808006946034800F079F805B000BD0000000C01400F
:201B20000008004000B585B001210920FFF776F98020ADF8100018208DF8130003208DF8F6
:201B4000120004A90A48FEF768FE7020ADF800000120ADF802000020ADF806000220ADF88A
:201B600008006946034800F09BF805B000BD0000000C01400008004021B1028842F08002C9
:201B8000028004E002884FF67F731A4002807047CA4302827047CA430282704721B102889F
:201BA00042F00102028004E002884FF6FE731A400280704731B1B0F8442042F40042A0F8B9
:201BC000442005E0B0F84420C2F30E02A0F84420704730B50246002000230024158A05EA16
:201BE0000103958905EA010413B10CB1012000E0002030BD1AB183890B43838102E0838929
:201C00008B4383817047000070B5002400220023058C4FF6FE7635400584028C8388048B3D
:201C20004FF68F752C40B51E2C400D882C43751E2A400D892A434D882A43144DA8420BD044
:201C4000134DA84208D0134DA84205D0124DA84202D0124DA84213D14FF6F7752A404D890A
:201C60002A434FF6FB752A408D882A434FF6FF652B404FF6FF552B408D892B43CD892B43F6
:201C800083800483CD888586028470BD002C01400034014000400140004401400048014036
:201CA00070B5002400220023058C4FF6EF7635400584028C8388048B48F6FF752C404FF6D2
:201CC000FF452C400D884FF6FF7606EA05252C434FF6DF752A400D8906EA05152A434D8897
:201CE00006EA05152A43154DA84202D0144DA8421DD14FF67F752A404D894FF6FF7606EAF3
:201D000005152A434FF6BF752A408D8806EA05152A434FF6FF352B404FF2FF752B408D89B3
:201D200006EA85052B43CD8906EA85052B4383800483CD880587028470BD0000002C0140F2
:201D40000034014070B5002400220023058C4FF6FF6635400584028C8388848B4FF68F7556
:201D60002C404FF6FC752C400D882C434FF6FF552A400D894FF6FF7606EA05252A434D8822
:201D800006EA05252A43154DA84202D0144DA8421DD14FF2FF752A404D894FF6FF7606EAC6
:041DA00005252A43A8
:00000001FF
