:020000040800F2
:20000000002200204901000855600008BD5D000819600008DF590008756C000800000000C3
:200020000000000000000000000000005D620008E359000800000000056100086D6700086B
:20004000630100086301000863010008630100086301000863010008630100086301000840
:20006000630100086301000863010008630100086301000863010008630100086301000820
:2000800063010008630100086301000863010008630100086301000863010008E559000826
:2000A000630100086301000863010008630100087D6800086301000863010008630100085F
:2000C00063010008630100086301000863010008630100086301000821690008630100089A
:2000E0006301000863010008630100086301000863010008630100086301000863010008A0
:2001000063010008630100086301000863010008630100086301000863010008630100087F
:2001200063010008630100086301000863010008DFF810D005F034FC0048004791A5000866
:20014000AFF30080002200200648804706480047FEE7FEE7FEE7FEE7FEE7FEE7FEE7FEE769
:20016000FEE7FEE71D68000831010008FE49C1F8E80070472DE9F04FDFF8ECB30026044614
:2001800085B0174698468A463546B146DBF8AC0005F086F93A46434605F000FA7ED3DBF89E
:2001A000B00005F07DF93A46434605F00FFAF5D3B4F90000B4F90610401A05F071F93A46AC
:2001C000434605F0EBF900D20126B4F90E00B4F91410401A05F064F93A46434605F0DEF9B7
:2001E00000D2761CB4F91C00B4F92210401A05F057F93A46434605F0D1F900D2761CDB4B02
:20020000012E4BDC00223846414605F02DF807460E46B4F90000B4F90610401A05F040F9AE
:200220003A46334605F0D2F900D20125B4F90E00B4F91410401A05F033F93A46334605F018
:20024000C5F900D26D1C31463E460F46B4F91C00B4F92210401A05F023F932463B4605F034
:20026000B5F900D26D1C002D03DD022005B0BDE8F08F002606EB460004EB80050390B5F95B
:200280000A0005F00DF9DAE9047843463A4604F0E5FF83460091B5F9040000E053E005F025
:2002A000FFF843463A4604F0D9FF5A46009B04F0DBFF83460291B5F9080005F0F1F8DAE9B6
:2002C000027843463A4604F0C9FFCDE90001B5F9020005F0E5F843463A4604F0BFFFDDE925
:2002E000002304F0C1FF80460491B5F9060005F0D7F8DAE900572A463B4604F0AFFFCDE9F1
:200300000001039834F9200005F0CAF82A463B4604F0A4FFDDE9002304F0A6FF4246049B0C
:2003200004F0FBFE5A46029B04F0F7FE0022134605F034F901D209F10109761C032E99DBFF
:20034000B9F1020F01DA012090E700208EE788490A684B68D00180EAD20080EA03104860B2
:200360008B68520380EAC30382EA5312520282EAD0208B600860704770B50546FFF7E7FF2E
:2003800005F073F87B4904F04CFE6FF01F06314604F0B7FE07F0B0FF0446FFF7D8FF05F0A5
:2003A00064F8314604F0ADFE10F0FF4F01D14FF07E5005F0DFF809F03DFF00224FF04043B9
:2003C00004F052FF05F01AF90BF0B6FC294604F028FE2146BDE8704004F023BE2DE9FE4FA6
:2003E000054690460E46184605F0C4F8CDE90010D6E9302304F038FF04460F46404605F05C
:20040000B9F80291F5E93023834604F02DFF22463B4604F082FE65E830010024DDE90010A9
:20042000074606EBC40082460CC8384604F01CFF05EBC4078046D7E9002389465846029925
:2004400004F012FF42464B4604F067FEC7E90001DDE90010DAE9242304F006FFD7E9242394
:20046000804689465846029904F0FEFE42464B4604F053FE641CC7E92401062CCEDB00240C
:20048000DDE90010074606EBC400D0E91223384604F0EAFE05EBC4020746D2E912C38846DB
:2004A000914658460299624604F0DEFE3A46434604F033FE641CC9E91201092CE0DB00242D
:2004C000DDE90010074606EBC400D0E90C23384604F0CAFE05EBC4020746D2E90CC38846C7
:2004E000914658460299624604F0BEFE3A46434604F013FE641CC9E90C01032CE0DBBDE8B8
:20050000FE8F2DE9F04F044691B00F46086804F0C7FFCDE90E0105460E46786804F0C0FFF8
:2005200081468A46B86804F0BBFF83468846D4E930015F460022104B04F0EFFDC4E93001F1
:20054000D4E90C012A46334604F0E7FDC4E90C01D4E90E014A46534604F0DFFDC4E90E01D5
:2005600043463A460AE00000E010002000000440D0000020DB0FC9400000F03FD4E9100154
:2005800004F0CBFDC4E910012A4633462846314604F06AFECDE90501D4E9002304F0BDFD6D
:2005A000C4E900014A4653462846314604F05CFECDE90001D4E9022304F0AFFDC4E9020148
:2005C00043463A462846314604F04EFECDE90301D4E9042304F0A1FDC4E904014A465346E2
:2005E0004846514604F040FECDE90701D4E9062304F093FDC4E9060143463A46484651469A
:2006000004F032FED4E9082304F087FDC4E908013A4643461046414604F026FED4E90A23B8
:2006200004F07BFDC4E90A01DDE905012A46334604F01AFED4E9122304F06FFDC4E91201C3
:20064000DDE900014A46534604F00EFED4E9142304F063FDC4E91401DDE9030143463A46CD
:2006600004F002FED4E9162304F057FDC4E91601DDE900012A46334604F0F6FDD4E91823F5
:2006800004F04BFDC4E91801DDE9070153464A46CA461F46CDE9000104F0E6FDCDE9021096
:2006A000D4E91A2304F039FDC4E91A015D46434646465A465046394604F0D6FD83463346D8
:2006C0002A46049104F0D0FDD4E91C2304F025FDC4E91C01DDE90E839946424631462846D5
:2006E00004F0C2FD42464B4604F0BEFDD4E91E2304F013FDC4E91E01584652463B4604995D
:2007000004F0B2FDD4E9202304F007FDC4E920012A4633461046314604F0A6FD33462A463A
:2007200004F0A2FDCDE90601D4E9222304F0F5FCC4E9220142464B464046494604F094FDFF
:20074000834642464B460C9104F08EFD42464B4604F08AFDD4E9242304F0DFFCC4E9240162
:20076000DDE9021052463B4604F07EFDD4E9262304F0D3FCC4E92601DDE9060133462A46C6
:2007800004F072FDD4E9282304F0C7FCC4E92801584652463B460C9904F066FD52463B4695
:2007A00004F062FDD4E92A2304F0B7FCC4E92A01584633462A460C9904F056FD33462A4601
:2007C00004F052FDD4E92C2304F0A7FCC4E92C01DDE9000133462A4604F046FD33462A4689
:2007E00004F042FDD4E92E2304F097FCC4E92E0111B03CE52DE9F74F0446B8B0D4E90C019B
:2008000002460B46CDE9040104F02EFDD4E90023CDE90C23D4E9305607468846284631465D
:2008200004F022FD43463A4604F018FDCDE90201D4E90E0102460B46CDE91A0104F014FD9F
:20084000D4E906230746884628463146CDE9102304F00AFD43463A4604F000FDCDE900011D
:20086000D4E9100102460B46CDE90E0104F0FCFCD4E90A230746884628463146CDE9142389
:2008800004F0F2FC43463A4604F0E8FCCDE90801DDE91A210B46DDE9040104F0E5FCD4E927
:2008A0000223074688462846314604F0DDFC43463A4604F0D3FC3491DDE90E2182460B46A7
:2008C000DDE9040104F0D0FCD4E90423074688462846314604F0C8FC3A46434604F0BEFC3A
:2008E0008946DDE90E2183460B46DDE91A0104F0BBFCD4E90823074688462846314604F0B2
:20090000B3FC3A46434604F0A9FC07468846DDE90401DDE9142304F0A7FCCDE90A01D4E98E
:2009200016232846314604F09FFCCDE91601DDE90401DDE9102304F097FCCDE91201D4E96C
:2009400014232846314604F08FFCCDE90601DDE90401DDE90C2304F087FCCDE90401D4E990
:2009600012232846314604F07FFCDDE9042304F075FCDDE9062304F0D0FBDDE9122304F0FF
:200980006DFCDDE9162304F0C8FBDDE90A2304F065FC4FF0FF3204F048FDCDE92601DDE9A4
:2009A0001A01DDE9142304F05FFCCDE91601D4E91C232846314604F057FCCDE91201DDE94C
:2009C0001A01DDE9102304F04FFCCDE90A01D4E91A232846314604F047FCCDE90601DDE96A
:2009E0001A01DDE90C2304F03FFCCDE90401D4E918232846314604F037FCDDE9042304F018
:200A00002DFCDDE9062304F088FBDDE90A2304F025FCDDE9122304F080FBDDE9162304F0E2
:200A20001DFC4FF0FF3204F000FDCDE90401DDE90E01DDE9142304F017FCCDE90A01D4E92A
:200A400022232846314604F00FFC0DF1380CCDE906019CE80F0004F007FCCDE91001D4E960
:200A600020232846314604F0FFFBCDE91201DDE90E01DDE90C2304F0F7FBCDE90C01D4E967
:200A80001E232846314604F0EFFBDDE90C2304F0E5FBDDE9122304F040FBDDE9102304F072
:200AA000DDFBDDE9062304F038FBDDE90A2304F0D5FB4FF0FF3204F0B8FC37910546DDE9A0
:200AC0000201DDE9002304F0CFFBDDE9082304F0CBFBCDE90601DDE902013A46434604F03E
:200AE000C3FB3A46434604F0BFFBCDE90A01DDE900015A464B4604F0B7FB5A464B4604F0FD
:200B0000B3FBCDE90C0101225046349904F08DFC5A464B4604F0A8FB3A46434604F0A4FBFD
:200B200006460E91DDE908015246349B04F09CFB5246349B04F098FB32460E9B04F08EFB7D
:200B4000DDE90C2304F0E9FADDE90A2304F0E5FADDE9062304F082FB00221346CDE90C0165
:200B600004F01CFD7ED03A4643465046349904F07BFB2A46379B04F077FBCDE90A01DDE915
:200B800008015246349B04F06FFBCDE92310DDE9042304F069FBCDE90601DDE90001DDE90F
:200BA000082304F061FBDDE9262304F05DFBCDE910013A4643461046194604F055FBDDE9D0
:200BC000262304F051FBCDE90E01DDE904233846414604F049FB06461291DDE900012A4677
:200BE000379B04F041FB3246129B04F037FB5A464B4604F039FBDDE90E2304F08EFADDE916
:200C0000102304F02BFBDDE9062304F086FADDE90A2304F023FBCDE912015A464B4650468F
:200C2000349904F021FB199106462A46379B04F01BFBCDE90A01DDE92310DDE9262304F0D8
:200C400013FBCDE90601DDE90201DDE9082304F00BFBDDE9042304F007FB5A464B46CDE94B
:200C60000E0100E006E11046194604F0FDFADDE9042304F0F9FACDE90801DDE926235846BE
:200C8000494604F0F1FACDE91001DDE902012A46379B04F0E9FADDE9102304F0DFFA3A46F7
:200CA000434604F0E1FADDE9082304F036FADDE90E2304F0D3FADDE9062304F02EFADDE93E
:200CC0000A2304F0CBFACDE90E01DDE904233046199904F0C9FA06460891DDE900015A4651
:200CE0004B4604F0C1FADDE9262304F0BDFACDE90601DDE90201DDE9002304F0B5FA2A4678
:200D0000379B04F0B1FACDE90001349B52461046194604F0A9FA2A46379B04F0A5FADDE95D
:200D200026238B460A905046349904F09DFA0DF1080C054689469CE80F0004F095FA2A465F
:200D40004B4604F08BFA3A46434604F08DFA5B460A9A04F0E2F9DDE9002304F07FFADDE9D5
:200D6000062304F0DAF93246089B04F077FA05460E46DDE91201DDE90C2304F0E7FA399AEE
:200D800081468A46C2E90001DDE90E01DDE90C2304F0DCFA399A07468846C2E90201DDE91A
:200DA0000C232846314604F0D1FA399A05460E46C2E90401D4E9102304F056FA0291D4E9BA
:200DC0000E2383463846414604F04EFACDE90001D4E90C234846514604F046FADDE90023F3
:200DE00004F09BF95A46029B04F097F9012204F01CFB83460091D4E90001D4E9062304F08A
:200E00008CF9D4E90A2304F088F95A46009B04F025FAD4E9302304F099FACDE900012A46E2
:200E200033461046194604F01FFA04468B463A4643461046194604F017FA05460E464A466A
:200E400053461046194604F00FFA2A46334604F064F95B46224604F060F9DDE9002304F0DA
:200E60005CF90AF043FF3A9AC2E9000101203BB0BDE8F08F0020FAE72DE9F34F9DB0044641
:200E80001E98D0E9006732463B463046394604F0EBF9D4E90C939A464A4604F0E5F94A4688
:200EA000534604F0E1F905468846D4E9300132463B46CDE9080104F0D7F932463B46CDE999
:200EC0000B0104F0D1F9D4E90023CDE9062304F0CBF92A46434604F0C1F90191DDE90623A9
:200EE00083463046394604F0BFF94A46534604F0BBF905468846DDE90B01D4E9122304F0E6
:200F0000B3F95A46019B04F0ACF92A46434604F004F9CDE9000101223046394604F085FA24
:200F20001E9ACDE90201D2E9025398462A4604F09BF94A46534604F097F9D4E90E23CDE909
:200F4000042304F091F983460A91DDE90801012204F06BFA32463B46CDE9140104F084F908
:200F600043462A46CDE90F0104F07EF9D4E9022304F07AF9DDE9002304F0CFF85A460A9B15
:200F800004F06CF9CDE900014A4653463046394604F06AF9CDE90D01D4E906B35A460A9355
:200FA00004F062F906460F46DDE90B01D4E9142304F05AF9DDE9002304F053F932463B4612
:200FC00004F0ABF8CDE90001DDE902011E9AD2E904631F46324604F047F94A46534604F0F2
:200FE00043F9D4E91023CDE9022304F03DF981468A46DDE90F013B46324604F035F9D4E97B
:20100000042304F031F9DDE9002304F086F84A46534604F023F9CDE90001DDE90D01D4E9AF
:201020000A939A464A4604F01FF9CDE90E01DDE90B01D4E9162304F017F9DDE9002304F029
:2010400010F9DDE90E2304F068F8CDE90001DDE906016FF0010204F0E8F9DDE9062304F09E
:2010600003F9CDE90C01DDE908016FF0010204F0DCF9CDE90E01D4E9242304F0F5F8DDE947
:20108000002304F04AF8DDE90C2304F0E7F8CDE90001DDE906232846414604F0E5F8DDE9FD
:2010A000042304F0E1F8CDE91201DDE908012A46434604F0D9F8CDE90B01D4E9182304F038
:2010C000D3F8DDE9002304F0CCF8DDE9122304F024F8CDE90001DDE906014FF0FF3204F0B1
:2010E000A4F95A46CDE916010A9B04F0BDF8CDE91A01DDE908014FF0FF3204F096F9CDE94F
:201100001101D4E92A2304F0AFF8DDE9002304F004F8DDE91A2304F0A1F8CDE90001DDE932
:2011200006233046394604F09FF8DDE9022304F09BF8CDE91A01DDE9080132463B4604F007
:2011400093F8CDE90601D4E91E2304F08DF8DDE9002304F086F8DDE91A2303F0DEFFCDE9EC
:201160000001DDE916014A46534604F07DF8CDE90801DDE91101D4E92C2304F075F8DDE935
:20118000002303F0CAFFDDE9082304F067F8CDE900012A4643461046194604F065F8DDE9B0
:2011A000042304F061F8DDE9042304F05DF8CDE91601DDE90B012A46434604F055F85A460C
:2011C0000A9B04F051F8DDE9002303F0A6FFDDE9162304F043F8CDE900015A462846414632
:2011E0000A9B04F041F8DDE9042304F03DF8CDE91601DDE90B01D4E91A2304F035F8DDE987
:20120000002304F02EF8DDE9162303F086FFCDE9000101222846414604F007F932463B465E
:2012200004F022F8DDE9042304F01EF8DDE9022304F01AF8CDE90801DDE914012A46434625
:2012400004F012F832463B4604F00EF8D4E9082304F00AF8DDE9002303F05FFFDDE9082394
:2012600003F0FCFFCDE90001DDE904232846414603F0FAFF4A46534603F0F6FF80460D46D1
:20128000DDE90B01D4E91C2303F0EEFFDDE9002303F0E7FF42462B4603F03FFF05460191D7
:2012A0006FF0010258460A9904F0BFF85A460A9B03F0DAFF80460091DDE90E01D4E926239D
:2012C00003F0D2FF2A46019B03F027FF4246009B03F0C4FF80460D465A46304639460A9BF9
:2012E00003F0C2FFDDE9022303F0BEFFCDE90001DDE90601D4E9202303F0B6FF42462B467A
:2013000003F0AFFFDDE9002303F007FF054688464FF0FF3258460A9904F087F84A465346E4
:2013200003F0A2FF83460091DDE91101D4E92E2303F09AFF2A46434603F0EFFE5A46009B39
:2013400003F08CFF0546884632463B461046194603F08AFFDDE9022303F086FFDDE902237E
:2013600003F082FF83460091DDE9060132463B4603F07AFF4A46534603F076FF2A464346E3
:2013800003F0CBFE5A46009B03F068FF054688464A4653463046394603F066FFDDE9022382
:2013A00003F062FF06460F46DDE90601D4E9222303F05AFF2A46434603F053FF32463B46E6
:2013C00003F0ABFE074688466FF001024846514604F02BF84A46534603F046FF06460D46B8
:2013E000DDE90E01D4E9282303F03EFF3A46434603F093FE1FB032462B46BDE8F04F03F0C4
:201400002DBF30B50446B0F88C0089B000040690B4F88E000D4600040790B4F8900088348A
:201420000004089002A807F041FC029906982B46401A06900399079806AA401A079004991F
:201440000898401A08902088616A80B207F07EFA09B030BD2DE9F04786B00D466946FFF7C5
:20146000D0FF002637463446E9466FF00F0A0DF10C0859F8240003F0EFFF514603F041FEA8
:2014800048F82400014603F0CCFD04F073F832463B4603F042FE641C06460F46032CE8DB47
:2014A0000AF024FC06460F46002458F8240004F061F832463B4603F049FF04F09FF855F880
:2014C000241003F056FD45F82400641C032CECDB686D401C686507F0C9FEE86706B0BDE855
:2014E000F0872DE9F041044607F08AFC40BB07F00BFC042824D0FE4920460E46FFF7AAFFAE
:20150000FC4DD5E95C01814205DB304603F0FDF90020C5F87401208E4FF00406C00515D56D
:2015200004F1180007F05EFC8009B0F5C87F0AD2D5F8B800002850DD401EC5F8B8004AE025
:201540000120BDE8F081C5F8B86044E0D4F8A010D5F81401081A01D4034600E04342E44A2A
:201560004FF4A02C583A634505DDD4E929035365C2E913102FE00312D4F8A470D5F81801E7
:201580005B43381A01D4864601E0C0F1000EE64505DDD4F8A800D164C2E914701BE0001228
:2015A00000FB0033D4F8A800D5F81C11401A01D4014600E0414261450DDC001200FB0030EA
:2015C000B0F5403FB4DBA034C5F8B86094E80B004C3282E80B000020B3E70220B1E72DE9AB
:2015E000F04F93B0C34CD0E90023D4F8A81004EBC101C1E90023D4F8A810491CC4F8A8101F
:20160000D0E9022304EBC101C1E90023D4F8A810491CC4F8A810D0E9042304EBC100C0E9D8
:201620000023D4F8A800401CC4F8A800152802DB0020C4F8A8001822AE490CA803F05AFC87
:201640001822AC4904A803F055FC01260DF130090DF1100AA346002406EB460808EB0401B1
:201660000BEBC10509EBC407D5E90023D7E9000103F0ACFF03D2D5E90001C7E90001D5E9AC
:2016800000230AEBC407D7E9000103F087FF03D2D5E90001C7E90001641C032CDEDB761CEE
:2016A000072ED8DBDDE90401DDE90C2303F0D6FD05460C46DDE90601DDE90E2303F0CEFD9D
:2016C0002A46234603F06AFF02D22846214605E0DDE90601DDE90E2303F0C0FD05460C4636
:2016E000DDE90801DDE9102303F0B8FD2A46234603F054FF04D213B028462146BDE8F08FC9
:20170000DDE90801DDE9102313B0BDE8F04F03F0A5BD2DE9F0419CB0064600240E945520EB
:20172000CDE90F401190744D0AA807F089FA12A90AA807F09FFE16AA0EA912A807F0B5FE3A
:201740006A460AA916A807F0B0FE01986B4F00F596700190029800F596700290039800F52D
:20176000967003903846FEF707FE03F0AAFE0199084401903846FEF7FFFD03F0A2FE0299A9
:20178000084402903846FEF7F7FD03F09AFE039908440390304601A9FEF7B3FED6E9300148
:2017A0000022574B03F012FF35D21AAA04A93046FFF720F878B3DFF84C81DDE908010022A5
:2017C000434603F04BFD02460B4603F04DFD06460F46DDE906010022434603F03FFD0246DF
:2017E0000B4603F041FD04460D46DDE904010022434603F033FD02460B4603F035FD22460B
:201800002B4603F08AFC32463B4603F086FC0AF06DFA04460D461CB020462946BDE8F041FB
:201820000022394B03F092BD10B5E821374803F088FB3048364920F8BC1F4A0CC280C18139
:201840008282818342842B48E821E83803F079FB28490020C1F8B40010BD2DE9F04F254F23
:201860000446C5B0006BC7F8A0012046FFF739FE00287DD1D7F8941107F1BC003D900129B6
:2018800011D1B4F98C004090B4F98E004190B4F99000429040A91D48FEF733FE04F18C014C
:2018A0003D9800F023FBD7F80801002802DD401EC7F8080115480022E8381346D0E930510E
:2018C000284603F083FE7CD21049E822E839684603F010FB0D4840A9E838FEF712FE0B49F1
:2018E0003EAA2039A1F1C8004391FEF783FF11E000120020E010002000408F400000284157
:201900000000344000C0724000000840100F00200080FFFF002866D0FE484399FFF7ACFAC0
:20192000D7E9402305460E46E03703F097FCDFF8E4B380468946DBE930010022F64B03F0FA
:201940008DFC02460B464046494603F0FFFC0AF0CDF9DBE9308B81468A460022EE4B4046AB
:20196000594603F07BFC42465B4603F07DFC00E0C1E080468B4601222846314603F055FD64
:2019800042465B4603F0E2FC0AF0B0F9B86803F0F1FD77E8382303F067FC4A46534603F07D
:2019A000FDFD03D3D7F80801002822DDE8226946D84803F09FFAD7F8E800E03703F0DAFD5B
:2019C00000E00FE077E8382303F04EFC4A46534603F0E4FD4CD24FF4FA7001F07BFD0A20E6
:2019E000C7F8080144E0E8226946CA4803F082FA3EE0D7F8980101283AD1D7F8B400401C28
:201A0000C7F8B400002008F03FFADFF808831022D8E9320103F009FD03F08DFD3A90D8E979
:201A20003401102203F001FD03F085FD3B90D8E93601102203F0F9FC03F07DFD3C9003219F
:201A40003AA808F085F9D8E930010022B34B03F0BDFD0BD2B24A414613460846FEF7BEFCB9
:201A600040464399FFF708FA05460E46C7E94056208EC00509D5B4F87400C00505D5A94826
:201A8000FFF747FE05460E4601E0A74E0025A1480022E830A54BD0E9301C0846614603F071
:201AA0007DFD28D39F493EAA2039A1F1C8000291FEF7A0FE00287DD0D4F8AC0003F0F0FC3C
:201AC00002460B469A489B4903F040FC804689460298FFF784FD82468B4642464B4603F02D
:201AE00075FD09D20022944B2846314603F056FD02D2FFF799FE8EE142464B46504659464F
:201B000003F04CFD7ED200228C4B2846314603F045FDF7D27F4E0022E836894BD6E930018C
:201B200003F054FDEED2DFF8ECB100221346DBE9300103F033FD72D130460299FFF79CF9BB
:201B4000B84607F58077B14603C7D6F8C060D9F8C47004460D4600226F4B3046394603F07F
:201B60007DFB32463B4603F07FFB06460F4601222946204603F059FC32463B4603F0E6FBD9
:201B80000AF0B4F804460D46D8F8E80003F0F2FCD8E9382303F068FB22462B4603F0FEFC31
:201BA000A7D33DAC029994E80D00FEF7E3FA02289FD000E030E100289DD1D8F8980101281A
:201BC00099D1002008F060F94C461022F4E9320103F02BFC03F0AFFC3A90D4E902011022E2
:201BE00003F023FC03F0A7FC3B90D4E90401102203F01BFC03F09FFC3C9003213AA808F01C
:201C0000A7F801E0FDE00AE0012008F0D1F8192003900490059003A808F0C0F8E8E0B94684
:201C2000D7F8B40003F03CFCD6E9302303F08EFB444A454B03F0CAFCB2D336480299E830DB
:201C4000FFF71AF9B246D6F8C060DAF8C47080460D460022304B3046394603F0FFFA324680
:201C60003B4603F001FB06460F4601224046294603F0DBFB32463B4603F068FB0AF036F8FB
:201C800006460F46D9F8E80003F074FCD9E9382303F0EAFA32463B4603F080FCCCD33DAEA1
:201CA000029996E80D00FEF765FA00287ED15F465646D7E93623D6E93601C836C83703F0F3
:201CC000CDFA02460B4603F0CFFAD7E9022382468B46D6E9020103F0C1FA02460B4603F06E
:201CE000C3FACDE90001D7E9002376E8320103F0B5FA02460B4603F0B7FADDE9002303F041
:201D00000CFA52465B4603F008FA09F0EFFF07468A461BE0280E00200000F03F00409F40EC
:201D20006666E63EF80F002000000840000034409A9999999999A9410000F83F00001040C8
:201D400000003E400AD7A3703D0AE73FD4F8AC0003F0A6FB3A46534603F086FA6FF01D028E
:201D600003F063FB04460F4600228D4B03F02EFC15D300228B4B2046394603F027FCBFF4CE
:201D8000B8AED9F8B40003F08BFBD6E9302303F0DDFA4FF03332844B03F000FCEFD2D9F80F
:041DA00098014C4614
:00000001FF
