:020000040800F2
:10000000E824002031020008952A0008C9230008CE
:10001000572A000829190008614100080000000063
:100020000000000000000000000000001335000880
:10003000C119000800000000C12B00083938000871
:100040004B0200084B0200084B0200084B0200085C
:100050004B0200084B0200084D1A00084B02000832
:100060004B0200084B0200084B0200084B0200083C
:100070004B0200084B0200084B0200084B0200082C
:100080004B0200084B0200084B0200084B0200081C
:100090004B0200084B0200084B020008811A0008BE
:1000A0004B0200084B0200084B0200084B020008FC
:1000B000A138000821390008B93900084B020008AE
:1000C0004B0200084B0200084B0200084B020008DC
:1000D0004B0200084B0200084B0200084B020008CC
:1000E000571A00084B0200084B0200084B02000898
:1000F0004B0200084B0200084B0200084B020008AC
:100100004B0200084B0200084B0200084B0200089B
:100110004B0200084B0200084B0200084B0200088B
:100120004B0200084B0200084B0200084B0200087B
:1001300000F002F800F06DF80AA090E8000C82448C
:100140008344AAF10107DA4501D100F062F8AFF269
:10015000090EBAE80F0013F0010F18BFFB1A43F0A5
:100160000103184768940000889400000A444FF087
:10017000000C10F8013B13F0070408BF10F8014B06
:100180001D1108BF10F8015B641E05D010F8016B4B
:10019000641E01F8016BF9D113F0080F1EBF10F8AF
:1001A000014BAD1C0C1B09D16D1E58BF01F801CBD2
:1001B000FAD505E014F8016B01F8016B6D1EF9D555
:1001C0009142D6D37047000000230024002500266A
:1001D000103A28BF78C1FBD8520728BF30C148BFAA
:1001E0000B607047662908F06085642900F04E8036
:1001F000782900F08780002070471FB500F0B2FC1E
:1002000004000020002107F04BFBE0601FBD10B58B
:1002100010BD00F0C7FD1146FFF7EFFF05F00CFC25
:1002200000F0E5FD03B4FFF7F2FF03BC04F021FF8B
:100230000948804709480047FEE7FEE7FEE7FEE77A
:10024000FEE7FEE7FEE7FEE7FEE7FEE704480549B6
:10025000054A064B7047000041380008310100088C
:10026000E81E0020E8240020E8200020E8200020EC
:10027000704700000FB4044910B503AA029800F0BB
:100280002DFC10BC5DF814FB6C0000202DE9F04142
:100290000646002410687529314616A510D0AFF324
:1002A0000080002802DA404213A507E031688A077F
:1002B00001D512A502E0490704D511A5012401E0EA
:1002C000AFF3008000210A2206F1240709E0B0FB09
:1002D000F2FCB0FBF2F302FB1C00303078541846FD
:1002E000491C0028F3D123462A463046BDE8F04198
:1002F00000F08CB9000000002D0000002B00000071
:100300002000000070B504460D4621461068AFF38A
:1003100000802188090502D50F4A7A4402E00E4A7E
:100320007A440E32002104F1240305E000F00F06A8
:100330000009965D5E54491C0028F7D120780023FF
:10034000000704D5702D02D009B1022311322046D6
:10035000BDE8704000F05AB9DE9000002DE9F05F72
:10036000894604464FF0000ADFF824B1FB44C0F888
:1003700020A02046E168884700287DD0252806D0A7
:10038000D4E901219047206A401C2062F1E7002552
:100390005F462046E16888472028064607DB312E65
:1003A00005D2B81910F8200C08B10543F1E7A807E9
:1003B00001D525F00405C4F81CA00027C4F818A036
:1003C0002A2E09D0304604F04DFE38B304EB8708DE
:1003D000303EC8F8186019E059F8041B204604EBB9
:1003E00087029161E1688847012F064618D1E069CC
:1003F000002820DA25F020051DE0D8F8180000EBD1
:10040000800006EB40003038C8F818002046E1684C
:100410008847064604F026FE0028EED1012F0AD0B8
:100420002E2E08D12046E16888477F1C0646022F01
:1004300045F02005C4DBA069002803DA404245F0FE
:100440000105A061E80701D025F01005A6B1A6F1CD
:100450004100192802D8203645F400654A46314645
:10046000204625604D46FFF7BDFE60B1012807D04C
:10047000ED1D25F0070000E007E000F1080978E72E
:1004800005F1040975E730467AE7206ABDE8F09F78
:10049000B490000010B5431C02E010F8011B71B1CC
:1004A0008107FAD14FF0013202C88C1A8C4314EA4A
:1004B000C211F9D0C01A0A0603D0C01E10BDC01A5E
:1004C00010BD0A0401D0801E10BD0902FCD0401EE0
:1004D00010BD032A40F2308010F0030C00F01580AC
:1004E00011F8013BBCF1020F624498BF11F801CB37
:1004F00000F8013B38BF11F8013BA2F1040298BF9C
:1005000000F801CB38BF00F8013B11F0030300F005
:10051000F782083AC0F0088051F8043B083A51F8D5
:1005200004CBA0E80810F5E7121D5CBF51F8043BAE
:1005300040F8043BAFF30080D20724BF11F8013B21
:1005400011F801CB48BF11F8012B24BF00F8013B83
:1005500000F801CB48BF00F8012B70474FF00002B4
:100560000429C0F0128010F0030C00F01B80CCF1C5
:10057000040CBCF1020F18BF00F8012BA8BF20F833
:10058000022BA1EB0C0100F00DB85FEAC17C24BF87
:1005900000F8012B00F8012B48BF00F8012B704731
:1005A0004FF0000200B5134694469646203922BF0C
:1005B000A0E80C50A0E80C50B1F12001BFF4F7AF57
:1005C000090728BFA0E80C5048BF0CC05DF804EB39
:1005D000890028BF40F8042B08BF704748BF20F8A7
:1005E000022B11F0804F18BF00F8012B70477047A5
:1005F00070477047704710B500F0B8FA006810BD3A
:1006000010B5044600F0B2FA046010BD2DE9F047C1
:100610000D4699469246044600F124080168880672
:1006200004D5E06921F01001216000E00120A8421A
:1006300001DD471B00E00027A1697A1902EB0900E0
:10064000081AA0612078C00602D42046AFF30080CB
:10065000002608E0D4E901211AF806009047206A34
:10066000401C761C20624E45F4DB2078C0060AD57B
:100670002046AFF3008006E0D4E901213020904706
:10068000206A401C2062381EA7F10107F4DC07E055
:10069000D4E9012118F805009047206A401C206227
:1006A000281EA5F10105F3DC2046AFF30080207879
:1006B000000602D50220BDE8F0870120FBE7704765
:1006C0002DE9FF4F0C461E464FF0FF378BB0D2E9A5
:1006D0000001DDF860800A908A46C1F30A5505B929
:1006E0003D46002108464FF00000BAF1000F00F42B
:1006F000400005DA00EB80004FF4400101EA5000B1
:100700004FEA9059B9F1010F00DDB9460A9850EA55
:100710004A000ED044F61050A5F2FF3545432F1481
:10072000B8F1000F1ED07542291E1EDDC9F100026E
:100730001CE0B8F1010F4FF0000001D0302103E0C0
:10074000F24305E02154401CB042FBDB304600225E
:10075000002121540B99C1F80880C1E900200FB095
:10076000BDE8F08FBD1B6D1CDEE74A4600DA69422A
:1007700006A800F09DFA06AB93E8070003AB83E8F8
:10078000070050460A9900F07BFB8DE80700A0F5B2
:1007900000501F3800900398002D0ADD42F21F011F
:1007A0004A460844002303A90390684600F0E4FD8C
:1007B00009E0A0F500504A461F38002303A9039022
:1007C000684600F0EEFD8DE807000004000C03D041
:1007D0004FF0FF30410800E01046B8F1000F03D0A1
:1007E0000022009215461EE0751E05D400F0C2F9E5
:1007F000303262556D1EF9D5B3460122084302D04E
:1008000000227F1C04E02078302801D100227F1EC6
:10081000002A099784D01DE0112D07DA00F0AAF90B
:10082000303262556D1C50EA0102F5D1084302D006
:100830000098C8B10EE00021681E05E0235C625CF0
:1008400063542254401E491C8142F7DBAB46A81B6F
:10085000401E0990002004F80B000B98099AC0F87C
:100860000880C0E9002B7AE711264FF0000857E70F
:100870002DE9F04F88460446D21D22F0070191B0C1
:10088000D1E90001CDE90A0104F090FA02460B9883
:10089000C00F01D02D2007E02068810701D52B2053
:1008A00002E0202101EAC000032A099001D0072AB2
:1008B00005DB03464146204600F0BAF90BE12078FB
:1008C000800601D5E06900E00620B8F1650F814699
:1008D00006D0B8F1660F18D0B8F1670F70D131E0CB
:1008E0000020B9F1110F009001DB112301E009F1A3
:1008F00001030AAA01A90CA8FFF7E2FEDDE90C70CA
:10090000002609F10105834647E001204B4600908F
:100910004FF000470AAA01A90CA8FFF7D1FEDDE9B4
:100920000DB00C995D46002610B909F101000D18B3
:10093000B9EB050003D4C0F1FF3609F10105A5EBC1
:1009400009002BE0B9F1010F01DA4FF00109002095
:10095000B9F1110F0090484601DD112300E0034674
:100960000AAA01A90CA8FFF7ABFEDDE90C704D4601
:1009700000268346207800070AD4AB4500DA5D469E
:1009800001A8012D04DD411911F8011C302907D0FF
:100990004F4502DA17F1040F04DA012082460FE016
:1009A0006D1EEEE7002F02DCED1B3E4403E0781CD9
:1009B000A84200DD7D1CB81B00F1010A4FF0004782
:1009C0002078000703D4AA4501DB4FF0FF3A00214D
:1009D000B7F1004F0DF143088DF8431024D00220E9
:1009E0002B23002F01DA7F422D230A21021EA0F1C2
:1009F000010000DC5FB197FBF1FC97FBF1F201FB1A
:100A00001C7C17460CF1300C08F801CDEEE7A8F17C
:100A1000010003702188090501D5452100E0652109
:100A2000A0F1010800F8011C09980FA9A1EB080723
:100A3000FF1D00B10120411901EBEA70A1693844A2
:100A4000081A401EA0612078C00602D42046AFF3E9
:100A50000080099828B1D4E901219047206A401C00
:100A600020622078C00622D52046AFF300801EE029
:100A7000002E04DBB34502DD01A8805D00E03020DC
:100A8000D4E901219047206A401C2062761CAAF11B
:100A900001005FEA000A0AD100F064F8C06801684A
:100AA000405CD4E901219047206A401C2062281E46
:100AB000A5F10105DCDC07E0D4E9012118F8010B00
:100AC0009047206A401C2062381EA7F10107F3DC22
:100AD0002046AFF30080032011B041E6074B70B50C
:100AE0000D467B4400F091F80446284600F052F988
:100AF00010B14FF0FF3070BD204670BD134B0000A9
:100B000010B5203AC0F00B80B1E81850203AA0E8A8
:100B10001850B1E81850A0E81850BFF4F5AF5FEADC
:100B2000027C24BFB1E81850A0E8185044BF18C98F
:100B300018C0BDE810405FEA827C24BF51F8043B36
:100B400040F8043B08BF7047D20728BF31F8023B8A
:100B500048BF11F8012B28BF20F8023B48BF00F81E
:100B6000012B704700487047A41E002000487047C2
:100B7000841E002030B5B0F10A024FEA900E71F1E8
:100B800000034EEA817EB0EB0E0061EB91014FEA6B
:100B9000101E4EEA017E10EB0E0041EB11114FEAE0
:100BA000102E4EEA016E10EB0E0041EB11214FEAC0
:100BB000104E4EEA014E10EB0E0041EB1141401871
:100BC00041F100014FEAD00040EA41704FEAD10103
:100BD00010EB80054FEA810444EA907444EB010471
:100BE0006D1944EB0404521BA3414FF0000348BFAE
:100BF0000A3200D530BD401C41F1000130BD00007B
:100C000001694A1C02610878704700B58FB0CDE9D0
:100C100001310021059105497944CDE903101146C0
:100C20006846FFF79BFB0FB000BD0000E5FFFFFF2C
:100C30002DE9F0411F46044603260168072A01F406
:100C4000006004DB08B116A505E016A503E008B1B5
:100C500015A500E015A521F010002060A069C01EB8
:100C6000A0610FB1401EA0612046AFF300804FB1DC
:100C7000D4E9012138469047206A401C2062C01CFC
:100C8000206206E0206AFAE7D4E9012115F8010B99
:100C90009047761EF8D22046AFF30080BDE8F08181
:100CA0004E414E006E616E00494E4600696E660010
:100CB0002DE9F047814616468AB0354878440DC87C
:100CC0008DE80D0032487844801C03AC0DC884E8E0
:100CD0000D0041F69B300844372190FBF1F290FB68
:100CE000F1F5A5F1800501FB12041B3C02D564421D
:100CF000012000E00020DFF898A080460027FA4499
:100D0000AAF1BE0A0EE0E0070AD03246684607EBB9
:100D1000470101230AEB810100F043FB8DE8070046
:100D200064107F1C002CEED1194F7F44AE3F19E0B8
:100D3000E80715D007EB04100DF1180A90E80E0033
:100D40008AE80E00C068F04201D198190890324636
:100D5000012306A903A800F024FB03AB83E80700E6
:100D60006D10641C002DE3D14FF00103324669463B
:100D7000B8F1000F03A802D000F0FEFA01E000F085
:100D800010FBC9E90001C9F808200AB0BDE8F087E6
:100D9000A4880000007B00F0800070470048704786
:100DA000841E00207546FFF7F9FFAE460500694630
:100DB000534620F00700854618B020B5FFF746FAE5
:100DC000BDE820404FF000064FF000074FF000084C
:100DD0004FF0000B21F00701AC46ACE8C009ACE8CD
:100DE000C009ACE8C009ACE8C0098D46704710B531
:100DF0000446AFF300802046BDE81040FFF712BA6A
:100E00004FF0013C50F8042B51F8043B9A4221D199
:100E1000A2EB0C03934313EACC1317D150F8042B25
:100E200051F8043B9A4215D1A2EB0C03934313EA09
:100E3000CC130BD150F8042B51F8043B9A4209D142
:100E4000A2EB0C03934313EACC13DBD04FF000006A
:100E5000704700BFD01A01BAB1FA81F101F0180150
:100E600022FA01F0CB40C1F12001DBB2C0B2C01ABE
:100E70002CFA01F3D11A914311EAC311E6D170475C
:100E80005FEA400C08BF91F0000F4FEA8C234FEA55
:100E9000C12243EA51514FEA1C5018BF00F5F040FF
:100EA0004FEA300018BF41F000415FEA6C5C00F08F
:100EB0002980BCF1FF3F08BF40F080407047130C11
:100EC00006BF12044FF0100C4FF0000C130E04BFBD
:100ED00012020CF1080C130F04BF12010CF1040CE8
:100EE000930F04BF92000CF1020CD30F04BF520009
:100EF0000CF1010C11464FF00002A0F11F00A0EB15
:100F00000C00704711F0004F08BF704731F00041EE
:100F10003FF4D5AF0B0C06BF09044FF0100C4FF097
:100F2000000C0B0E04BF09020CF1080C0B0F04BFE0
:100F300009010CF1040C8B0F04BF89000CF1020CA9
:100F4000CB0F04BF49000CF1010CCCF12003A0EB46
:100F50000C0022FA03F302FA0CF241EA030100F159
:100F60000100704720F07F4C80EA030023F07F47A8
:100F7000ACEB070303F57C5300F0004003F1FF03E3
:100F80002DE980494FEA154B09B44FEA144325EA8D
:100F90000B4E24EA03480FF2042606EB13274908F8
:100FA0003E785FEA320203FB0667C7F5000707FBDE
:100FB00006F64FEA54374FEAD64606F1020607FB1B
:100FC000066CCCF1005C4FEA1C472CEA074C07FB8F
:100FD00006F40CFB06F504EB15464FEA961634BFF3
:100FE00000204FF000404FEAD13706FB07FC4FEAE4
:100FF0001C4C0CFB0BF7D21B03FB0CF761EB07013E
:101000000CFB0EF7B0EB074072EB17420CFB08F736
:1010100034BFA2EB0742B2EB074261EB17414FEA44
:101020000C444FEA910706FB07FC4FEA1C4C0CFBF3
:101030000BF7B0EBC74072EB573203FB0CF734BF32
:10104000A2EBC742B2EBC74261EB57310CFB0EF784
:10105000B0EBC70072EB57720CFB08F734BFA2EB82
:10106000C702B2EBC70261EB5771039F4FEA816180
:1010700041EA921104EBCC044FEAD1374FEA826285
:1010800006FB07FC42EA90124FEA80604FEA1C4CD4
:101090000CFB0BF7D21B03FB0CF761EB07010CFBFE
:1010A0000EF7B0EB074072EB17420CFB08F734BFAA
:1010B000A2EB0742B2EB074261EB17414FEA8C55B6
:1010C0004FEA910704EB9C2406FB07FC4FEA1C4CFB
:1010D0000CFB0BF7B0EBC74072EB573203FB0CF77E
:1010E00034BFA2EBC742B2EBC74261EB57310CFBF6
:1010F0000EF7B0EBC70072EB57720CFB08F734BF6A
:10110000A2EBC702B2EBC70261EB577115EB4C259E
:101110004FEA816141EA92114FEA82624FEAD13788
:1011200042EA901206FB07FC44F100044FEA80609B
:101130004FEA1C4C0CFB0BF7D21B03FB0CF761EBCB
:1011400007010CFB0EF7B0EB074072EB17420CFBEC
:1011500008F734BFA2EB0742B2EB074261EB17413D
:1011600015EB1C154FEA813141EA92414FEA823278
:1011700042EA90424FEA80304FEA0C7644F1000494
:1011800048EA03434EEA0B484FF0000EB2EB080C5E
:1011900071EB030724BF624639464EEB0E0E4FF04B
:1011A000000B0018524149414BEB0B0BB2EB080C02
:1011B00071EB03077BF1000B24BF624639464EEB0F
:1011C0000E0E4FF0000B0018524149414BEB0B0B38
:1011D000B2EB080C71EB03077BF1000B24BF6246F6
:1011E00039464EEB0E0E51EA020718BF46F00106D3
:1011F00016EB0E7655F1000254F1000103D5BDE85F
:101200008901BDE80088BDE88901BDE80048B6193C
:10121000524141EB0101A3F10103704780807F7EC1
:101220007D7C7B7A7978777676757473727171705C
:101230006F6E6E6D6C6C6B6A6A696868676666650E
:101240006464636362616160605F5F5E5E5D5D5C9C
:101250005C5B5B5A5A59595858575756565555550D
:101260005454535352525251515050504F4F4F4E6D
:101270004E4D4D4D4C4C4C4B4B4B4A4A4A494949BB
:1012800048484847474747464646454545444444FD
:10129000444343434342424242414141002B9C4626
:1012A00030D477002BD01CB54FEA370703B44FF08A
:1012B00010004FF01001BAF1000F06D0BCF1000F82
:1012C000DCBF40F0080040F008014FF000000FBC08
:1012D000BDE810400BF1010BBBF1010F08BF5FEA45
:1012E000170722BF12F1010211F101014FF0004175
:1012F00043F1000300F0004043EA00007047F9D3D7
:101300005708D0E746EA064613F1400F4FEA164663
:101310001FDD13F1200FDFBF16430A4600212033E3
:101320005B42BED0C3F1200746EA064602FA07F741
:101330004FEA164646EA0706C3F1200722FA03F2EF
:1013400001FA07F721FA03F14FF0000342EA07021E
:10135000A7E746EA020646EA06464FEA164646EA86
:101360000106BCBF46EA0646360C4FF000034FF0BC
:1013700000024FF0000194E72DE9804C9A46934615
:1013800070B491E8380007C831EA400C48BF34EA2D
:10139000430C03D5FFF7E6FDFFF780FFF0BCBDE887
:1013A000008C2DE9804C9A46934670B491E8380041
:1013B00007C810F0804F08BF13F0804F03D100F032
:1013C00005F8FFF76BFFF0BCBDE8008C20F07F470D
:1013D00080EA030023F07F4C07EB0C03A3F57C535A
:1013E00000F00040A3F1FE0392F0000F00F0B38084
:1013F00095F0000F00F077802DE901494FEA114088
:101400004FEA144621EA004800FB06FC24EA06479E
:1014100008FB06F607FB08F800FB07F718EB064881
:101420004CEB164C4FEA124B18EB07484FEA1546A7
:101430004CEB174022EA0B4E0BFB06FC25EA064755
:101440000EFB06F607FB0EFE0BFB07F71EEB064E28
:101450004CEB164C4FF000061EEB074E4CEB174BB7
:1014600018EB0B0840F1000018EB0E0B58EB0008CE
:1014700040F100008F1A4FF000013CBFC943661BCA
:1014800014BFB5EB040C00213CBFC943F61B4FEA67
:1014900017444EEA8E0E27EA04454FEA1C4704FB28
:1014A00007622CEA074C05FB07F70CFB05F604FB6B
:1014B0000CFC16EB074642EB174216EB0C4642EBD0
:1014C0001C421BEB060658EB0202414146EA9E060F
:1014D00001D5BDE80189B619524141EB0101A3F1E3
:1014E0000103BDE801894FEA14454FEA114724EA98
:1014F000054621EA074C05FB07F406FB07F70CFB42
:1015000006F105FB0CFC11EB074144EB17444FEAD5
:10151000124711EB0C4144EB1C4422EA074C05FB3B
:1015200007F206FB07F70CFB06F605FB0CFC16EBB7
:10153000074642EB174216EB0C4642EB1C456A1875
:1015400054F1000148BF7047B619524141EB010107
:10155000A3F10103704795F0000F37D04FEA114215
:101560004FEA144721EA024624EA074C02FB07F13E
:1015700006FB07F70CFB06F402FB0CFC14EB07441C
:1015800041EB17414FEA154714EB0C4441EB1C416A
:1015900025EA074C02FB07F506FB07F70CFB06F6EE
:1015A00002FB0CFC16EB074645EB174516EB0C4609
:1015B00045EB1C42121951F1000148BF7047B619A2
:1015C000524141EB0101A3F1010370474FEA144579
:1015D0004FEA114724EA054621EA074C05FB07F1CB
:1015E00006FB07F70CFB06F24FF0000605FB0CFCB0
:1015F00012EB074241EB174112EB0C4251EB1C413D
:1016000048BF7047921841EB0101A3F101037047F5
:1016100021B1826842F00102826003E0826822F018
:10162000010282607047000010B5044612488442EF
:1016300008D10121401501F0A5FB0021601501F042
:10164000A1FB17E00D48844208D10121001501F0EB
:1016500099FB0021201501F095FB0BE0084884421E
:1016600008D10121C80301F08DFB00214FF4004097
:1016700001F088FB10BD000000240140002801405B
:10168000003C0140014600208A6802F004020AB1D1
:10169000012000E0002070470146C86C80B270470E
:1016A0000246002013680B400BB1012000E000202F
:1016B0007047014600208A6802F008020AB1012042
:1016C00000E000207047000030B5024600200023F3
:1016D00050680F4C20400D790C6844EA05242043E3
:1016E000506090680B4C2040D1E902542C434D7956
:1016F00044EA450420439060D06A20F470000C7CDA
:10170000641EE4B2234340EA0350D06230BD0000BF
:10171000FFFEF0FFFDF7F1FFF0B504460D46002097
:101720000021092D11DDE068A5F10A0606EB460748
:10173000072606FA07F18843A5F10A0606EB4606D6
:1017400003FA06F10843E0600CE0206905EB450769
:10175000072606FA07F1884305EB450603FA06F16A
:1017600008432061072A0FDA606B561E06EB8607D6
:101770001F2606FA07F18843561E06EB860605FA71
:1017800006F10843606322E00D2A0FDA206BD61FB2
:1017900006EB86071F2606FA07F18843D61F06EBDD
:1017A000860605FA06F10843206310E0E06AA2F11C
:1017B0000D0606EB86071F2606FA07F18843A2F1FD
:1017C0000D0606EB860605FA06F10843E062F0BD59
:1017D000816841F008018160704721B1826842F45C
:1017E000A002826003E0826822F4A0028260704757
:1017F000816841F0040181607047000030B1074901
:10180000096841F40001054A116005E003490968CF
:1018100021F40001014A11607047000008240140D2
:1018200008B50121042001F09DFA4FF6FF60ADF8E4
:10183000000002208DF8020000208DF803006946A8
:101840000A4800F065FB0121082001F08BFA40F600
:10185000F770ADF8000002208DF8020000208DF82E
:1018600003006946024800F053FB08BD0008014030
:10187000000C014010B500210148FFF7C9FE10BD62
:101880000024014000B587B001214FF4017001F040
:1018900069FA4FF4004001F039FA0220ADF8040073
:1018A00000208DF8070001A9194800F031FB194804
:1018B000FFF7BAFE002002908DF80C008DF80D00A5
:1018C0004FF4602004900020059001208DF818004E
:1018D00002A91048FFF7F8FE0120FFF78FFF012152
:1018E0000C48FFF795FE0B48FFF772FF00BF094851
:1018F000FFF7DFFE0028FAD10648FFF779FF00BFA7
:101900000448FFF7BFFE0028FAD107B000BD000071
:10191000000801400024014010B5012005F064FFDB
:10192000022005F061FF10BD00BFFEE710B5FFF714
:10193000F3FFC82003F08CFD1B48006840680122BB
:10194000114643684FF47A709847FFF793FF0821D8
:10195000164800F0C5FB20E015494869804701287A
:101960000ED100201349086001201349C1F8B401C9
:101970001049091D086000200F49C1F890010CE0D2
:1019800000200C49091D086001200B49C1F8B40171
:10199000C1F8B80109494868804705490869804786
:1019A0000128D9D010BD000004000020000801402B
:1019B00034010020B881214200802142A40000208F
:1019C000704700000348006820F400600149086087
:1019D00070470000000401400348006820F4807054
:1019E00001490860704700000004014010B5124929
:1019F0000968C868804790B910480068401C0F49C2
:101A000008600846006841F27071884212D10C48A3
:101A1000407901280ED100200A4908600AE00A48EE
:101A20000078401CC0B208490870322802DD00204E
:101A30000249086010BD00000C00002020000020BA
:101A400010000020908121421700002010B50120D5
:101A500000F026F810BD10B54FF4006000F026F835
:101A600018B14FF4006000F01BF84FF4805000F004
:101A70001DF818B14FF4805000F012F810BD0000AE
:101A800010B54FF4807000F011F830B14FF4807051
:101A900000F006F801200149087010BD8001002007
:101AA000014908607047000014040140014600200D
:101AB0000022074B1B6803EA0102054B14331B6825
:101AC0000B4013B10AB1012000E000207047000074
:101AD00000040140002123498279002A3AD00A46B5
:101AE000126803689A430B461A600A1D126803685D
:101AF0009A430B1D1A60027911440A6803681A435D
:101B00000A60184A0832126803689A43154B083372
:101B10001A601A1D126803689A43124B0C331A603C
:101B20004279102A0ED11A1F126803681A430D4B0E
:101B300008331A601A1D126803681A43094B0C33E4
:101B40001A600DE00749427911440A6803681A4394
:101B50000A6005E0027911440A6803689A430A6042
:101B600070470000000401400348006840F4006032
:101B70000149086070470000000401400348006804
:101B800040F4807001490860704700000004014083
:101B900010B50121080701F0C5F800204FF0E02141
:101BA000086188610121084600F0E4FF01F048FE69
:101BB00010BD00001FB50121052001F0D3F8012060
:101BC000ADF80C0028208DF80F0003A9194800F08B
:101BD0009FF90021084600F07BF9012001900020C8
:101BE0008DF8080008208DF8090001208DF80A0002
:101BF00001A8FFF76FFF06208DF8000000208DF888
:101C0000010002208DF8020001208DF803006846D3
:101C100000F042FF00214FF4FE7001F0B3F8012103
:101C2000080701F07FF8012000F0C4FF00F088FFF2
:101C30001FBD00000008014010B50121080701F098
:101C400071F800204FF0E02108618861012100F067
:101C500091FF01F0F5FD10BD0149C860704700001B
:101C60000020024030B5044604254FF4302000F037
:101C700085F80546042D17D10C48006940F0020094
:101C80000A49086108464461006940F04000086163
:101C90004FF4302000F072F805460448006941F620
:101CA000FD71084001490861284630BD002002400E
:101CB00004200B49C96801F0010109B101200EE0BF
:101CC0000749C96801F0040109B1022007E004498D
:101CD000C96801F0100109B1032000E00420704739
:101CE000002002400348006940F08000014908617B
:101CF000704700000020024078B506460C460425D7
:101D000000200090E80200F039F80546042D24D1A7
:101D10001348006940F00100114908613480E8026D
:101D200000F02CF80546042D10D1B01C0090200CBA
:101D300000990880E80200F021F80546084800698B
:101D400041F6FE7108400649086106E00448006952
:101D500041F6FE71084002490861284678BD00003E
:101D60000020024002480349486003484860704729
:101D70002301674500200240AB89EFCD00B5024644
:101D80000423FFF795FF034603E0FFF791FF0346A7
:101D9000521E012B01D1002AF7D102B905231846A2
:101DA00000BD70B504460D4616463246294620460B
:101DB00000F0DEFC70BD70B504460D461646324696
:101DC0002946204600F0FCFC70BD10B500F026FD51
:101DD00010BD000070B50546002400F049FD13A0B9
:101DE000FEF748FA752000F0AFFD0446682C09D0D4
:101DF000214613A0FEF73EFA00F084F94669B04789
:101E0000012070BD03F0B0FF04461CB1214613A0B1
:101E1000FEF730FA782004F02BFE782003F0E4FE81
:101E2000A8B204F0D7FD0020EBE700006D7075202C
:101E3000393235302073746172742E2E2E0D0A00E3
:101E40004D50555F41444452206661696C65643A67
:101E5000206572726E6F203D202564006D70755F85
:101E6000696E6974206661696C65643A2065727296
:101E70006E6F203D2025640010B500F03FF9046925
:101E8000A04710BD70B504460D4616463246294699
:101E9000204604F0D1F870BD2DE9F84304460D4604
:101EA00016461F46DDF820803B463246294620462E
:101EB000CDF8008004F0C2F9BDE8F88310B500F059
:101EC00015F902494860084610BD000018010020BD
:101ED00030B500228B071C0F0F2303FA04F20B4BC3
:101EE0008C1053F824309343084C8D1044F825305F
:101EF00023468C1053F824308C07240F00FA04F486
:101F00002343024C8D1044F8253030BD08000140B9
:101F10002DE9F04102460025002600200023002480
:101F2000002791F803C00CF00F0591F803C00CF0E6
:101F3000100CBCF1000F03D091F802C04CEA05056B
:101F400091F800C0BCF1000F31D0146800202BE0E4
:101F50004FF0010C0CFA00F3B1F800C00CEA0306D4
:101F60009E4220D183004FF00F0C0CFA03F7BC43C4
:101F700005FA03FC4CEA040491F803C0BCF1280FF5
:101F800006D14FF0010C0CFA00FCC2F814C00AE0B4
:101F900091F803C0BCF1480F05D14FF0010C0CFAC9
:101FA00000FCC2F810C0401C0828D1D31460B1F85E
:101FB00000C0BCF1FF0F34DD546800202EE000F1BA
:101FC000080C4FF0010808FA0CF3B1F800C00CEA55
:101FD00003069E4221D183004FF00F0C0CFA03F749
:101FE000BC4305FA03FC4CEA040491F803C0BCF1BD
:101FF000280F05D100F1080C08FA0CF8C2F814807B
:1020000091F803C0BCF1480F07D100F1080C4FF064
:10201000010808FA0CF8C2F81080401C0828CED33A
:102020005460BDE8F0810000F0B50A4600230024AA
:102030000021002500F00046B6F1004F02D11D4EF0
:10204000F16901E01B4E7168C0F3034583B200F4EF
:102050004016B6F5401F08D121F07061154E766824
:1020600026F07066134F7E6012E000F48016B6F51D
:10207000801F06D1032606FA05F4A14341F07061E2
:1020800006E0460D360103FA06F6B14341F07061F1
:1020900022B1460D360103FA06F6314300F0004640
:1020A000B6F1004F02D1034EF16101E0014E7160C3
:1020B000F0BD0000000001400246002093680B4084
:1020C0000BB1012000E00020704702460020D368D9
:1020D0000B400BB1012000E00020704741617047C8
:1020E0000161704710B5FFF7E9FE10BD0048704769
:1020F0005C01002010B500F041F910BD10B500F0F2
:102100004BF910BD10B500F055F910BD08B5002110
:10211000214800909DF803300846491C1F4A13547B
:102120009DF802300846491C13549DF801300846BA
:10213000491C13549DF800300846491C1354184894
:1021400000909DF803300846491C13549DF8023056
:102150000846491C13549DF801300846491C135485
:102160009DF800300846491C13540E4800909DF815
:1021700003300846491C13549DF802300846491C98
:1021800013549DF801300846491C13549DF8000073
:102190005054104608BD00007F040400C602002011
:1021A0007F0302007F02010010B5044607230122CD
:1021B00021460948FFF7B0FA01210748FFF70DFB58
:1021C00000BF02210448FFF76BFA0028F9D002484B
:1021D000FFF762FA10BD0000002401402DE9F04134
:1021E00007460C4600253846FFF7DEFF002605E0CF
:1021F0003846FFF7D9FF0544701CC6B2A642F7DB8C
:10220000B5FBF4F080B2BDE8F081000010B54FF4EA
:1022100080510248FFF750FF10BD0000000C014044
:1022200010B54FF400610248FFF746FF10BD0000F3
:10223000000C0140024908780021014A11707047E2
:102240008001002070B502F0A5FF04464FF08041E8
:1022500006F0F6FA3F4908600846006806F0F2F812
:10226000044600223C4B05F0DBFE03D864203B49CA
:1022700008706CE03748006806F0E4F80446002275
:10228000354B05F093FD0DD23248006806F0DAF8C0
:102290000446334A334B05F0C3FE03D850202F4980
:1022A000087054E02B48006806F0CCF804462C4A2D
:1022B0002C4B05F07BFD0DD22648006806F0C2F8D5
:1022C0000446294A294B05F0ABFE03D83C2023499C
:1022D00008703CE01F48006806F0B4F80446224A43
:1022E000224B05F063FD0DD21A48006806F0AAF8EB
:1022F00004461F4A1F4B05F093FE03D828201749B8
:10230000087024E01348006806F09CF80446184A58
:10231000184B05F04BFD0DD20E48006806F092F800
:1023200004460F4A144B05F07BFE03D814200B49DA
:1023300008700CE00748006806F084F80446084A74
:102340000D4B05F033FD02D201200449087003480B
:10235000007870BD30010020000010402C010020EA
:10236000CDCCCCCCCCCC0E40295C8FC2F5280E4015
:10237000C3F5285C8FC20D40CCCC0C4010B505488D
:10238000007828B90349486880470120014908704E
:10239000004810BD7400002010B50548007828B929
:1023A000034948688047012001490870004810BD72
:1023B000840100200348007810B901200149087009
:1023C00000487047A400002000BFFEE710B50020C1
:1023D0000E4908600E48006820F070400C49086003
:1023E0000846006840F04050086000200949C1F8E4
:1023F0009C0100F011F801200449086000F00CF87D
:1024000000200449C1F8980110BD000098812142C4
:10241000000C01400080214210B50248C168022032
:10242000884710BD5800002008B50121082000F0A1
:1024300099FCC020ADF8000014208DF803000320A3
:102440008DF8020069460448FFF762FDC02102488A
:10245000FFF746FE08BD0000000C014010B500204B
:102460000E4908600E48006820F070400C49086072
:102470000846006840F04050086001200949C1F852
:102480009C01FFF7C9FF012004490860FFF7C4FF62
:1024900000200449C1F8980110BD00009881214234
:1024A000000C01400080214270B50546002416480A
:1024B000006820F07040144908600846006840F049
:1024C00000400860002614E0002010490860FFF773
:1024D000A3FF01200E49C1F898016006040E0B48C5
:1024E0007C38006808B1601CC4B2FFF795FF701C0F
:1024F000C6B2082EE8DB15B9FFF7B0FF01E0FFF721
:1025000065FF204670BD0000000C0140988121420B
:102510000080214270B504461248006820F07040E7
:10252000104908600846006840F0405008600020EC
:102530000D490860002512E0E0090B49091D0860FB
:102540006006040E01200949C1F89801FFF764FFF5
:10255000002005490860FFF75FFF681CC5B2082D21
:10256000EADB70BD000C01409881214200802142CD
:1025700010B50E48006820F070400C49086008460D
:10258000006840F04050086001200949086009498E
:10259000C1F89801FFF740FF002005490860FFF7E8
:1025A0003BFF00200349C1F8980110BD000C014019
:1025B0009C8121420080214210B50E48006820F025
:1025C00070400C4908600846006840F040500860C0
:1025D0000020094908600949C1F89C01FFF71CFF68
:1025E0000120054908600549C1F89C01FFF714FF67
:1025F00010BD0000000C0140988121420080214262
:1026000010B500241448006820F07040124908609A
:102610000846006840F00040086001200F4908604B
:10262000FFF7FAFE01200E49C1F89801FFF7F4FE0A
:1026300007E0601CC4B2FA2C03DDFFF7BDFF0120E8
:1026400010BD0648803800680028F2D10349091FF0
:10265000086000BFF4E70000000C01409C812142AB
:102660000080214210B51C480078012832D11E207C
:1026700000F026FB18B1642002F0EAFE2AE01648BA
:10268000C07801280BD1154800780A2822DB0020E9
:102690001249087012488168012088471AE000201A
:1026A0000E4908700C48407801280AD100200D49D5
:1026B000086001200C49C1F8B8010A4908310860D6
:1026C00008E00020074908600749C1F8B80105493A
:1026D0000831086010BD00001000002098000020A4
:1026E000BC000020B48121420080214208B50121B4
:1026F000082000F037FB4FF46040ADF800001020D8
:102700008DF8030003208DF8020069460148FFF7A9
:10271000FFFB08BD000C01407047000008B5012117
:10272000082000F01FFB4FF46040ADF800000320CC
:102730008DF8020000208DF8030069460648FFF777
:10274000E7FB0120054908600549C1F8B8010349C4
:102750000831086008BD0000000C0140B48121422E
:102760000080214210B50446204602F071FE10BDE3
:102770002DE9FC4104460D4616466B4606223B21D8
:10278000682000F0FEF80746BFB99DF801009DF8EB
:10279000001040EA012000B220809DF803009DF85F
:1027A000021040EA012000B228809DF805009DF843
:1027B000041040EA012000B230803846BDE8FC81B8
:1027C0002DE9FC4104460D4616466B460622432180
:1027D000682000F0D6F80746BFB99DF801009DF8C3
:1027E000001040EA012000B220809DF803009DF80F
:1027F000021040EA012000B228809DF805009DF8F3
:10280000041040EA012000B230803846BDE8FC8167
:1028100010B50446204602F037FF10BD2DE9F84FF1
:102820006B4602224121682000F0ABF89DF80100C0
:102830009DF8001040EA01200FFA80FA504605F09A
:102840008BFA80460022074B05F02EF90646064A11
:10285000064B05F06DF8044605F038F883465846F7
:10286000BDE8F88F00407540A4703D0AD743424050
:1028700010B5FFF73FFC0149086010BD7C01002046
:1028800010B5044602480068016A2046884710BD1A
:102890007C01002010B5044602480068C16920464A
:1028A000884710BD7C01002010B50249096888687E
:1028B000804710BD7C01002010B502490968C86836
:1028C000804710BD7C01002010B5024909680869E5
:1028D000804710BD7C0100201FB50121042000F0BD
:1028E00041FA03208DF80E004FF48070ADF80C0013
:1028F00048208DF80F0003A91248FFF709FB0821B3
:102900000020FFF7E5FA4FF48070009000208DF86A
:1029100004000C208DF8050001208DF806006846A3
:10292000FFF7D8F817208DF8080002208DF809006D
:1029300001208DF80A008DF80B0002A800F0ACF819
:102940001FBD00000008014070B50446FFF7ACFF52
:10295000D020FFF79FFFFFF7B7FF2046FFF79AFF52
:10296000FFF7B2FFFFF7A0FFD120FFF793FFFFF7BC
:10297000ABFF0020FFF784FF0546FFF79DFF2846C9
:1029800070BD2DE9F04106460F4614461D46FFF77F
:102990008BFF002141EA4601C8B2FFF77BFFFFF73A
:1029A00093FF20B1FFF788FF0120BDE8F081384692
:1029B000FFF770FFFFF788FFFFF776FF012101EBBC
:1029C0004601C8B2FFF766FFFFF77EFF0DE0012C5E
:1029D00004D10020FFF754FF287003E00120FFF727
:1029E0004FFF2870601EC4B26D1C002CEFD1FFF7A2
:1029F00063FF0020D9E72DE9F04105460E46174652
:102A00009846FFF751FF002141EA4501C8B2FFF7A0
:102A100041FFFFF759FF20B1FFF74EFF0120BDE84E
:102A2000F0813046FFF736FFFFF74EFF00240CE041
:102A300018F80400FFF72EFFFFF746FF18B1FFF765
:102A40003BFF0120EBE7601CC4B2BC42F0DBFFF7A8
:102A500033FF0020E3E700BFFEE7000070B5034648
:102A6000FF24FF2509E011F8010B80EA0402074862
:102A7000805C80EA05040648855C181EA3F1010607
:102A8000F3B2F0D145EA042070BD0000EA8D0008E1
:102A9000EA8E00087047000070B5002100230F2265
:102AA000C47804B3154C246804F4E064C4F5E0640D
:102AB000210AC1F10403CA40447804FA03F184787E
:102AC0001440214309010E4C0678A155047804F006
:102AD0001F050124AC4005786D11AD0005F1E0251E
:102AE000C5F8004109E0047804F01F050124AC405A
:102AF000044D0678761145F8264070BD0CED00E0D7
:102B000000E400E080E100E002490143024A116074
:102B1000704700000000FA050CED00E00648006870
:102B200000F4E06005490843001D03490860BFF355
:102B30004F8F00BFFEE700000CED00E00000FA053B
:102B40000A48006840F00400084908600846006828
:102B500040F0020008600648006840F004000449A4
:102B6000086000BF00BF30BF704700000070004029
:102B700010ED00E010B5024600200C4B186820F064
:102B80000300104318600A4B1B6843F00403084C11
:102B90002360012901D130BF00E020BF044B1B6836
:102BA00023F00403024C236010BD000000700040BD
:102BB00010ED00E00149086070470000A0000E42DF
:102BC000704700001FB50121092000F0CBF801215A
:102BD0003848FFF729FA4FF48050ADF80C00042074
:102BE0008DF80F0003208DF80E0003A93248FFF77F
:102BF0008FF90820ADF80C0048208DF80F00032055
:102C00008DF80E0003A92C48FFF782F91020ADF8CB
:102C10000C008DF80F0003208DF80E0003A9264844
:102C2000FFF776F90020254908604FF40060ADF801
:102C30000C0048208DF80F0003208DF80E0003A92A
:102C40001D48FFF765F90B210120FFF741F94FF40B
:102C50000060009000208DF8040010208DF8050021
:102C600001208DF806006846FEF734FF0C21012094
:102C7000FFF72EF94FF48050009000208DF80400EB
:102C800010208DF8050001208DF806006846FEF73B
:102C900021FF28208DF8080002208DF8090003206C
:102CA0008DF80A0001208DF80B0002A8FFF7F4FE52
:102CB0001FBD000000023000000C01409081214245
:102CC00010B504460E480068A8B90E480078401CAC
:102CD0000C4908700C48816803208847094800782F
:102CE000A04206DB08494868804700200449843137
:102CF0000860012010BD00200249087000BFF9E7FC
:102D00000C8121422D010020BC0000200146002042
:102D1000034A506820F44040084350607047000068
:102D20000010024029B1064AD2690243044BDA611D
:102D300004E0034AD2698243014BDA617047000024
:102D40000010024029B1064A12690243044B1A617D
:102D500004E0034A12698243014B1A617047000084
:102D60000010024029B1064A92690243044B9A615D
:102D700004E0034A92698243014B9A617047000064
:102D80000010024029B1064AD2680243044BDA60BF
:102D900004E0034AD2688243014BDA6070470000C6
:102DA0000010024030B500210022002400232D4DE8
:102DB0006D6805F00C0121B1042905D0082923D143
:102DC00005E0294D056022E0274D05601FE0254DF7
:102DD0006D6805F47012234D6D6805F4803402258A
:102DE00005EB92421CB9214D554305600BE01D4D8A
:102DF0006D6805F400351DB11C4D5543056002E0BA
:102E0000194D5543056002E0174D056000BF00BF36
:102E1000144D6D6805F0F0010909154D6B5C0568EE
:102E2000DD4045600F4D6D6805F4E061090A104D05
:102E30006B5C4568DD4085600A4D6D6805F4605146
:102E4000C90A0B4D6B5C4568DD40C560054D6D687A
:102E500005F44041890B074D6B5CC568B5FBF3F584
:102E6000056130BD0010024000127A0000093D00EB
:102E70003C0000204C00002070B5044620252B4665
:102E8000224680210248007800F0C4F970BD00009D
:102E90001800002010B503460020054C234403E031
:102EA00013F8014B0C54401C9042F9DB10BD00009C
:102EB0000000010872B6FFF731FE000010B5FEF702
:102EC000AFFC0A4800F0C6FD4FF0804000F0C2FDA4
:102ED0000748FEF7A9FB074801F010F8064801F083
:102EE0000DF8064801F00AF810BD00000008004087
:102EF00000240140003801400044004000480040E8
:102F00001CB502F0DFFA00F09DF800F04BF90F4815
:102F100000F0DDF800F02EF80D4800F0ABF97F204E
:102F200000F0B0F9062000F017F800BF00F076F8C6
:102F30000628FBD1032000210B460A46CDE90010EC
:102F40000448007800F0DFF91CBD000080C3C9010F
:102F500040420F001800002038B5044600200090C1
:102F600034208DF800008DF801400221684600F001
:102F700039FA38BD70B5002408E0601C84B22649D7
:102F80000819294600F02EFA601984B22248055D1E
:102F9000002DF2D1002141F2062000F07BF9002142
:102FA0004FF4905000F076F9012141F2092000F031
:102FB00071F92A2141F2082000F06CF9002141F258
:102FC0000A2000F067F9002141F20D2000F062F9BB
:102FD000012141F20E2000F05DF9002141F20F20A5
:102FE00000F058F9002141F2102000F053F90021BF
:102FF00041F2112000F04EF9202141F2122000F0A0
:1030000049F9002141F2132000F044F9002141F276
:10301000142000F03FF970BDEA8F000808B50020C9
:10302000009033208DF800000121684600F0DAF9A5
:103030000321684600F094F89DF8010000F00F00AD
:1030400008BD000008B501210820FFF78BFE102005
:103050008DF8030001208DF802000220ADF8000079
:1030600069460948FEF754FF48208DF80300012007
:10307000ADF8000069460448FEF74AFF0221024805
:10308000FFF72CF808BD0000000C014010B500F05F
:10309000C7F94FF47A7002F0DBF9FFF731FF10BD8A
:1030A00038B504460020009020208DF80000002054
:1030B0008DF801008DF802008DF8030004216846A8
:1030C00000F090F90921204600F04AF838BD1CB5FF
:1030D000044600200090019002208DF8000001209D
:1030E0008DF8010000208DF80200200E8DF80300FD
:1030F000200C8DF80400200A8DF80500E0B28DF850
:1031000006000721684600F06DF91CBD70B5044645
:103110000025002600F040F91048006820F010005B
:103120000E490860772002F037FAFF2002F034FAE7
:1031300005462E4604E0FF2002F02EFA04F8010BAB
:10314000281EA5F10101CDB2F5D10448006840F078
:10315000100002490860304670BD00000C080140B4
:1031600070B504460D4600F017F90D48006820F0D0
:1031700010000B490860442002F00EFA04E0FF2022
:1031800002F00AFA2070641C281EA5F10101CDB2DC
:10319000F5D10348006840F010000149086070BD97
:1031A0000C08014010B50B48006840F002000949C6
:1031B0000860142002F07CF90648006820F0020044
:1031C000044908600448006840F0100002490860A3
:1031D00010BD00000C0C01400C08014008B5002097
:1031E000009015208DF8000002208DF801000221CA
:1031F000684600F0F7F808BD08B5002000901520DB
:103200008DF8000002208DF801000221684600F0D0
:10321000E9F808BD2DE9F0410746884615461C46E9
:103220002646FFF7E9FF1248006820F01000104919
:103230000860662002F0B0F9701CC6B2204602F0A9
:10324000ABF903E015F8010B02F0A6F9201EA4F17A
:103250000101CCB2F6D10648006840F010000449E4
:10326000086032464146384600F076F8BDE8F08105
:103270000C08014010B50446214642F2030000F05C
:1032800022F810BD10B50446214642F2012000F09C
:1032900001F810BD7CB504460D4600200090019059
:1032A00011208DF8000020128DF8010001208DF80A
:1032B0000200E0B28DF803008DF804500521684645
:1032C00000F090F87CBD7CB505460C4600200090CF
:1032D000019011208DF8000028128DF801000320C4
:1032E0008DF80200E8B28DF80300200C8DF8040080
:1032F000200A8DF80500E0B28DF806000721684627
:1033000000F070F87CBD2DE9FC4705460F461446D9
:103310001E46DDE90A89002000900190FFF75EFF5C
:10332000FFF76AFF32208DF800008DF801508DF80C
:103330000270E0B200128DF80300E0B28DF80400D4
:103340008DF805608DF806808DF807900821684695
:1033500000F048F8BDE8FC877CB506460D461446EB
:1033600000200090019031208DF800008DF8016060
:103370008DF80250E0B200128DF80300E0B28DF833
:10338000040000208DF805008DF80600072168462E
:1033900000F028F87CBD000070B5002500BF104883
:1033A000006820F010000E490860442002F0F4F894
:1033B000FF2002F0F1F804460948006840F01000D0
:1033C000074908602846691C8DB2B0F57A7F02D1A2
:1033D000FFF75CFE01E0FF2CE1D100BF70BD0000F3
:1033E0000C08014070B504460D46FFF7D5FF0B48A9
:1033F000006820F010000949086003E0207802F01E
:10340000CBF8641C281EA5F10101CDB2F6D103480A
:10341000006840F010000149086070BD0C080140D0
:1034200008B501210420FFF79DFC0820ADF800003D
:1034300010208DF8030003208DF80200694604482F
:10344000FEF766FD08210248FEF748FE08BD0000B1
:103450000008014021B1028842F04002028004E0ED
:1034600002884FF6BF731A400280704710B50446B9
:103470001148844208D101218014FFF783FC002108
:10348000A014FFF77FFC16E00C48844208D101210C
:103490000014FFF757FC00212014FFF753FC0AE04B
:1034A0000748844207D10121C013FFF74BFC0021DC
:1034B000E013FFF747FC10BD00300140003800402A
:1034C000003C00400246002013890B400BB1012054
:1034D00000E00020704710B50022028802F441523B
:1034E0000B884C8823438C882343CC8823430C8946
:1034F00023434C8923438C892343CC8923431A4398
:103500000280838B4FF2FF74234083830B8A0382F4
:1035100010BD704700487047EC00002010B500F067
:1035200001F810BD0CB500200190009033480068F0
:1035300040F480303149086000BF3048006800F432
:10354000003000900198401C0190009818B9019833
:10355000B0F5A06FF1D12948006800F4003010B137
:103560000120009001E0002000900098012843D144
:103570002348006840F010002149086008460068B0
:1035800020F0030008600846006840F00200086070
:103590001A4840681949486008464068486008462B
:1035A000406840F4806048600846406820F47C1021
:1035B00048600846406840F4E810486008460068E3
:1035C00040F08070086000BF0C48006800F0007098
:1035D0000028F9D00948406820F0030007494860F6
:1035E0000846406840F00200486000BF0348406859
:1035F00000F00C000828F9D10CBD000000100240BA
:10360000002002407CB57348FFF74AFD7148C0783E
:1036100000F0100000286ED06F48FFF777FD0446D9
:10362000002C69D06C486D49086000240846006889
:10363000007866287AD1084600684078652875D1F8
:103640000846006880786649097888426ED16348E8
:103650000068C07863490978884267D15F4800688C
:10366000C07B642862D10E215C48006801F08CFEAA
:103670005D49087059480068807B0978884204D009
:1036800040215548FCF76AFF7CBD544800688079AA
:1036900048B3524800680079552804D04F48006864
:1036A0000079562808D14D48006800794C490870C7
:1036B000084600784D4908734848006880794949B0
:1036C000087008460178494841734948182247491B
:1036D00043680020984742480378424802786B21AB
:1036E00044A0FCF7C7FD3D480068007A012804D1DA
:1036F0004349487108E02CE018E038480068007A37
:1037000010B900203E4948713E48FFF7B5FB012043
:103710003B49487000203C49086020213948FCF7AB
:103720001DFF40212C48FCF719FFADE70620FFF7ED
:1037300013FC00BFFFF772FC0628FBD10320002119
:103740000B460A46CDE9001026480078FFF7DBFD5E
:103750003DE0224800680078992818D11F48006889
:103760004078332813D11D480068807A00F0F805AE
:10377000ED100D2D2BD120212448FEF7B1FC642043
:1037800001F066FE20212148FEF7A8FC1FE01E483C
:103790000068401C1C49086008460068B0F5FA6FD4
:1037A00015DB00200860164948700620FFF7D4FB9F
:1037B00000BFFFF733FC0628FBD1032000210B4696
:1037C0000A46CDE9001007480078FFF79CFD00BFCE
:1037D0005AE700004002002049020020E8000020D3
:1037E0001900002018000020E0000020D202002074
:1037F0005401002025642D3E25782025780D0A00EF
:10380000100000208A020020E4000020000C01408B
:10381000042808D14FF0E021096941F004014FF07C
:10382000E022116107E04FF0E021096921F0040175
:103830004FF0E0221161704710B500F027FB10BD7A
:1038400010B51348006840F00100114908600846AF
:103850004068104908400E494860084600680E4913
:1038600008400B4908600846006820F48020086082
:103870000846406820F4FE0048604FF41F0088604E
:10388000FFF74CFE4FF000600449086010BD0000D7
:10389000001002400000FFF8FFFFF6FE08ED00E018
:1038A00010B50121880700F0C9F948B10121880746
:1038B00000F0C0F800F02CFC00F0DAFBFEF796F800
:1038C00010BD7FB505460C4601210846FFF72AFAD0
:1038D000ADF80850ADF804400020ADF80A00ADF88E
:1038E000060001A94FF0804000F0C2F90122114604
:1038F000900700F0B4F91C208DF8000000208DF82E
:10390000010002208DF8020001208DF803006846B6
:10391000FFF7C2F80121880700F08FF87FBD000093
:1039200010B50121094800F089F968B10121074863
:1039300000F080F806480078401C054908700548EA
:103940000078401C0349087010BD000000040040CE
:1039500098000020990000207FB505460C46012103
:103960000220FFF7DFF9ADF80850ADF80440002061
:10397000ADF80A00ADF8060001A90E4800F078F98C
:10398000012211460B4800F06AF91D208DF8000055
:1039900000208DF8010003208DF8020001208DF831
:1039A00003006846FFF778F80121024800F045F867
:1039B0007FBD00000004004010B50121044800F064
:1039C0003DF918B10121024800F034F810BD0000A3
:1039D000000800407FB505460C4601210420FFF792
:1039E000A1F9ADF80850ADF804400020ADF80A0088
:1039F000ADF8060001A90E4800F03AF9012211467F
:103A00000B4800F02CF91E208DF8000000208DF8E6
:103A1000010004208DF8020001208DF803006846A3
:103A2000FFF73AF80121024800F007F87FBD0000D7
:103A300000080040CA430282704721B1028842F068
:103A40000102028004E002884FF6FE731A400280F1
:103A50007047000010B504466848844208D101212F
:103A6000C014FFF78FF90021E014FFF78BF9C4E0D1
:103A7000B4F1804F08D101210846FFF763F9002116
:103A80000120FFF75FF9B8E05D48844208D10121C9
:103A90000220FFF757F900210220FFF753F9ACE0AD
:103AA0005848844208D101210420FFF74BF9002136
:103AB0000420FFF747F9A0E05348844208D10121D0
:103AC0000820FFF73FF900210820FFF73BF994E0B9
:103AD0004E48844208D101211020FFF733F900211C
:103AE0001020FFF72FF988E04948844208D10121CE
:103AF0002020FFF727F900212020FFF723F97CE0A1
:103B00004448844208D101214014FFF73BF90021C9
:103B10006014FFF737F970E03F48844209D1012172
:103B2000C804FFF72FF900214FF40020FFF72AF90E
:103B300063E03A48844209D101210805FFF722F9E0
:103B400000214FF48010FFF71DF956E034488442FD
:103B500009D101214805FFF715F900214FF40010A4
:103B6000FFF710F949E02F48844208D10121402095
:103B7000FFF7E8F800214020FFF7E4F83DE02A488D
:103B8000844208D101218020FFF7DCF80021802049
:103B9000FFF7D8F831E02548844208D1012180158B
:103BA000FFF7D0F80021A015FFF7CCF825E020485A
:103BB000844209D101210804FFF7E4F800214FF401
:103BC0008030FFF7DFF818E01A48844209D101215C
:103BD0004804FFF7D7F800214FF40030FFF7D2F880
:103BE0000BE01548844208D101218804FFF7CAF888
:103BF00000214FF48020FFF7C5F810BD002C0140D4
:103C00000004004000080040000C0040001000408C
:103C10000014004000340140004C014000500140BD
:103C20000054014000180040001C004000200040EB
:103C300000400140004401400048014030B50246C8
:103C4000002000230024158A05EA0103958905EA6E
:103C5000010413B10CB1012000E0002030BD1AB105
:103C600083890B43838102E083898B43838170477F
:103C7000002202881D4B98420ED01D4B98420BD05B
:103C8000B0F1804F08D01B4B984205D01A4B984298
:103C900002D01A4B984204D14FF68F731A404B88CA
:103CA0001A43174B984207D0164B984204D04FF650
:103CB000FF431A40CB881A4302808B8883850B8888
:103CC00003850A4B98420BD0094B984208D00E4B03
:103CD000984205D00D4B984202D00D4B984201D12D
:103CE0000B7A03860123838270470000002C014079
:103CF000003401400004004000080040000C004077
:103D00000010004000140040004001400044014009
:103D10000048014008B50B490978891CC8B20A4916
:103D2000FEF79CFE00900848801C0649096808447C
:103D3000BDF80010018003480068801C014908603C
:103D400008BD0000DC000020AA02002010B50848D1
:103D50000088801C81B2074801F016FB04490A68FC
:103D60000968491C024B19600249891C885410BD1E
:103D7000DC000020AA02002000200449086077200F
:103D8000034908707620487070470000DC0000206E
:103D9000AA02002070B505460C460749074A12687A
:103DA000881822462946FCF794FB04480068204402
:103DB0000249086070BD0000AC020020DC00002059
:103DC00070B504462046FCF765FB05460849094ADC
:103DD000126888182A462146FCF77BFB2046FCF730
:103DE00059FB0449096808440249086070BD000095
:103DF000AC020020DC00002001B506480649096835
:103E00000844BDF80010018003480068801C024986
:103E1000086008BDAC020020DC0000200549064A0D
:103E200012681144086004490968091D024A1160BA
:103E300070470000AC020020DC00002004490A6842
:103E40000968491C024B19600249885470470000F8
:103E5000DC000020AC0200207521044802680068E4
:103E6000401C024B1860024881547047DC0000205F
:103E7000AC02002000487047AA02002002480088D7
:103E8000801C80B270470000DC00002002480068FF
:103E9000401C0149086070475400002008B501210A
:103EA0000820FEF75FFF4FF40070ADF8000010200F
:103EB0008DF8030003208DF8020069460848FEF7DC
:103EC00027F84FF48070ADF8000048208DF803000B
:103ED00003208DF8020069460148FEF719F808BD75
:103EE000000C014021B1828942F40052828104E039
:103EF00082894DF6FF731A408281704710B50446DF
:103F00002048844209D101218803FEF73BFF0021AC
:103F10004FF48040FEF736FF32E01B48844209D15F
:103F200001214804FEF70EFF00214FF40030FEF798
:103F300009FF25E01548844209D101218804FEF7D4
:103F400001FF00214FF48020FEF7FCFE18E010482E
:103F5000844209D10121C804FEF7F4FE00214FF488
:103F60000020FEF7EFFE0BE00A48844208D1012151
:103F70000805FEF7E7FE00214FF48010FEF7E2FE91
:103F800010BD0000003801400044004000480040DF
:103F9000004C0040005000402DE9F04786B0054637
:103FA0000E460024A24600BFA1460027B08900B1FA
:103FB00000BF2F462C8A4CF6FF700440F088044363
:103FC0002C82AC894EF6F3100440B0883189084346
:103FD000718908430443AC81AC8A4FF6FF4004402A
:103FE000B0890443AC8201A8FEF7DCFE1F4887427B
:103FF00002D1DDF810A001E0DDF80CA0A88900F4E2
:10400000004040B10AEBCA0000EB0A1031684900D9
:10401000B0FBF1F807E00AEBCA0000EB0A103168C8
:104020008900B0FBF1F86420B8FBF0F0040120092E
:10403000642101FB1089A88900F4004040B13220BE
:1040400000EBC900B0FBF1F000F00700044308E00A
:10405000322000EB09106421B0FBF1F000F00F00FA
:1040600004432C8106B0BDE8F08700000038014011
:1040700010B51949886980471849087008460078C2
:10408000142819DC16480078401C154908700020D7
:1040900014490870124800780A281CDD12A0FCF7A9
:1040A000E9F801201849C8700C480078012812D19D
:1040B0000020164908600EE00020094908700948F0
:1040C0000078401C07490870084600780A2802DD7D
:1040D00000200D49C87010BD3401002016000020DA
:1040E0001C0000201D000020705F466C61672E6977
:1040F000735F4C6F7742617474657279203D2074F0
:104100007275650D0A0000001000002090812142A8
:1041100010B5104800784006000E0E4908700E4990
:1041200008698047012806D10A48007840F001005C
:104130000849087002E00020064908700548007828
:10414000FF2803D101200549887002E000200349BF
:10415000887010BD1B0000203401002010000020DA
:1041600000BFFEE708B501210820FEF7FBFD202077
:10417000ADF8000010208DF8030003208DF8020038
:1041800069460248FDF7C4FE08BD0000000C01406E
:1041900003B5ABB0FE48B0F900102B98B0F90000A1
:1041A000081A42F21071884215DCF948B0F9021081
:1041B0002B98B0F90200081A42F2107188420ADC0A
:1041C000F348B0F904102B98B0F90400081A42F231
:1041D0001071884208DDEF480068401CED49086016
:1041E000032801DA2DB000BD0020EA4908602790BD
:1041F0002890299024902590269021902290239019
:104200001E901F9020902B980088E14908802B98E1
:10421000408848802B98808888802B98B0F90000CF
:104220000D9004F0ADFA0E90DB4801680E9804F092
:1042300007FB27902B98B0F902000D9004F0A0FA2C
:104240000E90D54801680E9804F0FAFA28902B9841
:10425000B0F904000D9004F093FA0E90CE48016876
:104260000E9804F0EDFA29902C98B0F900000D900A
:1042700004F086FA0E90C94801680E9804F0E0FA3E
:1042800024902C98B0F902000D9004F079FA0E9069
:10429000C24801680E9804F0D3FA25902C98B0F922
:1042A00004000D9004F06CFA0E90BC4801680E9862
:1042B00004F0C6FA2690279801460E90B848006888
:1042C00001F0A8F92790289801460E90B54800689B
:1042D00001F0A0F92890299801460E90B248006894
:1042E00001F098F92990249801460E90AF48006893
:1042F00001F090F92490259801460E90AC48006892
:1043000001F088F92590269801460E90A94800688A
:1043100001F080F926902998059004F093F8002286
:104320004FF08043CDE9060102F00AFCCDE90A0115
:104330002898019004F086F800224FF08043CDE9E0
:10434000020102F0FDFBCDE906012798019004F07F
:1043500079F800224FF08043CDE9020102F0F0FB32
:10436000CDE90401DDE9062303F0E2FACDE9080115
:10437000DDE90A2303F0DCFACDE90C0103F0A6FA2B
:104380001D908D491D98096849698B4A126842F849
:1043900021008948006800698749096851F82000B0
:1043A0000E908548006840698349096851F82000EB
:1043B0000D900E9904F004FC1C9080481C99006834
:1043C00004F06CF87D4908607D497C48006804F081
:1043D000D9F81B90784800684069401CC1170E90BE
:1043E00000EB917081100E98A0EB81007249096872
:1043F0004861714800680069401CC1170E9000EBCD
:10440000917081100E98A0EB81006B4909680861DA
:104410006C491D980968D1F8D8176A4A126842F8A1
:10442000210068480068D0F8D4076649096851F847
:1044300020000E9063480068D0F8D80761490968E9
:1044400051F820000D900E9904F0BAFB1A905E48C6
:104450001A99006804F022F85B4908605B495A48E1
:10446000006804F08FF8199056480068D0F8D80713
:10447000401C40F2F51190FBF1F201FB1200514992
:104480000968C1F8D8074F480068D0F8D407401C25
:1044900040F2F51190FBF1F201FB12004949096865
:1044A000C1F8D4074A482499006800F58050D0F834
:1044B000D402474A126842F82010454825990068FE
:1044C00000F58050D0F8D4224148006800F2B44092
:1044D00040F822103E482699006800F58050D0F838
:1044E000D4223B48006800F6681040F82210384893
:1044F000006800F58050D0F8D0023549096851F8BD
:1045000020000E903248006800F58050D0F8D402A8
:104510002F49096851F820000D900E9904F050FBC6
:1045200018902B48006800F58050D0F8D012284829
:10453000006800F2B44050F821000E902448006852
:1045400000F58050D0F8D4122148006800F2B44041
:1045500050F821000D900E9904F032FB17901C4882
:10456000006800F58050D0F8D0121948006800F6B5
:10457000681050F821000E901548006800F5805032
:10458000D0F8D4121248006800F6681022E000004B
:104590002002002028020020F40100200002002058
:1045A000D0010020D4010020D8010020DC0100202F
:1045B000E0010020E4010020E801002008020020C2
:1045C00000004040EC010020040200200000FA43FB
:1045D000F001002050F821000D900E9904F0F0FA3F
:1045E0001690FE4800680E90189903F057FFFB499B
:1045F0000860084640680E90179903F04FFFF7498E
:104600004860084680680E90169903F047FFF3490A
:10461000886008460068F2490E9003F0B3FF2190CD
:10462000EE484068EE490E9003F0ACFF2290EB4854
:104630008068EB490E9003F0A5FF23902398059026
:1046400003F000FF00224FF08043CDE9060102F0A5
:1046500077FACDE90A012298019003F0F3FE0022D7
:104660004FF08043CDE9020102F06AFACDE906017C
:104670002198019003F0E6FE00224FF08043CDE93F
:10468000020102F05DFACDE90401DDE9062303F041
:104690004FF9CDE90801DDE90A2303F049F9CDE935
:1046A0000C0103F013F90E9002F0A4FF1590CD4811
:1046B000159903F067FF149021980E90149904F057
:1046C000BFF8219022980E90149904F0B9F8229026
:1046D00023980E90149904F0B3F8239021980E902B
:1046E00024980D900E9904F06BFA1E9022980E906B
:1046F00025980D900E9904F063FA1F9023980E9060
:1047000026980D900E9904F05BFA20902098059061
:1047100003F098FE00224FF08043CDE9060102F03D
:104720000FFACDE90A011F98019003F08BFE0022D9
:104730004FF08043CDE9020102F002FACDE9060113
:104740001E98019003F07EFE00224FF08043CDE9D9
:10475000020102F0F5F9CDE90401DDE9062303F0D9
:10476000E7F8CDE90801DDE90A2303F0E1F8CDE936
:104770000C0103F0ABF813909B491398096801F5FD
:104780008051D1F8D4229849096801F61C6141F89A
:1047900022009548006800F58050D0F8D012924869
:1047A000006800F61C6050F821000E908E480068EA
:1047B00000F58050D0F8D4128B48006800F61C60D9
:1047C00050F821000D900E9904F0FAF912908748E4
:1047D0001299006803F062FE8449086080498348AA
:1047E000006803F0CFFE11907F48006800F580500C
:1047F000D0F8D402401C40F22D1190FBF1F201FBE5
:1048000012017948006800F58050C0F8D41276484B
:10481000006800F58050D0F8D002401C40F22D1105
:1048200090FBF1F201FB12016F48006800F5805027
:10483000C0F8D0126E496F48006803F0CDFF14D263
:104840006B491B9803F0C8FF0FD26B480068401CEF
:10485000694908600846016841F28830814207DDF5
:104860004FF496716448016002E0002162480160E3
:1048700061480068032807DB5D491B9803F0ACFF23
:1048800002D200215D4801701B9803F0DBFD5C4AF9
:104890005C4BCDE90C0103F0C3FB02D80121574862
:1048A000017054491B980860199810905649109847
:1048B00004F092F801D854481090544801681098B8
:1048C00003F0BEFF10905249119803F05BFE0F9069
:1048D00050490F9804F080F801D84E480F904E4888
:1048E00001680F9803F0ACFF0F904FF07C500F99C8
:1048F00003F0A6FF0E904FF07C50109903F0A0FF3C
:104900000D900E9903F0CAFD444908604FF08041B4
:104910004248006803F094FF4049086040493F481E
:10492000006803F059FF08D24FF07E513B48006801
:1049300003F086FF394908603BE03A493748006890
:1049400004F04AF813D836493448006803F044FFAD
:104950000DD24FF07E513148006803F071FF4FF0E7
:104960007E510E9003F09AFD2C49086021E02C49FD
:104970002A48006804F030F813D82B49274800680B
:1049800003F02AFF0DD24FF07E512448006803F057
:1049900057FF4FF07F510E9003F080FD1F490860D4
:1049A00007E04FF07E511D48006803F049FF1B49A6
:1049B000086017491948006804F00EF802D8144836
:1049C0001649086019491548006803F039FF134972
:1049D0000860084600680E900E9829E0781E0020B6
:1049E000000096430AE81C41F0010020100200205C
:1049F000CDCC4C3F0C0200201402002018020020F5
:104A00009A9999999999E93F0000C841F8010020C5
:104A10000000204100004842FC0100201C02002050
:104A20000000F0400000E040000008410000C842E3
:104A300020F00040C0F1FF40C00F18B14FF4967055
:104A400000F010F800BFFFF7CDBB00000148006880
:104A5000704700001C0200200148007870470000E9
:104A60001802002070B5044620213748FBF798FD56
:104A700020213648FBF794FD20213548FBF790FDB7
:104A800020213448FBF78CFD20213348FBF788FDBB
:104A900020213248FBF784FD204603F089FE0546BD
:104AA0002F4A29462F48006800F0F2FA204603F00A
:104AB0007FFE05462A4A29462B48006800F0E8FA9E
:104AC000204603F075FE0546254A2946274800681A
:104AD00000F0DEFA204603F06BFE0546204A294628
:104AE0002348006800F0D4FA204603F061FE054632
:104AF0001B4A29461F48006800F0CAFA204603F006
:104B000057FE0546164A29461B48006800F0C0FAC1
:104B10001A48006800F0C8FD1948006800F020FE3F
:104B20001848006800F0DDFD0020174908601749AB
:104B3000086015490860164908601649086016495A
:104B400008604860886070BDEC0200200C03002003
:104B50002C0300204C0300206C0300208C03002059
:104B600000007041D0010020D4010020D8010020B5
:104B7000DC010020E0010020E4010020E801002029
:104B8000EC010020F00100200402002008020020B7
:104B90001002002014020020781E002000487047F8
:104BA0002C02002030B589B00020049005900290BE
:104BB00003905948006880B1002057499831086037
:104BC00001205649C1F8B401C1F8BC01544800782D
:104BD00040F001005249087005E05148007820F08B
:104BE00001004F4908704F490968C868804780B183
:104BF000002049499C31086001204849C1F8B401AE
:104C0000C1F8B8014648007840F0020044490870F5
:104C100005E04348007820F002004149087042490D
:104C20000968496888698047002872D03E48006852
:104C3000016908A8884706A800903B4800684068BA
:104C400007AB08AA04A9846802A8A047002860D17D
:104C50003448006804A9826802A89047334909686B
:104C600048698047314800680168314800788847C2
:104C70002E480068042102692E4890472B4800689E
:104C800001682748007888472649096808698047ED
:104C9000054603F055FD84B224480068416820466B
:104CA0008847224800680168002088471F4800683C
:104CB00001682148007888471C4800680168002086
:104CC00088471A480068016800208847FDF71EFAE7
:104CD0000446164800680C21026920469047134993
:104CE0000968086A8047114800680168752088478C
:104CF0000E490968886A80471049C8830B490968CA
:104D0000486A804704460D48C28B2146401CFBF789
:104D1000E0FB09B030BD000020812142008021422B
:104D20001A0000200C0000200400002008000020D1
:104D30001900002024000020160000208A02002014
:104D40002DE9F04705460E4614460027B846FDF704
:104D500009F83420FCF780FF1248FCF783FF124962
:104D6000087008460078042817D100BF0FE006EB52
:104D7000080000F080F981460A4968184946FCF7A6
:104D8000BBFF094908702D1D08F104087F1CE117BD
:104D900004EB9171B7EBA10FE9DBFCF7A3FFBDE8D2
:104DA000F08700000000010850010020490050EA8F
:104DB000C12018BF04204A0D18BF40F0010040F286
:104DC000FF72B2EB515F08BF40F00200012808BF3C
:104DD000052070474100080218BF04200A0E18BFC2
:104DE00040F001004FF07F4232EA010108BF40F07D
:104DF0000200012808BF052070472DE9F0414F1E31
:104E000000EBC7010446D1E9000115461E4637F004
:104E100006020DD02A46334603F004F87F1E04EB49
:104E2000C703D3E9002302F083FD37F00602F1D176
:104E3000022F25D0042F13D0062F18BFBDE8F08114
:104E40002A46334602F0EEFFD4E90A2302F070FD51
:104E50002A46334602F0E6FFD4E9082302F068FD53
:104E60002A46334602F0DEFFD4E9062302F060FD55
:104E70002A46334602F0D6FFD4E9042302F058FD57
:104E80002A46334602F0CEFFD4E9022302F050FD59
:104E90002A46334602F0C6FFD4E90023BDE8F041BC
:104EA00002F046BD002213461046014902F0FCBD47
:104EB0000000F03F02F03CBD0022134610461146B0
:104EC00002F0F2BD40F2013200204FF0E04103F069
:104ED00020BF0000024A0020110703F01ABF0000A3
:104EE00001FDFFFF012103F042BF0021084603F04E
:104EF00049BB6FF05E01080703F039BF2DE9F04DA3
:104F00000D4614464FF07F41B1EB440F9EBF4FF06A
:104F1000FF312960BDE8F08D4FF0004040EA0421E8
:104F2000C4F3C750783810F01F024A4B4FEA601C98
:104F3000C2F120067B44C4F3C750A0F178004FEAC9
:104F4000601003EB800053F82C3008BFD0E901C695
:104F500012D0D0F804C093402CFA06F73B43876880
:104F60000CFA02FC27FA06F8C06807FA02F2F040D1
:104F70004CEA080C42EA0006A3FB0132ACFB01C07C
:104F8000A6FB016101EB0C068E4234BF4FF0010C11
:104F90004FF0000CC1186144BCF1000F02D08142F7
:104FA00002D903E0814201D2012000E00020104438
:104FB00000F120024FEA92188006CA0C40EA423003
:104FC0004F03C5F8008003F0DBFB8246384603F050
:104FD000EFFB6FF0120103F0CAFE0746304603F004
:104FE000E7FB6FF0250103F0C2FE834639465046C9
:104FF00003F054FA594603F051FA00F500666FF3D6
:105000000B065146304603F0DBFD394603F0D8FD70
:10501000594603F043FD104903F012FC07460F49BF
:10502000304603F00DFC394603F038FA07460C49C8
:10503000304603F005FC394603F030FA14F0004F17
:1050400008BFBDE8F08DC8F1805180F000402960B4
:10505000BDE8F08D90450000DB0FC92F22AAFD2985
:105060000000C92F30380A2801D2012070470020E3
:10507000704700BF70470146C87800068A7840EA4A
:1050800002404A7840EA02200A7810437047000044
:105090002DE9FF5F04460E461546002003900027C9
:1050A00002900021284603F097FB01D8BDE8FF9F3E
:1050B0002946304603F066FA03903448039903F01A
:1050C00061FA804602F0ACFA07463946384603F0EA
:1050D000B7FB83462E4800F099F84FF080410190CD
:1050E00003F0AEFB8246394603F0AAFB81464FF03F
:1050F0007E5103F0D3F98046594603F0CFF9029070
:1051000025603946384603F09BFB8046029903F040
:1051100039FAE0604FF08040E16803F091FB2061D4
:10512000E06860613946384603F08AFB82464FF0FA
:105130007E5103F045FD81464FF0804103F080FB36
:105140008046029903F01EFA60603946384603F043
:1051500077FB01900E4800F059F84FF08041009025
:1051600003F06EFB8346394603F06AFB82464FF03C
:105170007E5103F093FC8146019903F08FF980463C
:10518000029903F0FFF9A06000BF8FE7DA0F4940F2
:10519000DA0F493F2DE9FE4F03210120FDF71EF8EC
:1051A0000190019803F004FB804603F04BF906469A
:1051B0004FF06632134B02F035FE044602F086FBD8
:1051C000029003211120FDF709F8009002F0DBFDA9
:1051D000804642460B464FF033300B4902F064FCE8
:1051E00004460D46019803F0E3FA804603F02AF9DD
:1051F000064622462B4602F015FE824602F066FB6A
:10520000BDE8FE8F66664A3F3333F33F2DE9F8432E
:10521000044602464F486946B0EB420F09D94FF0A9
:10522000E640B0EB420F94BF00204FF0FF300090FB
:1052300030E0494B22F00040834271D94749204673
:1052400003F0FEFA03F0FAFB804603F05DFA00F08B
:10525000030000904249404603F0F2FA05464149F6
:10526000404603F0EDFA06463F49404603F0E8FAAF
:1052700007463E49404603F0E3FA214603F00EFCA0
:10528000394603F09DFC314603F09AFC294603F0B1
:1052900097FC04462546009C002C45DB294614F06B
:1052A000010F08461CD003F0CBFA0646304903F044
:1052B000C7FA304903F0F2FB314603F0C1FA2E4938
:1052C00003F0ECF8314603F0BBFA294603F0B8FAD4
:1052D000294603F0E3F814F0020F1CD0BDE8F88370
:1052E00003F0AEFA0546254903F0AAFA244903F073
:1052F000D5F8294603F0A4FA224903F0CFF829464D
:1053000003F09EFA4FF07E5103F0C8F814F0020F3C
:1053100008BFBDE8F88380F00040BDE8F883FFE7F0
:105320001046FFF7EBFDB4E76800B0F17F4F3CBFDC
:105330004FF07E50BDE8F88307D14FF00100FBF736
:105340005FF9BDE8F843FFF7D0BD2846BDE8F84354
:10535000FFF7C8BDB61F927E490E494683F9223F2A
:105360001A61342C0020A23300A0FD390000C93F8F
:10537000336D4C39DA82083CA0AA2ABEB93AB2BAD7
:10538000CA9F2A3DDDFFFFBE30B502460B46002016
:1053900010E012F8014B6040002109E000F0010428
:1053A0001CB18C2484EA600000E040104C1CE1B287
:1053B0000829F3DB1C1EA3F10105ABB2E9D130BD16
:1053C00010B56FF00400FEF723FA0A4800680A4996
:1053D000B0FBF1F0094908700846007800EB400185
:1053E000C1EBC0104FF6FF7101EAC000044908800C
:1053F00010BD00002800002000127A00500000209C
:10540000520000200146114A12884A434FF0E0231F
:105410005A6100229A611A46126942F001021A6129
:1054200000BF4FF0E022106900F001021AB100F451
:105430008032002AF5D04FF0E022126922F00102FA
:105440004FF0E0231A6100229A6170475200002059
:1054500010B50446024881682046884710BD000008
:10546000580000200146114A12784A434FF0E023C9
:105470005A6100229A611A46126942F001021A61C9
:1054800000BF4FF0E022106900F001021AB100F4F1
:105490008032002AF5D04FF0E022126922F001029A
:1054A0004FF0E0231A6100229A61704750000020FB
:1054B00010B504460248C1682046884710BD000068
:1054C0005800002000B587B001210420FDF74AFCF8
:1054D00001208DF81A0018208DF81B002020ADF84F
:1054E000180006A92A48FCF713FD8020ADF8180023
:1054F00006A92748FCF70CFD80212548FCF7F0FDA4
:105500004020ADF8180006A92148FCF701FD402114
:105510001F48FCF7E5FD10208DF81B00ADF81800C2
:1055200006A91B48FCF7F4FC10211948FCF7D8FD2C
:105530001848FDF79BFF01210803FDF713FC00212C
:105540001448FDF787FF0020ADF804004FF4827087
:10555000ADF806000020ADF80A00ADF80C00ADF87B
:1055600008004FF40070ADF80E002820ADF81000D0
:105570000020ADF812000720ADF8140001A905487D
:10558000FDF7A9FF01210348FDF764FF07B000BD47
:10559000000801400030014070B504460026002597
:1055A00007E0681C80B205464FF6FF71884200D1C3
:1055B00005E002210F48FDF785FF0028F1D000BF6C
:1055C00047F6FF750B48848107E0681C80B20546EA
:1055D0004FF6FF71884200D105E001210548FDF733
:1055E00071FF0028F1D000BF02488089C6B2304662
:1055F00070BD00000030014000BF054A128802F073
:105600004002002AF9D0C2B2014B1B1D1A8070471C
:10561000003801402DE9F05F04460E460021206865
:1056200003F0DAF802D83046BDE8F09FA168E069DF
:1056300003F006F981466168A06903F001F982462A
:10564000314603F02BFA8046494603F0B9FA054685
:105650006169E06903F0F4F881462169A06903F00B
:10566000EFF882462846E16803F0EAF8834651469F
:1056700002F014FF8046494602F010FF0746A06979
:10568000E061A5613846CFE70149096801607047CC
:105690005400002010B5044602480169204688479E
:1056A00010BD0000580000200021416101610CE0A4
:1056B0000021426940F822104269511CCA1701EBCF
:1056C00092729210A1EB820242614269511CCB1787
:1056D00001EB93739B10A1EB830302699A42E7D11C
:1056E0007047002241F2D4210A50091F0A5027E0D6
:1056F000002241F2D421095840F8212041F2D4215E
:105700000B5800F2B44141F8232041F2D4210B5848
:1057100000F6681141F8232041F2D4210B5800F61D
:105720001C6141F8232041F2D4210958491C40F260
:105730002D1291FBF2F302FB131241F2D4210A5015
:1057400041F2D4210958491C40F22D1291FBF2F389
:1057500002FB131241F2D02109588A42C8D1704786
:105760000021C0F8D817C0F8D4170FE00021D0F8F6
:10577000D82740F82210D0F8D817491C40F2F5126B
:1057800091FBF2F302FB1311C0F8D817D0F8D81729
:10579000491C40F2F51291FBF2F302FB1311D0F811
:1057A000D4279142E2D1704710B5044624B90021B4
:1057B000032000F019F803E00121032000F014F8A1
:1057C00010BD000010B54FF400510648FCF77DFCF9
:1057D00008B1012000E0002004462146032000F02B
:1057E00003F810BD000C014070B505460C464FF49F
:1057F00060413448FCF774FC082D60D2DFE805F006
:105800005F04111E2B3845522CB14FF400412D4836
:10581000FCF764FC04E04FF400412A48FCF760FC0C
:105820004EE02CB14FF480412648FCF757FC04E0D1
:105830004FF480412348FCF753FC41E02CB14FF476
:1058400000512048FCF74AFC04E04FF400511D4889
:10585000FCF746FC34E02CB14FF440411948FCF70A
:105860003DFC04E04FF440411648FCF739FC27E0CA
:105870002CB14FF420411348FCF730FC04E04FF406
:1058800020411048FCF72CFC1AE02CB14FF4C04129
:105890000C48FCF723FC04E04FF4C0410948FCF736
:1058A0001FFC0DE02CB14FF460410648FCF716FCDC
:1058B00004E04FF460410348FCF712FC00E000BF35
:1058C00000BF70BD000C014010B5044624B9002192
:1058D0000220FFF789FF03E001210220FFF784FF88
:1058E00010BD000010B54FF480410648FCF7EDFBF9
:1058F00008B1012000E00020044621460220FFF705
:1059000073FF10BD000C014010B54FF4C0410648B4
:10591000FCF7DBFB08B1012000E000200446214633
:105920000620FFF761FF10BD000C014010B54FF4D9
:1059300020410648FCF7C9FB08B1012000E0002027
:10594000044621460520FFF74FFF10BD000C014023
:1059500010B5044624B900210120FFF745FF03E0FC
:1059600001210846FFF740FF10BD000010B54FF4BD
:1059700000410648FCF7A9FB08B1012000E0002027
:10598000044621460120FFF72FFF10BD000C014007
:1059900010B50446082C1AD2DFE804F01904070AEF
:1059A0001013160DFFF7E2FF12E0FFF79BFF0FE069
:1059B000FFF708FF0CE000F01BF809E000F02AF800
:1059C00006E0FFF7B3FF03E0FFF79EFF00E000BF34
:1059D00000BF10BD10B5044624B900210720FFF711
:1059E00003FF03E001210720FFF7FEFE10BD0000CA
:1059F00010B54FF460410648FCF767FB08B1012081
:105A000000E00020044621460720FFF7EDFE10BD10
:105A1000000C014010B54FF440410648FCF755FB1F
:105A200008B1012000E00020044621460420FFF7D1
:105A3000DBFE10BD000C01401CB54FF4A060FDF76B
:105A400063F8504948688047FFF7BAFC4FF47A7012
:105A5000FFF7FEFC4FF4E13001F0E2FE4FF47A7004
:105A6000FFF7F6FC4FF47A70FFF7F2FC012046498D
:105A70000860FCF73BFEFEF711FAFBF703FFFFF7A8
:105A80008DF8424908600846006841684FF49670F6
:105A90008847FDF73FFD3E4908603E49486880471A
:105AA00001203C490870FCF71DFB3B490860084693
:105AB0000068406801684FF49670884701203749B4
:105AC000C1F8A401364818223649036800209847D7
:105AD0003448407BFF2804D03248407B324908706C
